{"abi":[{"type":"constructor","inputs":[{"name":"_constructorArgs","type":"tuple","internalType":"struct Governor.ConstructorArgs","components":[{"name":"name","type":"string","internalType":"string"},{"name":"prompt","type":"string","internalType":"string"},{"name":"intConstructorArgs","type":"tuple","internalType":"struct Governor.IntConstructorArgs","components":[{"name":"anyoneCanSubmit","type":"uint256","internalType":"uint256"},{"name":"contestStart","type":"uint256","internalType":"uint256"},{"name":"votingDelay","type":"uint256","internalType":"uint256"},{"name":"votingPeriod","type":"uint256","internalType":"uint256"},{"name":"numAllowedProposalSubmissions","type":"uint256","internalType":"uint256"},{"name":"maxProposalCount","type":"uint256","internalType":"uint256"},{"name":"rankLimit","type":"uint256","internalType":"uint256"},{"name":"percentageToRewards","type":"uint256","internalType":"uint256"},{"name":"costToVote","type":"uint256","internalType":"uint256"},{"name":"priceCurveType","type":"uint256","internalType":"uint256"},{"name":"multiple","type":"uint256","internalType":"uint256"},{"name":"creatorSplitEnabled","type":"uint256","internalType":"uint256"}]},{"name":"jkLabsSplitDestination","type":"address","internalType":"address"},{"name":"metadataFieldsSchema","type":"string","internalType":"string"}]}],"stateMutability":"nonpayable"},{"type":"function","name":"AMOUNT_FOR_SUMBITTER_PROOF","inputs":[],"outputs":[{"name":"","type":"uint256","internalType":"uint256"}],"stateMutability":"view"},{"type":"function","name":"COST_ROUNDING_VALUE","inputs":[],"outputs":[{"name":"","type":"uint256","internalType":"uint256"}],"stateMutability":"view"},{"type":"function","name":"JK_LABS_ADDRESS","inputs":[],"outputs":[{"name":"","type":"address","internalType":"address"}],"stateMutability":"view"},{"type":"function","name":"MAX_FIELDS_METADATA_LENGTH","inputs":[],"outputs":[{"name":"","type":"uint256","internalType":"uint256"}],"stateMutability":"view"},{"type":"function","name":"METADATAS_COUNT","inputs":[],"outputs":[{"name":"","type":"uint256","internalType":"uint256"}],"stateMutability":"view"},{"type":"function","name":"PRICE_CURVE_UPDATE_INTERVAL","inputs":[],"outputs":[{"name":"","type":"uint256","internalType":"uint256"}],"stateMutability":"view"},{"type":"function","name":"SECONDS_IN_DAY","inputs":[],"outputs":[{"name":"","type":"uint256","internalType":"uint256"}],"stateMutability":"view"},{"type":"function","name":"SECONDS_IN_HOUR","inputs":[],"outputs":[{"name":"","type":"uint256","internalType":"uint256"}],"stateMutability":"view"},{"type":"function","name":"addressTotalCastVoteCount","inputs":[{"name":"","type":"address","internalType":"address"}],"outputs":[{"name":"","type":"uint256","internalType":"uint256"}],"stateMutability":"view"},{"type":"function","name":"addressesThatHaveVoted","inputs":[{"name":"","type":"uint256","internalType":"uint256"}],"outputs":[{"name":"","type":"address","internalType":"address"}],"stateMutability":"view"},{"type":"function","name":"allProposalTotalVotes","inputs":[],"outputs":[{"name":"proposalIdsReturn","type":"uint256[]","internalType":"uint256[]"},{"name":"proposalVoteCountsArrayReturn","type":"uint256[]","internalType":"uint256[]"}],"stateMutability":"view"},{"type":"function","name":"anyoneCanSubmit","inputs":[],"outputs":[{"name":"","type":"uint256","internalType":"uint256"}],"stateMutability":"view"},{"type":"function","name":"cancel","inputs":[],"outputs":[],"stateMutability":"nonpayable"},{"type":"function","name":"canceled","inputs":[],"outputs":[{"name":"","type":"bool","internalType":"bool"}],"stateMutability":"view"},{"type":"function","name":"castVote","inputs":[{"name":"proposalId","type":"uint256","internalType":"uint256"},{"name":"numVotes","type":"uint256","internalType":"uint256"}],"outputs":[{"name":"","type":"uint256","internalType":"uint256"}],"stateMutability":"payable"},{"type":"function","name":"comment","inputs":[{"name":"proposalId","type":"uint256","internalType":"uint256"},{"name":"commentContent","type":"string","internalType":"string"}],"outputs":[{"name":"","type":"uint256","internalType":"uint256"}],"stateMutability":"nonpayable"},{"type":"function","name":"commentIds","inputs":[{"name":"","type":"uint256","internalType":"uint256"}],"outputs":[{"name":"","type":"uint256","internalType":"uint256"}],"stateMutability":"view"},{"type":"function","name":"commentIsDeleted","inputs":[{"name":"","type":"uint256","internalType":"uint256"}],"outputs":[{"name":"","type":"bool","internalType":"bool"}],"stateMutability":"view"},{"type":"function","name":"comments","inputs":[{"name":"","type":"uint256","internalType":"uint256"}],"outputs":[{"name":"author","type":"address","internalType":"address"},{"name":"timestamp","type":"uint256","internalType":"uint256"},{"name":"proposalId","type":"uint256","internalType":"uint256"},{"name":"commentContent","type":"string","internalType":"string"}],"stateMutability":"view"},{"type":"function","name":"contestAddressTotalVotesCast","inputs":[{"name":"userAddress","type":"address","internalType":"address"}],"outputs":[{"name":"userTotalVotesCast","type":"uint256","internalType":"uint256"}],"stateMutability":"view"},{"type":"function","name":"contestDeadline","inputs":[],"outputs":[{"name":"","type":"uint256","internalType":"uint256"}],"stateMutability":"view"},{"type":"function","name":"contestStart","inputs":[],"outputs":[{"name":"","type":"uint256","internalType":"uint256"}],"stateMutability":"view"},{"type":"function","name":"costToVote","inputs":[],"outputs":[{"name":"","type":"uint256","internalType":"uint256"}],"stateMutability":"view"},{"type":"function","name":"creator","inputs":[],"outputs":[{"name":"","type":"address","internalType":"address"}],"stateMutability":"view"},{"type":"function","name":"creatorSplitEnabled","inputs":[],"outputs":[{"name":"","type":"uint256","internalType":"uint256"}],"stateMutability":"view"},{"type":"function","name":"currentPricePerVote","inputs":[],"outputs":[{"name":"","type":"uint256","internalType":"uint256"}],"stateMutability":"view"},{"type":"function","name":"deleteComments","inputs":[{"name":"commentIdsParam","type":"uint256[]","internalType":"uint256[]"}],"outputs":[],"stateMutability":"nonpayable"},{"type":"function","name":"deleteProposals","inputs":[{"name":"proposalIdsToDelete","type":"uint256[]","internalType":"uint256[]"}],"outputs":[],"stateMutability":"nonpayable"},{"type":"function","name":"deletedCommentIds","inputs":[{"name":"","type":"uint256","internalType":"uint256"}],"outputs":[{"name":"","type":"uint256","internalType":"uint256"}],"stateMutability":"view"},{"type":"function","name":"deletedProposalIds","inputs":[{"name":"","type":"uint256","internalType":"uint256"}],"outputs":[{"name":"","type":"uint256","internalType":"uint256"}],"stateMutability":"view"},{"type":"function","name":"getAllAddressesThatHaveVoted","inputs":[],"outputs":[{"name":"","type":"address[]","internalType":"address[]"}],"stateMutability":"view"},{"type":"function","name":"getAllAuthorsOfDeletedProposals","inputs":[],"outputs":[{"name":"","type":"address[]","internalType":"address[]"}],"stateMutability":"view"},{"type":"function","name":"getAllCommentIds","inputs":[],"outputs":[{"name":"","type":"uint256[]","internalType":"uint256[]"}],"stateMutability":"view"},{"type":"function","name":"getAllDeletedCommentIds","inputs":[],"outputs":[{"name":"","type":"uint256[]","internalType":"uint256[]"}],"stateMutability":"view"},{"type":"function","name":"getAllDeletedProposalIds","inputs":[],"outputs":[{"name":"","type":"uint256[]","internalType":"uint256[]"}],"stateMutability":"view"},{"type":"function","name":"getAllProposalAuthors","inputs":[],"outputs":[{"name":"","type":"address[]","internalType":"address[]"}],"stateMutability":"view"},{"type":"function","name":"getAllProposalIds","inputs":[],"outputs":[{"name":"","type":"uint256[]","internalType":"uint256[]"}],"stateMutability":"view"},{"type":"function","name":"getComment","inputs":[{"name":"commentId","type":"uint256","internalType":"uint256"}],"outputs":[{"name":"","type":"tuple","internalType":"struct GovernorEngagement.CommentCore","components":[{"name":"author","type":"address","internalType":"address"},{"name":"timestamp","type":"uint256","internalType":"uint256"},{"name":"proposalId","type":"uint256","internalType":"uint256"},{"name":"commentContent","type":"string","internalType":"string"}]}],"stateMutability":"view"},{"type":"function","name":"getNumProposalsWithThisManyVotes","inputs":[{"name":"votes","type":"uint256","internalType":"uint256"}],"outputs":[{"name":"count","type":"uint256","internalType":"uint256"}],"stateMutability":"view"},{"type":"function","name":"getOnlyProposalIdWithThisManyVotes","inputs":[{"name":"votes","type":"uint256","internalType":"uint256"}],"outputs":[{"name":"proposalId","type":"uint256","internalType":"uint256"}],"stateMutability":"view"},{"type":"function","name":"getProposal","inputs":[{"name":"proposalId","type":"uint256","internalType":"uint256"}],"outputs":[{"name":"","type":"tuple","internalType":"struct Governor.ProposalCore","components":[{"name":"author","type":"address","internalType":"address"},{"name":"exists","type":"bool","internalType":"bool"},{"name":"description","type":"string","internalType":"string"},{"name":"fieldsMetadata","type":"tuple","internalType":"struct Governor.FieldsMetadata","components":[{"name":"addressArray","type":"address[]","internalType":"address[]"},{"name":"stringArray","type":"string[]","internalType":"string[]"},{"name":"uintArray","type":"uint256[]","internalType":"uint256[]"}]}]}],"stateMutability":"view"},{"type":"function","name":"getProposalComments","inputs":[{"name":"proposalId","type":"uint256","internalType":"uint256"}],"outputs":[{"name":"","type":"uint256[]","internalType":"uint256[]"}],"stateMutability":"view"},{"type":"function","name":"getProposalsWithThisManyVotes","inputs":[{"name":"votes","type":"uint256","internalType":"uint256"}],"outputs":[{"name":"proposalsWithThisManyVotes","type":"uint256[]","internalType":"uint256[]"}],"stateMutability":"view"},{"type":"function","name":"getRankIndex","inputs":[{"name":"rank","type":"uint256","internalType":"uint256"}],"outputs":[{"name":"rankIndex","type":"uint256","internalType":"uint256"}],"stateMutability":"view"},{"type":"function","name":"getSortedRanks","inputs":[],"outputs":[{"name":"sortedRanksArray","type":"uint256[]","internalType":"uint256[]"}],"stateMutability":"view"},{"type":"function","name":"getTotalSpentByAddress","inputs":[{"name":"spendingAddress","type":"address","internalType":"address"}],"outputs":[{"name":"totalSpent","type":"uint256","internalType":"uint256"}],"stateMutability":"view"},{"type":"function","name":"getTotalSpentByAddressOnProposal","inputs":[{"name":"spendingAddress","type":"address","internalType":"address"},{"name":"proposalId","type":"uint256","internalType":"uint256"}],"outputs":[{"name":"totalSpent","type":"uint256","internalType":"uint256"}],"stateMutability":"view"},{"type":"function","name":"hashComment","inputs":[{"name":"commentObj","type":"tuple","internalType":"struct GovernorEngagement.CommentCore","components":[{"name":"author","type":"address","internalType":"address"},{"name":"timestamp","type":"uint256","internalType":"uint256"},{"name":"proposalId","type":"uint256","internalType":"uint256"},{"name":"commentContent","type":"string","internalType":"string"}]}],"outputs":[{"name":"","type":"uint256","internalType":"uint256"}],"stateMutability":"pure"},{"type":"function","name":"hashProposal","inputs":[{"name":"proposal","type":"tuple","internalType":"struct Governor.ProposalCore","components":[{"name":"author","type":"address","internalType":"address"},{"name":"exists","type":"bool","internalType":"bool"},{"name":"description","type":"string","internalType":"string"},{"name":"fieldsMetadata","type":"tuple","internalType":"struct Governor.FieldsMetadata","components":[{"name":"addressArray","type":"address[]","internalType":"address[]"},{"name":"stringArray","type":"string[]","internalType":"string[]"},{"name":"uintArray","type":"uint256[]","internalType":"uint256[]"}]}]}],"outputs":[{"name":"","type":"uint256","internalType":"uint256"}],"stateMutability":"pure"},{"type":"function","name":"isOrIsBelowTiedRank","inputs":[{"name":"idx","type":"uint256","internalType":"uint256"}],"outputs":[{"name":"atOrBelowTiedRank","type":"bool","internalType":"bool"}],"stateMutability":"view"},{"type":"function","name":"jkLabsSplitDestination","inputs":[],"outputs":[{"name":"","type":"address","internalType":"address"}],"stateMutability":"view"},{"type":"function","name":"maxProposalCount","inputs":[],"outputs":[{"name":"","type":"uint256","internalType":"uint256"}],"stateMutability":"view"},{"type":"function","name":"metadataFieldsSchema","inputs":[],"outputs":[{"name":"","type":"string","internalType":"string"}],"stateMutability":"view"},{"type":"function","name":"multiple","inputs":[],"outputs":[{"name":"","type":"uint256","internalType":"uint256"}],"stateMutability":"view"},{"type":"function","name":"name","inputs":[],"outputs":[{"name":"","type":"string","internalType":"string"}],"stateMutability":"view"},{"type":"function","name":"numAllowedProposalSubmissions","inputs":[],"outputs":[{"name":"","type":"uint256","internalType":"uint256"}],"stateMutability":"view"},{"type":"function","name":"numSubmissions","inputs":[{"name":"","type":"address","internalType":"address"}],"outputs":[{"name":"","type":"uint256","internalType":"uint256"}],"stateMutability":"view"},{"type":"function","name":"officialRewardsModule","inputs":[],"outputs":[{"name":"","type":"address","internalType":"address"}],"stateMutability":"view"},{"type":"function","name":"percentageToRewards","inputs":[],"outputs":[{"name":"","type":"uint256","internalType":"uint256"}],"stateMutability":"view"},{"type":"function","name":"priceCurveType","inputs":[],"outputs":[{"name":"","type":"uint256","internalType":"uint256"}],"stateMutability":"view"},{"type":"function","name":"prompt","inputs":[],"outputs":[{"name":"","type":"string","internalType":"string"}],"stateMutability":"view"},{"type":"function","name":"proposalAddressVotes","inputs":[{"name":"proposalId","type":"uint256","internalType":"uint256"},{"name":"userAddress","type":"address","internalType":"address"}],"outputs":[{"name":"voteCount","type":"uint256","internalType":"uint256"}],"stateMutability":"view"},{"type":"function","name":"proposalAddressesHaveVoted","inputs":[{"name":"proposalId","type":"uint256","internalType":"uint256"}],"outputs":[{"name":"","type":"address[]","internalType":"address[]"}],"stateMutability":"view"},{"type":"function","name":"proposalAuthors","inputs":[{"name":"","type":"uint256","internalType":"uint256"}],"outputs":[{"name":"","type":"address","internalType":"address"}],"stateMutability":"view"},{"type":"function","name":"proposalComments","inputs":[{"name":"","type":"uint256","internalType":"uint256"},{"name":"","type":"uint256","internalType":"uint256"}],"outputs":[{"name":"","type":"uint256","internalType":"uint256"}],"stateMutability":"view"},{"type":"function","name":"proposalIds","inputs":[{"name":"","type":"uint256","internalType":"uint256"}],"outputs":[{"name":"","type":"uint256","internalType":"uint256"}],"stateMutability":"view"},{"type":"function","name":"proposalIsDeleted","inputs":[{"name":"","type":"uint256","internalType":"uint256"}],"outputs":[{"name":"","type":"bool","internalType":"bool"}],"stateMutability":"view"},{"type":"function","name":"proposalVoteStructs","inputs":[{"name":"","type":"uint256","internalType":"uint256"}],"outputs":[{"name":"proposalVoteCount","type":"uint256","internalType":"uint256"}],"stateMutability":"view"},{"type":"function","name":"proposalVotes","inputs":[{"name":"proposalId","type":"uint256","internalType":"uint256"}],"outputs":[{"name":"voteCount","type":"uint256","internalType":"uint256"}],"stateMutability":"view"},{"type":"function","name":"proposals","inputs":[{"name":"","type":"uint256","internalType":"uint256"}],"outputs":[{"name":"author","type":"address","internalType":"address"},{"name":"exists","type":"bool","internalType":"bool"},{"name":"description","type":"string","internalType":"string"},{"name":"fieldsMetadata","type":"tuple","internalType":"struct Governor.FieldsMetadata","components":[{"name":"addressArray","type":"address[]","internalType":"address[]"},{"name":"stringArray","type":"string[]","internalType":"string[]"},{"name":"uintArray","type":"uint256[]","internalType":"uint256[]"}]}],"stateMutability":"view"},{"type":"function","name":"propose","inputs":[{"name":"proposal","type":"tuple","internalType":"struct Governor.ProposalCore","components":[{"name":"author","type":"address","internalType":"address"},{"name":"exists","type":"bool","internalType":"bool"},{"name":"description","type":"string","internalType":"string"},{"name":"fieldsMetadata","type":"tuple","internalType":"struct Governor.FieldsMetadata","components":[{"name":"addressArray","type":"address[]","internalType":"address[]"},{"name":"stringArray","type":"string[]","internalType":"string[]"},{"name":"uintArray","type":"uint256[]","internalType":"uint256[]"}]}]}],"outputs":[{"name":"","type":"uint256","internalType":"uint256"}],"stateMutability":"nonpayable"},{"type":"function","name":"rankLimit","inputs":[],"outputs":[{"name":"","type":"uint256","internalType":"uint256"}],"stateMutability":"view"},{"type":"function","name":"setJkLabsSplitDestination","inputs":[{"name":"newJkLabsSplitDestination","type":"address","internalType":"address"}],"outputs":[],"stateMutability":"nonpayable"},{"type":"function","name":"setName","inputs":[{"name":"newName","type":"string","internalType":"string"}],"outputs":[{"name":"","type":"string","internalType":"string"}],"stateMutability":"nonpayable"},{"type":"function","name":"setOfficialRewardsModule","inputs":[{"name":"officialRewardsModule_","type":"address","internalType":"address"}],"outputs":[],"stateMutability":"nonpayable"},{"type":"function","name":"setPrompt","inputs":[{"name":"newPrompt","type":"string","internalType":"string"}],"outputs":[{"name":"","type":"string","internalType":"string"}],"stateMutability":"nonpayable"},{"type":"function","name":"sortedRanks","inputs":[{"name":"","type":"uint256","internalType":"uint256"}],"outputs":[{"name":"","type":"uint256","internalType":"uint256"}],"stateMutability":"view"},{"type":"function","name":"state","inputs":[],"outputs":[{"name":"","type":"uint8","internalType":"enum Governor.ContestState"}],"stateMutability":"view"},{"type":"function","name":"totalSpentByAddress","inputs":[{"name":"","type":"address","internalType":"address"}],"outputs":[{"name":"","type":"uint256","internalType":"uint256"}],"stateMutability":"view"},{"type":"function","name":"totalSpentByAddressOnProposal","inputs":[{"name":"","type":"address","internalType":"address"},{"name":"","type":"uint256","internalType":"uint256"}],"outputs":[{"name":"","type":"uint256","internalType":"uint256"}],"stateMutability":"view"},{"type":"function","name":"totalVotesCast","inputs":[],"outputs":[{"name":"","type":"uint256","internalType":"uint256"}],"stateMutability":"view"},{"type":"function","name":"totalVotesCastIsZero","inputs":[],"outputs":[{"name":"totalVotesCastZero","type":"bool","internalType":"bool"}],"stateMutability":"view"},{"type":"function","name":"validateProposalData","inputs":[{"name":"proposal","type":"tuple","internalType":"struct Governor.ProposalCore","components":[{"name":"author","type":"address","internalType":"address"},{"name":"exists","type":"bool","internalType":"bool"},{"name":"description","type":"string","internalType":"string"},{"name":"fieldsMetadata","type":"tuple","internalType":"struct Governor.FieldsMetadata","components":[{"name":"addressArray","type":"address[]","internalType":"address[]"},{"name":"stringArray","type":"string[]","internalType":"string[]"},{"name":"uintArray","type":"uint256[]","internalType":"uint256[]"}]}]}],"outputs":[],"stateMutability":"view"},{"type":"function","name":"verifyProposer","inputs":[],"outputs":[],"stateMutability":"view"},{"type":"function","name":"version","inputs":[],"outputs":[{"name":"","type":"string","internalType":"string"}],"stateMutability":"pure"},{"type":"function","name":"voteStart","inputs":[],"outputs":[{"name":"","type":"uint256","internalType":"uint256"}],"stateMutability":"view"},{"type":"function","name":"votesToProposalIds","inputs":[{"name":"","type":"uint256","internalType":"uint256"},{"name":"","type":"uint256","internalType":"uint256"}],"outputs":[{"name":"","type":"uint256","internalType":"uint256"}],"stateMutability":"view"},{"type":"function","name":"votingDelay","inputs":[],"outputs":[{"name":"","type":"uint256","internalType":"uint256"}],"stateMutability":"view"},{"type":"function","name":"votingPeriod","inputs":[],"outputs":[{"name":"","type":"uint256","internalType":"uint256"}],"stateMutability":"view"},{"type":"event","name":"CommentCreated","inputs":[{"name":"commentId","type":"uint256","indexed":false,"internalType":"uint256"}],"anonymous":false},{"type":"event","name":"CommentsDeleted","inputs":[{"name":"commentIds","type":"uint256[]","indexed":false,"internalType":"uint256[]"}],"anonymous":false},{"type":"event","name":"ContestCanceled","inputs":[],"anonymous":false},{"type":"event","name":"CreatorPaymentReleased","inputs":[{"name":"to","type":"address","indexed":false,"internalType":"address"},{"name":"amount","type":"uint256","indexed":false,"internalType":"uint256"}],"anonymous":false},{"type":"event","name":"JkLabsPaymentReleased","inputs":[{"name":"to","type":"address","indexed":false,"internalType":"address"},{"name":"amount","type":"uint256","indexed":false,"internalType":"uint256"}],"anonymous":false},{"type":"event","name":"JokeraceCreated","inputs":[{"name":"version","type":"string","indexed":false,"internalType":"string"},{"name":"name","type":"string","indexed":false,"internalType":"string"},{"name":"prompt","type":"string","indexed":false,"internalType":"string"},{"name":"creator","type":"address","indexed":false,"internalType":"address"},{"name":"contestStart","type":"uint256","indexed":false,"internalType":"uint256"},{"name":"votingDelay","type":"uint256","indexed":false,"internalType":"uint256"},{"name":"votingPeriod","type":"uint256","indexed":false,"internalType":"uint256"}],"anonymous":false},{"type":"event","name":"OfficialRewardsModuleSet","inputs":[{"name":"oldOfficialRewardsModule","type":"address","indexed":false,"internalType":"address"},{"name":"newOfficialRewardsModule","type":"address","indexed":false,"internalType":"address"}],"anonymous":false},{"type":"event","name":"ProposalCreated","inputs":[{"name":"proposalId","type":"uint256","indexed":false,"internalType":"uint256"},{"name":"proposer","type":"address","indexed":false,"internalType":"address"},{"name":"proposalDescription","type":"string","indexed":false,"internalType":"string"}],"anonymous":false},{"type":"event","name":"ProposalsDeleted","inputs":[{"name":"proposalIds","type":"uint256[]","indexed":false,"internalType":"uint256[]"}],"anonymous":false},{"type":"event","name":"RewardsPaymentReleased","inputs":[{"name":"to","type":"address","indexed":false,"internalType":"address"},{"name":"amount","type":"uint256","indexed":false,"internalType":"uint256"}],"anonymous":false},{"type":"event","name":"VoteCast","inputs":[{"name":"voter","type":"address","indexed":true,"internalType":"address"},{"name":"proposalId","type":"uint256","indexed":false,"internalType":"uint256"},{"name":"numVotes","type":"uint256","indexed":false,"internalType":"uint256"}],"anonymous":false},{"type":"error","name":"AddressFieldMetadataArrayTooLong","inputs":[]},{"type":"error","name":"AuthorIsNotSender","inputs":[{"name":"author","type":"address","internalType":"address"},{"name":"sender","type":"address","internalType":"address"}]},{"type":"error","name":"CanOnlyCancelBeforeFirstVote","inputs":[]},{"type":"error","name":"CanOnlyDeleteWhenQueued","inputs":[]},{"type":"error","name":"CannotCommentWhenCompletedOrCanceled","inputs":[]},{"type":"error","name":"CannotDeleteWhenCompletedOrCanceled","inputs":[]},{"type":"error","name":"CannotSetWhenCompletedOrCanceled","inputs":[]},{"type":"error","name":"CannotUpdateWhenCompletedOrCanceled","inputs":[]},{"type":"error","name":"CannotVoteLessThanOneVoteInPayPerVote","inputs":[]},{"type":"error","name":"CannotVoteOnDeletedProposal","inputs":[]},{"type":"error","name":"ContestAlreadyCanceled","inputs":[]},{"type":"error","name":"ContestMustBeActiveToGetCurrentVotePrice","inputs":[]},{"type":"error","name":"ContestMustBeActiveToVote","inputs":[]},{"type":"error","name":"ContestMustBeQueuedToPropose","inputs":[]},{"type":"error","name":"ContestSubmissionLimitReached","inputs":[{"name":"maxProposalCount","type":"uint256","internalType":"uint256"}]},{"type":"error","name":"DuplicateSubmission","inputs":[{"name":"proposalId","type":"uint256","internalType":"uint256"}]},{"type":"error","name":"EmptyProposalDescription","inputs":[]},{"type":"error","name":"IncorrectCostSent","inputs":[{"name":"msgValue","type":"uint256","internalType":"uint256"},{"name":"costToVote","type":"uint256","internalType":"uint256"}]},{"type":"error","name":"IndexHasNotBeenPopulated","inputs":[]},{"type":"error","name":"MoreThanOneProposalWithThisManyVotes","inputs":[]},{"type":"error","name":"NeedAtLeastOneVoteToVote","inputs":[]},{"type":"error","name":"NotEnoughVotesLeft","inputs":[]},{"type":"error","name":"OfficialModuleMustBeSetToEnter","inputs":[]},{"type":"error","name":"OfficialRewardsModuleCanOnlyBeSetOnce","inputs":[]},{"type":"error","name":"OfficialRewardsModuleMustPointToThisContest","inputs":[]},{"type":"error","name":"OnlyCreatorCanAmend","inputs":[]},{"type":"error","name":"OnlyCreatorCanSetName","inputs":[]},{"type":"error","name":"OnlyCreatorCanSetPrompt","inputs":[]},{"type":"error","name":"OnlyCreatorCanSetRewardsModule","inputs":[]},{"type":"error","name":"OnlyCreatorCanSubmit","inputs":[]},{"type":"error","name":"OnlyCreatorOrAuthorCanDeleteComments","inputs":[{"name":"failedToDeleteCommentId","type":"uint256","internalType":"uint256"}]},{"type":"error","name":"OnlyCreatorOrEntrantCanDelete","inputs":[]},{"type":"error","name":"OnlyCreatorOrJkLabsCanCancel","inputs":[]},{"type":"error","name":"OnlyJkLabsCanAmend","inputs":[]},{"type":"error","name":"PRBMath_MulDiv18_Overflow","inputs":[{"name":"x","type":"uint256","internalType":"uint256"},{"name":"y","type":"uint256","internalType":"uint256"}]},{"type":"error","name":"PRBMath_MulDiv_Overflow","inputs":[{"name":"x","type":"uint256","internalType":"uint256"},{"name":"y","type":"uint256","internalType":"uint256"},{"name":"denominator","type":"uint256","internalType":"uint256"}]},{"type":"error","name":"PRBMath_UD60x18_Exp2_InputTooBig","inputs":[{"name":"x","type":"uint256","internalType":"UD60x18"}]},{"type":"error","name":"PRBMath_UD60x18_Log_InputTooSmall","inputs":[{"name":"x","type":"uint256","internalType":"UD60x18"}]},{"type":"error","name":"PeriodsOutsideBounds","inputs":[]},{"type":"error","name":"RankCannotBeZero","inputs":[]},{"type":"error","name":"RankIsNotInSortedRanks","inputs":[]},{"type":"error","name":"RankLimitCannotBeZero","inputs":[]},{"type":"error","name":"SenderSubmissionLimitReached","inputs":[{"name":"numAllowedProposalSubmissions","type":"uint256","internalType":"uint256"}]},{"type":"error","name":"StringFieldMetadataArrayTooLong","inputs":[]},{"type":"error","name":"UintFieldMetadataArrayTooLong","inputs":[]},{"type":"error","name":"UnexpectedMetadata","inputs":[{"name":"unexpectedMetadata","type":"uint8","internalType":"enum Governor.Metadatas"}]}],"bytecode":{"object":"0x60806040523480156200001157600080fd5b5060405162006716380380620067168339810160408190526200003491620003e6565b604081015160c001516000558051819060049062000053908262000561565b50602081015160059062000068908262000561565b50604081810151805160075560068054336001600160a01b031991821617909155602082015160085591810151600955606080820151600a55608080830151600b5560a0830151600c5560e0830151600d55610100830151600e55610120830151600f5561014083015160105561016090920151601155830151601280549093166001600160a01b03909116179091558101516013906200010a908262000561565b50604080518082018252600480825263362e313960e01b6020830152600654600854600954600a5495517f9a9bca21e4e51607db64fbdbcd7b2284a909c6a8969821f0d161efbdcae7016096620001779695946005946001600160a01b03909116939092909190620006b2565b60405180910390a1506200019062015180601e62000740565b8160400151604001511180620001bb5750620001b0610e10600662000740565b816040015160600151115b15620001da576040516341b2f4db60e01b815260040160405180910390fd5b806040015160c00151600003620002045760405163769f473560e11b815260040160405180910390fd5b506200076c565b634e487b7160e01b600052604160045260246000fd5b60405161018081016001600160401b03811182821017156200024757620002476200020b565b60405290565b60405160a081016001600160401b03811182821017156200024757620002476200020b565b60005b838110156200028f57818101518382015260200162000275565b50506000910152565b600082601f830112620002aa57600080fd5b81516001600160401b0380821115620002c757620002c76200020b565b604051601f8301601f19908116603f01168101908282118183101715620002f257620002f26200020b565b816040528381528660208588010111156200030c57600080fd5b6200031f84602083016020890162000272565b9695505050505050565b600061018082840312156200033d57600080fd5b6200034762000221565b9050815181526020820151602082015260408201516040820152606082015160608201526080820151608082015260a082015160a082015260c082015160c082015260e082015160e082015261010080830151818301525061012080830151818301525061014080830151818301525061016080830151818301525092915050565b80516001600160a01b0381168114620003e157600080fd5b919050565b600060208284031215620003f957600080fd5b81516001600160401b03808211156200041157600080fd5b9083019061020082860312156200042757600080fd5b620004316200024d565b8251828111156200044157600080fd5b6200044f8782860162000298565b8252506020830151828111156200046557600080fd5b620004738782860162000298565b60208301525062000488866040850162000329565b60408201526200049c6101c08401620003c9565b60608201526101e083015182811115620004b557600080fd5b620004c38782860162000298565b60808301525095945050505050565b600181811c90821680620004e757607f821691505b6020821081036200050857634e487b7160e01b600052602260045260246000fd5b50919050565b601f8211156200055c57600081815260208120601f850160051c81016020861015620005375750805b601f850160051c820191505b81811015620005585782815560010162000543565b5050505b505050565b81516001600160401b038111156200057d576200057d6200020b565b62000595816200058e8454620004d2565b846200050e565b602080601f831160018114620005cd5760008415620005b45750858301515b600019600386901b1c1916600185901b17855562000558565b600085815260208120601f198616915b82811015620005fe57888601518255948401946001909101908401620005dd565b50858210156200061d5787850151600019600388901b60f8161c191681555b5050505050600190811b01905550565b600081546200063c81620004d2565b8085526020600183811680156200065c57600181146200067757620006a7565b60ff1985168884015283151560051b880183019550620006a7565b866000528260002060005b858110156200069f5781548a820186015290830190840162000682565b890184019650505b505050505092915050565b60e08152600088518060e0840152610100620006d58282860160208e0162000272565b601f19601f8301168401915080848303016020850152620006f98183018b6200062d565b91505082810360408401526200071081896200062d565b6001600160a01b039790971660608401525050608081019390935260a083019190915260c0909101529392505050565b80820281158282048414176200076657634e487b7160e01b600052601160045260246000fd5b92915050565b615f9a806200077c6000396000f3fe6080604052600436106104d55760003560e01c80637d74292511610281578063c47f00271161015a578063e41b1f10116100cc578063f5c3641111610085578063f5c3641114610f65578063f61736f414610f85578063f79c017214610fa5578063f82e54c014610fd5578063fb9bf8d414610ff5578063fd7971c91461100b57600080fd5b8063e41b1f1014610e9b578063ea8a1af014610ed3578063eef18e1714610ee8578063efa90d3614610f10578063f0a7db0a14610f25578063f4f3d7ec14610f4557600080fd5b8063cddb98571161011e578063cddb985714610dc8578063d576b81d14610e0b578063dda54fcf14610e2b578063e031535b14610e58578063e11db9d814610e6d578063e269cefe14610e8257600080fd5b8063c47f002714610d31578063c7f252d714610d51578063c7f758a814610d71578063ca09a4c414610d9e578063cbdc27cb14610db357600080fd5b80639decae31116101f3578063b323580d116101b7578063b323580d14610c6d578063b382543f14610c8d578063b4ac024f14610ca2578063bc022c9814610cc2578063c05f410414610cef578063c19d93fb14610d0f57600080fd5b80639decae3114610bb1578063a119278b14610bc7578063ac67f80114610be7578063ae66b8ad14610c07578063aec116b614610c3757600080fd5b80638793f2c7116102455780638793f2c714610af65780638ebb4c1514610b0c5780639174778c14610b3c578063946369b514610b5c5780639b338aa014610b715780639b644a2314610b9157600080fd5b80637d74292514610a5e5780637de418d514610a7457806380cc8f4314610a8a5780638225c11d14610ac0578063832009af14610ae057600080fd5b80633fb57c92116103b357806354fd4d50116103255780636d030621116102e95780636d030621146109805780636e4eb810146109a05780636fd3636b146109e757806375e509c5146109fc578063785ddfe514610a295780637c65d71114610a4957600080fd5b806354fd4d50146108f25780635c7107d81461091f5780635cb718a11461093f57806360ed97a91461095457806361a52a361461096957600080fd5b80634d24a67f116103775780634d24a67f1461084157806350a5e5241461085657806350c4b6161461087957806351a41dec146108995780635358b80e146108af578063544ffc9c146108c557600080fd5b80633fb57c92146107be578063409fd030146107de578063437a8ae6146107fe578063476106c8146108145780634a2c96ec1461082b57600080fd5b8063102613d81161044c5780632c0a3f89116104105780632c0a3f891461070d5780632c39805f14610720578063325cc6d914610742578063347cf665146107625780633932abb11461077e5780633f9942ff1461079457600080fd5b8063102613d8146106695780631242b7371461068957806315dee7cd146106ab5780631805c523146106d8578063262e59e9146106f857600080fd5b806304a1aeae1161049e57806304a1aeae1461059757806305846cae146105c457806306b2193f146105e457806306fdde03146105fa5780630800e3001461061c5780630aa25e441461064957600080fd5b80624114a8146104da578063013cf08b1461050357806302a251a31461053357806302d05d3f146105495780630414126a14610581575b600080fd5b3480156104e657600080fd5b506104f060085481565b6040519081526020015b60405180910390f35b34801561050f57600080fd5b5061052361051e366004615336565b611020565b6040516104fa9493929190615491565b34801561053f57600080fd5b506104f0600a5481565b34801561055557600080fd5b50600654610569906001600160a01b031681565b6040516001600160a01b0390911681526020016104fa565b34801561058d57600080fd5b506104f060005481565b3480156105a357600080fd5b506104f06105b23660046154e4565b60026020526000908152604090205481565b3480156105d057600080fd5b506104f06105df366004615336565b61127e565b3480156105f057600080fd5b506104f0600d5481565b34801561060657600080fd5b5061060f61129f565b6040516104fa9190615501565b34801561062857600080fd5b5061063c610637366004615336565b61132d565b6040516104fa9190615514565b34801561065557600080fd5b50610569610664366004615336565b611441565b34801561067557600080fd5b50601254610569906001600160a01b031681565b34801561069557600080fd5b5061069e61146b565b6040516104fa9190615555565b3480156106b757600080fd5b506104f06106c6366004615336565b601e6020526000908152604090205481565b3480156106e457600080fd5b506104f06106f3366004615667565b6114c3565b34801561070457600080fd5b506104f0611640565b6104f061071b3660046156ad565b61165c565b34801561072c57600080fd5b5061073561170d565b6040516104fa91906156cf565b34801561074e57600080fd5b506104f061075d366004615336565b61176e565b34801561076e57600080fd5b506104f0678ac7230489e8000081565b34801561078a57600080fd5b506104f060095481565b3480156107a057600080fd5b506017546107ae9060ff1681565b60405190151581526020016104fa565b3480156107ca57600080fd5b506104f06107d9366004615336565b61177e565b3480156107ea57600080fd5b506104f06107f936600461571c565b61178e565b34801561080a57600080fd5b506104f060105481565b34801561082057600080fd5b506108296117bf565b005b34801561083757600080fd5b506104f0600f5481565b34801561084d57600080fd5b506104f06117fd565b34801561086257600080fd5b5061086b61180c565b6040516104fa9291906157b1565b34801561088557600080fd5b50610569610894366004615336565b6118d7565b3480156108a557600080fd5b506104f0600e5481565b3480156108bb57600080fd5b506104f060075481565b3480156108d157600080fd5b506104f06108e0366004615336565b6000908152601e602052604090205490565b3480156108fe57600080fd5b50604080518082019091526004815263362e313960e01b602082015261060f565b34801561092b57600080fd5b506104f061093a366004615336565b6118e7565b34801561094b57600080fd5b5061069e6119ee565b34801561096057600080fd5b5061060f611a44565b34801561097557600080fd5b506104f06201518081565b34801561098c57600080fd5b506104f061099b3660046156ad565b611a51565b3480156109ac57600080fd5b506104f06109bb3660046157df565b6000828152601e602090815260408083206001600160a01b038516845260020190915290205492915050565b3480156109f357600080fd5b5061069e611a82565b348015610a0857600080fd5b506104f0610a173660046154e4565b60196020526000908152604090205481565b348015610a3557600080fd5b50602054610569906001600160a01b031681565b348015610a5557600080fd5b5061060f611ad8565b348015610a6a57600080fd5b50601c54156107ae565b348015610a8057600080fd5b506104f0601c5481565b348015610a9657600080fd5b506104f0610aa53660046154e4565b6001600160a01b031660009081526002602052604090205490565b348015610acc57600080fd5b506104f0610adb36600461580f565b611ae5565b348015610aec57600080fd5b506104f0600b5481565b348015610b0257600080fd5b506104f0610e1081565b348015610b1857600080fd5b50610b2c610b27366004615336565b611b4f565b6040516104fa9493929190615849565b348015610b4857600080fd5b506107ae610b57366004615336565b611c0c565b348015610b6857600080fd5b50610735611cb0565b348015610b7d57600080fd5b50610829610b8c3660046154e4565b611d10565b348015610b9d57600080fd5b506104f0610bac366004615336565b611dc3565b348015610bbd57600080fd5b506104f060115481565b348015610bd357600080fd5b506104f0610be2366004615aee565b611dd3565b348015610bf357600080fd5b50610829610c02366004615b22565b611de6565b348015610c1357600080fd5b506107ae610c22366004615336565b60256020526000908152604090205460ff1681565b348015610c4357600080fd5b506104f0610c523660046154e4565b6001600160a01b03166000908152601d602052604090205490565b348015610c7957600080fd5b50610735610c88366004615336565b611f7d565b348015610c9957600080fd5b506104f0600a81565b348015610cae57600080fd5b5061060f610cbd366004615b56565b611fef565b348015610cce57600080fd5b506104f0610cdd366004615336565b6000908152601f602052604090205490565b348015610cfb57600080fd5b5061069e610d0a366004615336565b61208d565b348015610d1b57600080fd5b50610d246120ef565b6040516104fa9190615ba0565b348015610d3d57600080fd5b5061060f610d4c366004615b56565b612140565b348015610d5d57600080fd5b50610829610d6c366004615aee565b6121d7565b348015610d7d57600080fd5b50610d91610d8c366004615336565b61232f565b6040516104fa9190615bba565b348015610daa57600080fd5b506104f06125b8565b348015610dbf57600080fd5b50610735612797565b348015610dd457600080fd5b506104f0610de3366004615c11565b6001600160a01b03919091166000908152600360209081526040808320938352929052205490565b348015610e1757600080fd5b506104f0610e26366004615336565b6128c7565b348015610e3757600080fd5b506104f0610e463660046154e4565b601d6020526000908152604090205481565b348015610e6457600080fd5b506104f0612927565b348015610e7957600080fd5b5061069e612939565b348015610e8e57600080fd5b506104f064e8d4a5100081565b348015610ea757600080fd5b506104f0610eb6366004615c11565b600360209081526000928352604080842090915290825290205481565b348015610edf57600080fd5b5061082961298f565b348015610ef457600080fd5b5061056973dc652c746a8f85e18ce632d97c6118e8a52fa73881565b348015610f1c57600080fd5b5061069e612a5c565b348015610f3157600080fd5b50610829610f40366004615c3d565b612ab2565b348015610f5157600080fd5b50610829610f603660046154e4565b612c10565b348015610f7157600080fd5b506104f0610f80366004615336565b612d4d565b348015610f9157600080fd5b506104f0610fa03660046156ad565b612d5d565b348015610fb157600080fd5b506107ae610fc0366004615336565b60166020526000908152604090205460ff1681565b348015610fe157600080fd5b5061069e610ff0366004615336565b612d79565b34801561100157600080fd5b506104f0600c5481565b34801561101757600080fd5b506104f0603c81565b601860205260009081526040902080546001820180546001600160a01b03831693600160a01b90930460ff1692919061105890615cb1565b80601f016020809104026020016040519081016040528092919081815260200182805461108490615cb1565b80156110d15780601f106110a6576101008083540402835291602001916110d1565b820191906000526020600020905b8154815290600101906020018083116110b457829003601f168201915b505050505090806002016040518060600160405290816000820180548060200260200160405190810160405280929190818152602001828054801561113f57602002820191906000526020600020905b81546001600160a01b03168152600190910190602001808311611121575b5050505050815260200160018201805480602002602001604051908101604052809291908181526020016000905b8282101561121957838290600052602060002001805461118c90615cb1565b80601f01602080910402602001604051908101604052809291908181526020018280546111b890615cb1565b80156112055780601f106111da57610100808354040283529160200191611205565b820191906000526020600020905b8154815290600101906020018083116111e857829003601f168201915b50505050508152602001906001019061116d565b5050505081526020016002820180548060200260200160405190810160405280929190818152602001828054801561127057602002820191906000526020600020905b81548152602001906001019080831161125c575b505050505081525050905084565b6015818154811061128e57600080fd5b600091825260209091200154905081565b600480546112ac90615cb1565b80601f01602080910402602001604051908101604052809291908181526020018280546112d890615cb1565b80156113255780601f106112fa57610100808354040283529160200191611325565b820191906000526020600020905b81548152906001019060200180831161130857829003601f168201915b505050505081565b611361604051806080016040528060006001600160a01b031681526020016000815260200160008152602001606081525090565b600082815260236020908152604091829020825160808101845281546001600160a01b031681526001820154928101929092526002810154928201929092526003820180549192916060840191906113b890615cb1565b80601f01602080910402602001604051908101604052809291908181526020018280546113e490615cb1565b80156114315780601f1061140657610100808354040283529160200191611431565b820191906000526020600020905b81548152906001019060200180831161141457829003601f168201915b5050505050815250509050919050565b601a818154811061145157600080fd5b6000918252602090912001546001600160a01b0316905081565b606060158054806020026020016040519081016040528092919081815260200182805480156114b957602002820191906000526020600020905b8154815260200190600101908083116114a5575b5050505050905090565b600060046114cf6120ef565b60048111156114e0576114e0615b8a565b1480611504575060026114f16120ef565b600481111561150257611502615b8a565b145b156115215760405162f3e73d60e81b815260040160405180910390fd5b6040805160808101825233815242602082015290810184905260608101839052600061154c8261178e565b6021805460018082019092557f3a6357012c1a3ae0a17d304c9920310382d968ebcc4b1771f41c6b304205b57001829055600082815260236020908152604091829020865181546001600160a01b0319166001600160a01b03909116178155908601519281019290925584015160028201556060840151919250839160038201906115d79082615d33565b505050600085815260246020908152604080832080546001810182559084529190922001829055517f5a1a930fed43f34b3a07db782ebcac28a661c273e662bb98458cfba5a8ccd2209061162e9083815260200190565b60405180910390a19150505b92915050565b6000600a5461164d612927565b6116579190615e08565b905090565b60008061166a600184612dd9565b60008581526016602052604090205490915060ff161561169d576040516358f1119560e01b815260040160405180910390fd5b6116a681612e76565b33600090815260026020526040812080548392906116c5908490615e08565b9091555050336000908152600360209081526040808320878452909152812080548392906116f4908490615e08565b909155506117059050843385613032565b949350505050565b6060601b8054806020026020016040519081016040528092919081815260200182805480156114b957602002820191906000526020600020905b81546001600160a01b03168152600190910190602001808311611747575050505050905090565b6001818154811061128e57600080fd5b6022818154811061128e57600080fd5b6000816040516020016117a19190615514565b60408051601f19818403018152919052805160209091012092915050565b6007546001141580156117dd57506006546001600160a01b03163314155b156117fb57604051639a4a529360e01b815260040160405180910390fd5b565b61180960006001615e08565b81565b6060806000611819612a5c565b9050600081516001600160401b0381111561183657611836615568565b60405190808252806020026020018201604052801561185f578160200160208202803683370190505b50905060005b82518110156118cd57601e600084838151811061188457611884615e1b565b60200260200101518152602001908152602001600020600001548282815181106118b0576118b0615e1b565b6020908102919091010152806118c581615e31565b915050611865565b5090939092509050565b601b818154811061145157600080fd5b60008160000361190a57604051630ec90a1760e31b815260040160405180910390fd5b6001805460408051602080840282018101909252828152919260009291849083018282801561195857602002820191906000526020600020905b815481526020019060010190808311611944575b5050505050905060006001905060005b838110156119d45761199f83828151811061198557611985615e1b565b60200260200101516000908152601f602052604090205490565b156119c2578582036119b45795945050505050565b816119be81615e31565b9250505b806119cc81615e31565b915050611968565b50604051632cc2ab7360e11b815260040160405180910390fd5b606060228054806020026020016040519081016040528092919081815260200182805480156114b957602002820191906000526020600020908154815260200190600101908083116114a5575050505050905090565b601380546112ac90615cb1565b601f6020528160005260406000208181548110611a6d57600080fd5b90600052602060002001600091509150505481565b606060018054806020026020016040519081016040528092919081815260200182805480156114b957602002820191906000526020600020908154815260200190600101908083116114a5575050505050905090565b600580546112ac90615cb1565b600080611afa6020546001600160a01b031690565b6001600160a01b031603611b215760405163fa4f07a360e01b815260040160405180910390fd5b611b296117bf565b611b35610d6c83615e4a565b6000611b48611b4384615e4a565b613126565b9392505050565b60236020526000908152604090208054600182015460028301546003840180546001600160a01b03909416949293919291611b8990615cb1565b80601f0160208091040260200160405190810160405280929190818152602001828054611bb590615cb1565b8015611c025780601f10611bd757610100808354040283529160200191611c02565b820191906000526020600020905b815481529060010190602001808311611be557829003601f168201915b5050505050905084565b60018054600091611c1c91615e56565b821115611c3c576040516365d6f35160e11b815260040160405180910390fd5b60005b611c4a836001615e08565b811015611ca7576001611c8660018381548110611c6957611c69615e1b565b90600052602060002001546000908152601f602052604090205490565b1115611c955750600192915050565b80611c9f81615e31565b915050611c3f565b50600092915050565b6060601a8054806020026020016040519081016040528092919081815260200182805480156114b9576020028201919060005260206000209081546001600160a01b03168152600190910190602001808311611747575050505050905090565b3373dc652c746a8f85e18ce632d97c6118e8a52fa73814611d445760405163de07280160e01b815260040160405180910390fd5b6004611d4e6120ef565b6004811115611d5f57611d5f615b8a565b1480611d8357506002611d706120ef565b6004811115611d8157611d81615b8a565b145b15611da1576040516398fe99a560e01b815260040160405180910390fd5b601280546001600160a01b0319166001600160a01b0392909216919091179055565b6014818154811061128e57600080fd5b6000816040516020016117a19190615bba565b6004611df06120ef565b6004811115611e0157611e01615b8a565b1480611e2557506002611e126120ef565b6004811115611e2357611e23615b8a565b145b15611e4357604051631e71d28360e21b815260040160405180910390fd5b805160005b81811015611f41576000838281518110611e6457611e64615e1b565b60209081029190910101516006549091506001600160a01b03163314801590611ea457506000818152602360205260409020546001600160a01b03163314155b15611eca57604051635450763d60e11b8152600481018290526024015b60405180910390fd5b60008181526025602052604090205460ff16611f2e576000818152602560205260408120805460ff191660019081179091556022805491820181559091527f61035b26e3e9eee00e0d72fd1ee8ddca6894550dca6916ea2ac6baa90d11e510018190555b5080611f3981615e31565b915050611e48565b507f788a4349d25bc08585923ae212bce8bb346a623bce753eeecb85fd9ce58dcb4b82604051611f719190615555565b60405180910390a15050565b6000818152601e60209081526040918290206001810180548451818502810185019095528085526060949293830182828015611fe257602002820191906000526020600020905b81546001600160a01b03168152600190910190602001808311611fc4575b5050505050915050919050565b6006546060906001600160a01b0316331461201d57604051630aca3d7160e11b815260040160405180910390fd5b60046120276120ef565b600481111561203857612038615b8a565b148061205c575060026120496120ef565b600481111561205a5761205a615b8a565b145b1561207a57604051635b0747e760e01b815260040160405180910390fd5b60056120868382615d33565b5090919050565b6000818152602460209081526040918290208054835181840281018401909452808452606093928301828280156120e357602002820191906000526020600020905b8154815260200190600101908083116120cf575b50505050509050919050565b60175460009060ff16156121035750600290565b42600854106121125750600090565b4261211b612927565b106121265750600390565b4261212f611640565b1061213a5750600190565b50600490565b6006546060906001600160a01b0316331461216e57604051637d1cb2b160e01b815260040160405180910390fd5b60046121786120ef565b600481111561218957612189615b8a565b14806121ad5750600261219a6120ef565b60048111156121ab576121ab615b8a565b145b156121cb57604051635b0747e760e01b815260040160405180910390fd5b60046120868382615d33565b80516001600160a01b0316331461221557805160405163fbbf4d7f60e01b81526001600160a01b039091166004820152336024820152604401611ec1565b60005b61222460006001615e08565b81101561230557600081801561223c5761223c615b8a565b9050600081801561224f5761224f615b8a565b036122d75760608301515151600a101561227c57604051631e38b1b160e11b815260040160405180910390fd5b600a8360600151602001515111156122a75760405163a3b7dd7760e01b815260040160405180910390fd5b600a8360600151604001515111156122d25760405163f696406560e01b815260040160405180910390fd5b6122f2565b8060405163d2277d4960e01b8152600401611ec19190615e69565b50806122fd81615e31565b915050612218565b5080604001515160000361232c5760405163e182473360e01b815260040160405180910390fd5b50565b612337615184565b600082815260186020908152604091829020825160808101845281546001600160a01b0381168252600160a01b900460ff16151592810192909252600181018054929391929184019161238990615cb1565b80601f01602080910402602001604051908101604052809291908181526020018280546123b590615cb1565b80156124025780601f106123d757610100808354040283529160200191612402565b820191906000526020600020905b8154815290600101906020018083116123e557829003601f168201915b50505050508152602001600282016040518060600160405290816000820180548060200260200160405190810160405280929190818152602001828054801561247457602002820191906000526020600020905b81546001600160a01b03168152600190910190602001808311612456575b5050505050815260200160018201805480602002602001604051908101604052809291908181526020016000905b8282101561254e5783829060005260206000200180546124c190615cb1565b80601f01602080910402602001604051908101604052809291908181526020018280546124ed90615cb1565b801561253a5780601f1061250f5761010080835404028352916020019161253a565b820191906000526020600020905b81548152906001019060200180831161251d57829003601f168201915b5050505050815260200190600101906124a2565b505050508152602001600282018054806020026020016040519081016040528092919081815260200182805480156125a557602002820191906000526020600020905b815481526020019060010190808311612591575b5050509190925250505090525092915050565b600060016125c46120ef565b60048111156125d5576125d5615b8a565b146125f35760405163a6f7b85360e01b815260040160405180910390fd5b6000603c6125ff612927565b61260a906001615e08565b6126149042615e56565b61261e9190615e93565b9050600061268b61267761264061263d85670de0b6b3a7640000615eb5565b90565b61267261265c600a54670de0b6b3a764000061263d9190615eb5565b61267261263d603c670de0b6b3a7640000615eb5565b6133a3565b68056bc75e2d631000006133bb565b6133bb565b905060006126ad8261268661269f60105490565b670de0b6b3a76400006133a3565b90506000600f5460018111156126c5576126c5615b8a565b60018111156126d6576126d6615b8a565b036127285760006126e6826133ca565b9050600061270261263d6126fc61269f600e5490565b846133bb565b905064e8d4a510006127148183615e93565b61271e9190615eb5565b9550505050505090565b6001600f54600181111561273e5761273e615b8a565b600181111561274f5761274f615b8a565b0361278c57600061277561277083670de0b6b3a7640000613420565b613420565b61342f565b9050600061270261263d8361276b61269f600e5490565b600e54935050505090565b6060600060158054806020026020016040519081016040528092919081815260200182805480156127e757602002820191906000526020600020905b8154815260200190600101908083116127d3575b50505050509050600081516001600160401b0381111561280957612809615568565b604051908082528060200260200182016040528015612832578160200160208202803683370190505b50905060005b82518110156128c0576018600084838151811061285757612857615e1b565b6020026020010151815260200190815260200160002060000160009054906101000a90046001600160a01b031682828151811061289657612896615e1b565b6001600160a01b0390921660209283029190910190910152806128b881615e31565b915050612838565b5092915050565b6000818152601f60205260408120546001146128f657604051633832a15560e21b815260040160405180910390fd5b6000828152601f60205260408120805490919061291557612915615e1b565b90600052602060002001549050919050565b60006009546008546116579190615e08565b606060218054806020026020016040519081016040528092919081815260200182805480156114b957602002820191906000526020600020908154815260200190600101908083116114a5575050505050905090565b6006546001600160a01b031633148015906129be57503373dc652c746a8f85e18ce632d97c6118e8a52fa73814155b156129dc57604051637601acaf60e11b815260040160405180910390fd5b60175460ff1615612a0057604051636f79584d60e01b815260040160405180910390fd5b601c5415600114612a245760405163043d8d1b60e21b815260040160405180910390fd5b6017805460ff191660011790556040517f4cd963a081760a54f571abc0f1db4dde31b4a07d8d6da3e844b8c6f47eeaaa4290600090a1565b606060148054806020026020016040519081016040528092919081815260200182805480156114b957602002820191906000526020600020908154815260200190600101908083116114a5575050505050905090565b6003612abc6120ef565b6004811115612acd57612acd615b8a565b14612aeb5760405163554806bb60e11b815260040160405180910390fd5b60005b81811015612bdf576000838383818110612b0a57612b0a615e1b565b60065460209190910292909201359250506001600160a01b03163314801590612b4a57506000818152601860205260409020546001600160a01b03163314155b15612b685760405163018db70560e11b815260040160405180910390fd5b60008181526016602052604090205460ff16612bcc576000818152601660205260408120805460ff191660019081179091556015805491820181559091527f55f448fdea98c4d29eb340757ef0a66cd03dbb9538908a6a81d96026b71ec475018190555b5080612bd781615e31565b915050612aee565b507f75a75cf5c561892f4cc5b26c1b8e933849b42238c96dd073d080d1ae96c514166014604051611f719190615ecc565b6006546001600160a01b03163314612c3b57604051630f4cb1bd60e11b815260040160405180910390fd5b6020546001600160a01b031615612c6557604051630ff4b80b60e01b815260040160405180910390fd5b306001600160a01b0316816001600160a01b031663f3f44fb76040518163ffffffff1660e01b8152600401602060405180830381865afa158015612cad573d6000803e3d6000fd5b505050506040513d601f19601f82011682018060405250810190612cd19190615f07565b6001600160a01b031614612cf857604051635b310aaf60e01b815260040160405180910390fd5b602080546001600160a01b038381166001600160a01b03198316811784556040805192909316808352938201527f753a2cf8d360cff631674504210913e48247f8e56b3e6d2006c2103d4095999f9101611f71565b6021818154811061128e57600080fd5b60246020528160005260406000208181548110611a6d57600080fd5b6000818152601f60209081526040918290208054835181840281018401909452808452606093928301828280156120e357602002820191906000526020600020908154815260200190600101908083116120cf5750505050509050919050565b6000806001846001811115612df057612df0615b8a565b03612e4957670de0b6b3a7640000831015612e1e576040516346ddb8d160e01b815260040160405180910390fd5b612e30670de0b6b3a764000084615e93565b612e386125b8565b612e429190615eb5565b9050612e4d565b5060005b803414611b48576040516372c3eaa760e01b815234600482015260248101829052604401611ec1565b801561232c5760006064600d546064612e8f9190615e56565b612e999034615eb5565b612ea39190615e93565b90508015612fa9576000601154600114612ebe576000612ec9565b612ec9600283615e93565b90508015612f2e57600654612ee7906001600160a01b0316826140e0565b600654604080516001600160a01b039092168252602082018390527f6dff55337c8458ae8c536a63869a48bc33541733422a796390c131d91f4238ed910160405180910390a15b601254612f4d906001600160a01b0316612f488385615e56565b6140e0565b6012547f9df63d1c00d2e332f573be591c0579caafb256b2c5a17abcc8ad471cccda1b81906001600160a01b0316612f858385615e56565b604080516001600160a01b03909316835260208301919091520160405180910390a1505b6000612fb58234615e56565b9050801561302d57612fd8612fd26020546001600160a01b031690565b826140e0565b7f2c7d70ceb5af79cc37f1832a7908bad1815c2d634ae0f5480dac8eaecddc2e6761300b6020546001600160a01b031690565b604080516001600160a01b039092168252602082018490520160405180910390a15b505050565b6000600161303e6120ef565b600481111561304f5761304f615b8a565b1461306d5760405163f569a2b960e01b815260040160405180910390fd5b8160000361308e5760405163502e1c2960e01b815260040160405180910390fd5b6130998484846141f9565b601b80546001810182556000919091527f3ad8aa4f87544323a9d1e5dd902f40c356527a7955687113db5f9a85ad579dc10180546001600160a01b0319163317905560408051858152602081018490526001600160a01b038516917fb4cfecf70861b7b150d8337780d34fb4cbc2114b5fb1fe51a5c5fca1849f7274910160405180910390a25092915050565b600060036131326120ef565b600481111561314357613143615b8a565b146131615760405163152839c360e31b815260040160405180910390fd5b600b54336000908152601960205260409020540361319857600b54604051632bd6d93960e21b8152600401611ec191815260200190565b600c546015546014546131ab9190615e56565b036131cf57600c546040516302217f5360e51b8152600401611ec191815260200190565b60006131da83611dd3565b600081815260186020526040902054909150600160a01b900460ff16156132175760405163baffc42360e01b815260048101829052602401611ec1565b6014805460018181019092557fce6d7b5282bd9a3661ae061feed1dbda4e52ab073b1f9285be6e155d9c38d4ec0182905560008281526018602090815260409182902086518154928801511515600160a01b026001600160a81b03199093166001600160a01b039091161791909117815590850151859282019061329b9082615d33565b5060608201518051805160028401916132b9918391602001906151d8565b5060208281015180516132d2926001850192019061523d565b50604082015180516132ee91600284019160209091019061528f565b5050336000908152601960205260408120805460019550909350909150613316908490615e08565b9091555050601a80546001810182556000919091527f057c384a7d1c54f3a1b2e5e67b2617b8224fdfd1ea7234eea573a6ff665ff63e0180546001600160a01b0319163390811790915560408085015190517f7585f467599d0f008985f231af99293be388626ac16ca59505c2f8f88969cd6392613395928592615f24565b60405180910390a192915050565b6000611b4861263d84670de0b6b3a76400008561433a565b6000611b4861263d848461440e565b600081680a688906bd8affffff8111156133fa5760405163b3b6ba1f60e01b815260048101849052602401611ec1565b6000613412670de0b6b3a7640000604084901b615e93565b905061170561263d826144c4565b6000611b4861263d8385615e08565b600081670de0b6b3a764000081101561345e5760405163036d32ef60e41b815260048101849052602401611ec1565b8260018114613b8a57600a8114613b9b5760648114613bac576103e88114613bbd576127108114613bce57620186a08114613bdf57620f42408114613bf057629896808114613c01576305f5e1008114613c1257633b9aca008114613c23576402540be4008114613c345764174876e8008114613c455764e8d4a510008114613c56576509184e72a0008114613c6757655af3107a40008114613c785766038d7ea4c680008114613c8957662386f26fc100008114613c9a5767016345785d8a00008114613cab57670de0b6b3a76400008114613cbc57678ac7230489e800008114613cc55768056bc75e2d631000008114613cd557683635c9adc5dea000008114613ce55769021e19e0c9bab24000008114613cf55769152d02c7e14af68000008114613d055769d3c21bcecceda10000008114613d15576a084595161401484a0000008114613d25576a52b7d2dcc80cd2e40000008114613d35576b033b2e3c9fd0803ce80000008114613d45576b204fce5e3e250261100000008114613d55576c01431e0fae6d7217caa00000008114613d65576c0c9f2c9cd04674edea400000008114613d75576c7e37be2022c0914b26800000008114613d85576d04ee2d6d415b85acef81000000008114613d95576d314dc6448d9338c15b0a000000008114613da5576e01ed09bead87c0378d8e64000000008114613db5576e13426172c74d822b878fe8000000008114613dc5576ec097ce7bc90715b34b9f10000000008114613dd5576f0785ee10d5da46d900f436a0000000008114613de5576f4b3b4ca85a86c47a098a2240000000008114613df6577002f050fe938943acc45f655680000000008114613e0757701d6329f1c35ca4bfabb9f56100000000008114613e1857710125dfa371a19e6f7cb54395ca00000000008114613e2957710b7abc627050305adf14a3d9e400000000008114613e3a577172cb5bd86321e38cb6ce6682e800000000008114613e4b5772047bf19673df52e37f2410011d1000000000008114613e5c57722cd76fe086b93ce2f768a00b22a000000000008114613e6d577301c06a5ec5433c60ddaa16406f5a4000000000008114613e7e5773118427b3b4a05bc8a8a4de8459868000000000008114613e8f5773af298d050e4395d69670b12b7f410000000000008114613ea0577406d79f82328ea3da61e066ebb2f88a0000000000008114613eb15774446c3b15f9926687d2c40534fdb5640000000000008114613ec2577502ac3a4edbbfb8014e3ba83411e915e80000000000008114613ed357751aba4714957d300d0e549208b31adb100000000000008114613ee45776010b46c6cdd6e3e0828f4db456ff0c8ea00000000000008114613ef557760a70c3c40a64e6c51999090b65f67d92400000000000008114613f0657766867a5a867f103b2fffa5a71fba0e7b6800000000000008114613f17577704140c78940f6a24fdffc78873d4490d21000000000000008114613f28577728c87cb5c89a2571ebfdcb54864ada834a000000000000008114613f3957780197d4df19d605767337e9f14d3eec8920e4000000000000008114613f4a57780fee50b7025c36a0802f236d04753d5b48e8000000000000008114613f5b57789f4f2726179a224501d762422c946590d910000000000000008114613f6c5779063917877cec0556b21269d695bdcbf7a87aa0000000000000008114613f7d57793e3aeb4ae1383562f4b82261d969f7ac94ca40000000000000008114613f8e577a026e4d30eccc3215dd8f3157d27e23acbdcfe680000000000000008114613f9f577a184f03e93ff9f4daa797ed6e38ed64bf6a1f0100000000000000008114613fb0577af316271c7fc3908a8bef464e3945ef7a25360a00000000000000008114613fc1577b097edd871cfda3a5697758bf0e3cbb5ac5741c6400000000000000008114613fd2577b5ef4a74721e864761ea977768e5f518bb6891be800000000000000008114613fe3577c03b58e88c75313ec9d329eaaa18fb92f75215b171000000000000000008114613ff4577c25179157c93ec73e23fa32aa4f9d3bda934d8ee6a000000000000000008114614005577d0172ebad6ddc73c86d67c5faa71c245689c10795024000000000000000008114614016577d0e7d34c64a9c85d4460dbbca87196b61618a4bd2168000000000000000008114614027577d90e40fbeea1d3a4abc8955e946fe31cdcf66f634e10000000000000000008114614038577e05a8e89d75252446eb5d5d5b1cc5edf20a1a059e10ca0000000000000000008114614049577e3899162693736ac531a5a58f1fbb4b746504382ca7e4000000000000000000811461405a577546bf5bb0385045767e0f0ef2e7aa1e517e454637d1dd604b1b811461406b577f161bcca7119915b50764b4abe86529797775a5f1719510000000000000000000811461407c577fdd15fe86affad91249ef0eb713f39ebeaa987b6e6fd2a0000000000000000000811461408d57600019925061409a565b67f9ccd8a1c507ffff19925061409a565b67ebec21ee1da3ffff19925061409a565b67de0b6b3a763fffff19925061409a565b67d02ab486cedbffff19925061409a565b67c249fdd32777ffff19925061409a565b67b469471f8013ffff19925061409a565b67a688906bd8afffff19925061409a565b6798a7d9b8314bffff19925061409a565b678ac7230489e7ffff19925061409a565b677ce66c50e283ffff19925061409a565b676f05b59d3b1fffff19925061409a565b676124fee993bbffff19925061409a565b6753444835ec57ffff19925061409a565b674563918244f3ffff19925061409a565b673782dace9d8fffff19925061409a565b6729a2241af62bffff19925061409a565b671bc16d674ec7ffff19925061409a565b670de0b6b3a763ffff19925061409a565b6000925061409a565b670de0b6b3a7640000925061409a565b671bc16d674ec80000925061409a565b6729a2241af62c0000925061409a565b673782dace9d900000925061409a565b674563918244f40000925061409a565b6753444835ec580000925061409a565b676124fee993bc0000925061409a565b676f05b59d3b200000925061409a565b677ce66c50e2840000925061409a565b678ac7230489e80000925061409a565b6798a7d9b8314c0000925061409a565b67a688906bd8b00000925061409a565b67b469471f80140000925061409a565b67c249fdd327780000925061409a565b67d02ab486cedc0000925061409a565b67de0b6b3a76400000925061409a565b67ebec21ee1da40000925061409a565b67f9ccd8a1c5080000925061409a565b680107ad8f556c6c0000925061409a565b6801158e460913d00000925061409a565b6801236efcbcbb340000925061409a565b6801314fb37062980000925061409a565b68013f306a2409fc0000925061409a565b68014d1120d7b1600000925061409a565b68015af1d78b58c40000925061409a565b680168d28e3f00280000925061409a565b680176b344f2a78c0000925061409a565b68018493fba64ef00000925061409a565b68019274b259f6540000925061409a565b6801a055690d9db80000925061409a565b6801ae361fc1451c0000925061409a565b6801bc16d674ec800000925061409a565b6801c9f78d2893e40000925061409a565b6801d7d843dc3b480000925061409a565b6801e5b8fa8fe2ac0000925061409a565b6801f399b1438a100000925061409a565b6802017a67f731740000925061409a565b68020f5b1eaad8d80000925061409a565b68021d3bd55e803c0000925061409a565b68022b1c8c1227a00000925061409a565b680238fd42c5cf040000925061409a565b680246ddf97976680000925061409a565b680254beb02d1dcc0000925061409a565b6802629f66e0c5300000925061409a565b680270801d946c940000925061409a565b68027e60d44813f80000925061409a565b68028c418afbbb5c0000925061409a565b68029a2241af62c00000925061409a565b6802a802f8630a240000925061409a565b6802b5e3af16b1880000925061409a565b6802c3c465ca58ec0000925061409a565b6802d1a51c7e00500000925061409a565b6802df85d331a7b40000925061409a565b6802ed6689e54f180000925061409a565b6802fb474098f67c0000925061409a565b68030927f74c9de00000925061409a565b68031708ae0045440000925061409a565b680324e964b3eca80000925061409a565b680332ca1b67940c000092505b5060001982036140da576140d7672e19dc008126bf2b670de0b6b3a76400006140c561263d87614c24565b02816140d3576140d3615e7d565b0490565b91505b50919050565b804710156141305760405162461bcd60e51b815260206004820152601d60248201527f416464726573733a20696e73756666696369656e742062616c616e63650000006044820152606401611ec1565b6000826001600160a01b03168260405160006040518083038185875af1925050503d806000811461417d576040519150601f19603f3d011682016040523d82523d6000602084013e614182565b606091505b505090508061302d5760405162461bcd60e51b815260206004820152603a60248201527f416464726573733a20756e61626c6520746f2073656e642076616c75652c207260448201527f6563697069656e74206d617920686176652072657665727465640000000000006064820152608401611ec1565b6000838152601e602090815260408083206001600160a01b0386168452600281019092528220548154919290159184918491614236908490615e08565b90915550506001600160a01b038416600090815260028301602052604081208054859290614265908490615e08565b909155505080156142a0576001828101805491820181556000908152602090200180546001600160a01b0319166001600160a01b0386161790555b6001600160a01b0384166000908152601d6020526040812080548592906142c8908490615e08565b9250508190555082601c60008282546142e19190615e08565b9091555050815460006142f48583615e56565b90508015614306576143068782614d5b565b6000828152601f60209081526040822080546001810182559083529120018790556143318183614e92565b50505050505050565b60008080600019858709858702925082811083820303915050806000036143745783828161436a5761436a615e7d565b0492505050611b48565b8381106143a557604051630c740aef60e31b8152600481018790526024810186905260448101859052606401611ec1565b60008486880960026001871981018816978890046003810283188082028403028082028403028082028403028082028403028082028403029081029092039091026000889003889004909101858311909403939093029303949094049190911702949350505050565b60008080600019848609848602925082811083820303915050806000036144425750670de0b6b3a76400009004905061163a565b670de0b6b3a7640000811061447457604051635173648d60e01b81526004810186905260248101859052604401611ec1565b6000670de0b6b3a764000085870962040000818503049310909103600160ee1b02919091177faccb18165bd6fe31ae1cf318dc5b51eee0e1ba569b88cd74c1773b91fac106690291505092915050565b600160bf1b67ff000000000000008216156145d1576780000000000000008216156144f85768016a09e667f3bcc9090260401c5b674000000000000000821615614517576801306fe0a31b7152df0260401c5b672000000000000000821615614536576801172b83c7d517adce0260401c5b6710000000000000008216156145555768010b5586cf9890f62a0260401c5b670800000000000000821615614574576801059b0d31585743ae0260401c5b67040000000000000082161561459357680102c9a3e778060ee70260401c5b6702000000000000008216156145b25768010163da9fb33356d80260401c5b6701000000000000008216156145d157680100b1afa5abcbed610260401c5b66ff0000000000008216156146d05766800000000000008216156145fe5768010058c86da1c09ea20260401c5b664000000000000082161561461c576801002c605e2e8cec500260401c5b662000000000000082161561463a57680100162f3904051fa10260401c5b6610000000000000821615614658576801000b175effdc76ba0260401c5b660800000000000082161561467657680100058ba01fb9f96d0260401c5b66040000000000008216156146945768010002c5cc37da94920260401c5b66020000000000008216156146b2576801000162e525ee05470260401c5b66010000000000008216156146d05768010000b17255775c040260401c5b65ff00000000008216156147c657658000000000008216156146fb576801000058b91b5bc9ae0260401c5b6540000000000082161561471857680100002c5c89d5ec6d0260401c5b652000000000008216156147355768010000162e43f4f8310260401c5b6510000000000082161561475257680100000b1721bcfc9a0260401c5b6508000000000082161561476f5768010000058b90cf1e6e0260401c5b6504000000000082161561478c576801000002c5c863b73f0260401c5b650200000000008216156147a957680100000162e430e5a20260401c5b650100000000008216156147c6576801000000b1721835510260401c5b64ff000000008216156148b3576480000000008216156147ef57680100000058b90c0b490260401c5b64400000000082161561480b5768010000002c5c8601cc0260401c5b642000000000821615614827576801000000162e42fff00260401c5b6410000000008216156148435768010000000b17217fbb0260401c5b64080000000082161561485f576801000000058b90bfce0260401c5b64040000000082161561487b57680100000002c5c85fe30260401c5b6402000000008216156148975768010000000162e42ff10260401c5b6401000000008216156148b357680100000000b17217f80260401c5b63ff0000008216156149975763800000008216156148da5768010000000058b90bfc0260401c5b63400000008216156148f5576801000000002c5c85fe0260401c5b632000000082161561491057680100000000162e42ff0260401c5b631000000082161561492b576801000000000b17217f0260401c5b630800000082161561494657680100000000058b90c00260401c5b63040000008216156149615768010000000002c5c8600260401c5b630200000082161561497c576801000000000162e4300260401c5b63010000008216156149975768010000000000b172180260401c5b62ff0000821615614a7257628000008216156149bc576801000000000058b90c0260401c5b624000008216156149d657680100000000002c5c860260401c5b622000008216156149f05768010000000000162e430260401c5b62100000821615614a0a57680100000000000b17210260401c5b62080000821615614a245768010000000000058b910260401c5b62040000821615614a3e576801000000000002c5c80260401c5b62020000821615614a5857680100000000000162e40260401c5b62010000821615614a72576801000000000000b1720260401c5b61ff00821615614b4457618000821615614a9557680100000000000058b90260401c5b614000821615614aae5768010000000000002c5d0260401c5b612000821615614ac7576801000000000000162e0260401c5b611000821615614ae05768010000000000000b170260401c5b610800821615614af9576801000000000000058c0260401c5b610400821615614b1257680100000000000002c60260401c5b610200821615614b2b57680100000000000001630260401c5b610100821615614b4457680100000000000000b10260401c5b60ff821615614c0d576080821615614b6557680100000000000000590260401c5b6040821615614b7d576801000000000000002c0260401c5b6020821615614b9557680100000000000000160260401c5b6010821615614bad576801000000000000000b0260401c5b6008821615614bc557680100000000000000060260401c5b6004821615614bdd57680100000000000000030260401c5b6002821615614bf557680100000000000000010260401c5b6001821615614c0d57680100000000000000010260401c5b670de0b6b3a76400000260409190911c60bf031c90565b600081670de0b6b3a7640000811015614c535760405163036d32ef60e41b815260048101849052602401611ec1565b6000614cde670de0b6b3a7640000830460016fffffffffffffffffffffffffffffffff821160071b91821c6001600160401b03811160061b90811c63ffffffff811160051b90811c61ffff811160041b90811c60ff8111600390811b91821c600f811160021b90811c918211871b91821c969096119490961792909217171791909117919091171790565b9050670de0b6b3a7640000810282821c670de0b6b3a763ffff198101614d0a57815b9695505050505050565b671bc16d674ec800006706f05b59d3b200005b8015614d4d57670de0b6b3a7640000838002049250818310614d45579283019260019290921c915b60011c614d1d565b50825b979650505050505050565b6000818152601f6020908152604080832080548251818502810185019093528083529192909190830182828015614db157602002820191906000526020600020905b815481526020019060010190808311614d9d575b5050505050905060005b8151811015614e8c5783828281518110614dd757614dd7615e1b565b602002602001015103614e7a578160018351614df39190615e56565b81518110614e0357614e03615e1b565b6020026020010151601f60008581526020019081526020016000208281548110614e2f57614e2f615e1b565b9060005260206000200181905550601f6000848152602001908152602001600020805480614e5f57614e5f615f4e565b60019003818190600052602060002001600090559055614e8c565b80614e8481615e31565b915050614dbb565b50505050565b60018054604080516020808402820181019092528281529192600092918490830182828015614ee057602002820191906000526020600020905b815481526020019060010190808311614ecc575b5050505050905081600003614f265750506001805480820182556000919091527fb10e2d527612073b26eecdfd717e6a320cf44b4afac2b0732d9fcbe2b7fa0cf6015550565b80614f32600184615e56565b81518110614f4257614f42615e1b565b6020026020010151831015614f97576000548203614f605750505050565b50506001805480820182556000919091527fb10e2d527612073b26eecdfd717e6a320cf44b4afac2b0732d9fcbe2b7fa0cf6015550565b614e8c848484846000805b8381101561500c57828181518110614fbc57614fbc615e1b565b60200260200101518503614fd1575050614e8c565b828181518110614fe357614fe3615e1b565b6020026020010151851115614ffa5780915061500c565b8061500481615e31565b915050614fa2565b506000808611801561502a57506000868152601f6020526040902054155b9050600081801561505357508684848151811061504957615049615e1b565b6020026020010151145b61515b57615062600186615e56565b831461510a576000615075846001615e08565b90505b85811015615108578461508c600183615e56565b8151811061509c5761509c615e1b565b6020026020010151600182815481106150b7576150b7615e1b565b6000918252602090912001558280156150e85750878582815181106150de576150de615e1b565b6020026020010151145b156150f65760019150615108565b8061510081615e31565b915050615078565b505b80158015615119575060005485105b1561515b5760018461512b8288615e56565b8151811061513b5761513b615e1b565b602090810291909101810151825460018101845560009384529190922001555b856001848154811061516f5761516f615e1b565b60009182526020909120015550505050505050565b604051806080016040528060006001600160a01b03168152602001600015158152602001606081526020016151d360405180606001604052806060815260200160608152602001606081525090565b905290565b82805482825590600052602060002090810192821561522d579160200282015b8281111561522d57825182546001600160a01b0319166001600160a01b039091161782556020909201916001909101906151f8565b506152399291506152ca565b5090565b828054828255906000526020600020908101928215615283579160200282015b8281111561528357825182906152739082615d33565b509160200191906001019061525d565b506152399291506152df565b82805482825590600052602060002090810192821561522d579160200282015b8281111561522d5782518255916020019190600101906152af565b5b8082111561523957600081556001016152cb565b808211156152395760006152f382826152fc565b506001016152df565b50805461530890615cb1565b6000825580601f10615318575050565b601f01602090049060005260206000209081019061232c91906152ca565b60006020828403121561534857600080fd5b5035919050565b6000815180845260005b8181101561537557602081850181015186830182015201615359565b506000602082860101526020601f19601f83011685010191505092915050565b600081518084526020808501945080840160005b838110156153c5578151875295820195908201906001016153a9565b509495945050505050565b805160608084528151908401819052600091602091908201906080860190845b818110156154155783516001600160a01b0316835292840192918401916001016153f0565b505084830151868203878501528051808352908401925081840190600581901b8301850160005b8281101561546a57601f1985830301845261545882875161534f565b9587019593870193915060010161543c565b506040880151955088810360408a01526154848187615395565b9998505050505050505050565b6001600160a01b038516815283151560208201526080604082018190526000906154bd9083018561534f565b8281036060840152614d5081856153d0565b6001600160a01b038116811461232c57600080fd5b6000602082840312156154f657600080fd5b8135611b48816154cf565b602081526000611b48602083018461534f565b6020815260018060a01b03825116602082015260208201516040820152604082015160608201526000606083015160808084015261170560a084018261534f565b602081526000611b486020830184615395565b634e487b7160e01b600052604160045260246000fd5b604051608081016001600160401b03811182821017156155a0576155a0615568565b60405290565b604051606081016001600160401b03811182821017156155a0576155a0615568565b604051601f8201601f191681016001600160401b03811182821017156155f0576155f0615568565b604052919050565b600082601f83011261560957600080fd5b81356001600160401b0381111561562257615622615568565b615635601f8201601f19166020016155c8565b81815284602083860101111561564a57600080fd5b816020850160208301376000918101602001919091529392505050565b6000806040838503121561567a57600080fd5b8235915060208301356001600160401b0381111561569757600080fd5b6156a3858286016155f8565b9150509250929050565b600080604083850312156156c057600080fd5b50508035926020909101359150565b6020808252825182820181905260009190848201906040850190845b818110156157105783516001600160a01b0316835292840192918401916001016156eb565b50909695505050505050565b60006020828403121561572e57600080fd5b81356001600160401b038082111561574557600080fd5b908301906080828603121561575957600080fd5b61576161557e565b823561576c816154cf565b80825250602083013560208201526040830135604082015260608301358281111561579657600080fd5b6157a2878286016155f8565b60608301525095945050505050565b6040815260006157c46040830185615395565b82810360208401526157d68185615395565b95945050505050565b600080604083850312156157f257600080fd5b823591506020830135615804816154cf565b809150509250929050565b60006020828403121561582157600080fd5b81356001600160401b0381111561583757600080fd5b820160808185031215611b4857600080fd5b60018060a01b0385168152836020820152826040820152608060608201526000614d00608083018461534f565b60006001600160401b0382111561588f5761588f615568565b5060051b60200190565b600082601f8301126158aa57600080fd5b813560206158bf6158ba83615876565b6155c8565b82815260059290921b840181019181810190868411156158de57600080fd5b8286015b8481101561591d5780356001600160401b038111156159015760008081fd5b61590f8986838b01016155f8565b8452509183019183016158e2565b509695505050505050565b600082601f83011261593957600080fd5b813560206159496158ba83615876565b82815260059290921b8401810191818101908684111561596857600080fd5b8286015b8481101561591d578035835291830191830161596c565b60006080828403121561599557600080fd5b61599d61557e565b905081356159aa816154cf565b815260208281013580151581146159c057600080fd5b8282015260408301356001600160401b03808211156159de57600080fd5b6159ea868387016155f8565b60408501526060850135915080821115615a0357600080fd5b9084019060608287031215615a1757600080fd5b615a1f6155a6565b823582811115615a2e57600080fd5b8301601f81018813615a3f57600080fd5b8035615a4d6158ba82615876565b81815260059190911b8201860190868101908a831115615a6c57600080fd5b928701925b82841015615a93578335615a84816154cf565b82529287019290870190615a71565b84525050508284013582811115615aa957600080fd5b615ab588828601615899565b85830152506040830135935081841115615ace57600080fd5b615ada87858501615928565b604082015260608501525091949350505050565b600060208284031215615b0057600080fd5b81356001600160401b03811115615b1657600080fd5b61170584828501615983565b600060208284031215615b3457600080fd5b81356001600160401b03811115615b4a57600080fd5b61170584828501615928565b600060208284031215615b6857600080fd5b81356001600160401b03811115615b7e57600080fd5b611705848285016155f8565b634e487b7160e01b600052602160045260246000fd5b6020810160058310615bb457615bb4615b8a565b91905290565b6020815260018060a01b0382511660208201526020820151151560408201526000604083015160806060840152615bf460a084018261534f565b90506060840151601f198483030160808501526157d682826153d0565b60008060408385031215615c2457600080fd5b8235615c2f816154cf565b946020939093013593505050565b60008060208385031215615c5057600080fd5b82356001600160401b0380821115615c6757600080fd5b818501915085601f830112615c7b57600080fd5b813581811115615c8a57600080fd5b8660208260051b8501011115615c9f57600080fd5b60209290920196919550909350505050565b600181811c90821680615cc557607f821691505b6020821081036140da57634e487b7160e01b600052602260045260246000fd5b601f82111561302d57600081815260208120601f850160051c81016020861015615d0c5750805b601f850160051c820191505b81811015615d2b57828155600101615d18565b505050505050565b81516001600160401b03811115615d4c57615d4c615568565b615d6081615d5a8454615cb1565b84615ce5565b602080601f831160018114615d955760008415615d7d5750858301515b600019600386901b1c1916600185901b178555615d2b565b600085815260208120601f198616915b82811015615dc457888601518255948401946001909101908401615da5565b5085821015615de25787850151600019600388901b60f8161c191681555b5050505050600190811b01905550565b634e487b7160e01b600052601160045260246000fd5b8082018082111561163a5761163a615df2565b634e487b7160e01b600052603260045260246000fd5b600060018201615e4357615e43615df2565b5060010190565b600061163a3683615983565b8181038181111561163a5761163a615df2565b6020810160018310615bb457615bb4615b8a565b634e487b7160e01b600052601260045260246000fd5b600082615eb057634e487b7160e01b600052601260045260246000fd5b500490565b808202811582820484141761163a5761163a615df2565b6020808252825482820181905260008481528281209092916040850190845b8181101561571057835483526001938401939285019201615eeb565b600060208284031215615f1957600080fd5b8151611b48816154cf565b8381526001600160a01b03831660208201526060604082018190526000906157d69083018461534f565b634e487b7160e01b600052603160045260246000fdfea264697066735822122024c686051c108da6e963f0448df49445bb58c40335917e720e42833348a35fa264736f6c63430008130033","linkReferences":{}},"methodIdentifiers":{"AMOUNT_FOR_SUMBITTER_PROOF()":"347cf665","COST_ROUNDING_VALUE()":"e269cefe","JK_LABS_ADDRESS()":"eef18e17","MAX_FIELDS_METADATA_LENGTH()":"b382543f","METADATAS_COUNT()":"4d24a67f","PRICE_CURVE_UPDATE_INTERVAL()":"fd7971c9","SECONDS_IN_DAY()":"61a52a36","SECONDS_IN_HOUR()":"8793f2c7","addressTotalCastVoteCount(address)":"dda54fcf","addressesThatHaveVoted(uint256)":"50c4b616","allProposalTotalVotes()":"50a5e524","anyoneCanSubmit()":"5358b80e","cancel()":"ea8a1af0","canceled()":"3f9942ff","castVote(uint256,uint256)":"2c0a3f89","comment(uint256,string)":"1805c523","commentIds(uint256)":"f5c36411","commentIsDeleted(uint256)":"ae66b8ad","comments(uint256)":"8ebb4c15","contestAddressTotalVotesCast(address)":"aec116b6","contestDeadline()":"262e59e9","contestStart()":"004114a8","costToVote()":"51a41dec","creator()":"02d05d3f","creatorSplitEnabled()":"9decae31","currentPricePerVote()":"ca09a4c4","deleteComments(uint256[])":"ac67f801","deleteProposals(uint256[])":"f0a7db0a","deletedCommentIds(uint256)":"3fb57c92","deletedProposalIds(uint256)":"05846cae","getAllAddressesThatHaveVoted()":"2c39805f","getAllAuthorsOfDeletedProposals()":"cbdc27cb","getAllCommentIds()":"e11db9d8","getAllDeletedCommentIds()":"5cb718a1","getAllDeletedProposalIds()":"1242b737","getAllProposalAuthors()":"946369b5","getAllProposalIds()":"efa90d36","getComment(uint256)":"0800e300","getNumProposalsWithThisManyVotes(uint256)":"bc022c98","getOnlyProposalIdWithThisManyVotes(uint256)":"d576b81d","getProposal(uint256)":"c7f758a8","getProposalComments(uint256)":"c05f4104","getProposalsWithThisManyVotes(uint256)":"f82e54c0","getRankIndex(uint256)":"5c7107d8","getSortedRanks()":"6fd3636b","getTotalSpentByAddress(address)":"80cc8f43","getTotalSpentByAddressOnProposal(address,uint256)":"cddb9857","hashComment((address,uint256,uint256,string))":"409fd030","hashProposal((address,bool,string,(address[],string[],uint256[])))":"a119278b","isOrIsBelowTiedRank(uint256)":"9174778c","jkLabsSplitDestination()":"102613d8","maxProposalCount()":"fb9bf8d4","metadataFieldsSchema()":"60ed97a9","multiple()":"437a8ae6","name()":"06fdde03","numAllowedProposalSubmissions()":"832009af","numSubmissions(address)":"75e509c5","officialRewardsModule()":"785ddfe5","percentageToRewards()":"06b2193f","priceCurveType()":"4a2c96ec","prompt()":"7c65d711","proposalAddressVotes(uint256,address)":"6e4eb810","proposalAddressesHaveVoted(uint256)":"b323580d","proposalAuthors(uint256)":"0aa25e44","proposalComments(uint256,uint256)":"f61736f4","proposalIds(uint256)":"9b644a23","proposalIsDeleted(uint256)":"f79c0172","proposalVoteStructs(uint256)":"15dee7cd","proposalVotes(uint256)":"544ffc9c","proposals(uint256)":"013cf08b","propose((address,bool,string,(address[],string[],uint256[])))":"8225c11d","rankLimit()":"0414126a","setJkLabsSplitDestination(address)":"9b338aa0","setName(string)":"c47f0027","setOfficialRewardsModule(address)":"f4f3d7ec","setPrompt(string)":"b4ac024f","sortedRanks(uint256)":"325cc6d9","state()":"c19d93fb","totalSpentByAddress(address)":"04a1aeae","totalSpentByAddressOnProposal(address,uint256)":"e41b1f10","totalVotesCast()":"7de418d5","totalVotesCastIsZero()":"7d742925","validateProposalData((address,bool,string,(address[],string[],uint256[])))":"c7f252d7","verifyProposer()":"476106c8","version()":"54fd4d50","voteStart()":"e031535b","votesToProposalIds(uint256,uint256)":"6d030621","votingDelay()":"3932abb1","votingPeriod()":"02a251a3"},"id":52}