{"abi":[{"type":"constructor","inputs":[{"name":"_constructorArgs","type":"tuple","internalType":"struct Governor.ConstructorArgs","components":[{"name":"name","type":"string","internalType":"string"},{"name":"prompt","type":"string","internalType":"string"},{"name":"intConstructorArgs","type":"tuple","internalType":"struct Governor.IntConstructorArgs","components":[{"name":"anyoneCanSubmit","type":"uint256","internalType":"uint256"},{"name":"contestStart","type":"uint256","internalType":"uint256"},{"name":"votingDelay","type":"uint256","internalType":"uint256"},{"name":"votingPeriod","type":"uint256","internalType":"uint256"},{"name":"numAllowedProposalSubmissions","type":"uint256","internalType":"uint256"},{"name":"maxProposalCount","type":"uint256","internalType":"uint256"},{"name":"rankLimit","type":"uint256","internalType":"uint256"},{"name":"percentageToRewards","type":"uint256","internalType":"uint256"},{"name":"costToVote","type":"uint256","internalType":"uint256"},{"name":"priceCurveType","type":"uint256","internalType":"uint256"},{"name":"multiple","type":"uint256","internalType":"uint256"},{"name":"creatorSplitEnabled","type":"uint256","internalType":"uint256"}]},{"name":"jkLabsSplitDestination","type":"address","internalType":"address"}]}],"stateMutability":"nonpayable"},{"type":"function","name":"AMOUNT_FOR_SUMBITTER_PROOF","inputs":[],"outputs":[{"name":"","type":"uint256","internalType":"uint256"}],"stateMutability":"view"},{"type":"function","name":"COST_ROUNDING_VALUE","inputs":[],"outputs":[{"name":"","type":"uint256","internalType":"uint256"}],"stateMutability":"view"},{"type":"function","name":"JK_LABS_ADDRESS","inputs":[],"outputs":[{"name":"","type":"address","internalType":"address"}],"stateMutability":"view"},{"type":"function","name":"PRICE_CURVE_UPDATE_INTERVAL","inputs":[],"outputs":[{"name":"","type":"uint256","internalType":"uint256"}],"stateMutability":"view"},{"type":"function","name":"SECONDS_IN_DAY","inputs":[],"outputs":[{"name":"","type":"uint256","internalType":"uint256"}],"stateMutability":"view"},{"type":"function","name":"SECONDS_IN_HOUR","inputs":[],"outputs":[{"name":"","type":"uint256","internalType":"uint256"}],"stateMutability":"view"},{"type":"function","name":"addressTotalCastVoteCount","inputs":[{"name":"","type":"address","internalType":"address"}],"outputs":[{"name":"","type":"uint256","internalType":"uint256"}],"stateMutability":"view"},{"type":"function","name":"addressesThatHaveVoted","inputs":[{"name":"","type":"uint256","internalType":"uint256"}],"outputs":[{"name":"","type":"address","internalType":"address"}],"stateMutability":"view"},{"type":"function","name":"allProposalTotalVotes","inputs":[],"outputs":[{"name":"proposalIdsReturn","type":"uint256[]","internalType":"uint256[]"},{"name":"proposalVoteCountsArrayReturn","type":"uint256[]","internalType":"uint256[]"}],"stateMutability":"view"},{"type":"function","name":"anyoneCanSubmit","inputs":[],"outputs":[{"name":"","type":"uint256","internalType":"uint256"}],"stateMutability":"view"},{"type":"function","name":"cancel","inputs":[],"outputs":[],"stateMutability":"nonpayable"},{"type":"function","name":"canceled","inputs":[],"outputs":[{"name":"","type":"bool","internalType":"bool"}],"stateMutability":"view"},{"type":"function","name":"castVote","inputs":[{"name":"proposalId","type":"uint256","internalType":"uint256"},{"name":"numVotes","type":"uint256","internalType":"uint256"}],"outputs":[{"name":"","type":"uint256","internalType":"uint256"}],"stateMutability":"payable"},{"type":"function","name":"comment","inputs":[{"name":"proposalId","type":"uint256","internalType":"uint256"},{"name":"commentContent","type":"string","internalType":"string"}],"outputs":[{"name":"","type":"uint256","internalType":"uint256"}],"stateMutability":"nonpayable"},{"type":"function","name":"commentIds","inputs":[{"name":"","type":"uint256","internalType":"uint256"}],"outputs":[{"name":"","type":"uint256","internalType":"uint256"}],"stateMutability":"view"},{"type":"function","name":"commentIsDeleted","inputs":[{"name":"","type":"uint256","internalType":"uint256"}],"outputs":[{"name":"","type":"bool","internalType":"bool"}],"stateMutability":"view"},{"type":"function","name":"comments","inputs":[{"name":"","type":"uint256","internalType":"uint256"}],"outputs":[{"name":"author","type":"address","internalType":"address"},{"name":"timestamp","type":"uint256","internalType":"uint256"},{"name":"proposalId","type":"uint256","internalType":"uint256"},{"name":"commentContent","type":"string","internalType":"string"}],"stateMutability":"view"},{"type":"function","name":"contestAddressTotalVotesCast","inputs":[{"name":"userAddress","type":"address","internalType":"address"}],"outputs":[{"name":"userTotalVotesCast","type":"uint256","internalType":"uint256"}],"stateMutability":"view"},{"type":"function","name":"contestDeadline","inputs":[],"outputs":[{"name":"","type":"uint256","internalType":"uint256"}],"stateMutability":"view"},{"type":"function","name":"contestStart","inputs":[],"outputs":[{"name":"","type":"uint256","internalType":"uint256"}],"stateMutability":"view"},{"type":"function","name":"costToVote","inputs":[],"outputs":[{"name":"","type":"uint256","internalType":"uint256"}],"stateMutability":"view"},{"type":"function","name":"creator","inputs":[],"outputs":[{"name":"","type":"address","internalType":"address"}],"stateMutability":"view"},{"type":"function","name":"creatorSplitEnabled","inputs":[],"outputs":[{"name":"","type":"uint256","internalType":"uint256"}],"stateMutability":"view"},{"type":"function","name":"currentPricePerVote","inputs":[],"outputs":[{"name":"","type":"uint256","internalType":"uint256"}],"stateMutability":"view"},{"type":"function","name":"deleteComments","inputs":[{"name":"commentIdsParam","type":"uint256[]","internalType":"uint256[]"}],"outputs":[],"stateMutability":"nonpayable"},{"type":"function","name":"deleteProposals","inputs":[{"name":"proposalIdsToDelete","type":"uint256[]","internalType":"uint256[]"}],"outputs":[],"stateMutability":"nonpayable"},{"type":"function","name":"deletedCommentIds","inputs":[{"name":"","type":"uint256","internalType":"uint256"}],"outputs":[{"name":"","type":"uint256","internalType":"uint256"}],"stateMutability":"view"},{"type":"function","name":"deletedProposalIds","inputs":[{"name":"","type":"uint256","internalType":"uint256"}],"outputs":[{"name":"","type":"uint256","internalType":"uint256"}],"stateMutability":"view"},{"type":"function","name":"getAllAddressesThatHaveVoted","inputs":[],"outputs":[{"name":"","type":"address[]","internalType":"address[]"}],"stateMutability":"view"},{"type":"function","name":"getAllAuthorsOfDeletedProposals","inputs":[],"outputs":[{"name":"","type":"address[]","internalType":"address[]"}],"stateMutability":"view"},{"type":"function","name":"getAllCommentIds","inputs":[],"outputs":[{"name":"","type":"uint256[]","internalType":"uint256[]"}],"stateMutability":"view"},{"type":"function","name":"getAllDeletedCommentIds","inputs":[],"outputs":[{"name":"","type":"uint256[]","internalType":"uint256[]"}],"stateMutability":"view"},{"type":"function","name":"getAllDeletedProposalIds","inputs":[],"outputs":[{"name":"","type":"uint256[]","internalType":"uint256[]"}],"stateMutability":"view"},{"type":"function","name":"getAllProposalAuthors","inputs":[],"outputs":[{"name":"","type":"address[]","internalType":"address[]"}],"stateMutability":"view"},{"type":"function","name":"getAllProposalIds","inputs":[],"outputs":[{"name":"","type":"uint256[]","internalType":"uint256[]"}],"stateMutability":"view"},{"type":"function","name":"getComment","inputs":[{"name":"commentId","type":"uint256","internalType":"uint256"}],"outputs":[{"name":"","type":"tuple","internalType":"struct GovernorEngagement.CommentCore","components":[{"name":"author","type":"address","internalType":"address"},{"name":"timestamp","type":"uint256","internalType":"uint256"},{"name":"proposalId","type":"uint256","internalType":"uint256"},{"name":"commentContent","type":"string","internalType":"string"}]}],"stateMutability":"view"},{"type":"function","name":"getNumProposalsWithThisManyVotes","inputs":[{"name":"votes","type":"uint256","internalType":"uint256"}],"outputs":[{"name":"count","type":"uint256","internalType":"uint256"}],"stateMutability":"view"},{"type":"function","name":"getOnlyProposalIdWithThisManyVotes","inputs":[{"name":"votes","type":"uint256","internalType":"uint256"}],"outputs":[{"name":"proposalId","type":"uint256","internalType":"uint256"}],"stateMutability":"view"},{"type":"function","name":"getProposal","inputs":[{"name":"proposalId","type":"uint256","internalType":"uint256"}],"outputs":[{"name":"","type":"tuple","internalType":"struct Governor.ProposalCore","components":[{"name":"author","type":"address","internalType":"address"},{"name":"exists","type":"bool","internalType":"bool"},{"name":"description","type":"string","internalType":"string"}]}],"stateMutability":"view"},{"type":"function","name":"getProposalComments","inputs":[{"name":"proposalId","type":"uint256","internalType":"uint256"}],"outputs":[{"name":"","type":"uint256[]","internalType":"uint256[]"}],"stateMutability":"view"},{"type":"function","name":"getProposalsWithThisManyVotes","inputs":[{"name":"votes","type":"uint256","internalType":"uint256"}],"outputs":[{"name":"proposalsWithThisManyVotes","type":"uint256[]","internalType":"uint256[]"}],"stateMutability":"view"},{"type":"function","name":"getRankIndex","inputs":[{"name":"rank","type":"uint256","internalType":"uint256"}],"outputs":[{"name":"rankIndex","type":"uint256","internalType":"uint256"}],"stateMutability":"view"},{"type":"function","name":"getSortedRanks","inputs":[],"outputs":[{"name":"sortedRanksArray","type":"uint256[]","internalType":"uint256[]"}],"stateMutability":"view"},{"type":"function","name":"getTotalSpentByAddress","inputs":[{"name":"spendingAddress","type":"address","internalType":"address"}],"outputs":[{"name":"totalSpent","type":"uint256","internalType":"uint256"}],"stateMutability":"view"},{"type":"function","name":"getTotalSpentByAddressOnProposal","inputs":[{"name":"spendingAddress","type":"address","internalType":"address"},{"name":"proposalId","type":"uint256","internalType":"uint256"}],"outputs":[{"name":"totalSpent","type":"uint256","internalType":"uint256"}],"stateMutability":"view"},{"type":"function","name":"hashComment","inputs":[{"name":"commentObj","type":"tuple","internalType":"struct GovernorEngagement.CommentCore","components":[{"name":"author","type":"address","internalType":"address"},{"name":"timestamp","type":"uint256","internalType":"uint256"},{"name":"proposalId","type":"uint256","internalType":"uint256"},{"name":"commentContent","type":"string","internalType":"string"}]}],"outputs":[{"name":"","type":"uint256","internalType":"uint256"}],"stateMutability":"pure"},{"type":"function","name":"hashProposal","inputs":[{"name":"proposal","type":"tuple","internalType":"struct Governor.ProposalCore","components":[{"name":"author","type":"address","internalType":"address"},{"name":"exists","type":"bool","internalType":"bool"},{"name":"description","type":"string","internalType":"string"}]}],"outputs":[{"name":"","type":"uint256","internalType":"uint256"}],"stateMutability":"pure"},{"type":"function","name":"isOrIsBelowTiedRank","inputs":[{"name":"idx","type":"uint256","internalType":"uint256"}],"outputs":[{"name":"atOrBelowTiedRank","type":"bool","internalType":"bool"}],"stateMutability":"view"},{"type":"function","name":"jkLabsSplitDestination","inputs":[],"outputs":[{"name":"","type":"address","internalType":"address"}],"stateMutability":"view"},{"type":"function","name":"maxProposalCount","inputs":[],"outputs":[{"name":"","type":"uint256","internalType":"uint256"}],"stateMutability":"view"},{"type":"function","name":"multiple","inputs":[],"outputs":[{"name":"","type":"uint256","internalType":"uint256"}],"stateMutability":"view"},{"type":"function","name":"name","inputs":[],"outputs":[{"name":"","type":"string","internalType":"string"}],"stateMutability":"view"},{"type":"function","name":"numAllowedProposalSubmissions","inputs":[],"outputs":[{"name":"","type":"uint256","internalType":"uint256"}],"stateMutability":"view"},{"type":"function","name":"numSubmissions","inputs":[{"name":"","type":"address","internalType":"address"}],"outputs":[{"name":"","type":"uint256","internalType":"uint256"}],"stateMutability":"view"},{"type":"function","name":"officialRewardsModule","inputs":[],"outputs":[{"name":"","type":"address","internalType":"address"}],"stateMutability":"view"},{"type":"function","name":"percentageToRewards","inputs":[],"outputs":[{"name":"","type":"uint256","internalType":"uint256"}],"stateMutability":"view"},{"type":"function","name":"priceCurveType","inputs":[],"outputs":[{"name":"","type":"uint256","internalType":"uint256"}],"stateMutability":"view"},{"type":"function","name":"prompt","inputs":[],"outputs":[{"name":"","type":"string","internalType":"string"}],"stateMutability":"view"},{"type":"function","name":"proposalAddressVotes","inputs":[{"name":"proposalId","type":"uint256","internalType":"uint256"},{"name":"userAddress","type":"address","internalType":"address"}],"outputs":[{"name":"voteCount","type":"uint256","internalType":"uint256"}],"stateMutability":"view"},{"type":"function","name":"proposalAddressesHaveVoted","inputs":[{"name":"proposalId","type":"uint256","internalType":"uint256"}],"outputs":[{"name":"","type":"address[]","internalType":"address[]"}],"stateMutability":"view"},{"type":"function","name":"proposalAuthors","inputs":[{"name":"","type":"uint256","internalType":"uint256"}],"outputs":[{"name":"","type":"address","internalType":"address"}],"stateMutability":"view"},{"type":"function","name":"proposalComments","inputs":[{"name":"","type":"uint256","internalType":"uint256"},{"name":"","type":"uint256","internalType":"uint256"}],"outputs":[{"name":"","type":"uint256","internalType":"uint256"}],"stateMutability":"view"},{"type":"function","name":"proposalIds","inputs":[{"name":"","type":"uint256","internalType":"uint256"}],"outputs":[{"name":"","type":"uint256","internalType":"uint256"}],"stateMutability":"view"},{"type":"function","name":"proposalIsDeleted","inputs":[{"name":"","type":"uint256","internalType":"uint256"}],"outputs":[{"name":"","type":"bool","internalType":"bool"}],"stateMutability":"view"},{"type":"function","name":"proposalVoteStructs","inputs":[{"name":"","type":"uint256","internalType":"uint256"}],"outputs":[{"name":"proposalVoteCount","type":"uint256","internalType":"uint256"}],"stateMutability":"view"},{"type":"function","name":"proposalVotes","inputs":[{"name":"proposalId","type":"uint256","internalType":"uint256"}],"outputs":[{"name":"voteCount","type":"uint256","internalType":"uint256"}],"stateMutability":"view"},{"type":"function","name":"proposals","inputs":[{"name":"","type":"uint256","internalType":"uint256"}],"outputs":[{"name":"author","type":"address","internalType":"address"},{"name":"exists","type":"bool","internalType":"bool"},{"name":"description","type":"string","internalType":"string"}],"stateMutability":"view"},{"type":"function","name":"propose","inputs":[{"name":"proposal","type":"tuple","internalType":"struct Governor.ProposalCore","components":[{"name":"author","type":"address","internalType":"address"},{"name":"exists","type":"bool","internalType":"bool"},{"name":"description","type":"string","internalType":"string"}]}],"outputs":[{"name":"","type":"uint256","internalType":"uint256"}],"stateMutability":"nonpayable"},{"type":"function","name":"rankLimit","inputs":[],"outputs":[{"name":"","type":"uint256","internalType":"uint256"}],"stateMutability":"view"},{"type":"function","name":"setJkLabsSplitDestination","inputs":[{"name":"newJkLabsSplitDestination","type":"address","internalType":"address"}],"outputs":[],"stateMutability":"nonpayable"},{"type":"function","name":"setName","inputs":[{"name":"newName","type":"string","internalType":"string"}],"outputs":[{"name":"","type":"string","internalType":"string"}],"stateMutability":"nonpayable"},{"type":"function","name":"setOfficialRewardsModule","inputs":[{"name":"officialRewardsModule_","type":"address","internalType":"address"}],"outputs":[],"stateMutability":"nonpayable"},{"type":"function","name":"setPrompt","inputs":[{"name":"newPrompt","type":"string","internalType":"string"}],"outputs":[{"name":"","type":"string","internalType":"string"}],"stateMutability":"nonpayable"},{"type":"function","name":"sortedRanks","inputs":[{"name":"","type":"uint256","internalType":"uint256"}],"outputs":[{"name":"","type":"uint256","internalType":"uint256"}],"stateMutability":"view"},{"type":"function","name":"state","inputs":[],"outputs":[{"name":"","type":"uint8","internalType":"enum Governor.ContestState"}],"stateMutability":"view"},{"type":"function","name":"totalSpentByAddress","inputs":[{"name":"","type":"address","internalType":"address"}],"outputs":[{"name":"","type":"uint256","internalType":"uint256"}],"stateMutability":"view"},{"type":"function","name":"totalSpentByAddressOnProposal","inputs":[{"name":"","type":"address","internalType":"address"},{"name":"","type":"uint256","internalType":"uint256"}],"outputs":[{"name":"","type":"uint256","internalType":"uint256"}],"stateMutability":"view"},{"type":"function","name":"totalVotesCast","inputs":[],"outputs":[{"name":"","type":"uint256","internalType":"uint256"}],"stateMutability":"view"},{"type":"function","name":"totalVotesCastIsZero","inputs":[],"outputs":[{"name":"totalVotesCastZero","type":"bool","internalType":"bool"}],"stateMutability":"view"},{"type":"function","name":"validateProposalData","inputs":[{"name":"proposal","type":"tuple","internalType":"struct Governor.ProposalCore","components":[{"name":"author","type":"address","internalType":"address"},{"name":"exists","type":"bool","internalType":"bool"},{"name":"description","type":"string","internalType":"string"}]}],"outputs":[],"stateMutability":"view"},{"type":"function","name":"verifyProposer","inputs":[],"outputs":[],"stateMutability":"view"},{"type":"function","name":"version","inputs":[],"outputs":[{"name":"","type":"string","internalType":"string"}],"stateMutability":"pure"},{"type":"function","name":"voteStart","inputs":[],"outputs":[{"name":"","type":"uint256","internalType":"uint256"}],"stateMutability":"view"},{"type":"function","name":"votesToProposalIds","inputs":[{"name":"","type":"uint256","internalType":"uint256"},{"name":"","type":"uint256","internalType":"uint256"}],"outputs":[{"name":"","type":"uint256","internalType":"uint256"}],"stateMutability":"view"},{"type":"function","name":"votingDelay","inputs":[],"outputs":[{"name":"","type":"uint256","internalType":"uint256"}],"stateMutability":"view"},{"type":"function","name":"votingPeriod","inputs":[],"outputs":[{"name":"","type":"uint256","internalType":"uint256"}],"stateMutability":"view"},{"type":"event","name":"CommentCreated","inputs":[{"name":"commentId","type":"uint256","indexed":false,"internalType":"uint256"}],"anonymous":false},{"type":"event","name":"CommentsDeleted","inputs":[{"name":"commentIds","type":"uint256[]","indexed":false,"internalType":"uint256[]"}],"anonymous":false},{"type":"event","name":"ContestCanceled","inputs":[],"anonymous":false},{"type":"event","name":"CreatorPaymentReleased","inputs":[{"name":"to","type":"address","indexed":false,"internalType":"address"},{"name":"amount","type":"uint256","indexed":false,"internalType":"uint256"}],"anonymous":false},{"type":"event","name":"JkLabsPaymentReleased","inputs":[{"name":"to","type":"address","indexed":false,"internalType":"address"},{"name":"amount","type":"uint256","indexed":false,"internalType":"uint256"}],"anonymous":false},{"type":"event","name":"JokeraceCreated","inputs":[{"name":"version","type":"string","indexed":false,"internalType":"string"},{"name":"name","type":"string","indexed":false,"internalType":"string"},{"name":"prompt","type":"string","indexed":false,"internalType":"string"},{"name":"creator","type":"address","indexed":false,"internalType":"address"},{"name":"contestStart","type":"uint256","indexed":false,"internalType":"uint256"},{"name":"votingDelay","type":"uint256","indexed":false,"internalType":"uint256"},{"name":"votingPeriod","type":"uint256","indexed":false,"internalType":"uint256"}],"anonymous":false},{"type":"event","name":"OfficialRewardsModuleSet","inputs":[{"name":"oldOfficialRewardsModule","type":"address","indexed":false,"internalType":"address"},{"name":"newOfficialRewardsModule","type":"address","indexed":false,"internalType":"address"}],"anonymous":false},{"type":"event","name":"ProposalCreated","inputs":[{"name":"proposalId","type":"uint256","indexed":false,"internalType":"uint256"},{"name":"proposer","type":"address","indexed":false,"internalType":"address"},{"name":"proposalDescription","type":"string","indexed":false,"internalType":"string"}],"anonymous":false},{"type":"event","name":"ProposalsDeleted","inputs":[{"name":"proposalIds","type":"uint256[]","indexed":false,"internalType":"uint256[]"}],"anonymous":false},{"type":"event","name":"RewardsPaymentReleased","inputs":[{"name":"to","type":"address","indexed":false,"internalType":"address"},{"name":"amount","type":"uint256","indexed":false,"internalType":"uint256"}],"anonymous":false},{"type":"event","name":"VoteCast","inputs":[{"name":"voter","type":"address","indexed":true,"internalType":"address"},{"name":"proposalId","type":"uint256","indexed":false,"internalType":"uint256"},{"name":"numVotes","type":"uint256","indexed":false,"internalType":"uint256"}],"anonymous":false},{"type":"error","name":"AuthorIsNotSender","inputs":[{"name":"author","type":"address","internalType":"address"},{"name":"sender","type":"address","internalType":"address"}]},{"type":"error","name":"CanOnlyCancelBeforeFirstVote","inputs":[]},{"type":"error","name":"CanOnlyDeleteWhenQueued","inputs":[]},{"type":"error","name":"CannotCommentWhenCompletedOrCanceled","inputs":[]},{"type":"error","name":"CannotDeleteWhenCompletedOrCanceled","inputs":[]},{"type":"error","name":"CannotSetWhenCompletedOrCanceled","inputs":[]},{"type":"error","name":"CannotUpdateWhenCompletedOrCanceled","inputs":[]},{"type":"error","name":"CannotVoteLessThanOneVoteInPayPerVote","inputs":[]},{"type":"error","name":"CannotVoteOnDeletedProposal","inputs":[]},{"type":"error","name":"ContestAlreadyCanceled","inputs":[]},{"type":"error","name":"ContestMustBeActiveToGetCurrentVotePrice","inputs":[]},{"type":"error","name":"ContestMustBeActiveToVote","inputs":[]},{"type":"error","name":"ContestMustBeQueuedToPropose","inputs":[]},{"type":"error","name":"ContestSubmissionLimitReached","inputs":[{"name":"maxProposalCount","type":"uint256","internalType":"uint256"}]},{"type":"error","name":"DuplicateSubmission","inputs":[{"name":"proposalId","type":"uint256","internalType":"uint256"}]},{"type":"error","name":"EmptyProposalDescription","inputs":[]},{"type":"error","name":"IncorrectCostSent","inputs":[{"name":"msgValue","type":"uint256","internalType":"uint256"},{"name":"costToVote","type":"uint256","internalType":"uint256"}]},{"type":"error","name":"IndexHasNotBeenPopulated","inputs":[]},{"type":"error","name":"MoreThanOneProposalWithThisManyVotes","inputs":[]},{"type":"error","name":"NeedAtLeastOneVoteToVote","inputs":[]},{"type":"error","name":"NotEnoughVotesLeft","inputs":[]},{"type":"error","name":"OfficialModuleMustBeSetToEnter","inputs":[]},{"type":"error","name":"OfficialRewardsModuleCanOnlyBeSetOnce","inputs":[]},{"type":"error","name":"OfficialRewardsModuleMustPointToThisContest","inputs":[]},{"type":"error","name":"OnlyCreatorCanAmend","inputs":[]},{"type":"error","name":"OnlyCreatorCanSetName","inputs":[]},{"type":"error","name":"OnlyCreatorCanSetPrompt","inputs":[]},{"type":"error","name":"OnlyCreatorCanSetRewardsModule","inputs":[]},{"type":"error","name":"OnlyCreatorCanSubmit","inputs":[]},{"type":"error","name":"OnlyCreatorOrAuthorCanDeleteComments","inputs":[{"name":"failedToDeleteCommentId","type":"uint256","internalType":"uint256"}]},{"type":"error","name":"OnlyCreatorOrEntrantCanDelete","inputs":[]},{"type":"error","name":"OnlyCreatorOrJkLabsCanCancel","inputs":[]},{"type":"error","name":"OnlyJkLabsCanAmend","inputs":[]},{"type":"error","name":"PRBMath_MulDiv18_Overflow","inputs":[{"name":"x","type":"uint256","internalType":"uint256"},{"name":"y","type":"uint256","internalType":"uint256"}]},{"type":"error","name":"PRBMath_MulDiv_Overflow","inputs":[{"name":"x","type":"uint256","internalType":"uint256"},{"name":"y","type":"uint256","internalType":"uint256"},{"name":"denominator","type":"uint256","internalType":"uint256"}]},{"type":"error","name":"PRBMath_UD60x18_Exp2_InputTooBig","inputs":[{"name":"x","type":"uint256","internalType":"UD60x18"}]},{"type":"error","name":"PRBMath_UD60x18_Log_InputTooSmall","inputs":[{"name":"x","type":"uint256","internalType":"UD60x18"}]},{"type":"error","name":"PeriodsOutsideBounds","inputs":[]},{"type":"error","name":"RankCannotBeZero","inputs":[]},{"type":"error","name":"RankIsNotInSortedRanks","inputs":[]},{"type":"error","name":"RankLimitCannotBeZero","inputs":[]},{"type":"error","name":"SenderSubmissionLimitReached","inputs":[{"name":"numAllowedProposalSubmissions","type":"uint256","internalType":"uint256"}]}],"bytecode":{"object":"0x60806040523480156200001157600080fd5b5060405162005cf038038062005cf0833981016040819052620000349162000324565b604081015160c00151600055805181906004906200005390826200050c565b5060208101516005906200006890826200050c565b50604081810151805160075560068054336001600160a01b031991821681179092556020808401516008819055848601516009819055606080870151600a8190556080880151600b5560a0880151600c5560e0880151600d55610100880151600e55610120880151600f5561014088015160105561016090970151601155880151601280549095166001600160a01b0390911617909355855180870187526004808252630362e32360e41b9382019390935295517f9a9bca21e4e51607db64fbdbcd7b2284a909c6a8969821f0d161efbdcae701609662000155969095939460059493929091906200065d565b60405180910390a1506200016e62015180601e620006eb565b81604001516040015111806200019957506200018e610e106006620006eb565b816040015160600151115b15620001b8576040516341b2f4db60e01b815260040160405180910390fd5b806040015160c00151600003620001e25760405163769f473560e11b815260040160405180910390fd5b5062000717565b634e487b7160e01b600052604160045260246000fd5b604051608081016001600160401b0381118282101715620002245762000224620001e9565b60405290565b60405161018081016001600160401b0381118282101715620002245762000224620001e9565b60005b838110156200026d57818101518382015260200162000253565b50506000910152565b600082601f8301126200028857600080fd5b81516001600160401b0380821115620002a557620002a5620001e9565b604051601f8301601f19908116603f01168101908282118183101715620002d057620002d0620001e9565b81604052838152866020858801011115620002ea57600080fd5b620002fd84602083016020890162000250565b9695505050505050565b80516001600160a01b03811681146200031f57600080fd5b919050565b6000602082840312156200033757600080fd5b81516001600160401b03808211156200034f57600080fd5b908301908185036101e08112156200036657600080fd5b62000370620001ff565b8351838111156200038057600080fd5b6200038e8882870162000276565b825250602084015183811115620003a457600080fd5b620003b28882870162000276565b602083015250610180925082603f1983011215620003cf57600080fd5b620003d96200022a565b915060408401518252606084015160208301526080840151604083015260a0840151606083015260c0840151608083015260e084015160a08301526101008085015160c08401526101208086015160e0850152610140808701518386015261016092508287015182860152858701518186015250506101a085015181840152508160408201526200046e6101c0850162000307565b60608201529695505050505050565b600181811c908216806200049257607f821691505b602082108103620004b357634e487b7160e01b600052602260045260246000fd5b50919050565b601f8211156200050757600081815260208120601f850160051c81016020861015620004e25750805b601f850160051c820191505b818110156200050357828155600101620004ee565b5050505b505050565b81516001600160401b03811115620005285762000528620001e9565b62000540816200053984546200047d565b84620004b9565b602080601f8311600181146200057857600084156200055f5750858301515b600019600386901b1c1916600185901b17855562000503565b600085815260208120601f198616915b82811015620005a95788860151825594840194600190910190840162000588565b5085821015620005c85787850151600019600388901b60f8161c191681555b5050505050600190811b01905550565b60008154620005e7816200047d565b808552602060018381168015620006075760018114620006225762000652565b60ff1985168884015283151560051b88018301955062000652565b866000528260002060005b858110156200064a5781548a82018601529083019084016200062d565b890184019650505b505050505092915050565b60e08152600088518060e0840152610100620006808282860160208e0162000250565b601f19601f8301168401915080848303016020850152620006a48183018b620005d8565b9150508281036040840152620006bb8189620005d8565b6001600160a01b039790971660608401525050608081019390935260a083019190915260c0909101529392505050565b80820281158282048414176200071157634e487b7160e01b600052601160045260246000fd5b92915050565b6155c980620007276000396000f3fe6080604052600436106104b45760003560e01c80637c65d7111161026b578063c48b2deb1161014f578063ea8a1af0116100c1578063f5c3641111610085578063f5c3641114610f04578063f61736f414610f24578063f79c017214610f44578063f82e54c014610f74578063fb9bf8d414610f94578063fd7971c914610faa57600080fd5b8063ea8a1af014610e72578063eef18e1714610e87578063efa90d3614610eaf578063f0a7db0a14610ec4578063f4f3d7ec14610ee457600080fd5b8063d576b81d11610113578063d576b81d14610daa578063dda54fcf14610dca578063e031535b14610df7578063e11db9d814610e0c578063e269cefe14610e21578063e41b1f1014610e3a57600080fd5b8063c48b2deb14610cf0578063c7f758a814610d10578063ca09a4c414610d3d578063cbdc27cb14610d52578063cddb985714610d6757600080fd5b80639b644a23116101e8578063b323580d116101ac578063b323580d14610c21578063b4ac024f14610c41578063bc022c9814610c61578063c05f410414610c8e578063c19d93fb14610cae578063c47f002714610cd057600080fd5b80639b644a2314610b655780639decae3114610b85578063ac67f80114610b9b578063ae66b8ad14610bbb578063aec116b614610beb57600080fd5b80638793f2c71161022f5780638793f2c714610aca5780638ebb4c1514610ae05780639174778c14610b10578063946369b514610b305780639b338aa014610b4557600080fd5b80637c65d71114610a3d5780637d74292514610a525780637de418d514610a6857806380cc8f4314610a7e578063832009af14610ab457600080fd5b80633932abb11161039d578063544ffc9c1161030f57806361a52a36116102d357806361a52a361461095d5780636d030621146109745780636e4eb810146109945780636fd3636b146109db57806375e509c5146109f0578063785ddfe514610a1d57600080fd5b8063544ffc9c146108ae57806354fd4d50146108db5780635b664ceb146109085780635c7107d8146109285780635cb718a11461094857600080fd5b8063476106c811610361578063476106c8146108145780634a2c96ec1461082957806350a5e5241461083f57806350c4b6161461086257806351a41dec146108825780635358b80e1461089857600080fd5b80633932abb11461077e5780633f9942ff146107945780633fb57c92146107be578063409fd030146107de578063437a8ae6146107fe57600080fd5b80630aa25e4411610436578063262e59e9116103fa578063262e59e9146106d65780632c0a3f89146106eb5780632c39805f146106fe5780632d0f3cca14610720578063325cc6d914610742578063347cf6651461076257600080fd5b80630aa25e4414610627578063102613d8146106475780631242b7371461066757806315dee7cd146106895780631805c523146106b657600080fd5b806304a1aeae1161047d57806304a1aeae1461057557806305846cae146105a257806306b2193f146105c257806306fdde03146105d85780630800e300146105fa57600080fd5b80624114a8146104b9578063013cf08b146104e257806302a251a31461051157806302d05d3f146105275780630414126a1461055f575b600080fd5b3480156104c557600080fd5b506104cf60085481565b6040519081526020015b60405180910390f35b3480156104ee57600080fd5b506105026104fd366004614c03565b610fbf565b6040516104d993929190614c62565b34801561051d57600080fd5b506104cf600a5481565b34801561053357600080fd5b50600654610547906001600160a01b031681565b6040516001600160a01b0390911681526020016104d9565b34801561056b57600080fd5b506104cf60005481565b34801561058157600080fd5b506104cf610590366004614cac565b60026020526000908152604090205481565b3480156105ae57600080fd5b506104cf6105bd366004614c03565b61107a565b3480156105ce57600080fd5b506104cf600d5481565b3480156105e457600080fd5b506105ed61109b565b6040516104d99190614cc9565b34801561060657600080fd5b5061061a610615366004614c03565b611129565b6040516104d99190614cdc565b34801561063357600080fd5b50610547610642366004614c03565b61123d565b34801561065357600080fd5b50601254610547906001600160a01b031681565b34801561067357600080fd5b5061067c611267565b6040516104d99190614d58565b34801561069557600080fd5b506104cf6106a4366004614c03565b601d6020526000908152604090205481565b3480156106c257600080fd5b506104cf6106d1366004614e20565b6112bf565b3480156106e257600080fd5b506104cf61143a565b6104cf6106f9366004614e66565b611456565b34801561070a57600080fd5b50610713611507565b6040516104d99190614e88565b34801561072c57600080fd5b5061074061073b366004614f69565b611568565b005b34801561074e57600080fd5b506104cf61075d366004614c03565b6115d4565b34801561076e57600080fd5b506104cf678ac7230489e8000081565b34801561078a57600080fd5b506104cf60095481565b3480156107a057600080fd5b506016546107ae9060ff1681565b60405190151581526020016104d9565b3480156107ca57600080fd5b506104cf6107d9366004614c03565b6115e4565b3480156107ea57600080fd5b506104cf6107f9366004614f9d565b6115f4565b34801561080a57600080fd5b506104cf60105481565b34801561082057600080fd5b50610740611625565b34801561083557600080fd5b506104cf600f5481565b34801561084b57600080fd5b50610854611663565b6040516104d9929190615048565b34801561086e57600080fd5b5061054761087d366004614c03565b61172e565b34801561088e57600080fd5b506104cf600e5481565b3480156108a457600080fd5b506104cf60075481565b3480156108ba57600080fd5b506104cf6108c9366004614c03565b6000908152601d602052604090205490565b3480156108e757600080fd5b506040805180820190915260048152630362e32360e41b60208201526105ed565b34801561091457600080fd5b506104cf61092336600461506d565b61173e565b34801561093457600080fd5b506104cf610943366004614c03565b6117a8565b34801561095457600080fd5b5061067c6118af565b34801561096957600080fd5b506104cf6201518081565b34801561098057600080fd5b506104cf61098f366004614e66565b611905565b3480156109a057600080fd5b506104cf6109af3660046150a7565b6000828152601d602090815260408083206001600160a01b038516845260020190915290205492915050565b3480156109e757600080fd5b5061067c611936565b3480156109fc57600080fd5b506104cf610a0b366004614cac565b60186020526000908152604090205481565b348015610a2957600080fd5b50601f54610547906001600160a01b031681565b348015610a4957600080fd5b506105ed61198c565b348015610a5e57600080fd5b50601b54156107ae565b348015610a7457600080fd5b506104cf601b5481565b348015610a8a57600080fd5b506104cf610a99366004614cac565b6001600160a01b031660009081526002602052604090205490565b348015610ac057600080fd5b506104cf600b5481565b348015610ad657600080fd5b506104cf610e1081565b348015610aec57600080fd5b50610b00610afb366004614c03565b611999565b6040516104d994939291906150d7565b348015610b1c57600080fd5b506107ae610b2b366004614c03565b611a56565b348015610b3c57600080fd5b50610713611afa565b348015610b5157600080fd5b50610740610b60366004614cac565b611b5a565b348015610b7157600080fd5b506104cf610b80366004614c03565b611c0d565b348015610b9157600080fd5b506104cf60115481565b348015610ba757600080fd5b50610740610bb6366004615104565b611c1d565b348015610bc757600080fd5b506107ae610bd6366004614c03565b60246020526000908152604090205460ff1681565b348015610bf757600080fd5b506104cf610c06366004614cac565b6001600160a01b03166000908152601c602052604090205490565b348015610c2d57600080fd5b50610713610c3c366004614c03565b611daf565b348015610c4d57600080fd5b506105ed610c5c3660046151a9565b611e21565b348015610c6d57600080fd5b506104cf610c7c366004614c03565b6000908152601e602052604090205490565b348015610c9a57600080fd5b5061067c610ca9366004614c03565b611ebf565b348015610cba57600080fd5b50610cc3611f21565b6040516104d991906151f3565b348015610cdc57600080fd5b506105ed610ceb3660046151a9565b611f72565b348015610cfc57600080fd5b506104cf610d0b366004614f69565b612009565b348015610d1c57600080fd5b50610d30610d2b366004614c03565b61201c565b6040516104d9919061521b565b348015610d4957600080fd5b506104cf61208a565b348015610d5e57600080fd5b50610713612269565b348015610d7357600080fd5b506104cf610d82366004615254565b6001600160a01b03919091166000908152600360209081526040808320938352929052205490565b348015610db657600080fd5b506104cf610dc5366004614c03565b612399565b348015610dd657600080fd5b506104cf610de5366004614cac565b601c6020526000908152604090205481565b348015610e0357600080fd5b506104cf6123f9565b348015610e1857600080fd5b5061067c61240b565b348015610e2d57600080fd5b506104cf64e8d4a5100081565b348015610e4657600080fd5b506104cf610e55366004615254565b600360209081526000928352604080842090915290825290205481565b348015610e7e57600080fd5b50610740612461565b348015610e9357600080fd5b5061054773dc652c746a8f85e18ce632d97c6118e8a52fa73881565b348015610ebb57600080fd5b5061067c61252e565b348015610ed057600080fd5b50610740610edf366004615280565b612584565b348015610ef057600080fd5b50610740610eff366004614cac565b6126e2565b348015610f1057600080fd5b506104cf610f1f366004614c03565b612824565b348015610f3057600080fd5b506104cf610f3f366004614e66565b612834565b348015610f5057600080fd5b506107ae610f5f366004614c03565b60156020526000908152604090205460ff1681565b348015610f8057600080fd5b5061067c610f8f366004614c03565b612850565b348015610fa057600080fd5b506104cf600c5481565b348015610fb657600080fd5b506104cf603c81565b601760205260009081526040902080546001820180546001600160a01b03831693600160a01b90930460ff16929190610ff7906152f4565b80601f0160208091040260200160405190810160405280929190818152602001828054611023906152f4565b80156110705780601f1061104557610100808354040283529160200191611070565b820191906000526020600020905b81548152906001019060200180831161105357829003601f168201915b5050505050905083565b6014818154811061108a57600080fd5b600091825260209091200154905081565b600480546110a8906152f4565b80601f01602080910402602001604051908101604052809291908181526020018280546110d4906152f4565b80156111215780601f106110f657610100808354040283529160200191611121565b820191906000526020600020905b81548152906001019060200180831161110457829003601f168201915b505050505081565b61115d604051806080016040528060006001600160a01b031681526020016000815260200160008152602001606081525090565b600082815260226020908152604091829020825160808101845281546001600160a01b031681526001820154928101929092526002810154928201929092526003820180549192916060840191906111b4906152f4565b80601f01602080910402602001604051908101604052809291908181526020018280546111e0906152f4565b801561122d5780601f106112025761010080835404028352916020019161122d565b820191906000526020600020905b81548152906001019060200180831161121057829003601f168201915b5050505050815250509050919050565b6019818154811061124d57600080fd5b6000918252602090912001546001600160a01b0316905081565b606060148054806020026020016040519081016040528092919081815260200182805480156112b557602002820191906000526020600020905b8154815260200190600101908083116112a1575b5050505050905090565b600060046112cb611f21565b60048111156112dc576112dc6151dd565b1480611300575060026112ed611f21565b60048111156112fe576112fe6151dd565b145b1561131d5760405162f3e73d60e81b815260040160405180910390fd5b60408051608081018252338152426020820152908101849052606081018390526000611348826115f4565b60208054600180820183557fc97bfaf2f8ee708c303a06d134f5ecd8389ae0432af62dc132a24118292866bb909101839055600083815260228352604090819020865181546001600160a01b0319166001600160a01b03909116178155928601519183019190915584015160028201556060840151919250839160038201906113d19082615376565b505050600085815260236020908152604080832080546001810182559084529190922001829055517f5a1a930fed43f34b3a07db782ebcac28a661c273e662bb98458cfba5a8ccd220906114289083815260200190565b60405180910390a19150505b92915050565b6000600a546114476123f9565b611451919061544b565b905090565b6000806114646001846128b0565b60008581526015602052604090205490915060ff1615611497576040516358f1119560e01b815260040160405180910390fd5b6114a08161294d565b33600090815260026020526040812080548392906114bf90849061544b565b9091555050336000908152600360209081526040808320878452909152812080548392906114ee90849061544b565b909155506114ff9050843385612b09565b949350505050565b6060601a8054806020026020016040519081016040528092919081815260200182805480156112b557602002820191906000526020600020905b81546001600160a01b03168152600190910190602001808311611541575050505050905090565b80516001600160a01b031633146115ab57805160405163fbbf4d7f60e01b81526001600160a01b0390911660048201523360248201526044015b60405180910390fd5b8060400151516000036115d15760405163e182473360e01b815260040160405180910390fd5b50565b6001818154811061108a57600080fd5b6021818154811061108a57600080fd5b6000816040516020016116079190614cdc565b60408051601f19818403018152919052805160209091012092915050565b60075460011415801561164357506006546001600160a01b03163314155b1561166157604051639a4a529360e01b815260040160405180910390fd5b565b606080600061167061252e565b9050600081516001600160401b0381111561168d5761168d614d6b565b6040519080825280602002602001820160405280156116b6578160200160208202803683370190505b50905060005b825181101561172457601d60008483815181106116db576116db61545e565b60200260200101518152602001908152602001600020600001548282815181106117075761170761545e565b60209081029190910101528061171c81615474565b9150506116bc565b5090939092509050565b601a818154811061124d57600080fd5b600080611753601f546001600160a01b031690565b6001600160a01b03160361177a5760405163fa4f07a360e01b815260040160405180910390fd5b611782611625565b61178e61073b8361548d565b60006117a161179c8461548d565b612bfd565b9392505050565b6000816000036117cb57604051630ec90a1760e31b815260040160405180910390fd5b6001805460408051602080840282018101909252828152919260009291849083018282801561181957602002820191906000526020600020905b815481526020019060010190808311611805575b5050505050905060006001905060005b83811015611895576118608382815181106118465761184661545e565b60200260200101516000908152601e602052604090205490565b15611883578582036118755795945050505050565b8161187f81615474565b9250505b8061188d81615474565b915050611829565b50604051632cc2ab7360e11b815260040160405180910390fd5b606060218054806020026020016040519081016040528092919081815260200182805480156112b557602002820191906000526020600020908154815260200190600101908083116112a1575050505050905090565b601e602052816000526040600020818154811061192157600080fd5b90600052602060002001600091509150505481565b606060018054806020026020016040519081016040528092919081815260200182805480156112b557602002820191906000526020600020908154815260200190600101908083116112a1575050505050905090565b600580546110a8906152f4565b60226020526000908152604090208054600182015460028301546003840180546001600160a01b039094169492939192916119d3906152f4565b80601f01602080910402602001604051908101604052809291908181526020018280546119ff906152f4565b8015611a4c5780601f10611a2157610100808354040283529160200191611a4c565b820191906000526020600020905b815481529060010190602001808311611a2f57829003601f168201915b5050505050905084565b60018054600091611a6691615499565b821115611a86576040516365d6f35160e11b815260040160405180910390fd5b60005b611a9483600161544b565b811015611af1576001611ad060018381548110611ab357611ab361545e565b90600052602060002001546000908152601e602052604090205490565b1115611adf5750600192915050565b80611ae981615474565b915050611a89565b50600092915050565b606060198054806020026020016040519081016040528092919081815260200182805480156112b5576020028201919060005260206000209081546001600160a01b03168152600190910190602001808311611541575050505050905090565b3373dc652c746a8f85e18ce632d97c6118e8a52fa73814611b8e5760405163de07280160e01b815260040160405180910390fd5b6004611b98611f21565b6004811115611ba957611ba96151dd565b1480611bcd57506002611bba611f21565b6004811115611bcb57611bcb6151dd565b145b15611beb576040516398fe99a560e01b815260040160405180910390fd5b601280546001600160a01b0319166001600160a01b0392909216919091179055565b6013818154811061108a57600080fd5b6004611c27611f21565b6004811115611c3857611c386151dd565b1480611c5c57506002611c49611f21565b6004811115611c5a57611c5a6151dd565b145b15611c7a57604051631e71d28360e21b815260040160405180910390fd5b805160005b81811015611d73576000838281518110611c9b57611c9b61545e565b60209081029190910101516006549091506001600160a01b03163314801590611cdb57506000818152602260205260409020546001600160a01b03163314155b15611cfc57604051635450763d60e11b8152600481018290526024016115a2565b60008181526024602052604090205460ff16611d60576000818152602460205260408120805460ff191660019081179091556021805491820181559091527f3a6357012c1a3ae0a17d304c9920310382d968ebcc4b1771f41c6b304205b570018190555b5080611d6b81615474565b915050611c7f565b507f788a4349d25bc08585923ae212bce8bb346a623bce753eeecb85fd9ce58dcb4b82604051611da39190614d58565b60405180910390a15050565b6000818152601d60209081526040918290206001810180548451818502810185019095528085526060949293830182828015611e1457602002820191906000526020600020905b81546001600160a01b03168152600190910190602001808311611df6575b5050505050915050919050565b6006546060906001600160a01b03163314611e4f57604051630aca3d7160e11b815260040160405180910390fd5b6004611e59611f21565b6004811115611e6a57611e6a6151dd565b1480611e8e57506002611e7b611f21565b6004811115611e8c57611e8c6151dd565b145b15611eac57604051635b0747e760e01b815260040160405180910390fd5b6005611eb88382615376565b5090919050565b600081815260236020908152604091829020805483518184028101840190945280845260609392830182828015611f1557602002820191906000526020600020905b815481526020019060010190808311611f01575b50505050509050919050565b60165460009060ff1615611f355750600290565b4260085410611f445750600090565b42611f4d6123f9565b10611f585750600390565b42611f6161143a565b10611f6c5750600190565b50600490565b6006546060906001600160a01b03163314611fa057604051637d1cb2b160e01b815260040160405180910390fd5b6004611faa611f21565b6004811115611fbb57611fbb6151dd565b1480611fdf57506002611fcc611f21565b6004811115611fdd57611fdd6151dd565b145b15611ffd57604051635b0747e760e01b815260040160405180910390fd5b6004611eb88382615376565b600081604051602001611607919061521b565b60408051606080820183526000808352602083015291810191909152600082815260176020908152604091829020825160608101845281546001600160a01b0381168252600160a01b900460ff1615159281019290925260018101805492939192918401916111b4906152f4565b60006001612096611f21565b60048111156120a7576120a76151dd565b146120c55760405163a6f7b85360e01b815260040160405180910390fd5b6000603c6120d16123f9565b6120dc90600161544b565b6120e69042615499565b6120f091906154c2565b9050600061215d61214961211261210f85670de0b6b3a76400006154e4565b90565b61214461212e600a54670de0b6b3a764000061210f91906154e4565b61214461210f603c670de0b6b3a76400006154e4565b612e24565b68056bc75e2d63100000612e3c565b612e3c565b9050600061217f8261215861217160105490565b670de0b6b3a7640000612e24565b90506000600f546001811115612197576121976151dd565b60018111156121a8576121a86151dd565b036121fa5760006121b882612e4b565b905060006121d461210f6121ce612171600e5490565b84612e3c565b905064e8d4a510006121e681836154c2565b6121f091906154e4565b9550505050505090565b6001600f546001811115612210576122106151dd565b6001811115612221576122216151dd565b0361225e57600061224761224283670de0b6b3a7640000612ea1565b612ea1565b612eb0565b905060006121d461210f8361223d612171600e5490565b600e54935050505090565b6060600060148054806020026020016040519081016040528092919081815260200182805480156122b957602002820191906000526020600020905b8154815260200190600101908083116122a5575b50505050509050600081516001600160401b038111156122db576122db614d6b565b604051908082528060200260200182016040528015612304578160200160208202803683370190505b50905060005b825181101561239257601760008483815181106123295761232961545e565b6020026020010151815260200190815260200160002060000160009054906101000a90046001600160a01b03168282815181106123685761236861545e565b6001600160a01b03909216602092830291909101909101528061238a81615474565b91505061230a565b5092915050565b6000818152601e60205260408120546001146123c857604051633832a15560e21b815260040160405180910390fd5b6000828152601e6020526040812080549091906123e7576123e761545e565b90600052602060002001549050919050565b6000600954600854611451919061544b565b606060208054806020026020016040519081016040528092919081815260200182805480156112b557602002820191906000526020600020908154815260200190600101908083116112a1575050505050905090565b6006546001600160a01b0316331480159061249057503373dc652c746a8f85e18ce632d97c6118e8a52fa73814155b156124ae57604051637601acaf60e11b815260040160405180910390fd5b60165460ff16156124d257604051636f79584d60e01b815260040160405180910390fd5b601b54156001146124f65760405163043d8d1b60e21b815260040160405180910390fd5b6016805460ff191660011790556040517f4cd963a081760a54f571abc0f1db4dde31b4a07d8d6da3e844b8c6f47eeaaa4290600090a1565b606060138054806020026020016040519081016040528092919081815260200182805480156112b557602002820191906000526020600020908154815260200190600101908083116112a1575050505050905090565b600361258e611f21565b600481111561259f5761259f6151dd565b146125bd5760405163554806bb60e11b815260040160405180910390fd5b60005b818110156126b15760008383838181106125dc576125dc61545e565b60065460209190910292909201359250506001600160a01b0316331480159061261c57506000818152601760205260409020546001600160a01b03163314155b1561263a5760405163018db70560e11b815260040160405180910390fd5b60008181526015602052604090205460ff1661269e576000818152601560205260408120805460ff191660019081179091556014805491820181559091527fce6d7b5282bd9a3661ae061feed1dbda4e52ab073b1f9285be6e155d9c38d4ec018190555b50806126a981615474565b9150506125c0565b507f75a75cf5c561892f4cc5b26c1b8e933849b42238c96dd073d080d1ae96c514166013604051611da391906154fb565b6006546001600160a01b0316331461270d57604051630f4cb1bd60e11b815260040160405180910390fd5b601f546001600160a01b03161561273757604051630ff4b80b60e01b815260040160405180910390fd5b306001600160a01b0316816001600160a01b031663f3f44fb76040518163ffffffff1660e01b8152600401602060405180830381865afa15801561277f573d6000803e3d6000fd5b505050506040513d601f19601f820116820180604052508101906127a39190615536565b6001600160a01b0316146127ca57604051635b310aaf60e01b815260040160405180910390fd5b601f80546001600160a01b038381166001600160a01b031983168117909355604080519190921680825260208201939093527f753a2cf8d360cff631674504210913e48247f8e56b3e6d2006c2103d4095999f9101611da3565b6020818154811061108a57600080fd5b6023602052816000526040600020818154811061192157600080fd5b6000818152601e6020908152604091829020805483518184028101840190945280845260609392830182828015611f155760200282019190600052602060002090815481526020019060010190808311611f015750505050509050919050565b60008060018460018111156128c7576128c76151dd565b0361292057670de0b6b3a76400008310156128f5576040516346ddb8d160e01b815260040160405180910390fd5b612907670de0b6b3a7640000846154c2565b61290f61208a565b61291991906154e4565b9050612924565b5060005b8034146117a1576040516372c3eaa760e01b8152346004820152602481018290526044016115a2565b80156115d15760006064600d5460646129669190615499565b61297090346154e4565b61297a91906154c2565b90508015612a805760006011546001146129955760006129a0565b6129a06002836154c2565b90508015612a05576006546129be906001600160a01b031682613b61565b600654604080516001600160a01b039092168252602082018390527f6dff55337c8458ae8c536a63869a48bc33541733422a796390c131d91f4238ed910160405180910390a15b601254612a24906001600160a01b0316612a1f8385615499565b613b61565b6012547f9df63d1c00d2e332f573be591c0579caafb256b2c5a17abcc8ad471cccda1b81906001600160a01b0316612a5c8385615499565b604080516001600160a01b03909316835260208301919091520160405180910390a1505b6000612a8c8234615499565b90508015612b0457612aaf612aa9601f546001600160a01b031690565b82613b61565b7f2c7d70ceb5af79cc37f1832a7908bad1815c2d634ae0f5480dac8eaecddc2e67612ae2601f546001600160a01b031690565b604080516001600160a01b039092168252602082018490520160405180910390a15b505050565b60006001612b15611f21565b6004811115612b2657612b266151dd565b14612b445760405163f569a2b960e01b815260040160405180910390fd5b81600003612b655760405163502e1c2960e01b815260040160405180910390fd5b612b70848484613c7a565b601a80546001810182556000919091527f057c384a7d1c54f3a1b2e5e67b2617b8224fdfd1ea7234eea573a6ff665ff63e0180546001600160a01b0319163317905560408051858152602081018490526001600160a01b038516917fb4cfecf70861b7b150d8337780d34fb4cbc2114b5fb1fe51a5c5fca1849f7274910160405180910390a25092915050565b60006003612c09611f21565b6004811115612c1a57612c1a6151dd565b14612c385760405163152839c360e31b815260040160405180910390fd5b600b543360009081526018602052604090205403612c6f57600b54604051632bd6d93960e21b81526004016115a291815260200190565b600c54601454601354612c829190615499565b03612ca657600c546040516302217f5360e51b81526004016115a291815260200190565b6000612cb183612009565b600081815260176020526040902054909150600160a01b900460ff1615612cee5760405163baffc42360e01b8152600481018290526024016115a2565b6013805460018181019092557f66de8ffda797e3de9c05e8fc57b3bf0ec28a930d40b0d285d93c06501cf6a0900182905560008281526017602090815260409182902086518154928801511515600160a01b026001600160a81b03199093166001600160a01b0390911617919091178155908501518592820190612d729082615376565b5050336000908152601860205260408120805460019350909190612d9790849061544b565b9091555050601980546001810182556000919091527f944998273e477b495144fb8794c914197f3ccb46be2900f4698fd0ef743c96950180546001600160a01b0319163390811790915560408085015190517f7585f467599d0f008985f231af99293be388626ac16ca59505c2f8f88969cd6392612e16928592615553565b60405180910390a192915050565b60006117a161210f84670de0b6b3a764000085613dbb565b60006117a161210f8484613e8f565b600081680a688906bd8affffff811115612e7b5760405163b3b6ba1f60e01b8152600481018490526024016115a2565b6000612e93670de0b6b3a7640000604084901b6154c2565b90506114ff61210f82613f45565b60006117a161210f838561544b565b600081670de0b6b3a7640000811015612edf5760405163036d32ef60e41b8152600481018490526024016115a2565b826001811461360b57600a811461361c576064811461362d576103e8811461363e57612710811461364f57620186a0811461366057620f4240811461367157629896808114613682576305f5e100811461369357633b9aca0081146136a4576402540be40081146136b55764174876e80081146136c65764e8d4a5100081146136d7576509184e72a00081146136e857655af3107a400081146136f95766038d7ea4c68000811461370a57662386f26fc10000811461371b5767016345785d8a0000811461372c57670de0b6b3a7640000811461373d57678ac7230489e8000081146137465768056bc75e2d63100000811461375657683635c9adc5dea0000081146137665769021e19e0c9bab240000081146137765769152d02c7e14af680000081146137865769d3c21bcecceda10000008114613796576a084595161401484a00000081146137a6576a52b7d2dcc80cd2e400000081146137b6576b033b2e3c9fd0803ce800000081146137c6576b204fce5e3e2502611000000081146137d6576c01431e0fae6d7217caa000000081146137e6576c0c9f2c9cd04674edea4000000081146137f6576c7e37be2022c0914b26800000008114613806576d04ee2d6d415b85acef81000000008114613816576d314dc6448d9338c15b0a000000008114613826576e01ed09bead87c0378d8e64000000008114613836576e13426172c74d822b878fe8000000008114613846576ec097ce7bc90715b34b9f10000000008114613856576f0785ee10d5da46d900f436a0000000008114613866576f4b3b4ca85a86c47a098a2240000000008114613877577002f050fe938943acc45f65568000000000811461388857701d6329f1c35ca4bfabb9f5610000000000811461389957710125dfa371a19e6f7cb54395ca000000000081146138aa57710b7abc627050305adf14a3d9e4000000000081146138bb577172cb5bd86321e38cb6ce6682e8000000000081146138cc5772047bf19673df52e37f2410011d10000000000081146138dd57722cd76fe086b93ce2f768a00b22a0000000000081146138ee577301c06a5ec5433c60ddaa16406f5a40000000000081146138ff5773118427b3b4a05bc8a8a4de84598680000000000081146139105773af298d050e4395d69670b12b7f410000000000008114613921577406d79f82328ea3da61e066ebb2f88a00000000000081146139325774446c3b15f9926687d2c40534fdb5640000000000008114613943577502ac3a4edbbfb8014e3ba83411e915e8000000000000811461395457751aba4714957d300d0e549208b31adb1000000000000081146139655776010b46c6cdd6e3e0828f4db456ff0c8ea0000000000000811461397657760a70c3c40a64e6c51999090b65f67d9240000000000000811461398757766867a5a867f103b2fffa5a71fba0e7b6800000000000008114613998577704140c78940f6a24fdffc78873d4490d210000000000000081146139a9577728c87cb5c89a2571ebfdcb54864ada834a0000000000000081146139ba57780197d4df19d605767337e9f14d3eec8920e40000000000000081146139cb57780fee50b7025c36a0802f236d04753d5b48e80000000000000081146139dc57789f4f2726179a224501d762422c946590d9100000000000000081146139ed5779063917877cec0556b21269d695bdcbf7a87aa00000000000000081146139fe57793e3aeb4ae1383562f4b82261d969f7ac94ca40000000000000008114613a0f577a026e4d30eccc3215dd8f3157d27e23acbdcfe680000000000000008114613a20577a184f03e93ff9f4daa797ed6e38ed64bf6a1f0100000000000000008114613a31577af316271c7fc3908a8bef464e3945ef7a25360a00000000000000008114613a42577b097edd871cfda3a5697758bf0e3cbb5ac5741c6400000000000000008114613a53577b5ef4a74721e864761ea977768e5f518bb6891be800000000000000008114613a64577c03b58e88c75313ec9d329eaaa18fb92f75215b171000000000000000008114613a75577c25179157c93ec73e23fa32aa4f9d3bda934d8ee6a000000000000000008114613a86577d0172ebad6ddc73c86d67c5faa71c245689c10795024000000000000000008114613a97577d0e7d34c64a9c85d4460dbbca87196b61618a4bd2168000000000000000008114613aa8577d90e40fbeea1d3a4abc8955e946fe31cdcf66f634e10000000000000000008114613ab9577e05a8e89d75252446eb5d5d5b1cc5edf20a1a059e10ca0000000000000000008114613aca577e3899162693736ac531a5a58f1fbb4b746504382ca7e40000000000000000008114613adb577546bf5bb0385045767e0f0ef2e7aa1e517e454637d1dd604b1b8114613aec577f161bcca7119915b50764b4abe86529797775a5f17195100000000000000000008114613afd577fdd15fe86affad91249ef0eb713f39ebeaa987b6e6fd2a00000000000000000008114613b0e576000199250613b1b565b67f9ccd8a1c507ffff199250613b1b565b67ebec21ee1da3ffff199250613b1b565b67de0b6b3a763fffff199250613b1b565b67d02ab486cedbffff199250613b1b565b67c249fdd32777ffff199250613b1b565b67b469471f8013ffff199250613b1b565b67a688906bd8afffff199250613b1b565b6798a7d9b8314bffff199250613b1b565b678ac7230489e7ffff199250613b1b565b677ce66c50e283ffff199250613b1b565b676f05b59d3b1fffff199250613b1b565b676124fee993bbffff199250613b1b565b6753444835ec57ffff199250613b1b565b674563918244f3ffff199250613b1b565b673782dace9d8fffff199250613b1b565b6729a2241af62bffff199250613b1b565b671bc16d674ec7ffff199250613b1b565b670de0b6b3a763ffff199250613b1b565b60009250613b1b565b670de0b6b3a76400009250613b1b565b671bc16d674ec800009250613b1b565b6729a2241af62c00009250613b1b565b673782dace9d9000009250613b1b565b674563918244f400009250613b1b565b6753444835ec5800009250613b1b565b676124fee993bc00009250613b1b565b676f05b59d3b2000009250613b1b565b677ce66c50e28400009250613b1b565b678ac7230489e800009250613b1b565b6798a7d9b8314c00009250613b1b565b67a688906bd8b000009250613b1b565b67b469471f801400009250613b1b565b67c249fdd3277800009250613b1b565b67d02ab486cedc00009250613b1b565b67de0b6b3a764000009250613b1b565b67ebec21ee1da400009250613b1b565b67f9ccd8a1c50800009250613b1b565b680107ad8f556c6c00009250613b1b565b6801158e460913d000009250613b1b565b6801236efcbcbb3400009250613b1b565b6801314fb370629800009250613b1b565b68013f306a2409fc00009250613b1b565b68014d1120d7b16000009250613b1b565b68015af1d78b58c400009250613b1b565b680168d28e3f002800009250613b1b565b680176b344f2a78c00009250613b1b565b68018493fba64ef000009250613b1b565b68019274b259f65400009250613b1b565b6801a055690d9db800009250613b1b565b6801ae361fc1451c00009250613b1b565b6801bc16d674ec8000009250613b1b565b6801c9f78d2893e400009250613b1b565b6801d7d843dc3b4800009250613b1b565b6801e5b8fa8fe2ac00009250613b1b565b6801f399b1438a1000009250613b1b565b6802017a67f7317400009250613b1b565b68020f5b1eaad8d800009250613b1b565b68021d3bd55e803c00009250613b1b565b68022b1c8c1227a000009250613b1b565b680238fd42c5cf0400009250613b1b565b680246ddf979766800009250613b1b565b680254beb02d1dcc00009250613b1b565b6802629f66e0c53000009250613b1b565b680270801d946c9400009250613b1b565b68027e60d44813f800009250613b1b565b68028c418afbbb5c00009250613b1b565b68029a2241af62c000009250613b1b565b6802a802f8630a2400009250613b1b565b6802b5e3af16b18800009250613b1b565b6802c3c465ca58ec00009250613b1b565b6802d1a51c7e005000009250613b1b565b6802df85d331a7b400009250613b1b565b6802ed6689e54f1800009250613b1b565b6802fb474098f67c00009250613b1b565b68030927f74c9de000009250613b1b565b68031708ae00454400009250613b1b565b680324e964b3eca800009250613b1b565b680332ca1b67940c000092505b506000198203613b5b57613b58672e19dc008126bf2b670de0b6b3a7640000613b4661210f876146a5565b0281613b5457613b546154ac565b0490565b91505b50919050565b80471015613bb15760405162461bcd60e51b815260206004820152601d60248201527f416464726573733a20696e73756666696369656e742062616c616e636500000060448201526064016115a2565b6000826001600160a01b03168260405160006040518083038185875af1925050503d8060008114613bfe576040519150601f19603f3d011682016040523d82523d6000602084013e613c03565b606091505b5050905080612b045760405162461bcd60e51b815260206004820152603a60248201527f416464726573733a20756e61626c6520746f2073656e642076616c75652c207260448201527f6563697069656e74206d6179206861766520726576657274656400000000000060648201526084016115a2565b6000838152601d602090815260408083206001600160a01b0386168452600281019092528220548154919290159184918491613cb790849061544b565b90915550506001600160a01b038416600090815260028301602052604081208054859290613ce690849061544b565b90915550508015613d21576001828101805491820181556000908152602090200180546001600160a01b0319166001600160a01b0386161790555b6001600160a01b0384166000908152601c602052604081208054859290613d4990849061544b565b9250508190555082601b6000828254613d62919061544b565b909155505081546000613d758583615499565b90508015613d8757613d8787826147da565b6000828152601e6020908152604082208054600181018255908352912001879055613db28183614911565b50505050505050565b6000808060001985870985870292508281108382030391505080600003613df557838281613deb57613deb6154ac565b04925050506117a1565b838110613e2657604051630c740aef60e31b81526004810187905260248101869052604481018590526064016115a2565b60008486880960026001871981018816978890046003810283188082028403028082028403028082028403028082028403028082028403029081029092039091026000889003889004909101858311909403939093029303949094049190911702949350505050565b6000808060001984860984860292508281108382030391505080600003613ec35750670de0b6b3a764000090049050611434565b670de0b6b3a76400008110613ef557604051635173648d60e01b815260048101869052602481018590526044016115a2565b6000670de0b6b3a764000085870962040000818503049310909103600160ee1b02919091177faccb18165bd6fe31ae1cf318dc5b51eee0e1ba569b88cd74c1773b91fac106690291505092915050565b600160bf1b67ff0000000000000082161561405257678000000000000000821615613f795768016a09e667f3bcc9090260401c5b674000000000000000821615613f98576801306fe0a31b7152df0260401c5b672000000000000000821615613fb7576801172b83c7d517adce0260401c5b671000000000000000821615613fd65768010b5586cf9890f62a0260401c5b670800000000000000821615613ff5576801059b0d31585743ae0260401c5b67040000000000000082161561401457680102c9a3e778060ee70260401c5b6702000000000000008216156140335768010163da9fb33356d80260401c5b67010000000000000082161561405257680100b1afa5abcbed610260401c5b66ff00000000000082161561415157668000000000000082161561407f5768010058c86da1c09ea20260401c5b664000000000000082161561409d576801002c605e2e8cec500260401c5b66200000000000008216156140bb57680100162f3904051fa10260401c5b66100000000000008216156140d9576801000b175effdc76ba0260401c5b66080000000000008216156140f757680100058ba01fb9f96d0260401c5b66040000000000008216156141155768010002c5cc37da94920260401c5b6602000000000000821615614133576801000162e525ee05470260401c5b66010000000000008216156141515768010000b17255775c040260401c5b65ff0000000000821615614247576580000000000082161561417c576801000058b91b5bc9ae0260401c5b6540000000000082161561419957680100002c5c89d5ec6d0260401c5b652000000000008216156141b65768010000162e43f4f8310260401c5b651000000000008216156141d357680100000b1721bcfc9a0260401c5b650800000000008216156141f05768010000058b90cf1e6e0260401c5b6504000000000082161561420d576801000002c5c863b73f0260401c5b6502000000000082161561422a57680100000162e430e5a20260401c5b65010000000000821615614247576801000000b1721835510260401c5b64ff000000008216156143345764800000000082161561427057680100000058b90c0b490260401c5b64400000000082161561428c5768010000002c5c8601cc0260401c5b6420000000008216156142a8576801000000162e42fff00260401c5b6410000000008216156142c45768010000000b17217fbb0260401c5b6408000000008216156142e0576801000000058b90bfce0260401c5b6404000000008216156142fc57680100000002c5c85fe30260401c5b6402000000008216156143185768010000000162e42ff10260401c5b64010000000082161561433457680100000000b17217f80260401c5b63ff00000082161561441857638000000082161561435b5768010000000058b90bfc0260401c5b6340000000821615614376576801000000002c5c85fe0260401c5b632000000082161561439157680100000000162e42ff0260401c5b63100000008216156143ac576801000000000b17217f0260401c5b63080000008216156143c757680100000000058b90c00260401c5b63040000008216156143e25768010000000002c5c8600260401c5b63020000008216156143fd576801000000000162e4300260401c5b63010000008216156144185768010000000000b172180260401c5b62ff00008216156144f3576280000082161561443d576801000000000058b90c0260401c5b6240000082161561445757680100000000002c5c860260401c5b622000008216156144715768010000000000162e430260401c5b6210000082161561448b57680100000000000b17210260401c5b620800008216156144a55768010000000000058b910260401c5b620400008216156144bf576801000000000002c5c80260401c5b620200008216156144d957680100000000000162e40260401c5b620100008216156144f3576801000000000000b1720260401c5b61ff008216156145c55761800082161561451657680100000000000058b90260401c5b61400082161561452f5768010000000000002c5d0260401c5b612000821615614548576801000000000000162e0260401c5b6110008216156145615768010000000000000b170260401c5b61080082161561457a576801000000000000058c0260401c5b61040082161561459357680100000000000002c60260401c5b6102008216156145ac57680100000000000001630260401c5b6101008216156145c557680100000000000000b10260401c5b60ff82161561468e5760808216156145e657680100000000000000590260401c5b60408216156145fe576801000000000000002c0260401c5b602082161561461657680100000000000000160260401c5b601082161561462e576801000000000000000b0260401c5b600882161561464657680100000000000000060260401c5b600482161561465e57680100000000000000030260401c5b600282161561467657680100000000000000010260401c5b600182161561468e57680100000000000000010260401c5b670de0b6b3a76400000260409190911c60bf031c90565b600081670de0b6b3a76400008110156146d45760405163036d32ef60e41b8152600481018490526024016115a2565b600061475f670de0b6b3a7640000830460016fffffffffffffffffffffffffffffffff821160071b91821c6001600160401b03811160061b90811c63ffffffff811160051b90811c61ffff811160041b90811c60ff8111600390811b91821c600f811160021b90811c918211871b91821c969096119490961792909217171791909117919091171790565b9050670de0b6b3a7640000810282821c670de0b6b3a763ffff19810161478b57815b9695505050505050565b671bc16d674ec800006706f05b59d3b200005b80156147ce57670de0b6b3a76400008380020492508183106147c6579283019260019290921c915b60011c61479e565b50919695505050505050565b6000818152601e602090815260408083208054825181850281018501909352808352919290919083018282801561483057602002820191906000526020600020905b81548152602001906001019080831161481c575b5050505050905060005b815181101561490b57838282815181106148565761485661545e565b6020026020010151036148f95781600183516148729190615499565b815181106148825761488261545e565b6020026020010151601e600085815260200190815260200160002082815481106148ae576148ae61545e565b9060005260206000200181905550601e60008481526020019081526020016000208054806148de576148de61557d565b6001900381819060005260206000200160009055905561490b565b8061490381615474565b91505061483a565b50505050565b6001805460408051602080840282018101909252828152919260009291849083018282801561495f57602002820191906000526020600020905b81548152602001906001019080831161494b575b50505050509050816000036149a55750506001805480820182556000919091527fb10e2d527612073b26eecdfd717e6a320cf44b4afac2b0732d9fcbe2b7fa0cf6015550565b806149b1600184615499565b815181106149c1576149c161545e565b6020026020010151831015614a165760005482036149df5750505050565b50506001805480820182556000919091527fb10e2d527612073b26eecdfd717e6a320cf44b4afac2b0732d9fcbe2b7fa0cf6015550565b61490b848484846000805b83811015614a8b57828181518110614a3b57614a3b61545e565b60200260200101518503614a5057505061490b565b828181518110614a6257614a6261545e565b6020026020010151851115614a7957809150614a8b565b80614a8381615474565b915050614a21565b5060008086118015614aa957506000868152601e6020526040902054155b90506000818015614ad2575086848481518110614ac857614ac861545e565b6020026020010151145b614bda57614ae1600186615499565b8314614b89576000614af484600161544b565b90505b85811015614b875784614b0b600183615499565b81518110614b1b57614b1b61545e565b602002602001015160018281548110614b3657614b3661545e565b600091825260209091200155828015614b67575087858281518110614b5d57614b5d61545e565b6020026020010151145b15614b755760019150614b87565b80614b7f81615474565b915050614af7565b505b80158015614b98575060005485105b15614bda57600184614baa8288615499565b81518110614bba57614bba61545e565b602090810291909101810151825460018101845560009384529190922001555b8560018481548110614bee57614bee61545e565b60009182526020909120015550505050505050565b600060208284031215614c1557600080fd5b5035919050565b6000815180845260005b81811015614c4257602081850181015186830182015201614c26565b506000602082860101526020601f19601f83011685010191505092915050565b6001600160a01b03841681528215156020820152606060408201819052600090614c8e90830184614c1c565b95945050505050565b6001600160a01b03811681146115d157600080fd5b600060208284031215614cbe57600080fd5b81356117a181614c97565b6020815260006117a16020830184614c1c565b6020815260018060a01b0382511660208201526020820151604082015260408201516060820152600060608301516080808401526114ff60a0840182614c1c565b600081518084526020808501945080840160005b83811015614d4d57815187529582019590820190600101614d31565b509495945050505050565b6020815260006117a16020830184614d1d565b634e487b7160e01b600052604160045260246000fd5b604051601f8201601f191681016001600160401b0381118282101715614da957614da9614d6b565b604052919050565b600082601f830112614dc257600080fd5b81356001600160401b03811115614ddb57614ddb614d6b565b614dee601f8201601f1916602001614d81565b818152846020838601011115614e0357600080fd5b816020850160208301376000918101602001919091529392505050565b60008060408385031215614e3357600080fd5b8235915060208301356001600160401b03811115614e5057600080fd5b614e5c85828601614db1565b9150509250929050565b60008060408385031215614e7957600080fd5b50508035926020909101359150565b6020808252825182820181905260009190848201906040850190845b81811015614ec95783516001600160a01b031683529284019291840191600101614ea4565b50909695505050505050565b600060608284031215614ee757600080fd5b604051606081016001600160401b038282108183111715614f0a57614f0a614d6b565b8160405282935084359150614f1e82614c97565b9082526020840135908115158214614f3557600080fd5b8160208401526040850135915080821115614f4f57600080fd5b50614f5c85828601614db1565b6040830152505092915050565b600060208284031215614f7b57600080fd5b81356001600160401b03811115614f9157600080fd5b6114ff84828501614ed5565b600060208284031215614faf57600080fd5b81356001600160401b0380821115614fc657600080fd5b9083019060808286031215614fda57600080fd5b604051608081018181108382111715614ff557614ff5614d6b565b604052823561500381614c97565b80825250602083013560208201526040830135604082015260608301358281111561502d57600080fd5b61503987828601614db1565b60608301525095945050505050565b60408152600061505b6040830185614d1d565b8281036020840152614c8e8185614d1d565b60006020828403121561507f57600080fd5b81356001600160401b0381111561509557600080fd5b8201606081850312156117a157600080fd5b600080604083850312156150ba57600080fd5b8235915060208301356150cc81614c97565b809150509250929050565b60018060a01b03851681528360208201528260408201526080606082015260006147816080830184614c1c565b6000602080838503121561511757600080fd5b82356001600160401b038082111561512e57600080fd5b818501915085601f83011261514257600080fd5b81358181111561515457615154614d6b565b8060051b9150615165848301614d81565b818152918301840191848101908884111561517f57600080fd5b938501935b8385101561519d57843582529385019390850190615184565b98975050505050505050565b6000602082840312156151bb57600080fd5b81356001600160401b038111156151d157600080fd5b6114ff84828501614db1565b634e487b7160e01b600052602160045260246000fd5b602081016005831061521557634e487b7160e01b600052602160045260246000fd5b91905290565b6020815260018060a01b038251166020820152602082015115156040820152600060408301516060808401526114ff6080840182614c1c565b6000806040838503121561526757600080fd5b823561527281614c97565b946020939093013593505050565b6000806020838503121561529357600080fd5b82356001600160401b03808211156152aa57600080fd5b818501915085601f8301126152be57600080fd5b8135818111156152cd57600080fd5b8660208260051b85010111156152e257600080fd5b60209290920196919550909350505050565b600181811c9082168061530857607f821691505b602082108103613b5b57634e487b7160e01b600052602260045260246000fd5b601f821115612b0457600081815260208120601f850160051c8101602086101561534f5750805b601f850160051c820191505b8181101561536e5782815560010161535b565b505050505050565b81516001600160401b0381111561538f5761538f614d6b565b6153a38161539d84546152f4565b84615328565b602080601f8311600181146153d857600084156153c05750858301515b600019600386901b1c1916600185901b17855561536e565b600085815260208120601f198616915b82811015615407578886015182559484019460019091019084016153e8565b50858210156154255787850151600019600388901b60f8161c191681555b5050505050600190811b01905550565b634e487b7160e01b600052601160045260246000fd5b8082018082111561143457611434615435565b634e487b7160e01b600052603260045260246000fd5b60006001820161548657615486615435565b5060010190565b60006114343683614ed5565b8181038181111561143457611434615435565b634e487b7160e01b600052601260045260246000fd5b6000826154df57634e487b7160e01b600052601260045260246000fd5b500490565b808202811582820484141761143457611434615435565b6020808252825482820181905260008481528281209092916040850190845b81811015614ec95783548352600193840193928501920161551a565b60006020828403121561554857600080fd5b81516117a181614c97565b8381526001600160a01b0383166020820152606060408201819052600090614c8e90830184614c1c565b634e487b7160e01b600052603160045260246000fdfea2646970667358221220e54045e67cdb19f3d33739e9e16c5d606229ee010d0916afcecfcb905705562664736f6c63430008130033","linkReferences":{}},"methodIdentifiers":{"AMOUNT_FOR_SUMBITTER_PROOF()":"347cf665","COST_ROUNDING_VALUE()":"e269cefe","JK_LABS_ADDRESS()":"eef18e17","PRICE_CURVE_UPDATE_INTERVAL()":"fd7971c9","SECONDS_IN_DAY()":"61a52a36","SECONDS_IN_HOUR()":"8793f2c7","addressTotalCastVoteCount(address)":"dda54fcf","addressesThatHaveVoted(uint256)":"50c4b616","allProposalTotalVotes()":"50a5e524","anyoneCanSubmit()":"5358b80e","cancel()":"ea8a1af0","canceled()":"3f9942ff","castVote(uint256,uint256)":"2c0a3f89","comment(uint256,string)":"1805c523","commentIds(uint256)":"f5c36411","commentIsDeleted(uint256)":"ae66b8ad","comments(uint256)":"8ebb4c15","contestAddressTotalVotesCast(address)":"aec116b6","contestDeadline()":"262e59e9","contestStart()":"004114a8","costToVote()":"51a41dec","creator()":"02d05d3f","creatorSplitEnabled()":"9decae31","currentPricePerVote()":"ca09a4c4","deleteComments(uint256[])":"ac67f801","deleteProposals(uint256[])":"f0a7db0a","deletedCommentIds(uint256)":"3fb57c92","deletedProposalIds(uint256)":"05846cae","getAllAddressesThatHaveVoted()":"2c39805f","getAllAuthorsOfDeletedProposals()":"cbdc27cb","getAllCommentIds()":"e11db9d8","getAllDeletedCommentIds()":"5cb718a1","getAllDeletedProposalIds()":"1242b737","getAllProposalAuthors()":"946369b5","getAllProposalIds()":"efa90d36","getComment(uint256)":"0800e300","getNumProposalsWithThisManyVotes(uint256)":"bc022c98","getOnlyProposalIdWithThisManyVotes(uint256)":"d576b81d","getProposal(uint256)":"c7f758a8","getProposalComments(uint256)":"c05f4104","getProposalsWithThisManyVotes(uint256)":"f82e54c0","getRankIndex(uint256)":"5c7107d8","getSortedRanks()":"6fd3636b","getTotalSpentByAddress(address)":"80cc8f43","getTotalSpentByAddressOnProposal(address,uint256)":"cddb9857","hashComment((address,uint256,uint256,string))":"409fd030","hashProposal((address,bool,string))":"c48b2deb","isOrIsBelowTiedRank(uint256)":"9174778c","jkLabsSplitDestination()":"102613d8","maxProposalCount()":"fb9bf8d4","multiple()":"437a8ae6","name()":"06fdde03","numAllowedProposalSubmissions()":"832009af","numSubmissions(address)":"75e509c5","officialRewardsModule()":"785ddfe5","percentageToRewards()":"06b2193f","priceCurveType()":"4a2c96ec","prompt()":"7c65d711","proposalAddressVotes(uint256,address)":"6e4eb810","proposalAddressesHaveVoted(uint256)":"b323580d","proposalAuthors(uint256)":"0aa25e44","proposalComments(uint256,uint256)":"f61736f4","proposalIds(uint256)":"9b644a23","proposalIsDeleted(uint256)":"f79c0172","proposalVoteStructs(uint256)":"15dee7cd","proposalVotes(uint256)":"544ffc9c","proposals(uint256)":"013cf08b","propose((address,bool,string))":"5b664ceb","rankLimit()":"0414126a","setJkLabsSplitDestination(address)":"9b338aa0","setName(string)":"c47f0027","setOfficialRewardsModule(address)":"f4f3d7ec","setPrompt(string)":"b4ac024f","sortedRanks(uint256)":"325cc6d9","state()":"c19d93fb","totalSpentByAddress(address)":"04a1aeae","totalSpentByAddressOnProposal(address,uint256)":"e41b1f10","totalVotesCast()":"7de418d5","totalVotesCastIsZero()":"7d742925","validateProposalData((address,bool,string))":"2d0f3cca","verifyProposer()":"476106c8","version()":"54fd4d50","voteStart()":"e031535b","votesToProposalIds(uint256,uint256)":"6d030621","votingDelay()":"3932abb1","votingPeriod()":"02a251a3"},"id":52}