{"abi":[{"type":"constructor","inputs":[{"name":"_constructorArgs","type":"tuple","internalType":"struct Governor.ConstructorArgs","components":[{"name":"name","type":"string","internalType":"string"},{"name":"prompt","type":"string","internalType":"string"},{"name":"intConstructorArgs","type":"tuple","internalType":"struct Governor.IntConstructorArgs","components":[{"name":"anyoneCanSubmit","type":"uint256","internalType":"uint256"},{"name":"contestStart","type":"uint256","internalType":"uint256"},{"name":"votingDelay","type":"uint256","internalType":"uint256"},{"name":"votingPeriod","type":"uint256","internalType":"uint256"},{"name":"numAllowedProposalSubmissions","type":"uint256","internalType":"uint256"},{"name":"maxProposalCount","type":"uint256","internalType":"uint256"},{"name":"rankLimit","type":"uint256","internalType":"uint256"},{"name":"percentageToRewards","type":"uint256","internalType":"uint256"},{"name":"costToVote","type":"uint256","internalType":"uint256"},{"name":"priceCurveType","type":"uint256","internalType":"uint256"},{"name":"multiple","type":"uint256","internalType":"uint256"},{"name":"creatorSplitEnabled","type":"uint256","internalType":"uint256"}]},{"name":"jkLabsSplitDestination","type":"address","internalType":"address"},{"name":"contestEntryType","type":"string","internalType":"string"}]}],"stateMutability":"nonpayable"},{"type":"function","name":"AMOUNT_FOR_SUMBITTER_PROOF","inputs":[],"outputs":[{"name":"","type":"uint256","internalType":"uint256"}],"stateMutability":"view"},{"type":"function","name":"COST_ROUNDING_VALUE","inputs":[],"outputs":[{"name":"","type":"uint256","internalType":"uint256"}],"stateMutability":"view"},{"type":"function","name":"JK_LABS_ADDRESS","inputs":[],"outputs":[{"name":"","type":"address","internalType":"address"}],"stateMutability":"view"},{"type":"function","name":"PRICE_CURVE_UPDATE_INTERVAL","inputs":[],"outputs":[{"name":"","type":"uint256","internalType":"uint256"}],"stateMutability":"view"},{"type":"function","name":"SECONDS_IN_DAY","inputs":[],"outputs":[{"name":"","type":"uint256","internalType":"uint256"}],"stateMutability":"view"},{"type":"function","name":"SECONDS_IN_HOUR","inputs":[],"outputs":[{"name":"","type":"uint256","internalType":"uint256"}],"stateMutability":"view"},{"type":"function","name":"addressTotalCastVoteCount","inputs":[{"name":"","type":"address","internalType":"address"}],"outputs":[{"name":"","type":"uint256","internalType":"uint256"}],"stateMutability":"view"},{"type":"function","name":"addressesThatHaveVoted","inputs":[{"name":"","type":"uint256","internalType":"uint256"}],"outputs":[{"name":"","type":"address","internalType":"address"}],"stateMutability":"view"},{"type":"function","name":"allProposalTotalVotes","inputs":[],"outputs":[{"name":"proposalIdsReturn","type":"uint256[]","internalType":"uint256[]"},{"name":"proposalVoteCountsArrayReturn","type":"uint256[]","internalType":"uint256[]"}],"stateMutability":"view"},{"type":"function","name":"anyoneCanSubmit","inputs":[],"outputs":[{"name":"","type":"uint256","internalType":"uint256"}],"stateMutability":"view"},{"type":"function","name":"cancel","inputs":[],"outputs":[],"stateMutability":"nonpayable"},{"type":"function","name":"canceled","inputs":[],"outputs":[{"name":"","type":"bool","internalType":"bool"}],"stateMutability":"view"},{"type":"function","name":"castVote","inputs":[{"name":"proposalId","type":"uint256","internalType":"uint256"},{"name":"numVotes","type":"uint256","internalType":"uint256"}],"outputs":[{"name":"","type":"uint256","internalType":"uint256"}],"stateMutability":"payable"},{"type":"function","name":"comment","inputs":[{"name":"proposalId","type":"uint256","internalType":"uint256"},{"name":"commentContent","type":"string","internalType":"string"}],"outputs":[{"name":"","type":"uint256","internalType":"uint256"}],"stateMutability":"nonpayable"},{"type":"function","name":"commentIds","inputs":[{"name":"","type":"uint256","internalType":"uint256"}],"outputs":[{"name":"","type":"uint256","internalType":"uint256"}],"stateMutability":"view"},{"type":"function","name":"commentIsDeleted","inputs":[{"name":"","type":"uint256","internalType":"uint256"}],"outputs":[{"name":"","type":"bool","internalType":"bool"}],"stateMutability":"view"},{"type":"function","name":"comments","inputs":[{"name":"","type":"uint256","internalType":"uint256"}],"outputs":[{"name":"author","type":"address","internalType":"address"},{"name":"timestamp","type":"uint256","internalType":"uint256"},{"name":"proposalId","type":"uint256","internalType":"uint256"},{"name":"commentContent","type":"string","internalType":"string"}],"stateMutability":"view"},{"type":"function","name":"contestAddressTotalVotesCast","inputs":[{"name":"userAddress","type":"address","internalType":"address"}],"outputs":[{"name":"userTotalVotesCast","type":"uint256","internalType":"uint256"}],"stateMutability":"view"},{"type":"function","name":"contestDeadline","inputs":[],"outputs":[{"name":"","type":"uint256","internalType":"uint256"}],"stateMutability":"view"},{"type":"function","name":"contestEntryType","inputs":[],"outputs":[{"name":"","type":"string","internalType":"string"}],"stateMutability":"view"},{"type":"function","name":"contestStart","inputs":[],"outputs":[{"name":"","type":"uint256","internalType":"uint256"}],"stateMutability":"view"},{"type":"function","name":"costToVote","inputs":[],"outputs":[{"name":"","type":"uint256","internalType":"uint256"}],"stateMutability":"view"},{"type":"function","name":"creator","inputs":[],"outputs":[{"name":"","type":"address","internalType":"address"}],"stateMutability":"view"},{"type":"function","name":"creatorSplitEnabled","inputs":[],"outputs":[{"name":"","type":"uint256","internalType":"uint256"}],"stateMutability":"view"},{"type":"function","name":"currentPricePerVote","inputs":[],"outputs":[{"name":"","type":"uint256","internalType":"uint256"}],"stateMutability":"view"},{"type":"function","name":"deleteComments","inputs":[{"name":"commentIdsParam","type":"uint256[]","internalType":"uint256[]"}],"outputs":[],"stateMutability":"nonpayable"},{"type":"function","name":"deleteProposals","inputs":[{"name":"proposalIdsToDelete","type":"uint256[]","internalType":"uint256[]"}],"outputs":[],"stateMutability":"nonpayable"},{"type":"function","name":"deletedCommentIds","inputs":[{"name":"","type":"uint256","internalType":"uint256"}],"outputs":[{"name":"","type":"uint256","internalType":"uint256"}],"stateMutability":"view"},{"type":"function","name":"deletedProposalIds","inputs":[{"name":"","type":"uint256","internalType":"uint256"}],"outputs":[{"name":"","type":"uint256","internalType":"uint256"}],"stateMutability":"view"},{"type":"function","name":"getAllAddressesThatHaveVoted","inputs":[],"outputs":[{"name":"","type":"address[]","internalType":"address[]"}],"stateMutability":"view"},{"type":"function","name":"getAllAuthorsOfDeletedProposals","inputs":[],"outputs":[{"name":"","type":"address[]","internalType":"address[]"}],"stateMutability":"view"},{"type":"function","name":"getAllCommentIds","inputs":[],"outputs":[{"name":"","type":"uint256[]","internalType":"uint256[]"}],"stateMutability":"view"},{"type":"function","name":"getAllDeletedCommentIds","inputs":[],"outputs":[{"name":"","type":"uint256[]","internalType":"uint256[]"}],"stateMutability":"view"},{"type":"function","name":"getAllDeletedProposalIds","inputs":[],"outputs":[{"name":"","type":"uint256[]","internalType":"uint256[]"}],"stateMutability":"view"},{"type":"function","name":"getAllProposalAuthors","inputs":[],"outputs":[{"name":"","type":"address[]","internalType":"address[]"}],"stateMutability":"view"},{"type":"function","name":"getAllProposalIds","inputs":[],"outputs":[{"name":"","type":"uint256[]","internalType":"uint256[]"}],"stateMutability":"view"},{"type":"function","name":"getComment","inputs":[{"name":"commentId","type":"uint256","internalType":"uint256"}],"outputs":[{"name":"","type":"tuple","internalType":"struct GovernorEngagement.CommentCore","components":[{"name":"author","type":"address","internalType":"address"},{"name":"timestamp","type":"uint256","internalType":"uint256"},{"name":"proposalId","type":"uint256","internalType":"uint256"},{"name":"commentContent","type":"string","internalType":"string"}]}],"stateMutability":"view"},{"type":"function","name":"getNumProposalsWithThisManyVotes","inputs":[{"name":"votes","type":"uint256","internalType":"uint256"}],"outputs":[{"name":"count","type":"uint256","internalType":"uint256"}],"stateMutability":"view"},{"type":"function","name":"getOnlyProposalIdWithThisManyVotes","inputs":[{"name":"votes","type":"uint256","internalType":"uint256"}],"outputs":[{"name":"proposalId","type":"uint256","internalType":"uint256"}],"stateMutability":"view"},{"type":"function","name":"getProposal","inputs":[{"name":"proposalId","type":"uint256","internalType":"uint256"}],"outputs":[{"name":"","type":"tuple","internalType":"struct Governor.ProposalCore","components":[{"name":"author","type":"address","internalType":"address"},{"name":"exists","type":"bool","internalType":"bool"},{"name":"description","type":"string","internalType":"string"}]}],"stateMutability":"view"},{"type":"function","name":"getProposalComments","inputs":[{"name":"proposalId","type":"uint256","internalType":"uint256"}],"outputs":[{"name":"","type":"uint256[]","internalType":"uint256[]"}],"stateMutability":"view"},{"type":"function","name":"getProposalsWithThisManyVotes","inputs":[{"name":"votes","type":"uint256","internalType":"uint256"}],"outputs":[{"name":"proposalsWithThisManyVotes","type":"uint256[]","internalType":"uint256[]"}],"stateMutability":"view"},{"type":"function","name":"getRankIndex","inputs":[{"name":"rank","type":"uint256","internalType":"uint256"}],"outputs":[{"name":"rankIndex","type":"uint256","internalType":"uint256"}],"stateMutability":"view"},{"type":"function","name":"getSortedRanks","inputs":[],"outputs":[{"name":"sortedRanksArray","type":"uint256[]","internalType":"uint256[]"}],"stateMutability":"view"},{"type":"function","name":"getTotalSpentByAddress","inputs":[{"name":"spendingAddress","type":"address","internalType":"address"}],"outputs":[{"name":"totalSpent","type":"uint256","internalType":"uint256"}],"stateMutability":"view"},{"type":"function","name":"getTotalSpentByAddressOnProposal","inputs":[{"name":"spendingAddress","type":"address","internalType":"address"},{"name":"proposalId","type":"uint256","internalType":"uint256"}],"outputs":[{"name":"totalSpent","type":"uint256","internalType":"uint256"}],"stateMutability":"view"},{"type":"function","name":"hashComment","inputs":[{"name":"commentObj","type":"tuple","internalType":"struct GovernorEngagement.CommentCore","components":[{"name":"author","type":"address","internalType":"address"},{"name":"timestamp","type":"uint256","internalType":"uint256"},{"name":"proposalId","type":"uint256","internalType":"uint256"},{"name":"commentContent","type":"string","internalType":"string"}]}],"outputs":[{"name":"","type":"uint256","internalType":"uint256"}],"stateMutability":"pure"},{"type":"function","name":"hashProposal","inputs":[{"name":"proposal","type":"tuple","internalType":"struct Governor.ProposalCore","components":[{"name":"author","type":"address","internalType":"address"},{"name":"exists","type":"bool","internalType":"bool"},{"name":"description","type":"string","internalType":"string"}]}],"outputs":[{"name":"","type":"uint256","internalType":"uint256"}],"stateMutability":"pure"},{"type":"function","name":"isOrIsBelowTiedRank","inputs":[{"name":"idx","type":"uint256","internalType":"uint256"}],"outputs":[{"name":"atOrBelowTiedRank","type":"bool","internalType":"bool"}],"stateMutability":"view"},{"type":"function","name":"jkLabsSplitDestination","inputs":[],"outputs":[{"name":"","type":"address","internalType":"address"}],"stateMutability":"view"},{"type":"function","name":"maxProposalCount","inputs":[],"outputs":[{"name":"","type":"uint256","internalType":"uint256"}],"stateMutability":"view"},{"type":"function","name":"multiple","inputs":[],"outputs":[{"name":"","type":"uint256","internalType":"uint256"}],"stateMutability":"view"},{"type":"function","name":"name","inputs":[],"outputs":[{"name":"","type":"string","internalType":"string"}],"stateMutability":"view"},{"type":"function","name":"numAllowedProposalSubmissions","inputs":[],"outputs":[{"name":"","type":"uint256","internalType":"uint256"}],"stateMutability":"view"},{"type":"function","name":"numSubmissions","inputs":[{"name":"","type":"address","internalType":"address"}],"outputs":[{"name":"","type":"uint256","internalType":"uint256"}],"stateMutability":"view"},{"type":"function","name":"officialRewardsModule","inputs":[],"outputs":[{"name":"","type":"address","internalType":"address"}],"stateMutability":"view"},{"type":"function","name":"percentageToRewards","inputs":[],"outputs":[{"name":"","type":"uint256","internalType":"uint256"}],"stateMutability":"view"},{"type":"function","name":"priceCurveType","inputs":[],"outputs":[{"name":"","type":"uint256","internalType":"uint256"}],"stateMutability":"view"},{"type":"function","name":"prompt","inputs":[],"outputs":[{"name":"","type":"string","internalType":"string"}],"stateMutability":"view"},{"type":"function","name":"proposalAddressVotes","inputs":[{"name":"proposalId","type":"uint256","internalType":"uint256"},{"name":"userAddress","type":"address","internalType":"address"}],"outputs":[{"name":"voteCount","type":"uint256","internalType":"uint256"}],"stateMutability":"view"},{"type":"function","name":"proposalAddressesHaveVoted","inputs":[{"name":"proposalId","type":"uint256","internalType":"uint256"}],"outputs":[{"name":"","type":"address[]","internalType":"address[]"}],"stateMutability":"view"},{"type":"function","name":"proposalAuthors","inputs":[{"name":"","type":"uint256","internalType":"uint256"}],"outputs":[{"name":"","type":"address","internalType":"address"}],"stateMutability":"view"},{"type":"function","name":"proposalComments","inputs":[{"name":"","type":"uint256","internalType":"uint256"},{"name":"","type":"uint256","internalType":"uint256"}],"outputs":[{"name":"","type":"uint256","internalType":"uint256"}],"stateMutability":"view"},{"type":"function","name":"proposalIds","inputs":[{"name":"","type":"uint256","internalType":"uint256"}],"outputs":[{"name":"","type":"uint256","internalType":"uint256"}],"stateMutability":"view"},{"type":"function","name":"proposalIsDeleted","inputs":[{"name":"","type":"uint256","internalType":"uint256"}],"outputs":[{"name":"","type":"bool","internalType":"bool"}],"stateMutability":"view"},{"type":"function","name":"proposalVoteStructs","inputs":[{"name":"","type":"uint256","internalType":"uint256"}],"outputs":[{"name":"proposalVoteCount","type":"uint256","internalType":"uint256"}],"stateMutability":"view"},{"type":"function","name":"proposalVotes","inputs":[{"name":"proposalId","type":"uint256","internalType":"uint256"}],"outputs":[{"name":"voteCount","type":"uint256","internalType":"uint256"}],"stateMutability":"view"},{"type":"function","name":"proposals","inputs":[{"name":"","type":"uint256","internalType":"uint256"}],"outputs":[{"name":"author","type":"address","internalType":"address"},{"name":"exists","type":"bool","internalType":"bool"},{"name":"description","type":"string","internalType":"string"}],"stateMutability":"view"},{"type":"function","name":"propose","inputs":[{"name":"proposal","type":"tuple","internalType":"struct Governor.ProposalCore","components":[{"name":"author","type":"address","internalType":"address"},{"name":"exists","type":"bool","internalType":"bool"},{"name":"description","type":"string","internalType":"string"}]}],"outputs":[{"name":"","type":"uint256","internalType":"uint256"}],"stateMutability":"nonpayable"},{"type":"function","name":"rankLimit","inputs":[],"outputs":[{"name":"","type":"uint256","internalType":"uint256"}],"stateMutability":"view"},{"type":"function","name":"setJkLabsSplitDestination","inputs":[{"name":"newJkLabsSplitDestination","type":"address","internalType":"address"}],"outputs":[],"stateMutability":"nonpayable"},{"type":"function","name":"setName","inputs":[{"name":"newName","type":"string","internalType":"string"}],"outputs":[{"name":"","type":"string","internalType":"string"}],"stateMutability":"nonpayable"},{"type":"function","name":"setOfficialRewardsModule","inputs":[{"name":"officialRewardsModule_","type":"address","internalType":"address"}],"outputs":[],"stateMutability":"nonpayable"},{"type":"function","name":"setPrompt","inputs":[{"name":"newPrompt","type":"string","internalType":"string"}],"outputs":[{"name":"","type":"string","internalType":"string"}],"stateMutability":"nonpayable"},{"type":"function","name":"sortedRanks","inputs":[{"name":"","type":"uint256","internalType":"uint256"}],"outputs":[{"name":"","type":"uint256","internalType":"uint256"}],"stateMutability":"view"},{"type":"function","name":"state","inputs":[],"outputs":[{"name":"","type":"uint8","internalType":"enum Governor.ContestState"}],"stateMutability":"view"},{"type":"function","name":"totalSpentByAddress","inputs":[{"name":"","type":"address","internalType":"address"}],"outputs":[{"name":"","type":"uint256","internalType":"uint256"}],"stateMutability":"view"},{"type":"function","name":"totalSpentByAddressOnProposal","inputs":[{"name":"","type":"address","internalType":"address"},{"name":"","type":"uint256","internalType":"uint256"}],"outputs":[{"name":"","type":"uint256","internalType":"uint256"}],"stateMutability":"view"},{"type":"function","name":"totalVotesCast","inputs":[],"outputs":[{"name":"","type":"uint256","internalType":"uint256"}],"stateMutability":"view"},{"type":"function","name":"totalVotesCastIsZero","inputs":[],"outputs":[{"name":"totalVotesCastZero","type":"bool","internalType":"bool"}],"stateMutability":"view"},{"type":"function","name":"validateProposalData","inputs":[{"name":"proposal","type":"tuple","internalType":"struct Governor.ProposalCore","components":[{"name":"author","type":"address","internalType":"address"},{"name":"exists","type":"bool","internalType":"bool"},{"name":"description","type":"string","internalType":"string"}]}],"outputs":[],"stateMutability":"view"},{"type":"function","name":"verifyProposer","inputs":[],"outputs":[],"stateMutability":"view"},{"type":"function","name":"version","inputs":[],"outputs":[{"name":"","type":"string","internalType":"string"}],"stateMutability":"pure"},{"type":"function","name":"voteStart","inputs":[],"outputs":[{"name":"","type":"uint256","internalType":"uint256"}],"stateMutability":"view"},{"type":"function","name":"votesToProposalIds","inputs":[{"name":"","type":"uint256","internalType":"uint256"},{"name":"","type":"uint256","internalType":"uint256"}],"outputs":[{"name":"","type":"uint256","internalType":"uint256"}],"stateMutability":"view"},{"type":"function","name":"votingDelay","inputs":[],"outputs":[{"name":"","type":"uint256","internalType":"uint256"}],"stateMutability":"view"},{"type":"function","name":"votingPeriod","inputs":[],"outputs":[{"name":"","type":"uint256","internalType":"uint256"}],"stateMutability":"view"},{"type":"event","name":"CommentCreated","inputs":[{"name":"commentId","type":"uint256","indexed":false,"internalType":"uint256"}],"anonymous":false},{"type":"event","name":"CommentsDeleted","inputs":[{"name":"commentIds","type":"uint256[]","indexed":false,"internalType":"uint256[]"}],"anonymous":false},{"type":"event","name":"ContestCanceled","inputs":[],"anonymous":false},{"type":"event","name":"CreatorPaymentReleased","inputs":[{"name":"to","type":"address","indexed":false,"internalType":"address"},{"name":"amount","type":"uint256","indexed":false,"internalType":"uint256"}],"anonymous":false},{"type":"event","name":"JkLabsPaymentReleased","inputs":[{"name":"to","type":"address","indexed":false,"internalType":"address"},{"name":"amount","type":"uint256","indexed":false,"internalType":"uint256"}],"anonymous":false},{"type":"event","name":"JokeraceCreated","inputs":[{"name":"version","type":"string","indexed":false,"internalType":"string"},{"name":"name","type":"string","indexed":false,"internalType":"string"},{"name":"prompt","type":"string","indexed":false,"internalType":"string"},{"name":"creator","type":"address","indexed":false,"internalType":"address"},{"name":"contestStart","type":"uint256","indexed":false,"internalType":"uint256"},{"name":"votingDelay","type":"uint256","indexed":false,"internalType":"uint256"},{"name":"votingPeriod","type":"uint256","indexed":false,"internalType":"uint256"}],"anonymous":false},{"type":"event","name":"OfficialRewardsModuleSet","inputs":[{"name":"oldOfficialRewardsModule","type":"address","indexed":false,"internalType":"address"},{"name":"newOfficialRewardsModule","type":"address","indexed":false,"internalType":"address"}],"anonymous":false},{"type":"event","name":"ProposalCreated","inputs":[{"name":"proposalId","type":"uint256","indexed":false,"internalType":"uint256"},{"name":"proposer","type":"address","indexed":false,"internalType":"address"},{"name":"proposalDescription","type":"string","indexed":false,"internalType":"string"}],"anonymous":false},{"type":"event","name":"ProposalsDeleted","inputs":[{"name":"proposalIds","type":"uint256[]","indexed":false,"internalType":"uint256[]"}],"anonymous":false},{"type":"event","name":"RewardsPaymentReleased","inputs":[{"name":"to","type":"address","indexed":false,"internalType":"address"},{"name":"amount","type":"uint256","indexed":false,"internalType":"uint256"}],"anonymous":false},{"type":"event","name":"VoteCast","inputs":[{"name":"voter","type":"address","indexed":true,"internalType":"address"},{"name":"proposalId","type":"uint256","indexed":false,"internalType":"uint256"},{"name":"numVotes","type":"uint256","indexed":false,"internalType":"uint256"}],"anonymous":false},{"type":"error","name":"AuthorIsNotSender","inputs":[{"name":"author","type":"address","internalType":"address"},{"name":"sender","type":"address","internalType":"address"}]},{"type":"error","name":"CanOnlyCancelBeforeFirstVote","inputs":[]},{"type":"error","name":"CanOnlyDeleteWhenQueued","inputs":[]},{"type":"error","name":"CannotCommentWhenCompletedOrCanceled","inputs":[]},{"type":"error","name":"CannotDeleteWhenCompletedOrCanceled","inputs":[]},{"type":"error","name":"CannotSetWhenCompletedOrCanceled","inputs":[]},{"type":"error","name":"CannotUpdateWhenCompletedOrCanceled","inputs":[]},{"type":"error","name":"CannotVoteLessThanOneVoteInPayPerVote","inputs":[]},{"type":"error","name":"CannotVoteOnDeletedProposal","inputs":[]},{"type":"error","name":"ContestAlreadyCanceled","inputs":[]},{"type":"error","name":"ContestMustBeActiveToGetCurrentVotePrice","inputs":[]},{"type":"error","name":"ContestMustBeActiveToVote","inputs":[]},{"type":"error","name":"ContestMustBeQueuedToPropose","inputs":[]},{"type":"error","name":"ContestSubmissionLimitReached","inputs":[{"name":"maxProposalCount","type":"uint256","internalType":"uint256"}]},{"type":"error","name":"DuplicateSubmission","inputs":[{"name":"proposalId","type":"uint256","internalType":"uint256"}]},{"type":"error","name":"EmptyProposalDescription","inputs":[]},{"type":"error","name":"IncorrectCostSent","inputs":[{"name":"msgValue","type":"uint256","internalType":"uint256"},{"name":"costToVote","type":"uint256","internalType":"uint256"}]},{"type":"error","name":"IndexHasNotBeenPopulated","inputs":[]},{"type":"error","name":"MoreThanOneProposalWithThisManyVotes","inputs":[]},{"type":"error","name":"NeedAtLeastOneVoteToVote","inputs":[]},{"type":"error","name":"NotEnoughVotesLeft","inputs":[]},{"type":"error","name":"OfficialModuleMustBeSetToEnter","inputs":[]},{"type":"error","name":"OfficialRewardsModuleCanOnlyBeSetOnce","inputs":[]},{"type":"error","name":"OfficialRewardsModuleMustPointToThisContest","inputs":[]},{"type":"error","name":"OnlyCreatorCanAmend","inputs":[]},{"type":"error","name":"OnlyCreatorCanSetName","inputs":[]},{"type":"error","name":"OnlyCreatorCanSetPrompt","inputs":[]},{"type":"error","name":"OnlyCreatorCanSetRewardsModule","inputs":[]},{"type":"error","name":"OnlyCreatorCanSubmit","inputs":[]},{"type":"error","name":"OnlyCreatorOrAuthorCanDeleteComments","inputs":[{"name":"failedToDeleteCommentId","type":"uint256","internalType":"uint256"}]},{"type":"error","name":"OnlyCreatorOrEntrantCanDelete","inputs":[]},{"type":"error","name":"OnlyCreatorOrJkLabsCanCancel","inputs":[]},{"type":"error","name":"OnlyJkLabsCanAmend","inputs":[]},{"type":"error","name":"PRBMath_MulDiv18_Overflow","inputs":[{"name":"x","type":"uint256","internalType":"uint256"},{"name":"y","type":"uint256","internalType":"uint256"}]},{"type":"error","name":"PRBMath_MulDiv_Overflow","inputs":[{"name":"x","type":"uint256","internalType":"uint256"},{"name":"y","type":"uint256","internalType":"uint256"},{"name":"denominator","type":"uint256","internalType":"uint256"}]},{"type":"error","name":"PRBMath_UD60x18_Exp2_InputTooBig","inputs":[{"name":"x","type":"uint256","internalType":"UD60x18"}]},{"type":"error","name":"PRBMath_UD60x18_Log_InputTooSmall","inputs":[{"name":"x","type":"uint256","internalType":"UD60x18"}]},{"type":"error","name":"PeriodsOutsideBounds","inputs":[]},{"type":"error","name":"RankCannotBeZero","inputs":[]},{"type":"error","name":"RankIsNotInSortedRanks","inputs":[]},{"type":"error","name":"RankLimitCannotBeZero","inputs":[]},{"type":"error","name":"SenderSubmissionLimitReached","inputs":[{"name":"numAllowedProposalSubmissions","type":"uint256","internalType":"uint256"}]}],"bytecode":{"object":"0x60806040523480156200001157600080fd5b5060405162005d6f38038062005d6f8339810160408190526200003491620003e6565b604081015160c001516000558051819060049062000053908262000561565b50602081015160059062000068908262000561565b50604081810151805160075560068054336001600160a01b031991821617909155602082015160085591810151600955606080820151600a55608080830151600b5560a0830151600c5560e0830151600d55610100830151600e55610120830151600f5561014083015160105561016090920151601155830151601280549093166001600160a01b03909116179091558101516013906200010a908262000561565b506040805180820182526004808252630362e32360e41b6020830152600654600854600954600a5495517f9a9bca21e4e51607db64fbdbcd7b2284a909c6a8969821f0d161efbdcae7016096620001779695946005946001600160a01b03909116939092909190620006b2565b60405180910390a1506200019062015180601e62000740565b8160400151604001511180620001bb5750620001b0610e10600662000740565b816040015160600151115b15620001da576040516341b2f4db60e01b815260040160405180910390fd5b806040015160c00151600003620002045760405163769f473560e11b815260040160405180910390fd5b506200076c565b634e487b7160e01b600052604160045260246000fd5b60405161018081016001600160401b03811182821017156200024757620002476200020b565b60405290565b60405160a081016001600160401b03811182821017156200024757620002476200020b565b60005b838110156200028f57818101518382015260200162000275565b50506000910152565b600082601f830112620002aa57600080fd5b81516001600160401b0380821115620002c757620002c76200020b565b604051601f8301601f19908116603f01168101908282118183101715620002f257620002f26200020b565b816040528381528660208588010111156200030c57600080fd5b6200031f84602083016020890162000272565b9695505050505050565b600061018082840312156200033d57600080fd5b6200034762000221565b9050815181526020820151602082015260408201516040820152606082015160608201526080820151608082015260a082015160a082015260c082015160c082015260e082015160e082015261010080830151818301525061012080830151818301525061014080830151818301525061016080830151818301525092915050565b80516001600160a01b0381168114620003e157600080fd5b919050565b600060208284031215620003f957600080fd5b81516001600160401b03808211156200041157600080fd5b9083019061020082860312156200042757600080fd5b620004316200024d565b8251828111156200044157600080fd5b6200044f8782860162000298565b8252506020830151828111156200046557600080fd5b620004738782860162000298565b60208301525062000488866040850162000329565b60408201526200049c6101c08401620003c9565b60608201526101e083015182811115620004b557600080fd5b620004c38782860162000298565b60808301525095945050505050565b600181811c90821680620004e757607f821691505b6020821081036200050857634e487b7160e01b600052602260045260246000fd5b50919050565b601f8211156200055c57600081815260208120601f850160051c81016020861015620005375750805b601f850160051c820191505b81811015620005585782815560010162000543565b5050505b505050565b81516001600160401b038111156200057d576200057d6200020b565b62000595816200058e8454620004d2565b846200050e565b602080601f831160018114620005cd5760008415620005b45750858301515b600019600386901b1c1916600185901b17855562000558565b600085815260208120601f198616915b82811015620005fe57888601518255948401946001909101908401620005dd565b50858210156200061d5787850151600019600388901b60f8161c191681555b5050505050600190811b01905550565b600081546200063c81620004d2565b8085526020600183811680156200065c57600181146200067757620006a7565b60ff1985168884015283151560051b880183019550620006a7565b866000528260002060005b858110156200069f5781548a820186015290830190840162000682565b890184019650505b505050505092915050565b60e08152600088518060e0840152610100620006d58282860160208e0162000272565b601f19601f8301168401915080848303016020850152620006f98183018b6200062d565b91505082810360408401526200071081896200062d565b6001600160a01b039790971660608401525050608081019390935260a083019190915260c0909101529392505050565b80820281158282048414176200076657634e487b7160e01b600052601160045260246000fd5b92915050565b6155f3806200077c6000396000f3fe6080604052600436106104bf5760003560e01c80637c65d71111610276578063c7f758a81161014f578063ea8a1af0116100c1578063f5c3641111610085578063f5c3641114610f24578063f61736f414610f44578063f79c017214610f64578063f82e54c014610f94578063fb9bf8d414610fb4578063fd7971c914610fca57600080fd5b8063ea8a1af014610e92578063eef18e1714610ea7578063efa90d3614610ecf578063f0a7db0a14610ee4578063f4f3d7ec14610f0457600080fd5b8063dda54fcf11610113578063dda54fcf14610dd5578063e031535b14610e02578063e11db9d814610e17578063e269cefe14610e2c578063e26a9ffb14610e45578063e41b1f1014610e5a57600080fd5b8063c7f758a814610d1b578063ca09a4c414610d48578063cbdc27cb14610d5d578063cddb985714610d72578063d576b81d14610db557600080fd5b80639decae31116101e8578063b4ac024f116101ac578063b4ac024f14610c4c578063bc022c9814610c6c578063c05f410414610c99578063c19d93fb14610cb9578063c47f002714610cdb578063c48b2deb14610cfb57600080fd5b80639decae3114610b90578063ac67f80114610ba6578063ae66b8ad14610bc6578063aec116b614610bf6578063b323580d14610c2c57600080fd5b80638793f2c71161023a5780638793f2c714610ad55780638ebb4c1514610aeb5780639174778c14610b1b578063946369b514610b3b5780639b338aa014610b505780639b644a2314610b7057600080fd5b80637c65d71114610a485780637d74292514610a5d5780637de418d514610a7357806380cc8f4314610a89578063832009af14610abf57600080fd5b80633932abb1116103a8578063544ffc9c1161031a57806361a52a36116102de57806361a52a36146109685780636d0306211461097f5780636e4eb8101461099f5780636fd3636b146109e657806375e509c5146109fb578063785ddfe514610a2857600080fd5b8063544ffc9c146108b957806354fd4d50146108e65780635b664ceb146109135780635c7107d8146109335780635cb718a11461095357600080fd5b8063476106c81161036c578063476106c81461081f5780634a2c96ec1461083457806350a5e5241461084a57806350c4b6161461086d57806351a41dec1461088d5780635358b80e146108a357600080fd5b80633932abb1146107895780633f9942ff1461079f5780633fb57c92146107c9578063409fd030146107e9578063437a8ae61461080957600080fd5b80630aa25e4411610441578063262e59e911610405578063262e59e9146106e15780632c0a3f89146106f65780632c39805f146107095780632d0f3cca1461072b578063325cc6d91461074d578063347cf6651461076d57600080fd5b80630aa25e4414610632578063102613d8146106525780631242b7371461067257806315dee7cd146106945780631805c523146106c157600080fd5b806304a1aeae1161048857806304a1aeae1461058057806305846cae146105ad57806306b2193f146105cd57806306fdde03146105e35780630800e3001461060557600080fd5b80624114a8146104c4578063013cf08b146104ed57806302a251a31461051c57806302d05d3f146105325780630414126a1461056a575b600080fd5b3480156104d057600080fd5b506104da60085481565b6040519081526020015b60405180910390f35b3480156104f957600080fd5b5061050d610508366004614c2d565b610fdf565b6040516104e493929190614c8c565b34801561052857600080fd5b506104da600a5481565b34801561053e57600080fd5b50600654610552906001600160a01b031681565b6040516001600160a01b0390911681526020016104e4565b34801561057657600080fd5b506104da60005481565b34801561058c57600080fd5b506104da61059b366004614cd6565b60026020526000908152604090205481565b3480156105b957600080fd5b506104da6105c8366004614c2d565b61109a565b3480156105d957600080fd5b506104da600d5481565b3480156105ef57600080fd5b506105f86110bb565b6040516104e49190614cf3565b34801561061157600080fd5b50610625610620366004614c2d565b611149565b6040516104e49190614d06565b34801561063e57600080fd5b5061055261064d366004614c2d565b61125d565b34801561065e57600080fd5b50601254610552906001600160a01b031681565b34801561067e57600080fd5b50610687611287565b6040516104e49190614d82565b3480156106a057600080fd5b506104da6106af366004614c2d565b601e6020526000908152604090205481565b3480156106cd57600080fd5b506104da6106dc366004614e4a565b6112df565b3480156106ed57600080fd5b506104da61145c565b6104da610704366004614e90565b611478565b34801561071557600080fd5b5061071e611529565b6040516104e49190614eb2565b34801561073757600080fd5b5061074b610746366004614f93565b61158a565b005b34801561075957600080fd5b506104da610768366004614c2d565b6115f6565b34801561077957600080fd5b506104da678ac7230489e8000081565b34801561079557600080fd5b506104da60095481565b3480156107ab57600080fd5b506017546107b99060ff1681565b60405190151581526020016104e4565b3480156107d557600080fd5b506104da6107e4366004614c2d565b611606565b3480156107f557600080fd5b506104da610804366004614fc7565b611616565b34801561081557600080fd5b506104da60105481565b34801561082b57600080fd5b5061074b611647565b34801561084057600080fd5b506104da600f5481565b34801561085657600080fd5b5061085f611685565b6040516104e4929190615072565b34801561087957600080fd5b50610552610888366004614c2d565b611750565b34801561089957600080fd5b506104da600e5481565b3480156108af57600080fd5b506104da60075481565b3480156108c557600080fd5b506104da6108d4366004614c2d565b6000908152601e602052604090205490565b3480156108f257600080fd5b506040805180820190915260048152630362e32360e41b60208201526105f8565b34801561091f57600080fd5b506104da61092e366004615097565b611760565b34801561093f57600080fd5b506104da61094e366004614c2d565b6117ca565b34801561095f57600080fd5b506106876118d1565b34801561097457600080fd5b506104da6201518081565b34801561098b57600080fd5b506104da61099a366004614e90565b611927565b3480156109ab57600080fd5b506104da6109ba3660046150d1565b6000828152601e602090815260408083206001600160a01b038516845260020190915290205492915050565b3480156109f257600080fd5b50610687611958565b348015610a0757600080fd5b506104da610a16366004614cd6565b60196020526000908152604090205481565b348015610a3457600080fd5b50602054610552906001600160a01b031681565b348015610a5457600080fd5b506105f86119ae565b348015610a6957600080fd5b50601c54156107b9565b348015610a7f57600080fd5b506104da601c5481565b348015610a9557600080fd5b506104da610aa4366004614cd6565b6001600160a01b031660009081526002602052604090205490565b348015610acb57600080fd5b506104da600b5481565b348015610ae157600080fd5b506104da610e1081565b348015610af757600080fd5b50610b0b610b06366004614c2d565b6119bb565b6040516104e49493929190615101565b348015610b2757600080fd5b506107b9610b36366004614c2d565b611a78565b348015610b4757600080fd5b5061071e611b1c565b348015610b5c57600080fd5b5061074b610b6b366004614cd6565b611b7c565b348015610b7c57600080fd5b506104da610b8b366004614c2d565b611c2f565b348015610b9c57600080fd5b506104da60115481565b348015610bb257600080fd5b5061074b610bc136600461512e565b611c3f565b348015610bd257600080fd5b506107b9610be1366004614c2d565b60256020526000908152604090205460ff1681565b348015610c0257600080fd5b506104da610c11366004614cd6565b6001600160a01b03166000908152601d602052604090205490565b348015610c3857600080fd5b5061071e610c47366004614c2d565b611dd1565b348015610c5857600080fd5b506105f8610c673660046151d3565b611e43565b348015610c7857600080fd5b506104da610c87366004614c2d565b6000908152601f602052604090205490565b348015610ca557600080fd5b50610687610cb4366004614c2d565b611ee1565b348015610cc557600080fd5b50610cce611f43565b6040516104e4919061521d565b348015610ce757600080fd5b506105f8610cf63660046151d3565b611f94565b348015610d0757600080fd5b506104da610d16366004614f93565b61202b565b348015610d2757600080fd5b50610d3b610d36366004614c2d565b61203e565b6040516104e49190615245565b348015610d5457600080fd5b506104da6120ac565b348015610d6957600080fd5b5061071e61228b565b348015610d7e57600080fd5b506104da610d8d36600461527e565b6001600160a01b03919091166000908152600360209081526040808320938352929052205490565b348015610dc157600080fd5b506104da610dd0366004614c2d565b6123bb565b348015610de157600080fd5b506104da610df0366004614cd6565b601d6020526000908152604090205481565b348015610e0e57600080fd5b506104da61241b565b348015610e2357600080fd5b5061068761242d565b348015610e3857600080fd5b506104da64e8d4a5100081565b348015610e5157600080fd5b506105f8612483565b348015610e6657600080fd5b506104da610e7536600461527e565b600360209081526000928352604080842090915290825290205481565b348015610e9e57600080fd5b5061074b612490565b348015610eb357600080fd5b5061055273dc652c746a8f85e18ce632d97c6118e8a52fa73881565b348015610edb57600080fd5b5061068761255d565b348015610ef057600080fd5b5061074b610eff3660046152aa565b6125b3565b348015610f1057600080fd5b5061074b610f1f366004614cd6565b612711565b348015610f3057600080fd5b506104da610f3f366004614c2d565b61284e565b348015610f5057600080fd5b506104da610f5f366004614e90565b61285e565b348015610f7057600080fd5b506107b9610f7f366004614c2d565b60166020526000908152604090205460ff1681565b348015610fa057600080fd5b50610687610faf366004614c2d565b61287a565b348015610fc057600080fd5b506104da600c5481565b348015610fd657600080fd5b506104da603c81565b601860205260009081526040902080546001820180546001600160a01b03831693600160a01b90930460ff169291906110179061531e565b80601f01602080910402602001604051908101604052809291908181526020018280546110439061531e565b80156110905780601f1061106557610100808354040283529160200191611090565b820191906000526020600020905b81548152906001019060200180831161107357829003601f168201915b5050505050905083565b601581815481106110aa57600080fd5b600091825260209091200154905081565b600480546110c89061531e565b80601f01602080910402602001604051908101604052809291908181526020018280546110f49061531e565b80156111415780601f1061111657610100808354040283529160200191611141565b820191906000526020600020905b81548152906001019060200180831161112457829003601f168201915b505050505081565b61117d604051806080016040528060006001600160a01b031681526020016000815260200160008152602001606081525090565b600082815260236020908152604091829020825160808101845281546001600160a01b031681526001820154928101929092526002810154928201929092526003820180549192916060840191906111d49061531e565b80601f01602080910402602001604051908101604052809291908181526020018280546112009061531e565b801561124d5780601f106112225761010080835404028352916020019161124d565b820191906000526020600020905b81548152906001019060200180831161123057829003601f168201915b5050505050815250509050919050565b601a818154811061126d57600080fd5b6000918252602090912001546001600160a01b0316905081565b606060158054806020026020016040519081016040528092919081815260200182805480156112d557602002820191906000526020600020905b8154815260200190600101908083116112c1575b5050505050905090565b600060046112eb611f43565b60048111156112fc576112fc615207565b14806113205750600261130d611f43565b600481111561131e5761131e615207565b145b1561133d5760405162f3e73d60e81b815260040160405180910390fd5b6040805160808101825233815242602082015290810184905260608101839052600061136882611616565b6021805460018082019092557f3a6357012c1a3ae0a17d304c9920310382d968ebcc4b1771f41c6b304205b57001829055600082815260236020908152604091829020865181546001600160a01b0319166001600160a01b03909116178155908601519281019290925584015160028201556060840151919250839160038201906113f390826153a0565b505050600085815260246020908152604080832080546001810182559084529190922001829055517f5a1a930fed43f34b3a07db782ebcac28a661c273e662bb98458cfba5a8ccd2209061144a9083815260200190565b60405180910390a19150505b92915050565b6000600a5461146961241b565b6114739190615475565b905090565b6000806114866001846128da565b60008581526016602052604090205490915060ff16156114b9576040516358f1119560e01b815260040160405180910390fd5b6114c281612977565b33600090815260026020526040812080548392906114e1908490615475565b909155505033600090815260036020908152604080832087845290915281208054839290611510908490615475565b909155506115219050843385612b33565b949350505050565b6060601b8054806020026020016040519081016040528092919081815260200182805480156112d557602002820191906000526020600020905b81546001600160a01b03168152600190910190602001808311611563575050505050905090565b80516001600160a01b031633146115cd57805160405163fbbf4d7f60e01b81526001600160a01b0390911660048201523360248201526044015b60405180910390fd5b8060400151516000036115f35760405163e182473360e01b815260040160405180910390fd5b50565b600181815481106110aa57600080fd5b602281815481106110aa57600080fd5b6000816040516020016116299190614d06565b60408051601f19818403018152919052805160209091012092915050565b60075460011415801561166557506006546001600160a01b03163314155b1561168357604051639a4a529360e01b815260040160405180910390fd5b565b606080600061169261255d565b9050600081516001600160401b038111156116af576116af614d95565b6040519080825280602002602001820160405280156116d8578160200160208202803683370190505b50905060005b825181101561174657601e60008483815181106116fd576116fd615488565b602002602001015181526020019081526020016000206000015482828151811061172957611729615488565b60209081029190910101528061173e8161549e565b9150506116de565b5090939092509050565b601b818154811061126d57600080fd5b6000806117756020546001600160a01b031690565b6001600160a01b03160361179c5760405163fa4f07a360e01b815260040160405180910390fd5b6117a4611647565b6117b0610746836154b7565b60006117c36117be846154b7565b612c27565b9392505050565b6000816000036117ed57604051630ec90a1760e31b815260040160405180910390fd5b6001805460408051602080840282018101909252828152919260009291849083018282801561183b57602002820191906000526020600020905b815481526020019060010190808311611827575b5050505050905060006001905060005b838110156118b75761188283828151811061186857611868615488565b60200260200101516000908152601f602052604090205490565b156118a5578582036118975795945050505050565b816118a18161549e565b9250505b806118af8161549e565b91505061184b565b50604051632cc2ab7360e11b815260040160405180910390fd5b606060228054806020026020016040519081016040528092919081815260200182805480156112d557602002820191906000526020600020908154815260200190600101908083116112c1575050505050905090565b601f602052816000526040600020818154811061194357600080fd5b90600052602060002001600091509150505481565b606060018054806020026020016040519081016040528092919081815260200182805480156112d557602002820191906000526020600020908154815260200190600101908083116112c1575050505050905090565b600580546110c89061531e565b60236020526000908152604090208054600182015460028301546003840180546001600160a01b039094169492939192916119f59061531e565b80601f0160208091040260200160405190810160405280929190818152602001828054611a219061531e565b8015611a6e5780601f10611a4357610100808354040283529160200191611a6e565b820191906000526020600020905b815481529060010190602001808311611a5157829003601f168201915b5050505050905084565b60018054600091611a88916154c3565b821115611aa8576040516365d6f35160e11b815260040160405180910390fd5b60005b611ab6836001615475565b811015611b13576001611af260018381548110611ad557611ad5615488565b90600052602060002001546000908152601f602052604090205490565b1115611b015750600192915050565b80611b0b8161549e565b915050611aab565b50600092915050565b6060601a8054806020026020016040519081016040528092919081815260200182805480156112d5576020028201919060005260206000209081546001600160a01b03168152600190910190602001808311611563575050505050905090565b3373dc652c746a8f85e18ce632d97c6118e8a52fa73814611bb05760405163de07280160e01b815260040160405180910390fd5b6004611bba611f43565b6004811115611bcb57611bcb615207565b1480611bef57506002611bdc611f43565b6004811115611bed57611bed615207565b145b15611c0d576040516398fe99a560e01b815260040160405180910390fd5b601280546001600160a01b0319166001600160a01b0392909216919091179055565b601481815481106110aa57600080fd5b6004611c49611f43565b6004811115611c5a57611c5a615207565b1480611c7e57506002611c6b611f43565b6004811115611c7c57611c7c615207565b145b15611c9c57604051631e71d28360e21b815260040160405180910390fd5b805160005b81811015611d95576000838281518110611cbd57611cbd615488565b60209081029190910101516006549091506001600160a01b03163314801590611cfd57506000818152602360205260409020546001600160a01b03163314155b15611d1e57604051635450763d60e11b8152600481018290526024016115c4565b60008181526025602052604090205460ff16611d82576000818152602560205260408120805460ff191660019081179091556022805491820181559091527f61035b26e3e9eee00e0d72fd1ee8ddca6894550dca6916ea2ac6baa90d11e510018190555b5080611d8d8161549e565b915050611ca1565b507f788a4349d25bc08585923ae212bce8bb346a623bce753eeecb85fd9ce58dcb4b82604051611dc59190614d82565b60405180910390a15050565b6000818152601e60209081526040918290206001810180548451818502810185019095528085526060949293830182828015611e3657602002820191906000526020600020905b81546001600160a01b03168152600190910190602001808311611e18575b5050505050915050919050565b6006546060906001600160a01b03163314611e7157604051630aca3d7160e11b815260040160405180910390fd5b6004611e7b611f43565b6004811115611e8c57611e8c615207565b1480611eb057506002611e9d611f43565b6004811115611eae57611eae615207565b145b15611ece57604051635b0747e760e01b815260040160405180910390fd5b6005611eda83826153a0565b5090919050565b600081815260246020908152604091829020805483518184028101840190945280845260609392830182828015611f3757602002820191906000526020600020905b815481526020019060010190808311611f23575b50505050509050919050565b60175460009060ff1615611f575750600290565b4260085410611f665750600090565b42611f6f61241b565b10611f7a5750600390565b42611f8361145c565b10611f8e5750600190565b50600490565b6006546060906001600160a01b03163314611fc257604051637d1cb2b160e01b815260040160405180910390fd5b6004611fcc611f43565b6004811115611fdd57611fdd615207565b148061200157506002611fee611f43565b6004811115611fff57611fff615207565b145b1561201f57604051635b0747e760e01b815260040160405180910390fd5b6004611eda83826153a0565b6000816040516020016116299190615245565b60408051606080820183526000808352602083015291810191909152600082815260186020908152604091829020825160608101845281546001600160a01b0381168252600160a01b900460ff1615159281019290925260018101805492939192918401916111d49061531e565b600060016120b8611f43565b60048111156120c9576120c9615207565b146120e75760405163a6f7b85360e01b815260040160405180910390fd5b6000603c6120f361241b565b6120fe906001615475565b61210890426154c3565b61211291906154ec565b9050600061217f61216b61213461213185670de0b6b3a764000061550e565b90565b612166612150600a54670de0b6b3a7640000612131919061550e565b612166612131603c670de0b6b3a764000061550e565b612e4e565b68056bc75e2d63100000612e66565b612e66565b905060006121a18261217a61219360105490565b670de0b6b3a7640000612e4e565b90506000600f5460018111156121b9576121b9615207565b60018111156121ca576121ca615207565b0361221c5760006121da82612e75565b905060006121f66121316121f0612193600e5490565b84612e66565b905064e8d4a5100061220881836154ec565b612212919061550e565b9550505050505090565b6001600f54600181111561223257612232615207565b600181111561224357612243615207565b0361228057600061226961226483670de0b6b3a7640000612ecb565b612ecb565b612eda565b905060006121f66121318361225f612193600e5490565b600e54935050505090565b6060600060158054806020026020016040519081016040528092919081815260200182805480156122db57602002820191906000526020600020905b8154815260200190600101908083116122c7575b50505050509050600081516001600160401b038111156122fd576122fd614d95565b604051908082528060200260200182016040528015612326578160200160208202803683370190505b50905060005b82518110156123b4576018600084838151811061234b5761234b615488565b6020026020010151815260200190815260200160002060000160009054906101000a90046001600160a01b031682828151811061238a5761238a615488565b6001600160a01b0390921660209283029190910190910152806123ac8161549e565b91505061232c565b5092915050565b6000818152601f60205260408120546001146123ea57604051633832a15560e21b815260040160405180910390fd5b6000828152601f60205260408120805490919061240957612409615488565b90600052602060002001549050919050565b60006009546008546114739190615475565b606060218054806020026020016040519081016040528092919081815260200182805480156112d557602002820191906000526020600020908154815260200190600101908083116112c1575050505050905090565b601380546110c89061531e565b6006546001600160a01b031633148015906124bf57503373dc652c746a8f85e18ce632d97c6118e8a52fa73814155b156124dd57604051637601acaf60e11b815260040160405180910390fd5b60175460ff161561250157604051636f79584d60e01b815260040160405180910390fd5b601c54156001146125255760405163043d8d1b60e21b815260040160405180910390fd5b6017805460ff191660011790556040517f4cd963a081760a54f571abc0f1db4dde31b4a07d8d6da3e844b8c6f47eeaaa4290600090a1565b606060148054806020026020016040519081016040528092919081815260200182805480156112d557602002820191906000526020600020908154815260200190600101908083116112c1575050505050905090565b60036125bd611f43565b60048111156125ce576125ce615207565b146125ec5760405163554806bb60e11b815260040160405180910390fd5b60005b818110156126e057600083838381811061260b5761260b615488565b60065460209190910292909201359250506001600160a01b0316331480159061264b57506000818152601860205260409020546001600160a01b03163314155b156126695760405163018db70560e11b815260040160405180910390fd5b60008181526016602052604090205460ff166126cd576000818152601660205260408120805460ff191660019081179091556015805491820181559091527f55f448fdea98c4d29eb340757ef0a66cd03dbb9538908a6a81d96026b71ec475018190555b50806126d88161549e565b9150506125ef565b507f75a75cf5c561892f4cc5b26c1b8e933849b42238c96dd073d080d1ae96c514166014604051611dc59190615525565b6006546001600160a01b0316331461273c57604051630f4cb1bd60e11b815260040160405180910390fd5b6020546001600160a01b03161561276657604051630ff4b80b60e01b815260040160405180910390fd5b306001600160a01b0316816001600160a01b031663f3f44fb76040518163ffffffff1660e01b8152600401602060405180830381865afa1580156127ae573d6000803e3d6000fd5b505050506040513d601f19601f820116820180604052508101906127d29190615560565b6001600160a01b0316146127f957604051635b310aaf60e01b815260040160405180910390fd5b602080546001600160a01b038381166001600160a01b03198316811784556040805192909316808352938201527f753a2cf8d360cff631674504210913e48247f8e56b3e6d2006c2103d4095999f9101611dc5565b602181815481106110aa57600080fd5b6024602052816000526040600020818154811061194357600080fd5b6000818152601f6020908152604091829020805483518184028101840190945280845260609392830182828015611f375760200282019190600052602060002090815481526020019060010190808311611f235750505050509050919050565b60008060018460018111156128f1576128f1615207565b0361294a57670de0b6b3a764000083101561291f576040516346ddb8d160e01b815260040160405180910390fd5b612931670de0b6b3a7640000846154ec565b6129396120ac565b612943919061550e565b905061294e565b5060005b8034146117c3576040516372c3eaa760e01b8152346004820152602481018290526044016115c4565b80156115f35760006064600d54606461299091906154c3565b61299a903461550e565b6129a491906154ec565b90508015612aaa5760006011546001146129bf5760006129ca565b6129ca6002836154ec565b90508015612a2f576006546129e8906001600160a01b031682613b8b565b600654604080516001600160a01b039092168252602082018390527f6dff55337c8458ae8c536a63869a48bc33541733422a796390c131d91f4238ed910160405180910390a15b601254612a4e906001600160a01b0316612a4983856154c3565b613b8b565b6012547f9df63d1c00d2e332f573be591c0579caafb256b2c5a17abcc8ad471cccda1b81906001600160a01b0316612a8683856154c3565b604080516001600160a01b03909316835260208301919091520160405180910390a1505b6000612ab682346154c3565b90508015612b2e57612ad9612ad36020546001600160a01b031690565b82613b8b565b7f2c7d70ceb5af79cc37f1832a7908bad1815c2d634ae0f5480dac8eaecddc2e67612b0c6020546001600160a01b031690565b604080516001600160a01b039092168252602082018490520160405180910390a15b505050565b60006001612b3f611f43565b6004811115612b5057612b50615207565b14612b6e5760405163f569a2b960e01b815260040160405180910390fd5b81600003612b8f5760405163502e1c2960e01b815260040160405180910390fd5b612b9a848484613ca4565b601b80546001810182556000919091527f3ad8aa4f87544323a9d1e5dd902f40c356527a7955687113db5f9a85ad579dc10180546001600160a01b0319163317905560408051858152602081018490526001600160a01b038516917fb4cfecf70861b7b150d8337780d34fb4cbc2114b5fb1fe51a5c5fca1849f7274910160405180910390a25092915050565b60006003612c33611f43565b6004811115612c4457612c44615207565b14612c625760405163152839c360e31b815260040160405180910390fd5b600b543360009081526019602052604090205403612c9957600b54604051632bd6d93960e21b81526004016115c491815260200190565b600c54601554601454612cac91906154c3565b03612cd057600c546040516302217f5360e51b81526004016115c491815260200190565b6000612cdb8361202b565b600081815260186020526040902054909150600160a01b900460ff1615612d185760405163baffc42360e01b8152600481018290526024016115c4565b6014805460018181019092557fce6d7b5282bd9a3661ae061feed1dbda4e52ab073b1f9285be6e155d9c38d4ec0182905560008281526018602090815260409182902086518154928801511515600160a01b026001600160a81b03199093166001600160a01b0390911617919091178155908501518592820190612d9c90826153a0565b5050336000908152601960205260408120805460019350909190612dc1908490615475565b9091555050601a80546001810182556000919091527f057c384a7d1c54f3a1b2e5e67b2617b8224fdfd1ea7234eea573a6ff665ff63e0180546001600160a01b0319163390811790915560408085015190517f7585f467599d0f008985f231af99293be388626ac16ca59505c2f8f88969cd6392612e4092859261557d565b60405180910390a192915050565b60006117c361213184670de0b6b3a764000085613de5565b60006117c36121318484613eb9565b600081680a688906bd8affffff811115612ea55760405163b3b6ba1f60e01b8152600481018490526024016115c4565b6000612ebd670de0b6b3a7640000604084901b6154ec565b905061152161213182613f6f565b60006117c36121318385615475565b600081670de0b6b3a7640000811015612f095760405163036d32ef60e41b8152600481018490526024016115c4565b826001811461363557600a81146136465760648114613657576103e8811461366857612710811461367957620186a0811461368a57620f4240811461369b576298968081146136ac576305f5e10081146136bd57633b9aca0081146136ce576402540be40081146136df5764174876e80081146136f05764e8d4a510008114613701576509184e72a000811461371257655af3107a400081146137235766038d7ea4c68000811461373457662386f26fc1000081146137455767016345785d8a0000811461375657670de0b6b3a7640000811461376757678ac7230489e8000081146137705768056bc75e2d63100000811461378057683635c9adc5dea0000081146137905769021e19e0c9bab240000081146137a05769152d02c7e14af680000081146137b05769d3c21bcecceda100000081146137c0576a084595161401484a00000081146137d0576a52b7d2dcc80cd2e400000081146137e0576b033b2e3c9fd0803ce800000081146137f0576b204fce5e3e250261100000008114613800576c01431e0fae6d7217caa00000008114613810576c0c9f2c9cd04674edea400000008114613820576c7e37be2022c0914b26800000008114613830576d04ee2d6d415b85acef81000000008114613840576d314dc6448d9338c15b0a000000008114613850576e01ed09bead87c0378d8e64000000008114613860576e13426172c74d822b878fe8000000008114613870576ec097ce7bc90715b34b9f10000000008114613880576f0785ee10d5da46d900f436a0000000008114613890576f4b3b4ca85a86c47a098a22400000000081146138a1577002f050fe938943acc45f6556800000000081146138b257701d6329f1c35ca4bfabb9f561000000000081146138c357710125dfa371a19e6f7cb54395ca000000000081146138d457710b7abc627050305adf14a3d9e4000000000081146138e5577172cb5bd86321e38cb6ce6682e8000000000081146138f65772047bf19673df52e37f2410011d100000000000811461390757722cd76fe086b93ce2f768a00b22a000000000008114613918577301c06a5ec5433c60ddaa16406f5a40000000000081146139295773118427b3b4a05bc8a8a4de845986800000000000811461393a5773af298d050e4395d69670b12b7f41000000000000811461394b577406d79f82328ea3da61e066ebb2f88a000000000000811461395c5774446c3b15f9926687d2c40534fdb564000000000000811461396d577502ac3a4edbbfb8014e3ba83411e915e8000000000000811461397e57751aba4714957d300d0e549208b31adb10000000000000811461398f5776010b46c6cdd6e3e0828f4db456ff0c8ea000000000000081146139a057760a70c3c40a64e6c51999090b65f67d924000000000000081146139b157766867a5a867f103b2fffa5a71fba0e7b68000000000000081146139c2577704140c78940f6a24fdffc78873d4490d210000000000000081146139d3577728c87cb5c89a2571ebfdcb54864ada834a0000000000000081146139e457780197d4df19d605767337e9f14d3eec8920e40000000000000081146139f557780fee50b7025c36a0802f236d04753d5b48e8000000000000008114613a0657789f4f2726179a224501d762422c946590d910000000000000008114613a175779063917877cec0556b21269d695bdcbf7a87aa0000000000000008114613a2857793e3aeb4ae1383562f4b82261d969f7ac94ca40000000000000008114613a39577a026e4d30eccc3215dd8f3157d27e23acbdcfe680000000000000008114613a4a577a184f03e93ff9f4daa797ed6e38ed64bf6a1f0100000000000000008114613a5b577af316271c7fc3908a8bef464e3945ef7a25360a00000000000000008114613a6c577b097edd871cfda3a5697758bf0e3cbb5ac5741c6400000000000000008114613a7d577b5ef4a74721e864761ea977768e5f518bb6891be800000000000000008114613a8e577c03b58e88c75313ec9d329eaaa18fb92f75215b171000000000000000008114613a9f577c25179157c93ec73e23fa32aa4f9d3bda934d8ee6a000000000000000008114613ab0577d0172ebad6ddc73c86d67c5faa71c245689c10795024000000000000000008114613ac1577d0e7d34c64a9c85d4460dbbca87196b61618a4bd2168000000000000000008114613ad2577d90e40fbeea1d3a4abc8955e946fe31cdcf66f634e10000000000000000008114613ae3577e05a8e89d75252446eb5d5d5b1cc5edf20a1a059e10ca0000000000000000008114613af4577e3899162693736ac531a5a58f1fbb4b746504382ca7e40000000000000000008114613b05577546bf5bb0385045767e0f0ef2e7aa1e517e454637d1dd604b1b8114613b16577f161bcca7119915b50764b4abe86529797775a5f17195100000000000000000008114613b27577fdd15fe86affad91249ef0eb713f39ebeaa987b6e6fd2a00000000000000000008114613b38576000199250613b45565b67f9ccd8a1c507ffff199250613b45565b67ebec21ee1da3ffff199250613b45565b67de0b6b3a763fffff199250613b45565b67d02ab486cedbffff199250613b45565b67c249fdd32777ffff199250613b45565b67b469471f8013ffff199250613b45565b67a688906bd8afffff199250613b45565b6798a7d9b8314bffff199250613b45565b678ac7230489e7ffff199250613b45565b677ce66c50e283ffff199250613b45565b676f05b59d3b1fffff199250613b45565b676124fee993bbffff199250613b45565b6753444835ec57ffff199250613b45565b674563918244f3ffff199250613b45565b673782dace9d8fffff199250613b45565b6729a2241af62bffff199250613b45565b671bc16d674ec7ffff199250613b45565b670de0b6b3a763ffff199250613b45565b60009250613b45565b670de0b6b3a76400009250613b45565b671bc16d674ec800009250613b45565b6729a2241af62c00009250613b45565b673782dace9d9000009250613b45565b674563918244f400009250613b45565b6753444835ec5800009250613b45565b676124fee993bc00009250613b45565b676f05b59d3b2000009250613b45565b677ce66c50e28400009250613b45565b678ac7230489e800009250613b45565b6798a7d9b8314c00009250613b45565b67a688906bd8b000009250613b45565b67b469471f801400009250613b45565b67c249fdd3277800009250613b45565b67d02ab486cedc00009250613b45565b67de0b6b3a764000009250613b45565b67ebec21ee1da400009250613b45565b67f9ccd8a1c50800009250613b45565b680107ad8f556c6c00009250613b45565b6801158e460913d000009250613b45565b6801236efcbcbb3400009250613b45565b6801314fb370629800009250613b45565b68013f306a2409fc00009250613b45565b68014d1120d7b16000009250613b45565b68015af1d78b58c400009250613b45565b680168d28e3f002800009250613b45565b680176b344f2a78c00009250613b45565b68018493fba64ef000009250613b45565b68019274b259f65400009250613b45565b6801a055690d9db800009250613b45565b6801ae361fc1451c00009250613b45565b6801bc16d674ec8000009250613b45565b6801c9f78d2893e400009250613b45565b6801d7d843dc3b4800009250613b45565b6801e5b8fa8fe2ac00009250613b45565b6801f399b1438a1000009250613b45565b6802017a67f7317400009250613b45565b68020f5b1eaad8d800009250613b45565b68021d3bd55e803c00009250613b45565b68022b1c8c1227a000009250613b45565b680238fd42c5cf0400009250613b45565b680246ddf979766800009250613b45565b680254beb02d1dcc00009250613b45565b6802629f66e0c53000009250613b45565b680270801d946c9400009250613b45565b68027e60d44813f800009250613b45565b68028c418afbbb5c00009250613b45565b68029a2241af62c000009250613b45565b6802a802f8630a2400009250613b45565b6802b5e3af16b18800009250613b45565b6802c3c465ca58ec00009250613b45565b6802d1a51c7e005000009250613b45565b6802df85d331a7b400009250613b45565b6802ed6689e54f1800009250613b45565b6802fb474098f67c00009250613b45565b68030927f74c9de000009250613b45565b68031708ae00454400009250613b45565b680324e964b3eca800009250613b45565b680332ca1b67940c000092505b506000198203613b8557613b82672e19dc008126bf2b670de0b6b3a7640000613b70612131876146cf565b0281613b7e57613b7e6154d6565b0490565b91505b50919050565b80471015613bdb5760405162461bcd60e51b815260206004820152601d60248201527f416464726573733a20696e73756666696369656e742062616c616e636500000060448201526064016115c4565b6000826001600160a01b03168260405160006040518083038185875af1925050503d8060008114613c28576040519150601f19603f3d011682016040523d82523d6000602084013e613c2d565b606091505b5050905080612b2e5760405162461bcd60e51b815260206004820152603a60248201527f416464726573733a20756e61626c6520746f2073656e642076616c75652c207260448201527f6563697069656e74206d6179206861766520726576657274656400000000000060648201526084016115c4565b6000838152601e602090815260408083206001600160a01b0386168452600281019092528220548154919290159184918491613ce1908490615475565b90915550506001600160a01b038416600090815260028301602052604081208054859290613d10908490615475565b90915550508015613d4b576001828101805491820181556000908152602090200180546001600160a01b0319166001600160a01b0386161790555b6001600160a01b0384166000908152601d602052604081208054859290613d73908490615475565b9250508190555082601c6000828254613d8c9190615475565b909155505081546000613d9f85836154c3565b90508015613db157613db18782614804565b6000828152601f6020908152604082208054600181018255908352912001879055613ddc818361493b565b50505050505050565b6000808060001985870985870292508281108382030391505080600003613e1f57838281613e1557613e156154d6565b04925050506117c3565b838110613e5057604051630c740aef60e31b81526004810187905260248101869052604481018590526064016115c4565b60008486880960026001871981018816978890046003810283188082028403028082028403028082028403028082028403028082028403029081029092039091026000889003889004909101858311909403939093029303949094049190911702949350505050565b6000808060001984860984860292508281108382030391505080600003613eed5750670de0b6b3a764000090049050611456565b670de0b6b3a76400008110613f1f57604051635173648d60e01b815260048101869052602481018590526044016115c4565b6000670de0b6b3a764000085870962040000818503049310909103600160ee1b02919091177faccb18165bd6fe31ae1cf318dc5b51eee0e1ba569b88cd74c1773b91fac106690291505092915050565b600160bf1b67ff0000000000000082161561407c57678000000000000000821615613fa35768016a09e667f3bcc9090260401c5b674000000000000000821615613fc2576801306fe0a31b7152df0260401c5b672000000000000000821615613fe1576801172b83c7d517adce0260401c5b6710000000000000008216156140005768010b5586cf9890f62a0260401c5b67080000000000000082161561401f576801059b0d31585743ae0260401c5b67040000000000000082161561403e57680102c9a3e778060ee70260401c5b67020000000000000082161561405d5768010163da9fb33356d80260401c5b67010000000000000082161561407c57680100b1afa5abcbed610260401c5b66ff00000000000082161561417b5766800000000000008216156140a95768010058c86da1c09ea20260401c5b66400000000000008216156140c7576801002c605e2e8cec500260401c5b66200000000000008216156140e557680100162f3904051fa10260401c5b6610000000000000821615614103576801000b175effdc76ba0260401c5b660800000000000082161561412157680100058ba01fb9f96d0260401c5b660400000000000082161561413f5768010002c5cc37da94920260401c5b660200000000000082161561415d576801000162e525ee05470260401c5b660100000000000082161561417b5768010000b17255775c040260401c5b65ff000000000082161561427157658000000000008216156141a6576801000058b91b5bc9ae0260401c5b654000000000008216156141c357680100002c5c89d5ec6d0260401c5b652000000000008216156141e05768010000162e43f4f8310260401c5b651000000000008216156141fd57680100000b1721bcfc9a0260401c5b6508000000000082161561421a5768010000058b90cf1e6e0260401c5b65040000000000821615614237576801000002c5c863b73f0260401c5b6502000000000082161561425457680100000162e430e5a20260401c5b65010000000000821615614271576801000000b1721835510260401c5b64ff0000000082161561435e5764800000000082161561429a57680100000058b90c0b490260401c5b6440000000008216156142b65768010000002c5c8601cc0260401c5b6420000000008216156142d2576801000000162e42fff00260401c5b6410000000008216156142ee5768010000000b17217fbb0260401c5b64080000000082161561430a576801000000058b90bfce0260401c5b64040000000082161561432657680100000002c5c85fe30260401c5b6402000000008216156143425768010000000162e42ff10260401c5b64010000000082161561435e57680100000000b17217f80260401c5b63ff0000008216156144425763800000008216156143855768010000000058b90bfc0260401c5b63400000008216156143a0576801000000002c5c85fe0260401c5b63200000008216156143bb57680100000000162e42ff0260401c5b63100000008216156143d6576801000000000b17217f0260401c5b63080000008216156143f157680100000000058b90c00260401c5b630400000082161561440c5768010000000002c5c8600260401c5b6302000000821615614427576801000000000162e4300260401c5b63010000008216156144425768010000000000b172180260401c5b62ff000082161561451d5762800000821615614467576801000000000058b90c0260401c5b6240000082161561448157680100000000002c5c860260401c5b6220000082161561449b5768010000000000162e430260401c5b621000008216156144b557680100000000000b17210260401c5b620800008216156144cf5768010000000000058b910260401c5b620400008216156144e9576801000000000002c5c80260401c5b6202000082161561450357680100000000000162e40260401c5b6201000082161561451d576801000000000000b1720260401c5b61ff008216156145ef5761800082161561454057680100000000000058b90260401c5b6140008216156145595768010000000000002c5d0260401c5b612000821615614572576801000000000000162e0260401c5b61100082161561458b5768010000000000000b170260401c5b6108008216156145a4576801000000000000058c0260401c5b6104008216156145bd57680100000000000002c60260401c5b6102008216156145d657680100000000000001630260401c5b6101008216156145ef57680100000000000000b10260401c5b60ff8216156146b857608082161561461057680100000000000000590260401c5b6040821615614628576801000000000000002c0260401c5b602082161561464057680100000000000000160260401c5b6010821615614658576801000000000000000b0260401c5b600882161561467057680100000000000000060260401c5b600482161561468857680100000000000000030260401c5b60028216156146a057680100000000000000010260401c5b60018216156146b857680100000000000000010260401c5b670de0b6b3a76400000260409190911c60bf031c90565b600081670de0b6b3a76400008110156146fe5760405163036d32ef60e41b8152600481018490526024016115c4565b6000614789670de0b6b3a7640000830460016fffffffffffffffffffffffffffffffff821160071b91821c6001600160401b03811160061b90811c63ffffffff811160051b90811c61ffff811160041b90811c60ff8111600390811b91821c600f811160021b90811c918211871b91821c969096119490961792909217171791909117919091171790565b9050670de0b6b3a7640000810282821c670de0b6b3a763ffff1981016147b557815b9695505050505050565b671bc16d674ec800006706f05b59d3b200005b80156147f857670de0b6b3a76400008380020492508183106147f0579283019260019290921c915b60011c6147c8565b50919695505050505050565b6000818152601f602090815260408083208054825181850281018501909352808352919290919083018282801561485a57602002820191906000526020600020905b815481526020019060010190808311614846575b5050505050905060005b8151811015614935578382828151811061488057614880615488565b60200260200101510361492357816001835161489c91906154c3565b815181106148ac576148ac615488565b6020026020010151601f600085815260200190815260200160002082815481106148d8576148d8615488565b9060005260206000200181905550601f6000848152602001908152602001600020805480614908576149086155a7565b60019003818190600052602060002001600090559055614935565b8061492d8161549e565b915050614864565b50505050565b6001805460408051602080840282018101909252828152919260009291849083018282801561498957602002820191906000526020600020905b815481526020019060010190808311614975575b50505050509050816000036149cf5750506001805480820182556000919091527fb10e2d527612073b26eecdfd717e6a320cf44b4afac2b0732d9fcbe2b7fa0cf6015550565b806149db6001846154c3565b815181106149eb576149eb615488565b6020026020010151831015614a40576000548203614a095750505050565b50506001805480820182556000919091527fb10e2d527612073b26eecdfd717e6a320cf44b4afac2b0732d9fcbe2b7fa0cf6015550565b614935848484846000805b83811015614ab557828181518110614a6557614a65615488565b60200260200101518503614a7a575050614935565b828181518110614a8c57614a8c615488565b6020026020010151851115614aa357809150614ab5565b80614aad8161549e565b915050614a4b565b5060008086118015614ad357506000868152601f6020526040902054155b90506000818015614afc575086848481518110614af257614af2615488565b6020026020010151145b614c0457614b0b6001866154c3565b8314614bb3576000614b1e846001615475565b90505b85811015614bb15784614b356001836154c3565b81518110614b4557614b45615488565b602002602001015160018281548110614b6057614b60615488565b600091825260209091200155828015614b91575087858281518110614b8757614b87615488565b6020026020010151145b15614b9f5760019150614bb1565b80614ba98161549e565b915050614b21565b505b80158015614bc2575060005485105b15614c0457600184614bd482886154c3565b81518110614be457614be4615488565b602090810291909101810151825460018101845560009384529190922001555b8560018481548110614c1857614c18615488565b60009182526020909120015550505050505050565b600060208284031215614c3f57600080fd5b5035919050565b6000815180845260005b81811015614c6c57602081850181015186830182015201614c50565b506000602082860101526020601f19601f83011685010191505092915050565b6001600160a01b03841681528215156020820152606060408201819052600090614cb890830184614c46565b95945050505050565b6001600160a01b03811681146115f357600080fd5b600060208284031215614ce857600080fd5b81356117c381614cc1565b6020815260006117c36020830184614c46565b6020815260018060a01b03825116602082015260208201516040820152604082015160608201526000606083015160808084015261152160a0840182614c46565b600081518084526020808501945080840160005b83811015614d7757815187529582019590820190600101614d5b565b509495945050505050565b6020815260006117c36020830184614d47565b634e487b7160e01b600052604160045260246000fd5b604051601f8201601f191681016001600160401b0381118282101715614dd357614dd3614d95565b604052919050565b600082601f830112614dec57600080fd5b81356001600160401b03811115614e0557614e05614d95565b614e18601f8201601f1916602001614dab565b818152846020838601011115614e2d57600080fd5b816020850160208301376000918101602001919091529392505050565b60008060408385031215614e5d57600080fd5b8235915060208301356001600160401b03811115614e7a57600080fd5b614e8685828601614ddb565b9150509250929050565b60008060408385031215614ea357600080fd5b50508035926020909101359150565b6020808252825182820181905260009190848201906040850190845b81811015614ef35783516001600160a01b031683529284019291840191600101614ece565b50909695505050505050565b600060608284031215614f1157600080fd5b604051606081016001600160401b038282108183111715614f3457614f34614d95565b8160405282935084359150614f4882614cc1565b9082526020840135908115158214614f5f57600080fd5b8160208401526040850135915080821115614f7957600080fd5b50614f8685828601614ddb565b6040830152505092915050565b600060208284031215614fa557600080fd5b81356001600160401b03811115614fbb57600080fd5b61152184828501614eff565b600060208284031215614fd957600080fd5b81356001600160401b0380821115614ff057600080fd5b908301906080828603121561500457600080fd5b60405160808101818110838211171561501f5761501f614d95565b604052823561502d81614cc1565b80825250602083013560208201526040830135604082015260608301358281111561505757600080fd5b61506387828601614ddb565b60608301525095945050505050565b6040815260006150856040830185614d47565b8281036020840152614cb88185614d47565b6000602082840312156150a957600080fd5b81356001600160401b038111156150bf57600080fd5b8201606081850312156117c357600080fd5b600080604083850312156150e457600080fd5b8235915060208301356150f681614cc1565b809150509250929050565b60018060a01b03851681528360208201528260408201526080606082015260006147ab6080830184614c46565b6000602080838503121561514157600080fd5b82356001600160401b038082111561515857600080fd5b818501915085601f83011261516c57600080fd5b81358181111561517e5761517e614d95565b8060051b915061518f848301614dab565b81815291830184019184810190888411156151a957600080fd5b938501935b838510156151c7578435825293850193908501906151ae565b98975050505050505050565b6000602082840312156151e557600080fd5b81356001600160401b038111156151fb57600080fd5b61152184828501614ddb565b634e487b7160e01b600052602160045260246000fd5b602081016005831061523f57634e487b7160e01b600052602160045260246000fd5b91905290565b6020815260018060a01b038251166020820152602082015115156040820152600060408301516060808401526115216080840182614c46565b6000806040838503121561529157600080fd5b823561529c81614cc1565b946020939093013593505050565b600080602083850312156152bd57600080fd5b82356001600160401b03808211156152d457600080fd5b818501915085601f8301126152e857600080fd5b8135818111156152f757600080fd5b8660208260051b850101111561530c57600080fd5b60209290920196919550909350505050565b600181811c9082168061533257607f821691505b602082108103613b8557634e487b7160e01b600052602260045260246000fd5b601f821115612b2e57600081815260208120601f850160051c810160208610156153795750805b601f850160051c820191505b8181101561539857828155600101615385565b505050505050565b81516001600160401b038111156153b9576153b9614d95565b6153cd816153c7845461531e565b84615352565b602080601f83116001811461540257600084156153ea5750858301515b600019600386901b1c1916600185901b178555615398565b600085815260208120601f198616915b8281101561543157888601518255948401946001909101908401615412565b508582101561544f5787850151600019600388901b60f8161c191681555b5050505050600190811b01905550565b634e487b7160e01b600052601160045260246000fd5b808201808211156114565761145661545f565b634e487b7160e01b600052603260045260246000fd5b6000600182016154b0576154b061545f565b5060010190565b60006114563683614eff565b818103818111156114565761145661545f565b634e487b7160e01b600052601260045260246000fd5b60008261550957634e487b7160e01b600052601260045260246000fd5b500490565b80820281158282048414176114565761145661545f565b6020808252825482820181905260008481528281209092916040850190845b81811015614ef357835483526001938401939285019201615544565b60006020828403121561557257600080fd5b81516117c381614cc1565b8381526001600160a01b0383166020820152606060408201819052600090614cb890830184614c46565b634e487b7160e01b600052603160045260246000fdfea2646970667358221220e4b74e29ec2e0dd2c3295ecd26e8432053269ac74ef0e511d487c157da63b07c64736f6c63430008130033","linkReferences":{}},"methodIdentifiers":{"AMOUNT_FOR_SUMBITTER_PROOF()":"347cf665","COST_ROUNDING_VALUE()":"e269cefe","JK_LABS_ADDRESS()":"eef18e17","PRICE_CURVE_UPDATE_INTERVAL()":"fd7971c9","SECONDS_IN_DAY()":"61a52a36","SECONDS_IN_HOUR()":"8793f2c7","addressTotalCastVoteCount(address)":"dda54fcf","addressesThatHaveVoted(uint256)":"50c4b616","allProposalTotalVotes()":"50a5e524","anyoneCanSubmit()":"5358b80e","cancel()":"ea8a1af0","canceled()":"3f9942ff","castVote(uint256,uint256)":"2c0a3f89","comment(uint256,string)":"1805c523","commentIds(uint256)":"f5c36411","commentIsDeleted(uint256)":"ae66b8ad","comments(uint256)":"8ebb4c15","contestAddressTotalVotesCast(address)":"aec116b6","contestDeadline()":"262e59e9","contestEntryType()":"e26a9ffb","contestStart()":"004114a8","costToVote()":"51a41dec","creator()":"02d05d3f","creatorSplitEnabled()":"9decae31","currentPricePerVote()":"ca09a4c4","deleteComments(uint256[])":"ac67f801","deleteProposals(uint256[])":"f0a7db0a","deletedCommentIds(uint256)":"3fb57c92","deletedProposalIds(uint256)":"05846cae","getAllAddressesThatHaveVoted()":"2c39805f","getAllAuthorsOfDeletedProposals()":"cbdc27cb","getAllCommentIds()":"e11db9d8","getAllDeletedCommentIds()":"5cb718a1","getAllDeletedProposalIds()":"1242b737","getAllProposalAuthors()":"946369b5","getAllProposalIds()":"efa90d36","getComment(uint256)":"0800e300","getNumProposalsWithThisManyVotes(uint256)":"bc022c98","getOnlyProposalIdWithThisManyVotes(uint256)":"d576b81d","getProposal(uint256)":"c7f758a8","getProposalComments(uint256)":"c05f4104","getProposalsWithThisManyVotes(uint256)":"f82e54c0","getRankIndex(uint256)":"5c7107d8","getSortedRanks()":"6fd3636b","getTotalSpentByAddress(address)":"80cc8f43","getTotalSpentByAddressOnProposal(address,uint256)":"cddb9857","hashComment((address,uint256,uint256,string))":"409fd030","hashProposal((address,bool,string))":"c48b2deb","isOrIsBelowTiedRank(uint256)":"9174778c","jkLabsSplitDestination()":"102613d8","maxProposalCount()":"fb9bf8d4","multiple()":"437a8ae6","name()":"06fdde03","numAllowedProposalSubmissions()":"832009af","numSubmissions(address)":"75e509c5","officialRewardsModule()":"785ddfe5","percentageToRewards()":"06b2193f","priceCurveType()":"4a2c96ec","prompt()":"7c65d711","proposalAddressVotes(uint256,address)":"6e4eb810","proposalAddressesHaveVoted(uint256)":"b323580d","proposalAuthors(uint256)":"0aa25e44","proposalComments(uint256,uint256)":"f61736f4","proposalIds(uint256)":"9b644a23","proposalIsDeleted(uint256)":"f79c0172","proposalVoteStructs(uint256)":"15dee7cd","proposalVotes(uint256)":"544ffc9c","proposals(uint256)":"013cf08b","propose((address,bool,string))":"5b664ceb","rankLimit()":"0414126a","setJkLabsSplitDestination(address)":"9b338aa0","setName(string)":"c47f0027","setOfficialRewardsModule(address)":"f4f3d7ec","setPrompt(string)":"b4ac024f","sortedRanks(uint256)":"325cc6d9","state()":"c19d93fb","totalSpentByAddress(address)":"04a1aeae","totalSpentByAddressOnProposal(address,uint256)":"e41b1f10","totalVotesCast()":"7de418d5","totalVotesCastIsZero()":"7d742925","validateProposalData((address,bool,string))":"2d0f3cca","verifyProposer()":"476106c8","version()":"54fd4d50","voteStart()":"e031535b","votesToProposalIds(uint256,uint256)":"6d030621","votingDelay()":"3932abb1","votingPeriod()":"02a251a3"},"id":52}