{"abi":[{"type":"constructor","inputs":[{"name":"_constructorArgs","type":"tuple","internalType":"struct Governor.ConstructorArgs","components":[{"name":"name","type":"string","internalType":"string"},{"name":"prompt","type":"string","internalType":"string"},{"name":"intConstructorArgs","type":"tuple","internalType":"struct Governor.IntConstructorArgs","components":[{"name":"anyoneCanSubmit","type":"uint256","internalType":"uint256"},{"name":"contestStart","type":"uint256","internalType":"uint256"},{"name":"votingDelay","type":"uint256","internalType":"uint256"},{"name":"votingPeriod","type":"uint256","internalType":"uint256"},{"name":"numAllowedProposalSubmissions","type":"uint256","internalType":"uint256"},{"name":"maxProposalCount","type":"uint256","internalType":"uint256"},{"name":"sortingEnabled","type":"uint256","internalType":"uint256"},{"name":"rankLimit","type":"uint256","internalType":"uint256"},{"name":"percentageToRewards","type":"uint256","internalType":"uint256"},{"name":"costToVote","type":"uint256","internalType":"uint256"},{"name":"priceCurveType","type":"uint256","internalType":"uint256"},{"name":"multiple","type":"uint256","internalType":"uint256"},{"name":"creatorSplitEnabled","type":"uint256","internalType":"uint256"}]},{"name":"jkLabsSplitDestination","type":"address","internalType":"address"},{"name":"metadataFieldsSchema","type":"string","internalType":"string"}]}],"stateMutability":"nonpayable"},{"type":"function","name":"AMOUNT_FOR_SUMBITTER_PROOF","inputs":[],"outputs":[{"name":"","type":"uint256","internalType":"uint256"}],"stateMutability":"view"},{"type":"function","name":"COST_ROUNDING_VALUE","inputs":[],"outputs":[{"name":"","type":"uint256","internalType":"uint256"}],"stateMutability":"view"},{"type":"function","name":"JK_LABS_ADDRESS","inputs":[],"outputs":[{"name":"","type":"address","internalType":"address"}],"stateMutability":"view"},{"type":"function","name":"MAX_FIELDS_METADATA_LENGTH","inputs":[],"outputs":[{"name":"","type":"uint256","internalType":"uint256"}],"stateMutability":"view"},{"type":"function","name":"METADATAS_COUNT","inputs":[],"outputs":[{"name":"","type":"uint256","internalType":"uint256"}],"stateMutability":"view"},{"type":"function","name":"PRICE_CURVE_UPDATE_INTERVAL","inputs":[],"outputs":[{"name":"","type":"uint256","internalType":"uint256"}],"stateMutability":"view"},{"type":"function","name":"SECONDS_IN_DAY","inputs":[],"outputs":[{"name":"","type":"uint256","internalType":"uint256"}],"stateMutability":"view"},{"type":"function","name":"addressTotalCastVoteCount","inputs":[{"name":"","type":"address","internalType":"address"}],"outputs":[{"name":"","type":"uint256","internalType":"uint256"}],"stateMutability":"view"},{"type":"function","name":"addressesThatHaveVoted","inputs":[{"name":"","type":"uint256","internalType":"uint256"}],"outputs":[{"name":"","type":"address","internalType":"address"}],"stateMutability":"view"},{"type":"function","name":"allProposalTotalVotes","inputs":[],"outputs":[{"name":"proposalIdsReturn","type":"uint256[]","internalType":"uint256[]"},{"name":"proposalVoteCountsArrayReturn","type":"uint256[]","internalType":"uint256[]"}],"stateMutability":"view"},{"type":"function","name":"anyoneCanSubmit","inputs":[],"outputs":[{"name":"","type":"uint256","internalType":"uint256"}],"stateMutability":"view"},{"type":"function","name":"cancel","inputs":[],"outputs":[],"stateMutability":"nonpayable"},{"type":"function","name":"canceled","inputs":[],"outputs":[{"name":"","type":"bool","internalType":"bool"}],"stateMutability":"view"},{"type":"function","name":"castVote","inputs":[{"name":"proposalId","type":"uint256","internalType":"uint256"},{"name":"numVotes","type":"uint256","internalType":"uint256"}],"outputs":[{"name":"","type":"uint256","internalType":"uint256"}],"stateMutability":"payable"},{"type":"function","name":"comment","inputs":[{"name":"proposalId","type":"uint256","internalType":"uint256"},{"name":"commentContent","type":"string","internalType":"string"}],"outputs":[{"name":"","type":"uint256","internalType":"uint256"}],"stateMutability":"nonpayable"},{"type":"function","name":"commentIds","inputs":[{"name":"","type":"uint256","internalType":"uint256"}],"outputs":[{"name":"","type":"uint256","internalType":"uint256"}],"stateMutability":"view"},{"type":"function","name":"commentIsDeleted","inputs":[{"name":"","type":"uint256","internalType":"uint256"}],"outputs":[{"name":"","type":"bool","internalType":"bool"}],"stateMutability":"view"},{"type":"function","name":"comments","inputs":[{"name":"","type":"uint256","internalType":"uint256"}],"outputs":[{"name":"author","type":"address","internalType":"address"},{"name":"timestamp","type":"uint256","internalType":"uint256"},{"name":"proposalId","type":"uint256","internalType":"uint256"},{"name":"commentContent","type":"string","internalType":"string"}],"stateMutability":"view"},{"type":"function","name":"contestAddressTotalVotesCast","inputs":[{"name":"userAddress","type":"address","internalType":"address"}],"outputs":[{"name":"userTotalVotesCast","type":"uint256","internalType":"uint256"}],"stateMutability":"view"},{"type":"function","name":"contestDeadline","inputs":[],"outputs":[{"name":"","type":"uint256","internalType":"uint256"}],"stateMutability":"view"},{"type":"function","name":"contestStart","inputs":[],"outputs":[{"name":"","type":"uint256","internalType":"uint256"}],"stateMutability":"view"},{"type":"function","name":"costToVote","inputs":[],"outputs":[{"name":"","type":"uint256","internalType":"uint256"}],"stateMutability":"view"},{"type":"function","name":"creator","inputs":[],"outputs":[{"name":"","type":"address","internalType":"address"}],"stateMutability":"view"},{"type":"function","name":"creatorSplitEnabled","inputs":[],"outputs":[{"name":"","type":"uint256","internalType":"uint256"}],"stateMutability":"view"},{"type":"function","name":"currentPricePerVote","inputs":[],"outputs":[{"name":"","type":"uint256","internalType":"uint256"}],"stateMutability":"view"},{"type":"function","name":"deleteComments","inputs":[{"name":"commentIdsParam","type":"uint256[]","internalType":"uint256[]"}],"outputs":[],"stateMutability":"nonpayable"},{"type":"function","name":"deleteProposals","inputs":[{"name":"proposalIdsToDelete","type":"uint256[]","internalType":"uint256[]"}],"outputs":[],"stateMutability":"nonpayable"},{"type":"function","name":"deletedCommentIds","inputs":[{"name":"","type":"uint256","internalType":"uint256"}],"outputs":[{"name":"","type":"uint256","internalType":"uint256"}],"stateMutability":"view"},{"type":"function","name":"deletedProposalIds","inputs":[{"name":"","type":"uint256","internalType":"uint256"}],"outputs":[{"name":"","type":"uint256","internalType":"uint256"}],"stateMutability":"view"},{"type":"function","name":"getAllAddressesThatHaveVoted","inputs":[],"outputs":[{"name":"","type":"address[]","internalType":"address[]"}],"stateMutability":"view"},{"type":"function","name":"getAllAuthorsOfDeletedProposals","inputs":[],"outputs":[{"name":"","type":"address[]","internalType":"address[]"}],"stateMutability":"view"},{"type":"function","name":"getAllCommentIds","inputs":[],"outputs":[{"name":"","type":"uint256[]","internalType":"uint256[]"}],"stateMutability":"view"},{"type":"function","name":"getAllDeletedCommentIds","inputs":[],"outputs":[{"name":"","type":"uint256[]","internalType":"uint256[]"}],"stateMutability":"view"},{"type":"function","name":"getAllDeletedProposalIds","inputs":[],"outputs":[{"name":"","type":"uint256[]","internalType":"uint256[]"}],"stateMutability":"view"},{"type":"function","name":"getAllProposalAuthors","inputs":[],"outputs":[{"name":"","type":"address[]","internalType":"address[]"}],"stateMutability":"view"},{"type":"function","name":"getAllProposalIds","inputs":[],"outputs":[{"name":"","type":"uint256[]","internalType":"uint256[]"}],"stateMutability":"view"},{"type":"function","name":"getComment","inputs":[{"name":"commentId","type":"uint256","internalType":"uint256"}],"outputs":[{"name":"","type":"tuple","internalType":"struct GovernorEngagement.CommentCore","components":[{"name":"author","type":"address","internalType":"address"},{"name":"timestamp","type":"uint256","internalType":"uint256"},{"name":"proposalId","type":"uint256","internalType":"uint256"},{"name":"commentContent","type":"string","internalType":"string"}]}],"stateMutability":"view"},{"type":"function","name":"getNumProposalsWithThisManyVotes","inputs":[{"name":"votes","type":"uint256","internalType":"uint256"}],"outputs":[{"name":"count","type":"uint256","internalType":"uint256"}],"stateMutability":"view"},{"type":"function","name":"getOnlyProposalIdWithThisManyVotes","inputs":[{"name":"votes","type":"uint256","internalType":"uint256"}],"outputs":[{"name":"proposalId","type":"uint256","internalType":"uint256"}],"stateMutability":"view"},{"type":"function","name":"getProposal","inputs":[{"name":"proposalId","type":"uint256","internalType":"uint256"}],"outputs":[{"name":"","type":"tuple","internalType":"struct Governor.ProposalCore","components":[{"name":"author","type":"address","internalType":"address"},{"name":"exists","type":"bool","internalType":"bool"},{"name":"description","type":"string","internalType":"string"},{"name":"fieldsMetadata","type":"tuple","internalType":"struct Governor.FieldsMetadata","components":[{"name":"addressArray","type":"address[]","internalType":"address[]"},{"name":"stringArray","type":"string[]","internalType":"string[]"},{"name":"uintArray","type":"uint256[]","internalType":"uint256[]"}]}]}],"stateMutability":"view"},{"type":"function","name":"getProposalComments","inputs":[{"name":"proposalId","type":"uint256","internalType":"uint256"}],"outputs":[{"name":"","type":"uint256[]","internalType":"uint256[]"}],"stateMutability":"view"},{"type":"function","name":"getProposalsWithThisManyVotes","inputs":[{"name":"votes","type":"uint256","internalType":"uint256"}],"outputs":[{"name":"proposalsWithThisManyVotes","type":"uint256[]","internalType":"uint256[]"}],"stateMutability":"view"},{"type":"function","name":"getRankIndex","inputs":[{"name":"rank","type":"uint256","internalType":"uint256"}],"outputs":[{"name":"rankIndex","type":"uint256","internalType":"uint256"}],"stateMutability":"view"},{"type":"function","name":"getSortedRanks","inputs":[],"outputs":[{"name":"sortedRanksArray","type":"uint256[]","internalType":"uint256[]"}],"stateMutability":"view"},{"type":"function","name":"hashComment","inputs":[{"name":"commentObj","type":"tuple","internalType":"struct GovernorEngagement.CommentCore","components":[{"name":"author","type":"address","internalType":"address"},{"name":"timestamp","type":"uint256","internalType":"uint256"},{"name":"proposalId","type":"uint256","internalType":"uint256"},{"name":"commentContent","type":"string","internalType":"string"}]}],"outputs":[{"name":"","type":"uint256","internalType":"uint256"}],"stateMutability":"pure"},{"type":"function","name":"hashProposal","inputs":[{"name":"proposal","type":"tuple","internalType":"struct Governor.ProposalCore","components":[{"name":"author","type":"address","internalType":"address"},{"name":"exists","type":"bool","internalType":"bool"},{"name":"description","type":"string","internalType":"string"},{"name":"fieldsMetadata","type":"tuple","internalType":"struct Governor.FieldsMetadata","components":[{"name":"addressArray","type":"address[]","internalType":"address[]"},{"name":"stringArray","type":"string[]","internalType":"string[]"},{"name":"uintArray","type":"uint256[]","internalType":"uint256[]"}]}]}],"outputs":[{"name":"","type":"uint256","internalType":"uint256"}],"stateMutability":"pure"},{"type":"function","name":"isOrIsBelowTiedRank","inputs":[{"name":"idx","type":"uint256","internalType":"uint256"}],"outputs":[{"name":"atOrBelowTiedRank","type":"bool","internalType":"bool"}],"stateMutability":"view"},{"type":"function","name":"jkLabsSplitDestination","inputs":[],"outputs":[{"name":"","type":"address","internalType":"address"}],"stateMutability":"view"},{"type":"function","name":"maxProposalCount","inputs":[],"outputs":[{"name":"","type":"uint256","internalType":"uint256"}],"stateMutability":"view"},{"type":"function","name":"metadataFieldsSchema","inputs":[],"outputs":[{"name":"","type":"string","internalType":"string"}],"stateMutability":"view"},{"type":"function","name":"multiple","inputs":[],"outputs":[{"name":"","type":"uint256","internalType":"uint256"}],"stateMutability":"view"},{"type":"function","name":"name","inputs":[],"outputs":[{"name":"","type":"string","internalType":"string"}],"stateMutability":"view"},{"type":"function","name":"numAllowedProposalSubmissions","inputs":[],"outputs":[{"name":"","type":"uint256","internalType":"uint256"}],"stateMutability":"view"},{"type":"function","name":"numSubmissions","inputs":[{"name":"","type":"address","internalType":"address"}],"outputs":[{"name":"","type":"uint256","internalType":"uint256"}],"stateMutability":"view"},{"type":"function","name":"officialRewardsModule","inputs":[],"outputs":[{"name":"","type":"address","internalType":"address"}],"stateMutability":"view"},{"type":"function","name":"percentageToRewards","inputs":[],"outputs":[{"name":"","type":"uint256","internalType":"uint256"}],"stateMutability":"view"},{"type":"function","name":"priceCurveType","inputs":[],"outputs":[{"name":"","type":"uint256","internalType":"uint256"}],"stateMutability":"view"},{"type":"function","name":"prompt","inputs":[],"outputs":[{"name":"","type":"string","internalType":"string"}],"stateMutability":"view"},{"type":"function","name":"proposalAddressVotes","inputs":[{"name":"proposalId","type":"uint256","internalType":"uint256"},{"name":"userAddress","type":"address","internalType":"address"}],"outputs":[{"name":"voteCount","type":"uint256","internalType":"uint256"}],"stateMutability":"view"},{"type":"function","name":"proposalAddressesHaveVoted","inputs":[{"name":"proposalId","type":"uint256","internalType":"uint256"}],"outputs":[{"name":"","type":"address[]","internalType":"address[]"}],"stateMutability":"view"},{"type":"function","name":"proposalAuthors","inputs":[{"name":"","type":"uint256","internalType":"uint256"}],"outputs":[{"name":"","type":"address","internalType":"address"}],"stateMutability":"view"},{"type":"function","name":"proposalComments","inputs":[{"name":"","type":"uint256","internalType":"uint256"},{"name":"","type":"uint256","internalType":"uint256"}],"outputs":[{"name":"","type":"uint256","internalType":"uint256"}],"stateMutability":"view"},{"type":"function","name":"proposalIds","inputs":[{"name":"","type":"uint256","internalType":"uint256"}],"outputs":[{"name":"","type":"uint256","internalType":"uint256"}],"stateMutability":"view"},{"type":"function","name":"proposalIsDeleted","inputs":[{"name":"","type":"uint256","internalType":"uint256"}],"outputs":[{"name":"","type":"bool","internalType":"bool"}],"stateMutability":"view"},{"type":"function","name":"proposalVoteStructs","inputs":[{"name":"","type":"uint256","internalType":"uint256"}],"outputs":[{"name":"proposalVoteCount","type":"uint256","internalType":"uint256"}],"stateMutability":"view"},{"type":"function","name":"proposalVotes","inputs":[{"name":"proposalId","type":"uint256","internalType":"uint256"}],"outputs":[{"name":"voteCount","type":"uint256","internalType":"uint256"}],"stateMutability":"view"},{"type":"function","name":"proposals","inputs":[{"name":"","type":"uint256","internalType":"uint256"}],"outputs":[{"name":"author","type":"address","internalType":"address"},{"name":"exists","type":"bool","internalType":"bool"},{"name":"description","type":"string","internalType":"string"},{"name":"fieldsMetadata","type":"tuple","internalType":"struct Governor.FieldsMetadata","components":[{"name":"addressArray","type":"address[]","internalType":"address[]"},{"name":"stringArray","type":"string[]","internalType":"string[]"},{"name":"uintArray","type":"uint256[]","internalType":"uint256[]"}]}],"stateMutability":"view"},{"type":"function","name":"propose","inputs":[{"name":"proposal","type":"tuple","internalType":"struct Governor.ProposalCore","components":[{"name":"author","type":"address","internalType":"address"},{"name":"exists","type":"bool","internalType":"bool"},{"name":"description","type":"string","internalType":"string"},{"name":"fieldsMetadata","type":"tuple","internalType":"struct Governor.FieldsMetadata","components":[{"name":"addressArray","type":"address[]","internalType":"address[]"},{"name":"stringArray","type":"string[]","internalType":"string[]"},{"name":"uintArray","type":"uint256[]","internalType":"uint256[]"}]}]}],"outputs":[{"name":"","type":"uint256","internalType":"uint256"}],"stateMutability":"payable"},{"type":"function","name":"rankLimit","inputs":[],"outputs":[{"name":"","type":"uint256","internalType":"uint256"}],"stateMutability":"view"},{"type":"function","name":"setJkLabsSplitDestination","inputs":[{"name":"newJkLabsSplitDestination","type":"address","internalType":"address"}],"outputs":[],"stateMutability":"nonpayable"},{"type":"function","name":"setName","inputs":[{"name":"newName","type":"string","internalType":"string"}],"outputs":[{"name":"","type":"string","internalType":"string"}],"stateMutability":"nonpayable"},{"type":"function","name":"setOfficialRewardsModule","inputs":[{"name":"officialRewardsModule_","type":"address","internalType":"address"}],"outputs":[],"stateMutability":"nonpayable"},{"type":"function","name":"setPrompt","inputs":[{"name":"newPrompt","type":"string","internalType":"string"}],"outputs":[{"name":"","type":"string","internalType":"string"}],"stateMutability":"nonpayable"},{"type":"function","name":"sortedRanks","inputs":[{"name":"","type":"uint256","internalType":"uint256"}],"outputs":[{"name":"","type":"uint256","internalType":"uint256"}],"stateMutability":"view"},{"type":"function","name":"sortingEnabled","inputs":[],"outputs":[{"name":"","type":"uint256","internalType":"uint256"}],"stateMutability":"view"},{"type":"function","name":"state","inputs":[],"outputs":[{"name":"","type":"uint8","internalType":"enum Governor.ContestState"}],"stateMutability":"view"},{"type":"function","name":"totalVotesCast","inputs":[],"outputs":[{"name":"","type":"uint256","internalType":"uint256"}],"stateMutability":"view"},{"type":"function","name":"totalVotesCastIsZero","inputs":[],"outputs":[{"name":"totalVotesCastZero","type":"bool","internalType":"bool"}],"stateMutability":"view"},{"type":"function","name":"validateProposalData","inputs":[{"name":"proposal","type":"tuple","internalType":"struct Governor.ProposalCore","components":[{"name":"author","type":"address","internalType":"address"},{"name":"exists","type":"bool","internalType":"bool"},{"name":"description","type":"string","internalType":"string"},{"name":"fieldsMetadata","type":"tuple","internalType":"struct Governor.FieldsMetadata","components":[{"name":"addressArray","type":"address[]","internalType":"address[]"},{"name":"stringArray","type":"string[]","internalType":"string[]"},{"name":"uintArray","type":"uint256[]","internalType":"uint256[]"}]}]}],"outputs":[],"stateMutability":"view"},{"type":"function","name":"verifyProposer","inputs":[],"outputs":[],"stateMutability":"view"},{"type":"function","name":"version","inputs":[],"outputs":[{"name":"","type":"string","internalType":"string"}],"stateMutability":"pure"},{"type":"function","name":"voteStart","inputs":[],"outputs":[{"name":"","type":"uint256","internalType":"uint256"}],"stateMutability":"view"},{"type":"function","name":"votesToProposalIds","inputs":[{"name":"","type":"uint256","internalType":"uint256"},{"name":"","type":"uint256","internalType":"uint256"}],"outputs":[{"name":"","type":"uint256","internalType":"uint256"}],"stateMutability":"view"},{"type":"function","name":"votingDelay","inputs":[],"outputs":[{"name":"","type":"uint256","internalType":"uint256"}],"stateMutability":"view"},{"type":"function","name":"votingPeriod","inputs":[],"outputs":[{"name":"","type":"uint256","internalType":"uint256"}],"stateMutability":"view"},{"type":"event","name":"CommentCreated","inputs":[{"name":"commentId","type":"uint256","indexed":false,"internalType":"uint256"}],"anonymous":false},{"type":"event","name":"CommentsDeleted","inputs":[{"name":"commentIds","type":"uint256[]","indexed":false,"internalType":"uint256[]"}],"anonymous":false},{"type":"event","name":"ContestCanceled","inputs":[],"anonymous":false},{"type":"event","name":"CreatorPaymentReleased","inputs":[{"name":"to","type":"address","indexed":false,"internalType":"address"},{"name":"amount","type":"uint256","indexed":false,"internalType":"uint256"}],"anonymous":false},{"type":"event","name":"JkLabsPaymentReleased","inputs":[{"name":"to","type":"address","indexed":false,"internalType":"address"},{"name":"amount","type":"uint256","indexed":false,"internalType":"uint256"}],"anonymous":false},{"type":"event","name":"JokeraceCreated","inputs":[{"name":"version","type":"string","indexed":false,"internalType":"string"},{"name":"name","type":"string","indexed":false,"internalType":"string"},{"name":"prompt","type":"string","indexed":false,"internalType":"string"},{"name":"creator","type":"address","indexed":false,"internalType":"address"},{"name":"contestStart","type":"uint256","indexed":false,"internalType":"uint256"},{"name":"votingDelay","type":"uint256","indexed":false,"internalType":"uint256"},{"name":"votingPeriod","type":"uint256","indexed":false,"internalType":"uint256"}],"anonymous":false},{"type":"event","name":"OfficialRewardsModuleSet","inputs":[{"name":"oldOfficialRewardsModule","type":"address","indexed":false,"internalType":"address"},{"name":"newOfficialRewardsModule","type":"address","indexed":false,"internalType":"address"}],"anonymous":false},{"type":"event","name":"ProposalCreated","inputs":[{"name":"proposalId","type":"uint256","indexed":false,"internalType":"uint256"},{"name":"proposer","type":"address","indexed":false,"internalType":"address"},{"name":"proposalDescription","type":"string","indexed":false,"internalType":"string"}],"anonymous":false},{"type":"event","name":"ProposalsDeleted","inputs":[{"name":"proposalIds","type":"uint256[]","indexed":false,"internalType":"uint256[]"}],"anonymous":false},{"type":"event","name":"RewardsPaymentReleased","inputs":[{"name":"to","type":"address","indexed":false,"internalType":"address"},{"name":"amount","type":"uint256","indexed":false,"internalType":"uint256"}],"anonymous":false},{"type":"event","name":"VoteCast","inputs":[{"name":"voter","type":"address","indexed":true,"internalType":"address"},{"name":"proposalId","type":"uint256","indexed":false,"internalType":"uint256"},{"name":"numVotes","type":"uint256","indexed":false,"internalType":"uint256"}],"anonymous":false},{"type":"error","name":"AddressFieldMetadataArrayTooLong","inputs":[]},{"type":"error","name":"AuthorIsNotSender","inputs":[{"name":"author","type":"address","internalType":"address"},{"name":"sender","type":"address","internalType":"address"}]},{"type":"error","name":"CanOnlyCancelBeforeFirstVote","inputs":[]},{"type":"error","name":"CanOnlyDeleteWhenQueued","inputs":[]},{"type":"error","name":"CannotCommentWhenCompletedOrCanceled","inputs":[]},{"type":"error","name":"CannotDeleteWhenCompletedOrCanceled","inputs":[]},{"type":"error","name":"CannotSetWhenCompletedOrCanceled","inputs":[]},{"type":"error","name":"CannotUpdateWhenCompletedOrCanceled","inputs":[]},{"type":"error","name":"CannotVoteLessThanOneVoteInPayPerVote","inputs":[]},{"type":"error","name":"CannotVoteOnDeletedProposal","inputs":[]},{"type":"error","name":"ContestAlreadyCanceled","inputs":[]},{"type":"error","name":"ContestMustBeActiveToGetCurrentVotePrice","inputs":[]},{"type":"error","name":"ContestMustBeActiveToVote","inputs":[]},{"type":"error","name":"ContestMustBeQueuedToPropose","inputs":[]},{"type":"error","name":"ContestSubmissionLimitReached","inputs":[{"name":"maxProposalCount","type":"uint256","internalType":"uint256"}]},{"type":"error","name":"DuplicateSubmission","inputs":[{"name":"proposalId","type":"uint256","internalType":"uint256"}]},{"type":"error","name":"EmptyProposalDescription","inputs":[]},{"type":"error","name":"IncorrectCostSent","inputs":[{"name":"msgValue","type":"uint256","internalType":"uint256"},{"name":"costToVote","type":"uint256","internalType":"uint256"}]},{"type":"error","name":"IndexHasNotBeenPopulated","inputs":[]},{"type":"error","name":"MoreThanOneProposalWithThisManyVotes","inputs":[]},{"type":"error","name":"NeedAtLeastOneVoteToVote","inputs":[]},{"type":"error","name":"NotEnoughVotesLeft","inputs":[]},{"type":"error","name":"OfficialModuleMustBeSetToEnter","inputs":[]},{"type":"error","name":"OfficialRewardsModuleCanOnlyBeSetOnce","inputs":[]},{"type":"error","name":"OfficialRewardsModuleMustPointToThisContest","inputs":[]},{"type":"error","name":"OnlyCreatorCanAmend","inputs":[]},{"type":"error","name":"OnlyCreatorCanSetName","inputs":[]},{"type":"error","name":"OnlyCreatorCanSetPrompt","inputs":[]},{"type":"error","name":"OnlyCreatorCanSetRewardsModule","inputs":[]},{"type":"error","name":"OnlyCreatorCanSubmit","inputs":[]},{"type":"error","name":"OnlyCreatorOrAuthorCanDeleteComments","inputs":[{"name":"failedToDeleteCommentId","type":"uint256","internalType":"uint256"}]},{"type":"error","name":"OnlyCreatorOrEntrantCanDelete","inputs":[]},{"type":"error","name":"OnlyCreatorOrJkLabsCanCancel","inputs":[]},{"type":"error","name":"OnlyJkLabsCanAmend","inputs":[]},{"type":"error","name":"PRBMath_MulDiv18_Overflow","inputs":[{"name":"x","type":"uint256","internalType":"uint256"},{"name":"y","type":"uint256","internalType":"uint256"}]},{"type":"error","name":"PRBMath_MulDiv_Overflow","inputs":[{"name":"x","type":"uint256","internalType":"uint256"},{"name":"y","type":"uint256","internalType":"uint256"},{"name":"denominator","type":"uint256","internalType":"uint256"}]},{"type":"error","name":"PRBMath_UD60x18_Exp2_InputTooBig","inputs":[{"name":"x","type":"uint256","internalType":"UD60x18"}]},{"type":"error","name":"PeriodsOutsideBounds","inputs":[]},{"type":"error","name":"RankCannotBeZero","inputs":[]},{"type":"error","name":"RankIsNotInSortedRanks","inputs":[]},{"type":"error","name":"RankLimitCannotBeZero","inputs":[]},{"type":"error","name":"SenderSubmissionLimitReached","inputs":[{"name":"numAllowedProposalSubmissions","type":"uint256","internalType":"uint256"}]},{"type":"error","name":"StringFieldMetadataArrayTooLong","inputs":[]},{"type":"error","name":"UintFieldMetadataArrayTooLong","inputs":[]},{"type":"error","name":"UnexpectedMetadata","inputs":[{"name":"unexpectedMetadata","type":"uint8","internalType":"enum Governor.Metadatas"}]}],"bytecode":{"object":"0x60806040523480156200001157600080fd5b5060405162005772380380620057728339810160408190526200003491620003f6565b604081015160c081015160e0909101516000919091556001558051819060039062000060908262000571565b50602081015160049062000075908262000571565b50604081810151805160065560058054336001600160a01b031991821617909155602082015160075591810151600855606080820151600955608080830151600a5560a0830151600b55610100830151600c55610120830151600d55610140830151600e55610160830151600f5561018090920151601055830151601180549093166001600160a01b039091161790915581015160129062000118908262000571565b506040805180820182526004808252630d8b8c4d60e21b602083015260055460075460085460095495517f9a9bca21e4e51607db64fbdbcd7b2284a909c6a8969821f0d161efbdcae701609662000186969560039590946001600160a01b03909116939092909190620006c2565b60405180910390a1506200019f62015180601e62000750565b8160400151604001511180620001bf575062015180816040015160600151115b15620001de576040516341b2f4db60e01b815260040160405180910390fd5b806040015160e00151600003620002085760405163769f473560e11b815260040160405180910390fd5b506200077c565b634e487b7160e01b600052604160045260246000fd5b6040516101a081016001600160401b03811182821017156200024b576200024b6200020f565b60405290565b60405160a081016001600160401b03811182821017156200024b576200024b6200020f565b60005b838110156200029357818101518382015260200162000279565b50506000910152565b600082601f830112620002ae57600080fd5b81516001600160401b0380821115620002cb57620002cb6200020f565b604051601f8301601f19908116603f01168101908282118183101715620002f657620002f66200020f565b816040528381528660208588010111156200031057600080fd5b6200032384602083016020890162000276565b9695505050505050565b60006101a082840312156200034157600080fd5b6200034b62000225565b9050815181526020820151602082015260408201516040820152606082015160608201526080820151608082015260a082015160a082015260c082015160c082015260e082015160e082015261010080830151818301525061012080830151818301525061014080830151818301525061016080830151818301525061018080830151818301525092915050565b80516001600160a01b0381168114620003f157600080fd5b919050565b6000602082840312156200040957600080fd5b81516001600160401b03808211156200042157600080fd5b9083019061022082860312156200043757600080fd5b6200044162000251565b8251828111156200045157600080fd5b6200045f878286016200029c565b8252506020830151828111156200047557600080fd5b62000483878286016200029c565b6020830152506200049886604085016200032d565b6040820152620004ac6101e08401620003d9565b606082015261020083015182811115620004c557600080fd5b620004d3878286016200029c565b60808301525095945050505050565b600181811c90821680620004f757607f821691505b6020821081036200051857634e487b7160e01b600052602260045260246000fd5b50919050565b601f8211156200056c57600081815260208120601f850160051c81016020861015620005475750805b601f850160051c820191505b81811015620005685782815560010162000553565b5050505b505050565b81516001600160401b038111156200058d576200058d6200020f565b620005a5816200059e8454620004e2565b846200051e565b602080601f831160018114620005dd5760008415620005c45750858301515b600019600386901b1c1916600185901b17855562000568565b600085815260208120601f198616915b828110156200060e57888601518255948401946001909101908401620005ed565b50858210156200062d5787850151600019600388901b60f8161c191681555b5050505050600190811b01905550565b600081546200064c81620004e2565b8085526020600183811680156200066c57600181146200068757620006b7565b60ff1985168884015283151560051b880183019550620006b7565b866000528260002060005b85811015620006af5781548a820186015290830190840162000692565b890184019650505b505050505092915050565b60e08152600088518060e0840152610100620006e58282860160208e0162000276565b601f19601f8301168401915080848303016020850152620007098183018b6200063d565b91505082810360408401526200072081896200063d565b6001600160a01b039790971660608401525050608081019390935260a083019190915260c0909101529392505050565b80820281158282048414176200077657634e487b7160e01b600052601160045260246000fd5b92915050565b614fe6806200078c6000396000f3fe6080604052600436106104a95760003560e01c8063785ddfe51161026b578063c19d93fb1161014f578063ea8a1af0116100c1578063f5c3641111610085578063f5c3641114610e4e578063f61736f414610e6e578063f79c017214610e8e578063f82e54c014610ebe578063fb9bf8d414610ede578063fd7971c914610ef457600080fd5b8063ea8a1af014610dbc578063eef18e1714610dd1578063efa90d3614610df9578063f0a7db0a14610e0e578063f4f3d7ec14610e2e57600080fd5b8063cbdc27cb11610113578063cbdc27cb14610d17578063d576b81d14610d2c578063dda54fcf14610d4c578063e031535b14610d79578063e11db9d814610d8e578063e269cefe14610da357600080fd5b8063c19d93fb14610c73578063c47f002714610c95578063c7f252d714610cb5578063c7f758a814610cd5578063ca09a4c414610d0257600080fd5b80639b644a23116101e8578063aec116b6116101ac578063aec116b614610b9b578063b323580d14610bd1578063b382543f14610bf1578063b4ac024f14610c06578063bc022c9814610c26578063c05f410414610c5357600080fd5b80639b644a2314610af55780639decae3114610b15578063a119278b14610b2b578063ac67f80114610b4b578063ae66b8ad14610b6b57600080fd5b8063832009af1161022f578063832009af14610a5a5780638ebb4c1514610a705780639174778c14610aa0578063946369b514610ac05780639b338aa014610ad557600080fd5b8063785ddfe5146109e65780637c65d71114610a065780637d74292514610a1b5780637de418d514610a315780638225c11d14610a4757600080fd5b80633f9942ff116103925780635358b80e1161030f57806360ed97a9116102d357806360ed97a91461091157806361a52a36146109265780636d0306211461093d5780636e4eb8101461095d5780636fd3636b146109a457806375e509c5146109b957600080fd5b80635358b80e1461086c578063544ffc9c1461088257806354fd4d50146108af5780635c7107d8146108dc5780635cb718a1146108fc57600080fd5b80634a2c96ec116103565780634a2c96ec146107e85780634d24a67f146107fe57806350a5e5241461081357806350c4b6161461083657806351a41dec1461085657600080fd5b80633f9942ff146107515780633fb57c921461077b578063409fd0301461079b578063437a8ae6146107bb578063476106c8146107d157600080fd5b8063102613d81161042b5780632c0a3f89116103ef5780632c0a3f89146106b45780632c39805f146106c7578063325cc6d9146106e9578063347cf66514610709578063366ecf5b146107255780633932abb11461073b57600080fd5b8063102613d8146106105780631242b7371461063057806315dee7cd146106525780631805c5231461067f578063262e59e91461069f57600080fd5b806305846cae1161047257806305846cae1461056b57806306b2193f1461058b57806306fdde03146105a15780630800e300146105c35780630aa25e44146105f057600080fd5b80624114a8146104ae578063013cf08b146104d757806302a251a31461050757806302d05d3f1461051d5780630414126a14610555575b600080fd5b3480156104ba57600080fd5b506104c460075481565b6040519081526020015b60405180910390f35b3480156104e357600080fd5b506104f76104f2366004614393565b610f09565b6040516104ce94939291906144ee565b34801561051357600080fd5b506104c460095481565b34801561052957600080fd5b5060055461053d906001600160a01b031681565b6040516001600160a01b0390911681526020016104ce565b34801561056157600080fd5b506104c460015481565b34801561057757600080fd5b506104c4610586366004614393565b611167565b34801561059757600080fd5b506104c4600c5481565b3480156105ad57600080fd5b506105b6611188565b6040516104ce9190614537565b3480156105cf57600080fd5b506105e36105de366004614393565b611216565b6040516104ce919061454a565b3480156105fc57600080fd5b5061053d61060b366004614393565b61132a565b34801561061c57600080fd5b5060115461053d906001600160a01b031681565b34801561063c57600080fd5b50610645611354565b6040516104ce919061458b565b34801561065e57600080fd5b506104c461066d366004614393565b601d6020526000908152604090205481565b34801561068b57600080fd5b506104c461069a36600461469d565b6113ac565b3480156106ab57600080fd5b506104c4611527565b6104c46106c23660046146e3565b611543565b3480156106d357600080fd5b506106dc6115a0565b6040516104ce9190614705565b3480156106f557600080fd5b506104c4610704366004614393565b611601565b34801561071557600080fd5b506104c4678ac7230489e8000081565b34801561073157600080fd5b506104c460005481565b34801561074757600080fd5b506104c460085481565b34801561075d57600080fd5b5060165461076b9060ff1681565b60405190151581526020016104ce565b34801561078757600080fd5b506104c4610796366004614393565b611611565b3480156107a757600080fd5b506104c46107b6366004614767565b611621565b3480156107c757600080fd5b506104c4600f5481565b3480156107dd57600080fd5b506107e6611652565b005b3480156107f457600080fd5b506104c4600e5481565b34801561080a57600080fd5b506104c4611690565b34801561081f57600080fd5b5061082861169f565b6040516104ce9291906147fc565b34801561084257600080fd5b5061053d610851366004614393565b61176a565b34801561086257600080fd5b506104c4600d5481565b34801561087857600080fd5b506104c460065481565b34801561088e57600080fd5b506104c461089d366004614393565b6000908152601d602052604090205490565b3480156108bb57600080fd5b506040805180820190915260048152630d8b8c4d60e21b60208201526105b6565b3480156108e857600080fd5b506104c46108f7366004614393565b61177a565b34801561090857600080fd5b50610645611881565b34801561091d57600080fd5b506105b66118d7565b34801561093257600080fd5b506104c46201518081565b34801561094957600080fd5b506104c46109583660046146e3565b6118e4565b34801561096957600080fd5b506104c461097836600461482a565b6000828152601d602090815260408083206001600160a01b038516845260020190915290205492915050565b3480156109b057600080fd5b50610645611915565b3480156109c557600080fd5b506104c46109d436600461485a565b60186020526000908152604090205481565b3480156109f257600080fd5b50601f5461053d906001600160a01b031681565b348015610a1257600080fd5b506105b661196b565b348015610a2757600080fd5b50601b541561076b565b348015610a3d57600080fd5b506104c4601b5481565b6104c4610a55366004614877565b611978565b348015610a6657600080fd5b506104c4600a5481565b348015610a7c57600080fd5b50610a90610a8b366004614393565b6119fc565b6040516104ce94939291906148b1565b348015610aac57600080fd5b5061076b610abb366004614393565b611ab9565b348015610acc57600080fd5b506106dc611b5f565b348015610ae157600080fd5b506107e6610af036600461485a565b611bbf565b348015610b0157600080fd5b506104c4610b10366004614393565b611c72565b348015610b2157600080fd5b506104c460105481565b348015610b3757600080fd5b506104c4610b46366004614b60565b611c82565b348015610b5757600080fd5b506107e6610b66366004614b94565b611c95565b348015610b7757600080fd5b5061076b610b86366004614393565b60246020526000908152604090205460ff1681565b348015610ba757600080fd5b506104c4610bb636600461485a565b6001600160a01b03166000908152601c602052604090205490565b348015610bdd57600080fd5b506106dc610bec366004614393565b611e2c565b348015610bfd57600080fd5b506104c4600a81565b348015610c1257600080fd5b506105b6610c21366004614bc8565b611e9e565b348015610c3257600080fd5b506104c4610c41366004614393565b6000908152601e602052604090205490565b348015610c5f57600080fd5b50610645610c6e366004614393565b611f3c565b348015610c7f57600080fd5b50610c88611f9e565b6040516104ce9190614c12565b348015610ca157600080fd5b506105b6610cb0366004614bc8565b611fef565b348015610cc157600080fd5b506107e6610cd0366004614b60565b612086565b348015610ce157600080fd5b50610cf5610cf0366004614393565b6121de565b6040516104ce9190614c2c565b348015610d0e57600080fd5b506104c4612467565b348015610d2357600080fd5b506106dc6125d8565b348015610d3857600080fd5b506104c4610d47366004614393565b612708565b348015610d5857600080fd5b506104c4610d6736600461485a565b601c6020526000908152604090205481565b348015610d8557600080fd5b506104c4612768565b348015610d9a57600080fd5b5061064561277a565b348015610daf57600080fd5b506104c464e8d4a5100081565b348015610dc857600080fd5b506107e66127d0565b348015610ddd57600080fd5b5061053d73dc652c746a8f85e18ce632d97c6118e8a52fa73881565b348015610e0557600080fd5b5061064561289d565b348015610e1a57600080fd5b506107e6610e29366004614c83565b6128f3565b348015610e3a57600080fd5b506107e6610e4936600461485a565b612a51565b348015610e5a57600080fd5b506104c4610e69366004614393565b612b93565b348015610e7a57600080fd5b506104c4610e893660046146e3565b612ba3565b348015610e9a57600080fd5b5061076b610ea9366004614393565b60156020526000908152604090205460ff1681565b348015610eca57600080fd5b50610645610ed9366004614393565b612bbf565b348015610eea57600080fd5b506104c4600b5481565b348015610f0057600080fd5b506104c4603c81565b601760205260009081526040902080546001820180546001600160a01b03831693600160a01b90930460ff16929190610f4190614cf7565b80601f0160208091040260200160405190810160405280929190818152602001828054610f6d90614cf7565b8015610fba5780601f10610f8f57610100808354040283529160200191610fba565b820191906000526020600020905b815481529060010190602001808311610f9d57829003601f168201915b505050505090806002016040518060600160405290816000820180548060200260200160405190810160405280929190818152602001828054801561102857602002820191906000526020600020905b81546001600160a01b0316815260019091019060200180831161100a575b5050505050815260200160018201805480602002602001604051908101604052809291908181526020016000905b8282101561110257838290600052602060002001805461107590614cf7565b80601f01602080910402602001604051908101604052809291908181526020018280546110a190614cf7565b80156110ee5780601f106110c3576101008083540402835291602001916110ee565b820191906000526020600020905b8154815290600101906020018083116110d157829003601f168201915b505050505081526020019060010190611056565b5050505081526020016002820180548060200260200160405190810160405280929190818152602001828054801561115957602002820191906000526020600020905b815481526020019060010190808311611145575b505050505081525050905084565b6014818154811061117757600080fd5b600091825260209091200154905081565b6003805461119590614cf7565b80601f01602080910402602001604051908101604052809291908181526020018280546111c190614cf7565b801561120e5780601f106111e35761010080835404028352916020019161120e565b820191906000526020600020905b8154815290600101906020018083116111f157829003601f168201915b505050505081565b61124a604051806080016040528060006001600160a01b031681526020016000815260200160008152602001606081525090565b600082815260226020908152604091829020825160808101845281546001600160a01b031681526001820154928101929092526002810154928201929092526003820180549192916060840191906112a190614cf7565b80601f01602080910402602001604051908101604052809291908181526020018280546112cd90614cf7565b801561131a5780601f106112ef5761010080835404028352916020019161131a565b820191906000526020600020905b8154815290600101906020018083116112fd57829003601f168201915b5050505050815250509050919050565b6019818154811061133a57600080fd5b6000918252602090912001546001600160a01b0316905081565b606060148054806020026020016040519081016040528092919081815260200182805480156113a257602002820191906000526020600020905b81548152602001906001019080831161138e575b5050505050905090565b600060046113b8611f9e565b60048111156113c9576113c9614bfc565b14806113ed575060026113da611f9e565b60048111156113eb576113eb614bfc565b145b1561140a5760405162f3e73d60e81b815260040160405180910390fd5b6040805160808101825233815242602082015290810184905260608101839052600061143582611621565b60208054600180820183557fc97bfaf2f8ee708c303a06d134f5ecd8389ae0432af62dc132a24118292866bb909101839055600083815260228352604090819020865181546001600160a01b0319166001600160a01b03909116178155928601519183019190915584015160028201556060840151919250839160038201906114be9082614d7f565b505050600085815260236020908152604080832080546001810182559084529190922001829055517f5a1a930fed43f34b3a07db782ebcac28a661c273e662bb98458cfba5a8ccd220906115159083815260200190565b60405180910390a19150505b92915050565b6000600954611534612768565b61153e9190614e54565b905090565b600080611551600184612c1f565b60008581526015602052604090205490915060ff1615611584576040516358f1119560e01b815260040160405180910390fd5b61158d81612cbc565b611598843385612e78565b949350505050565b6060601a8054806020026020016040519081016040528092919081815260200182805480156113a257602002820191906000526020600020905b81546001600160a01b031681526001909101906020018083116115da575050505050905090565b6002818154811061117757600080fd5b6021818154811061117757600080fd5b600081604051602001611634919061454a565b60408051601f19818403018152919052805160209091012092915050565b60065460011415801561167057506005546001600160a01b03163314155b1561168e57604051639a4a529360e01b815260040160405180910390fd5b565b61169c60006001614e54565b81565b60608060006116ac61289d565b9050600081516001600160401b038111156116c9576116c961459e565b6040519080825280602002602001820160405280156116f2578160200160208202803683370190505b50905060005b825181101561176057601d600084838151811061171757611717614e67565b602002602001015181526020019081526020016000206000015482828151811061174357611743614e67565b60209081029190910101528061175881614e7d565b9150506116f8565b5090939092509050565b601a818154811061133a57600080fd5b60008160000361179d57604051630ec90a1760e31b815260040160405180910390fd5b600280546040805160208084028201810190925282815291926000929184908301828280156117eb57602002820191906000526020600020905b8154815260200190600101908083116117d7575b5050505050905060006001905060005b838110156118675761183283828151811061181857611818614e67565b60200260200101516000908152601e602052604090205490565b15611855578582036118475795945050505050565b8161185181614e7d565b9250505b8061185f81614e7d565b9150506117fb565b50604051632cc2ab7360e11b815260040160405180910390fd5b606060218054806020026020016040519081016040528092919081815260200182805480156113a2576020028201919060005260206000209081548152602001906001019080831161138e575050505050905090565b6012805461119590614cf7565b601e602052816000526040600020818154811061190057600080fd5b90600052602060002001600091509150505481565b606060028054806020026020016040519081016040528092919081815260200182805480156113a2576020028201919060005260206000209081548152602001906001019080831161138e575050505050905090565b6004805461119590614cf7565b600080611986600080612c1f565b9050600061199c601f546001600160a01b031690565b6001600160a01b0316036119c35760405163fa4f07a360e01b815260040160405180910390fd5b6119cb611652565b6119d7610cd084614e96565b60006119ea6119e585614e96565b612f6c565b90506119f582612cbc565b9392505050565b60226020526000908152604090208054600182015460028301546003840180546001600160a01b03909416949293919291611a3690614cf7565b80601f0160208091040260200160405190810160405280929190818152602001828054611a6290614cf7565b8015611aaf5780601f10611a8457610100808354040283529160200191611aaf565b820191906000526020600020905b815481529060010190602001808311611a9257829003601f168201915b5050505050905084565b600254600090611acb90600190614ea2565b821115611aeb576040516365d6f35160e11b815260040160405180910390fd5b60005b611af9836001614e54565b811015611b56576001611b3560028381548110611b1857611b18614e67565b90600052602060002001546000908152601e602052604090205490565b1115611b445750600192915050565b80611b4e81614e7d565b915050611aee565b50600092915050565b606060198054806020026020016040519081016040528092919081815260200182805480156113a2576020028201919060005260206000209081546001600160a01b031681526001909101906020018083116115da575050505050905090565b3373dc652c746a8f85e18ce632d97c6118e8a52fa73814611bf35760405163de07280160e01b815260040160405180910390fd5b6004611bfd611f9e565b6004811115611c0e57611c0e614bfc565b1480611c3257506002611c1f611f9e565b6004811115611c3057611c30614bfc565b145b15611c50576040516398fe99a560e01b815260040160405180910390fd5b601180546001600160a01b0319166001600160a01b0392909216919091179055565b6013818154811061117757600080fd5b6000816040516020016116349190614c2c565b6004611c9f611f9e565b6004811115611cb057611cb0614bfc565b1480611cd457506002611cc1611f9e565b6004811115611cd257611cd2614bfc565b145b15611cf257604051631e71d28360e21b815260040160405180910390fd5b805160005b81811015611df0576000838281518110611d1357611d13614e67565b60209081029190910101516005549091506001600160a01b03163314801590611d5357506000818152602260205260409020546001600160a01b03163314155b15611d7957604051635450763d60e11b8152600481018290526024015b60405180910390fd5b60008181526024602052604090205460ff16611ddd576000818152602460205260408120805460ff191660019081179091556021805491820181559091527f3a6357012c1a3ae0a17d304c9920310382d968ebcc4b1771f41c6b304205b570018190555b5080611de881614e7d565b915050611cf7565b507f788a4349d25bc08585923ae212bce8bb346a623bce753eeecb85fd9ce58dcb4b82604051611e20919061458b565b60405180910390a15050565b6000818152601d60209081526040918290206001810180548451818502810185019095528085526060949293830182828015611e9157602002820191906000526020600020905b81546001600160a01b03168152600190910190602001808311611e73575b5050505050915050919050565b6005546060906001600160a01b03163314611ecc57604051630aca3d7160e11b815260040160405180910390fd5b6004611ed6611f9e565b6004811115611ee757611ee7614bfc565b1480611f0b57506002611ef8611f9e565b6004811115611f0957611f09614bfc565b145b15611f2957604051635b0747e760e01b815260040160405180910390fd5b6004611f358382614d7f565b5090919050565b600081815260236020908152604091829020805483518184028101840190945280845260609392830182828015611f9257602002820191906000526020600020905b815481526020019060010190808311611f7e575b50505050509050919050565b60165460009060ff1615611fb25750600290565b4260075410611fc15750600090565b42611fca612768565b10611fd55750600390565b42611fde611527565b10611fe95750600190565b50600490565b6005546060906001600160a01b0316331461201d57604051637d1cb2b160e01b815260040160405180910390fd5b6004612027611f9e565b600481111561203857612038614bfc565b148061205c57506002612049611f9e565b600481111561205a5761205a614bfc565b145b1561207a57604051635b0747e760e01b815260040160405180910390fd5b6003611f358382614d7f565b80516001600160a01b031633146120c457805160405163fbbf4d7f60e01b81526001600160a01b039091166004820152336024820152604401611d70565b60005b6120d360006001614e54565b8110156121b45760008180156120eb576120eb614bfc565b905060008180156120fe576120fe614bfc565b036121865760608301515151600a101561212b57604051631e38b1b160e11b815260040160405180910390fd5b600a8360600151602001515111156121565760405163a3b7dd7760e01b815260040160405180910390fd5b600a8360600151604001515111156121815760405163f696406560e01b815260040160405180910390fd5b6121a1565b8060405163d2277d4960e01b8152600401611d709190614eb5565b50806121ac81614e7d565b9150506120c7565b508060400151516000036121db5760405163e182473360e01b815260040160405180910390fd5b50565b6121e66141e1565b600082815260176020908152604091829020825160808101845281546001600160a01b0381168252600160a01b900460ff16151592810192909252600181018054929391929184019161223890614cf7565b80601f016020809104026020016040519081016040528092919081815260200182805461226490614cf7565b80156122b15780601f10612286576101008083540402835291602001916122b1565b820191906000526020600020905b81548152906001019060200180831161229457829003601f168201915b50505050508152602001600282016040518060600160405290816000820180548060200260200160405190810160405280929190818152602001828054801561232357602002820191906000526020600020905b81546001600160a01b03168152600190910190602001808311612305575b5050505050815260200160018201805480602002602001604051908101604052809291908181526020016000905b828210156123fd57838290600052602060002001805461237090614cf7565b80601f016020809104026020016040519081016040528092919081815260200182805461239c90614cf7565b80156123e95780601f106123be576101008083540402835291602001916123e9565b820191906000526020600020905b8154815290600101906020018083116123cc57829003601f168201915b505050505081526020019060010190612351565b5050505081526020016002820180548060200260200160405190810160405280929190818152602001828054801561245457602002820191906000526020600020905b815481526020019060010190808311612440575b5050509190925250505090525092915050565b60006001612473611f9e565b600481111561248457612484614bfc565b146124a25760405163a6f7b85360e01b815260040160405180910390fd5b6000600e5480156124b5576124b5614bfc565b80156124c3576124c3614bfc565b036125d1576000603c6124d4612768565b6124df906001614e54565b6124e99042614ea2565b6124f39190614edf565b9050600061256061254c61251561251285670de0b6b3a7640000614f01565b90565b612547612531600954670de0b6b3a76400006125129190614f01565b612547612512603c670de0b6b3a7640000614f01565b6131e9565b68056bc75e2d63100000613201565b613201565b905060006125828261255b612574600f5490565b670de0b6b3a76400006131e9565b9050600061258f82613210565b905060006125ab6125126125a5612574600d5490565b84613201565b905064e8d4a510006125bd8183614edf565b6125c79190614f01565b9550505050505090565b50600d5490565b60606000601480548060200260200160405190810160405280929190818152602001828054801561262857602002820191906000526020600020905b815481526020019060010190808311612614575b50505050509050600081516001600160401b0381111561264a5761264a61459e565b604051908082528060200260200182016040528015612673578160200160208202803683370190505b50905060005b8251811015612701576017600084838151811061269857612698614e67565b6020026020010151815260200190815260200160002060000160009054906101000a90046001600160a01b03168282815181106126d7576126d7614e67565b6001600160a01b0390921660209283029190910190910152806126f981614e7d565b915050612679565b5092915050565b6000818152601e602052604081205460011461273757604051633832a15560e21b815260040160405180910390fd5b6000828152601e60205260408120805490919061275657612756614e67565b90600052602060002001549050919050565b600060085460075461153e9190614e54565b606060208054806020026020016040519081016040528092919081815260200182805480156113a2576020028201919060005260206000209081548152602001906001019080831161138e575050505050905090565b6005546001600160a01b031633148015906127ff57503373dc652c746a8f85e18ce632d97c6118e8a52fa73814155b1561281d57604051637601acaf60e11b815260040160405180910390fd5b60165460ff161561284157604051636f79584d60e01b815260040160405180910390fd5b601b54156001146128655760405163043d8d1b60e21b815260040160405180910390fd5b6016805460ff191660011790556040517f4cd963a081760a54f571abc0f1db4dde31b4a07d8d6da3e844b8c6f47eeaaa4290600090a1565b606060138054806020026020016040519081016040528092919081815260200182805480156113a2576020028201919060005260206000209081548152602001906001019080831161138e575050505050905090565b60036128fd611f9e565b600481111561290e5761290e614bfc565b1461292c5760405163554806bb60e11b815260040160405180910390fd5b60005b81811015612a2057600083838381811061294b5761294b614e67565b60055460209190910292909201359250506001600160a01b0316331480159061298b57506000818152601760205260409020546001600160a01b03163314155b156129a95760405163018db70560e11b815260040160405180910390fd5b60008181526015602052604090205460ff16612a0d576000818152601560205260408120805460ff191660019081179091556014805491820181559091527fce6d7b5282bd9a3661ae061feed1dbda4e52ab073b1f9285be6e155d9c38d4ec018190555b5080612a1881614e7d565b91505061292f565b507f75a75cf5c561892f4cc5b26c1b8e933849b42238c96dd073d080d1ae96c514166013604051611e209190614f18565b6005546001600160a01b03163314612a7c57604051630f4cb1bd60e11b815260040160405180910390fd5b601f546001600160a01b031615612aa657604051630ff4b80b60e01b815260040160405180910390fd5b306001600160a01b0316816001600160a01b031663f3f44fb76040518163ffffffff1660e01b8152600401602060405180830381865afa158015612aee573d6000803e3d6000fd5b505050506040513d601f19601f82011682018060405250810190612b129190614f53565b6001600160a01b031614612b3957604051635b310aaf60e01b815260040160405180910390fd5b601f80546001600160a01b038381166001600160a01b031983168117909355604080519190921680825260208201939093527f753a2cf8d360cff631674504210913e48247f8e56b3e6d2006c2103d4095999f9101611e20565b6020818154811061117757600080fd5b6023602052816000526040600020818154811061190057600080fd5b6000818152601e6020908152604091829020805483518184028101840190945280845260609392830182828015611f925760200282019190600052602060002090815481526020019060010190808311611f7e5750505050509050919050565b6000806001846001811115612c3657612c36614bfc565b03612c8f57670de0b6b3a7640000831015612c64576040516346ddb8d160e01b815260040160405180910390fd5b612c76670de0b6b3a764000084614edf565b612c7e612467565b612c889190614f01565b9050612c93565b5060005b8034146119f5576040516372c3eaa760e01b815234600482015260248101829052604401611d70565b80156121db5760006064600c546064612cd59190614ea2565b612cdf9034614f01565b612ce99190614edf565b90508015612def576000601054600114612d04576000612d0f565b612d0f600283614edf565b90508015612d7457600554612d2d906001600160a01b031682613266565b600554604080516001600160a01b039092168252602082018390527f6dff55337c8458ae8c536a63869a48bc33541733422a796390c131d91f4238ed910160405180910390a15b601154612d93906001600160a01b0316612d8e8385614ea2565b613266565b6011547f9df63d1c00d2e332f573be591c0579caafb256b2c5a17abcc8ad471cccda1b81906001600160a01b0316612dcb8385614ea2565b604080516001600160a01b03909316835260208301919091520160405180910390a1505b6000612dfb8234614ea2565b90508015612e7357612e1e612e18601f546001600160a01b031690565b82613266565b7f2c7d70ceb5af79cc37f1832a7908bad1815c2d634ae0f5480dac8eaecddc2e67612e51601f546001600160a01b031690565b604080516001600160a01b039092168252602082018490520160405180910390a15b505050565b60006001612e84611f9e565b6004811115612e9557612e95614bfc565b14612eb35760405163f569a2b960e01b815260040160405180910390fd5b81600003612ed45760405163502e1c2960e01b815260040160405180910390fd5b612edf84848461337f565b601a80546001810182556000919091527f057c384a7d1c54f3a1b2e5e67b2617b8224fdfd1ea7234eea573a6ff665ff63e0180546001600160a01b0319163317905560408051858152602081018490526001600160a01b038516917fb4cfecf70861b7b150d8337780d34fb4cbc2114b5fb1fe51a5c5fca1849f7274910160405180910390a25092915050565b60006003612f78611f9e565b6004811115612f8957612f89614bfc565b14612fa75760405163152839c360e31b815260040160405180910390fd5b600a543360009081526018602052604090205403612fde57600a54604051632bd6d93960e21b8152600401611d7091815260200190565b600b54601454601354612ff19190614ea2565b0361301557600b546040516302217f5360e51b8152600401611d7091815260200190565b600061302083611c82565b600081815260176020526040902054909150600160a01b900460ff161561305d5760405163baffc42360e01b815260048101829052602401611d70565b6013805460018181019092557f66de8ffda797e3de9c05e8fc57b3bf0ec28a930d40b0d285d93c06501cf6a0900182905560008281526017602090815260409182902086518154928801511515600160a01b026001600160a81b03199093166001600160a01b03909116179190911781559085015185928201906130e19082614d7f565b5060608201518051805160028401916130ff91839160200190614235565b506020828101518051613118926001850192019061429a565b50604082015180516131349160028401916020909101906142ec565b505033600090815260186020526040812080546001955090935090915061315c908490614e54565b9091555050601980546001810182556000919091527f944998273e477b495144fb8794c914197f3ccb46be2900f4698fd0ef743c96950180546001600160a01b0319163390811790915560408085015190517f7585f467599d0f008985f231af99293be388626ac16ca59505c2f8f88969cd63926131db928592614f70565b60405180910390a192915050565b60006119f561251284670de0b6b3a7640000856134cb565b60006119f5612512848461359f565b600081680a688906bd8affffff8111156132405760405163b3b6ba1f60e01b815260048101849052602401611d70565b6000613258670de0b6b3a7640000604084901b614edf565b905061159861251282613655565b804710156132b65760405162461bcd60e51b815260206004820152601d60248201527f416464726573733a20696e73756666696369656e742062616c616e63650000006044820152606401611d70565b6000826001600160a01b03168260405160006040518083038185875af1925050503d8060008114613303576040519150601f19603f3d011682016040523d82523d6000602084013e613308565b606091505b5050905080612e735760405162461bcd60e51b815260206004820152603a60248201527f416464726573733a20756e61626c6520746f2073656e642076616c75652c207260448201527f6563697069656e74206d617920686176652072657665727465640000000000006064820152608401611d70565b6000838152601d602090815260408083206001600160a01b03861684526002810190925282205481549192901591849184916133bc908490614e54565b90915550506001600160a01b0384166000908152600283016020526040812080548592906133eb908490614e54565b90915550508015613426576001828101805491820181556000908152602090200180546001600160a01b0319166001600160a01b0386161790555b6001600160a01b0384166000908152601c60205260408120805485929061344e908490614e54565b9250508190555082601b60008282546134679190614e54565b90915550506000546001036134c457815460006134848583614ea2565b90508015613496576134968782613db5565b6000828152601e60209081526040822080546001810182559083529120018790556134c18183613eec565b50505b5050505050565b6000808060001985870985870292508281108382030391505080600003613505578382816134fb576134fb614ec9565b04925050506119f5565b83811061353657604051630c740aef60e31b8152600481018790526024810186905260448101859052606401611d70565b60008486880960026001871981018816978890046003810283188082028403028082028403028082028403028082028403028082028403029081029092039091026000889003889004909101858311909403939093029303949094049190911702949350505050565b60008080600019848609848602925082811083820303915050806000036135d35750670de0b6b3a764000090049050611521565b670de0b6b3a7640000811061360557604051635173648d60e01b81526004810186905260248101859052604401611d70565b6000670de0b6b3a764000085870962040000818503049310909103600160ee1b02919091177faccb18165bd6fe31ae1cf318dc5b51eee0e1ba569b88cd74c1773b91fac106690291505092915050565b600160bf1b67ff00000000000000821615613762576780000000000000008216156136895768016a09e667f3bcc9090260401c5b6740000000000000008216156136a8576801306fe0a31b7152df0260401c5b6720000000000000008216156136c7576801172b83c7d517adce0260401c5b6710000000000000008216156136e65768010b5586cf9890f62a0260401c5b670800000000000000821615613705576801059b0d31585743ae0260401c5b67040000000000000082161561372457680102c9a3e778060ee70260401c5b6702000000000000008216156137435768010163da9fb33356d80260401c5b67010000000000000082161561376257680100b1afa5abcbed610260401c5b66ff00000000000082161561386157668000000000000082161561378f5768010058c86da1c09ea20260401c5b66400000000000008216156137ad576801002c605e2e8cec500260401c5b66200000000000008216156137cb57680100162f3904051fa10260401c5b66100000000000008216156137e9576801000b175effdc76ba0260401c5b660800000000000082161561380757680100058ba01fb9f96d0260401c5b66040000000000008216156138255768010002c5cc37da94920260401c5b6602000000000000821615613843576801000162e525ee05470260401c5b66010000000000008216156138615768010000b17255775c040260401c5b65ff0000000000821615613957576580000000000082161561388c576801000058b91b5bc9ae0260401c5b654000000000008216156138a957680100002c5c89d5ec6d0260401c5b652000000000008216156138c65768010000162e43f4f8310260401c5b651000000000008216156138e357680100000b1721bcfc9a0260401c5b650800000000008216156139005768010000058b90cf1e6e0260401c5b6504000000000082161561391d576801000002c5c863b73f0260401c5b6502000000000082161561393a57680100000162e430e5a20260401c5b65010000000000821615613957576801000000b1721835510260401c5b64ff00000000821615613a445764800000000082161561398057680100000058b90c0b490260401c5b64400000000082161561399c5768010000002c5c8601cc0260401c5b6420000000008216156139b8576801000000162e42fff00260401c5b6410000000008216156139d45768010000000b17217fbb0260401c5b6408000000008216156139f0576801000000058b90bfce0260401c5b640400000000821615613a0c57680100000002c5c85fe30260401c5b640200000000821615613a285768010000000162e42ff10260401c5b640100000000821615613a4457680100000000b17217f80260401c5b63ff000000821615613b28576380000000821615613a6b5768010000000058b90bfc0260401c5b6340000000821615613a86576801000000002c5c85fe0260401c5b6320000000821615613aa157680100000000162e42ff0260401c5b6310000000821615613abc576801000000000b17217f0260401c5b6308000000821615613ad757680100000000058b90c00260401c5b6304000000821615613af25768010000000002c5c8600260401c5b6302000000821615613b0d576801000000000162e4300260401c5b6301000000821615613b285768010000000000b172180260401c5b62ff0000821615613c035762800000821615613b4d576801000000000058b90c0260401c5b62400000821615613b6757680100000000002c5c860260401c5b62200000821615613b815768010000000000162e430260401c5b62100000821615613b9b57680100000000000b17210260401c5b62080000821615613bb55768010000000000058b910260401c5b62040000821615613bcf576801000000000002c5c80260401c5b62020000821615613be957680100000000000162e40260401c5b62010000821615613c03576801000000000000b1720260401c5b61ff00821615613cd557618000821615613c2657680100000000000058b90260401c5b614000821615613c3f5768010000000000002c5d0260401c5b612000821615613c58576801000000000000162e0260401c5b611000821615613c715768010000000000000b170260401c5b610800821615613c8a576801000000000000058c0260401c5b610400821615613ca357680100000000000002c60260401c5b610200821615613cbc57680100000000000001630260401c5b610100821615613cd557680100000000000000b10260401c5b60ff821615613d9e576080821615613cf657680100000000000000590260401c5b6040821615613d0e576801000000000000002c0260401c5b6020821615613d2657680100000000000000160260401c5b6010821615613d3e576801000000000000000b0260401c5b6008821615613d5657680100000000000000060260401c5b6004821615613d6e57680100000000000000030260401c5b6002821615613d8657680100000000000000010260401c5b6001821615613d9e57680100000000000000010260401c5b670de0b6b3a76400000260409190911c60bf031c90565b6000818152601e6020908152604080832080548251818502810185019093528083529192909190830182828015613e0b57602002820191906000526020600020905b815481526020019060010190808311613df7575b5050505050905060005b8151811015613ee65783828281518110613e3157613e31614e67565b602002602001015103613ed4578160018351613e4d9190614ea2565b81518110613e5d57613e5d614e67565b6020026020010151601e60008581526020019081526020016000208281548110613e8957613e89614e67565b9060005260206000200181905550601e6000848152602001908152602001600020805480613eb957613eb9614f9a565b60019003818190600052602060002001600090559055613ee6565b80613ede81614e7d565b915050613e15565b50505050565b60028054604080516020808402820181019092528281529192600092918490830182828015613f3a57602002820191906000526020600020905b815481526020019060010190808311613f26575b5050505050905081600003613f81575050600280546001810182556000919091527f405787fa12a823e0f2b7631cc41b3ba8828b3321ca811111fa75cd3aa3bb5ace015550565b80613f8d600184614ea2565b81518110613f9d57613f9d614e67565b6020026020010151831015613ff3576001548203613fbb5750505050565b5050600280546001810182556000919091527f405787fa12a823e0f2b7631cc41b3ba8828b3321ca811111fa75cd3aa3bb5ace015550565b613ee6848484846000805b838110156140685782818151811061401857614018614e67565b6020026020010151850361402d575050613ee6565b82818151811061403f5761403f614e67565b602002602001015185111561405657809150614068565b8061406081614e7d565b915050613ffe565b506000808611801561408657506000868152601e6020526040902054155b905060008180156140af5750868484815181106140a5576140a5614e67565b6020026020010151145b6141b8576140be600186614ea2565b83146141665760006140d1846001614e54565b90505b8581101561416457846140e8600183614ea2565b815181106140f8576140f8614e67565b60200260200101516002828154811061411357614113614e67565b60009182526020909120015582801561414457508785828151811061413a5761413a614e67565b6020026020010151145b156141525760019150614164565b8061415c81614e7d565b9150506140d4565b505b80158015614175575060015485105b156141b857600284614188600188614ea2565b8151811061419857614198614e67565b602090810291909101810151825460018101845560009384529190922001555b85600284815481106141cc576141cc614e67565b60009182526020909120015550505050505050565b604051806080016040528060006001600160a01b031681526020016000151581526020016060815260200161423060405180606001604052806060815260200160608152602001606081525090565b905290565b82805482825590600052602060002090810192821561428a579160200282015b8281111561428a57825182546001600160a01b0319166001600160a01b03909116178255602090920191600190910190614255565b50614296929150614327565b5090565b8280548282559060005260206000209081019282156142e0579160200282015b828111156142e057825182906142d09082614d7f565b50916020019190600101906142ba565b5061429692915061433c565b82805482825590600052602060002090810192821561428a579160200282015b8281111561428a57825182559160200191906001019061430c565b5b808211156142965760008155600101614328565b808211156142965760006143508282614359565b5060010161433c565b50805461436590614cf7565b6000825580601f10614375575050565b601f0160209004906000526020600020908101906121db9190614327565b6000602082840312156143a557600080fd5b5035919050565b6000815180845260005b818110156143d2576020818501810151868301820152016143b6565b506000602082860101526020601f19601f83011685010191505092915050565b600081518084526020808501945080840160005b8381101561442257815187529582019590820190600101614406565b509495945050505050565b805160608084528151908401819052600091602091908201906080860190845b818110156144725783516001600160a01b03168352928401929184019160010161444d565b505084830151868203878501528051808352908401925081840190600581901b8301850160005b828110156144c757601f198583030184526144b58287516143ac565b95870195938701939150600101614499565b506040880151955088810360408a01526144e181876143f2565b9998505050505050505050565b6001600160a01b0385168152831515602082015260806040820181905260009061451a908301856143ac565b828103606084015261452c818561442d565b979650505050505050565b6020815260006119f560208301846143ac565b6020815260018060a01b03825116602082015260208201516040820152604082015160608201526000606083015160808084015261159860a08401826143ac565b6020815260006119f560208301846143f2565b634e487b7160e01b600052604160045260246000fd5b604051608081016001600160401b03811182821017156145d6576145d661459e565b60405290565b604051606081016001600160401b03811182821017156145d6576145d661459e565b604051601f8201601f191681016001600160401b03811182821017156146265761462661459e565b604052919050565b600082601f83011261463f57600080fd5b81356001600160401b038111156146585761465861459e565b61466b601f8201601f19166020016145fe565b81815284602083860101111561468057600080fd5b816020850160208301376000918101602001919091529392505050565b600080604083850312156146b057600080fd5b8235915060208301356001600160401b038111156146cd57600080fd5b6146d98582860161462e565b9150509250929050565b600080604083850312156146f657600080fd5b50508035926020909101359150565b6020808252825182820181905260009190848201906040850190845b818110156147465783516001600160a01b031683529284019291840191600101614721565b50909695505050505050565b6001600160a01b03811681146121db57600080fd5b60006020828403121561477957600080fd5b81356001600160401b038082111561479057600080fd5b90830190608082860312156147a457600080fd5b6147ac6145b4565b82356147b781614752565b8082525060208301356020820152604083013560408201526060830135828111156147e157600080fd5b6147ed8782860161462e565b60608301525095945050505050565b60408152600061480f60408301856143f2565b828103602084015261482181856143f2565b95945050505050565b6000806040838503121561483d57600080fd5b82359150602083013561484f81614752565b809150509250929050565b60006020828403121561486c57600080fd5b81356119f581614752565b60006020828403121561488957600080fd5b81356001600160401b0381111561489f57600080fd5b8201608081850312156119f557600080fd5b60018060a01b03851681528360208201528260408201526080606082015260006148de60808301846143ac565b9695505050505050565b60006001600160401b038211156149015761490161459e565b5060051b60200190565b600082601f83011261491c57600080fd5b8135602061493161492c836148e8565b6145fe565b82815260059290921b8401810191818101908684111561495057600080fd5b8286015b8481101561498f5780356001600160401b038111156149735760008081fd5b6149818986838b010161462e565b845250918301918301614954565b509695505050505050565b600082601f8301126149ab57600080fd5b813560206149bb61492c836148e8565b82815260059290921b840181019181810190868411156149da57600080fd5b8286015b8481101561498f57803583529183019183016149de565b600060808284031215614a0757600080fd5b614a0f6145b4565b90508135614a1c81614752565b81526020828101358015158114614a3257600080fd5b8282015260408301356001600160401b0380821115614a5057600080fd5b614a5c8683870161462e565b60408501526060850135915080821115614a7557600080fd5b9084019060608287031215614a8957600080fd5b614a916145dc565b823582811115614aa057600080fd5b8301601f81018813614ab157600080fd5b8035614abf61492c826148e8565b81815260059190911b8201860190868101908a831115614ade57600080fd5b928701925b82841015614b05578335614af681614752565b82529287019290870190614ae3565b84525050508284013582811115614b1b57600080fd5b614b278882860161490b565b85830152506040830135935081841115614b4057600080fd5b614b4c8785850161499a565b604082015260608501525091949350505050565b600060208284031215614b7257600080fd5b81356001600160401b03811115614b8857600080fd5b611598848285016149f5565b600060208284031215614ba657600080fd5b81356001600160401b03811115614bbc57600080fd5b6115988482850161499a565b600060208284031215614bda57600080fd5b81356001600160401b03811115614bf057600080fd5b6115988482850161462e565b634e487b7160e01b600052602160045260246000fd5b6020810160058310614c2657614c26614bfc565b91905290565b6020815260018060a01b0382511660208201526020820151151560408201526000604083015160806060840152614c6660a08401826143ac565b90506060840151601f19848303016080850152614821828261442d565b60008060208385031215614c9657600080fd5b82356001600160401b0380821115614cad57600080fd5b818501915085601f830112614cc157600080fd5b813581811115614cd057600080fd5b8660208260051b8501011115614ce557600080fd5b60209290920196919550909350505050565b600181811c90821680614d0b57607f821691505b602082108103614d2b57634e487b7160e01b600052602260045260246000fd5b50919050565b601f821115612e7357600081815260208120601f850160051c81016020861015614d585750805b601f850160051c820191505b81811015614d7757828155600101614d64565b505050505050565b81516001600160401b03811115614d9857614d9861459e565b614dac81614da68454614cf7565b84614d31565b602080601f831160018114614de15760008415614dc95750858301515b600019600386901b1c1916600185901b178555614d77565b600085815260208120601f198616915b82811015614e1057888601518255948401946001909101908401614df1565b5085821015614e2e5787850151600019600388901b60f8161c191681555b5050505050600190811b01905550565b634e487b7160e01b600052601160045260246000fd5b8082018082111561152157611521614e3e565b634e487b7160e01b600052603260045260246000fd5b600060018201614e8f57614e8f614e3e565b5060010190565b600061152136836149f5565b8181038181111561152157611521614e3e565b6020810160018310614c2657614c26614bfc565b634e487b7160e01b600052601260045260246000fd5b600082614efc57634e487b7160e01b600052601260045260246000fd5b500490565b808202811582820484141761152157611521614e3e565b6020808252825482820181905260008481528281209092916040850190845b8181101561474657835483526001938401939285019201614f37565b600060208284031215614f6557600080fd5b81516119f581614752565b8381526001600160a01b0383166020820152606060408201819052600090614821908301846143ac565b634e487b7160e01b600052603160045260246000fdfea264697066735822122001e26f8825ab857bee5fc206f2346a9d9c508a7f678d8b3ed9cfaf1b876e4dee64736f6c63430008130033","linkReferences":{}},"methodIdentifiers":{"AMOUNT_FOR_SUMBITTER_PROOF()":"347cf665","COST_ROUNDING_VALUE()":"e269cefe","JK_LABS_ADDRESS()":"eef18e17","MAX_FIELDS_METADATA_LENGTH()":"b382543f","METADATAS_COUNT()":"4d24a67f","PRICE_CURVE_UPDATE_INTERVAL()":"fd7971c9","SECONDS_IN_DAY()":"61a52a36","addressTotalCastVoteCount(address)":"dda54fcf","addressesThatHaveVoted(uint256)":"50c4b616","allProposalTotalVotes()":"50a5e524","anyoneCanSubmit()":"5358b80e","cancel()":"ea8a1af0","canceled()":"3f9942ff","castVote(uint256,uint256)":"2c0a3f89","comment(uint256,string)":"1805c523","commentIds(uint256)":"f5c36411","commentIsDeleted(uint256)":"ae66b8ad","comments(uint256)":"8ebb4c15","contestAddressTotalVotesCast(address)":"aec116b6","contestDeadline()":"262e59e9","contestStart()":"004114a8","costToVote()":"51a41dec","creator()":"02d05d3f","creatorSplitEnabled()":"9decae31","currentPricePerVote()":"ca09a4c4","deleteComments(uint256[])":"ac67f801","deleteProposals(uint256[])":"f0a7db0a","deletedCommentIds(uint256)":"3fb57c92","deletedProposalIds(uint256)":"05846cae","getAllAddressesThatHaveVoted()":"2c39805f","getAllAuthorsOfDeletedProposals()":"cbdc27cb","getAllCommentIds()":"e11db9d8","getAllDeletedCommentIds()":"5cb718a1","getAllDeletedProposalIds()":"1242b737","getAllProposalAuthors()":"946369b5","getAllProposalIds()":"efa90d36","getComment(uint256)":"0800e300","getNumProposalsWithThisManyVotes(uint256)":"bc022c98","getOnlyProposalIdWithThisManyVotes(uint256)":"d576b81d","getProposal(uint256)":"c7f758a8","getProposalComments(uint256)":"c05f4104","getProposalsWithThisManyVotes(uint256)":"f82e54c0","getRankIndex(uint256)":"5c7107d8","getSortedRanks()":"6fd3636b","hashComment((address,uint256,uint256,string))":"409fd030","hashProposal((address,bool,string,(address[],string[],uint256[])))":"a119278b","isOrIsBelowTiedRank(uint256)":"9174778c","jkLabsSplitDestination()":"102613d8","maxProposalCount()":"fb9bf8d4","metadataFieldsSchema()":"60ed97a9","multiple()":"437a8ae6","name()":"06fdde03","numAllowedProposalSubmissions()":"832009af","numSubmissions(address)":"75e509c5","officialRewardsModule()":"785ddfe5","percentageToRewards()":"06b2193f","priceCurveType()":"4a2c96ec","prompt()":"7c65d711","proposalAddressVotes(uint256,address)":"6e4eb810","proposalAddressesHaveVoted(uint256)":"b323580d","proposalAuthors(uint256)":"0aa25e44","proposalComments(uint256,uint256)":"f61736f4","proposalIds(uint256)":"9b644a23","proposalIsDeleted(uint256)":"f79c0172","proposalVoteStructs(uint256)":"15dee7cd","proposalVotes(uint256)":"544ffc9c","proposals(uint256)":"013cf08b","propose((address,bool,string,(address[],string[],uint256[])))":"8225c11d","rankLimit()":"0414126a","setJkLabsSplitDestination(address)":"9b338aa0","setName(string)":"c47f0027","setOfficialRewardsModule(address)":"f4f3d7ec","setPrompt(string)":"b4ac024f","sortedRanks(uint256)":"325cc6d9","sortingEnabled()":"366ecf5b","state()":"c19d93fb","totalVotesCast()":"7de418d5","totalVotesCastIsZero()":"7d742925","validateProposalData((address,bool,string,(address[],string[],uint256[])))":"c7f252d7","verifyProposer()":"476106c8","version()":"54fd4d50","voteStart()":"e031535b","votesToProposalIds(uint256,uint256)":"6d030621","votingDelay()":"3932abb1","votingPeriod()":"02a251a3"},"id":52}