{"abi":[{"type":"constructor","inputs":[{"name":"payees_","type":"uint256[]","internalType":"uint256[]"},{"name":"shares_","type":"uint256[]","internalType":"uint256[]"},{"name":"underlyingContest_","type":"address","internalType":"contract GovernorCountingSimple"}],"stateMutability":"payable"},{"type":"receive","stateMutability":"payable"},{"type":"function","name":"JK_LABS_ADDRESS","inputs":[],"outputs":[{"name":"","type":"address","internalType":"address"}],"stateMutability":"view"},{"type":"function","name":"JK_LABS_CANCEL_DELAY","inputs":[],"outputs":[{"name":"","type":"uint256","internalType":"uint256"}],"stateMutability":"view"},{"type":"function","name":"MODULE_TYPE","inputs":[],"outputs":[{"name":"","type":"string","internalType":"string"}],"stateMutability":"view"},{"type":"function","name":"cancel","inputs":[],"outputs":[],"stateMutability":"nonpayable"},{"type":"function","name":"canceled","inputs":[],"outputs":[{"name":"","type":"bool","internalType":"bool"}],"stateMutability":"view"},{"type":"function","name":"canceledByJkLabs","inputs":[],"outputs":[{"name":"","type":"bool","internalType":"bool"}],"stateMutability":"view"},{"type":"function","name":"creator","inputs":[],"outputs":[{"name":"","type":"address","internalType":"address"}],"stateMutability":"view"},{"type":"function","name":"erc20Released","inputs":[{"name":"","type":"address","internalType":"contract IERC20"},{"name":"","type":"uint256","internalType":"uint256"}],"outputs":[{"name":"","type":"uint256","internalType":"uint256"}],"stateMutability":"view"},{"type":"function","name":"erc20ReleasedToVoter","inputs":[{"name":"","type":"address","internalType":"contract IERC20"},{"name":"","type":"address","internalType":"address"},{"name":"","type":"uint256","internalType":"uint256"}],"outputs":[{"name":"","type":"uint256","internalType":"uint256"}],"stateMutability":"view"},{"type":"function","name":"erc20TotalReleased","inputs":[{"name":"","type":"address","internalType":"contract IERC20"}],"outputs":[{"name":"","type":"uint256","internalType":"uint256"}],"stateMutability":"view"},{"type":"function","name":"getPayees","inputs":[],"outputs":[{"name":"","type":"uint256[]","internalType":"uint256[]"}],"stateMutability":"view"},{"type":"function","name":"getProposalIdOfRanking","inputs":[{"name":"ranking","type":"uint256","internalType":"uint256"}],"outputs":[{"name":"","type":"uint256","internalType":"uint256"}],"stateMutability":"view"},{"type":"function","name":"getUnderlyingContest","inputs":[],"outputs":[{"name":"","type":"address","internalType":"contract GovernorCountingSimple"}],"stateMutability":"view"},{"type":"function","name":"payees","inputs":[{"name":"","type":"uint256","internalType":"uint256"}],"outputs":[{"name":"","type":"uint256","internalType":"uint256"}],"stateMutability":"view"},{"type":"function","name":"releasable","inputs":[{"name":"token","type":"address","internalType":"contract IERC20"},{"name":"ranking","type":"uint256","internalType":"uint256"}],"outputs":[{"name":"","type":"uint256","internalType":"uint256"}],"stateMutability":"view"},{"type":"function","name":"releasable","inputs":[{"name":"ranking","type":"uint256","internalType":"uint256"}],"outputs":[{"name":"","type":"uint256","internalType":"uint256"}],"stateMutability":"view"},{"type":"function","name":"releasableToVoter","inputs":[{"name":"voter","type":"address","internalType":"address"},{"name":"ranking","type":"uint256","internalType":"uint256"}],"outputs":[{"name":"","type":"uint256","internalType":"uint256"}],"stateMutability":"view"},{"type":"function","name":"releasableToVoter","inputs":[{"name":"token","type":"address","internalType":"contract IERC20"},{"name":"voter","type":"address","internalType":"address"},{"name":"ranking","type":"uint256","internalType":"uint256"}],"outputs":[{"name":"","type":"uint256","internalType":"uint256"}],"stateMutability":"view"},{"type":"function","name":"release","inputs":[{"name":"voter","type":"address","internalType":"address"},{"name":"ranking","type":"uint256","internalType":"uint256"}],"outputs":[],"stateMutability":"nonpayable"},{"type":"function","name":"release","inputs":[{"name":"token","type":"address","internalType":"contract IERC20"},{"name":"voter","type":"address","internalType":"address"},{"name":"ranking","type":"uint256","internalType":"uint256"}],"outputs":[],"stateMutability":"nonpayable"},{"type":"function","name":"released","inputs":[{"name":"","type":"uint256","internalType":"uint256"}],"outputs":[{"name":"","type":"uint256","internalType":"uint256"}],"stateMutability":"view"},{"type":"function","name":"releasedToVoter","inputs":[{"name":"","type":"address","internalType":"address"},{"name":"","type":"uint256","internalType":"uint256"}],"outputs":[{"name":"","type":"uint256","internalType":"uint256"}],"stateMutability":"view"},{"type":"function","name":"runReleaseChecks","inputs":[{"name":"ranking","type":"uint256","internalType":"uint256"}],"outputs":[],"stateMutability":"view"},{"type":"function","name":"shares","inputs":[{"name":"","type":"uint256","internalType":"uint256"}],"outputs":[{"name":"","type":"uint256","internalType":"uint256"}],"stateMutability":"view"},{"type":"function","name":"totalReleased","inputs":[],"outputs":[{"name":"","type":"uint256","internalType":"uint256"}],"stateMutability":"view"},{"type":"function","name":"totalShares","inputs":[],"outputs":[{"name":"","type":"uint256","internalType":"uint256"}],"stateMutability":"view"},{"type":"function","name":"underlyingContest","inputs":[],"outputs":[{"name":"","type":"address","internalType":"contract GovernorCountingSimple"}],"stateMutability":"view"},{"type":"function","name":"version","inputs":[],"outputs":[{"name":"","type":"string","internalType":"string"}],"stateMutability":"pure"},{"type":"function","name":"withdrawRewards","inputs":[{"name":"token","type":"address","internalType":"contract IERC20"}],"outputs":[],"stateMutability":"nonpayable"},{"type":"function","name":"withdrawRewards","inputs":[],"outputs":[],"stateMutability":"nonpayable"},{"type":"event","name":"ERC20PaymentReleased","inputs":[{"name":"token","type":"address","indexed":true,"internalType":"contract IERC20"},{"name":"to","type":"address","indexed":false,"internalType":"address"},{"name":"amount","type":"uint256","indexed":false,"internalType":"uint256"}],"anonymous":false},{"type":"event","name":"ERC20RewardWithdrawn","inputs":[{"name":"token","type":"address","indexed":true,"internalType":"contract IERC20"},{"name":"by","type":"address","indexed":false,"internalType":"address"},{"name":"amount","type":"uint256","indexed":false,"internalType":"uint256"}],"anonymous":false},{"type":"event","name":"JokeraceVoterRewardsModuleCreated","inputs":[{"name":"version","type":"string","indexed":false,"internalType":"string"},{"name":"underlyingContest","type":"address","indexed":false,"internalType":"address"}],"anonymous":false},{"type":"event","name":"PayeeAdded","inputs":[{"name":"ranking","type":"uint256","indexed":false,"internalType":"uint256"},{"name":"shares","type":"uint256","indexed":false,"internalType":"uint256"}],"anonymous":false},{"type":"event","name":"PaymentReceived","inputs":[{"name":"from","type":"address","indexed":false,"internalType":"address"},{"name":"amount","type":"uint256","indexed":false,"internalType":"uint256"}],"anonymous":false},{"type":"event","name":"PaymentReleased","inputs":[{"name":"to","type":"address","indexed":false,"internalType":"address"},{"name":"amount","type":"uint256","indexed":false,"internalType":"uint256"}],"anonymous":false},{"type":"event","name":"RewardWithdrawn","inputs":[{"name":"by","type":"address","indexed":false,"internalType":"address"},{"name":"amount","type":"uint256","indexed":false,"internalType":"uint256"}],"anonymous":false},{"type":"error","name":"AccountAlreadyHasShares","inputs":[]},{"type":"error","name":"AccountNotDueERC20Payment","inputs":[]},{"type":"error","name":"AccountNotDueNativePayment","inputs":[]},{"type":"error","name":"CannotPayOutToZeroAddress","inputs":[]},{"type":"error","name":"CannotReleaseCanceledModule","inputs":[]},{"type":"error","name":"ContestMustBeCompleted","inputs":[]},{"type":"error","name":"CreatorCanOnlyCancelBeforeFirstVote","inputs":[]},{"type":"error","name":"CreatorCannotWithdrawIfJkLabsCanceled","inputs":[]},{"type":"error","name":"JkLabsCanOnlyCancelAfterDelay","inputs":[]},{"type":"error","name":"ModuleAlreadyCanceled","inputs":[]},{"type":"error","name":"MustBeCanceledToWithdraw","inputs":[]},{"type":"error","name":"MustHaveAtLeastOnePayee","inputs":[]},{"type":"error","name":"MustHaveSortingEnabled","inputs":[]},{"type":"error","name":"OnlyCreatorOrJkLabsCanCancel","inputs":[]},{"type":"error","name":"OnlyCreatorOrJkLabsCanWithdraw","inputs":[]},{"type":"error","name":"PayeesSharesLengthMismatch","inputs":[]},{"type":"error","name":"PayoutRankCannotBeZero","inputs":[]},{"type":"error","name":"RankingCannotBeZero","inputs":[]},{"type":"error","name":"RankingHasNoShares","inputs":[]},{"type":"error","name":"SharesCannotBeZero","inputs":[]},{"type":"error","name":"TotalSharesCannotBeZero","inputs":[]}],"bytecode":{"object":"0x6080604052604051620020993803806200209983398101604081905262000026916200033d565b815183511462000049576040516324e23b4160e01b815260040160405180910390fd5b82516000036200006c57604051634c87c40160e01b815260040160405180910390fd5b60005b8351811015620000d857620000c3848281518110620000925762000092620003ca565b6020026020010151848381518110620000af57620000af620003ca565b60200260200101516200018260201b60201c565b80620000cf81620003f6565b9150506200006f565b50600054600003620000fd576040516306db759b60e21b815260040160405180910390fd5b600980546001600160a01b0383166001600160a01b03199182168117909255600a8054909116331790556040805180820182526004815263362e313360e01b602082015290517f8c5321ee9bef93e01f55e8958ee7eeea8f84887a42c785c2e5006564caf6590d9262000171929162000412565b60405180910390a150505062000490565b81600003620001a45760405163d6fbfe2560e01b815260040160405180910390fd5b80600003620001c657604051633122bc0960e21b815260040160405180910390fd5b60008281526002602052604090205415620001f457604051637b4f7fb560e01b815260040160405180910390fd5b60088054600181019091557ff3f7a9fe364faab93b216da50a3214154f22a0a2b415b23a84c8169e8b636ee3018290556000828152600260205260408120829055546200024390829062000474565b60005560408051838152602081018390527f78bc0e219b874bf2620f7316737ec16d4bda1bb7136961e4dcb5ff0dc031cee4910160405180910390a15050565b634e487b7160e01b600052604160045260246000fd5b600082601f830112620002ab57600080fd5b815160206001600160401b0380831115620002ca57620002ca62000283565b8260051b604051601f19603f83011681018181108482111715620002f257620002f262000283565b6040529384528581018301938381019250878511156200031157600080fd5b83870191505b84821015620003325781518352918301919083019062000317565b979650505050505050565b6000806000606084860312156200035357600080fd5b83516001600160401b03808211156200036b57600080fd5b620003798783880162000299565b945060208601519150808211156200039057600080fd5b506200039f8682870162000299565b604086015190935090506001600160a01b0381168114620003bf57600080fd5b809150509250925092565b634e487b7160e01b600052603260045260246000fd5b634e487b7160e01b600052601160045260246000fd5b6000600182016200040b576200040b620003e0565b5060010190565b604081526000835180604084015260005b8181101562000442576020818701810151606086840101520162000423565b50600060608285018101919091526001600160a01b03949094166020840152601f01601f191690910190910192915050565b808201808211156200048a576200048a620003e0565b92915050565b611bf980620004a06000396000f3fe6080604052600436106101d15760003560e01c80635775029f116100f7578063c710404611610095578063e4bf01a811610064578063e4bf01a814610610578063ea8a1af014610630578063eef18e1714610645578063f3f44fb71461066d57600080fd5b8063c710404614610587578063c7b8981c146105a7578063d75f69b6146105bc578063e33b7de3146105fa57600080fd5b80637ce4627e116100d15780637ce4627e146104fc578063828ce44b1461051c5780638bfb07c91461053a578063a94d373b1461055a57600080fd5b80635775029f1461047657806357a858fc146104af57806363037b0c146104dc57600080fd5b80633375bbdc1161016f5780634b9453381161013e5780634b945338146103b05780634df2114b146103e857806351f63e351461042057806354fd4d501461044057600080fd5b80633375bbdc1461032c5780633a98ef39146103595780633f9942ff1461036f57806342d866931461039057600080fd5b80632081d631116101ab5780632081d631146102a557806327273847146102d357806327f38113146102f35780632df56a831461031557600080fd5b806302d05d3f146102155780630357371d14610252578063071fd35a1461027457600080fd5b3661021057604080513381523460208201527f6ef95f06320e7a25a04a175ca677b7052bdd97131872c2192525a629f51be770910160405180910390a1005b600080fd5b34801561022157600080fd5b50600a54610235906001600160a01b031681565b6040516001600160a01b0390911681526020015b60405180910390f35b34801561025e57600080fd5b5061027261026d366004611982565b61068d565b005b34801561028057600080fd5b50600a5461029590600160a81b900460ff1681565b6040519015158152602001610249565b3480156102b157600080fd5b506102c56102c0366004611982565b6107e0565b604051908152602001610249565b3480156102df57600080fd5b506102c56102ee366004611982565b6108a7565b3480156102ff57600080fd5b50610308610921565b60405161024991906119ae565b34801561032157600080fd5b506102c562093a8081565b34801561033857600080fd5b506102c56103473660046119f2565b60046020526000908152604090205481565b34801561036557600080fd5b506102c560005481565b34801561037b57600080fd5b50600a5461029590600160a01b900460ff1681565b34801561039c57600080fd5b506102726103ab3660046119f2565b610979565b3480156103bc57600080fd5b506102c56103cb366004611982565b600560209081526000928352604080842090915290825290205481565b3480156103f457600080fd5b506102c5610403366004611982565b600660209081526000928352604080842090915290825290205481565b34801561042c57600080fd5b506102c561043b366004611a0f565b610b5e565b34801561044c57600080fd5b50604080518082019091526004815263362e313360e01b60208201525b6040516102499190611a4c565b34801561048257600080fd5b506104696040518060400160405280600d81526020016c564f5445525f5245574152445360981b81525081565b3480156104bb57600080fd5b506102c56104ca366004611a0f565b60026020526000908152604090205481565b3480156104e857600080fd5b506102c56104f7366004611a0f565b610d2f565b34801561050857600080fd5b506102c5610517366004611a7f565b610d50565b34801561052857600080fd5b506009546001600160a01b0316610235565b34801561054657600080fd5b50610272610555366004611a7f565b610e4d565b34801561056657600080fd5b506102c5610575366004611a0f565b60036020526000908152604090205481565b34801561059357600080fd5b506102726105a2366004611a0f565b610fdf565b3480156105b357600080fd5b5061027261118f565b3480156105c857600080fd5b506102c56105d7366004611a7f565b600760209081526000938452604080852082529284528284209052825290205481565b34801561060657600080fd5b506102c560015481565b34801561061c57600080fd5b506102c561062b366004611a0f565b611290565b34801561063c57600080fd5b506102726112c8565b34801561065157600080fd5b5061023573dc652c746a8f85e18ce632d97c6118e8a52fa73881565b34801561067957600080fd5b50600954610235906001600160a01b031681565b61069681610fdf565b60006106a182610b5e565b9050600081156106ba576106b584846108a7565b6106c3565b6106c383611290565b9050806000036106e657604051631d1514e960e21b815260040160405180910390fd5b80600160008282546106f89190611ad6565b909155505060008381526003602052604081208054830190558215610758576001600160a01b03851660009081526006602090815260408083208784529091528120805484929061074a908490611ad6565b909155508591506107669050565b50600a546001600160a01b03165b6001600160a01b03811661078d576040516346a3c2f960e01b815260040160405180910390fd5b604080516001600160a01b0383168152602081018490527fdf20fd1e76bc69d672e4814fafb2c449bba3a5369d8359adf9e05e6fde87b056910160405180910390a16107d981836114cc565b5050505050565b6001600160a01b03821660008181526004602081905260408083205490516370a0823160e01b8152309281019290925291928392916370a0823190602401602060405180830381865afa15801561083b573d6000803e3d6000fd5b505050506040513d601f19601f8201168201806040525081019061085f9190611ae9565b6108699190611ad6565b6001600160a01b038516600090815260056020908152604080832087845290915290205490915061089d90849083906115ef565b9150505b92915050565b600080600154476108b89190611ad6565b600080548582526002602052604082205492935090916108d89084611b02565b6108e29190611b19565b6001600160a01b038616600090815260066020908152604080832088845290915290205490915061091890869086908490611629565b95945050505050565b6060600880548060200260200160405190810160405280929190818152602001828054801561096f57602002820191906000526020600020905b81548152602001906001019080831161095b575b5050505050905090565b600a546001600160a01b031633148015906109a857503373dc652c746a8f85e18ce632d97c6118e8a52fa73814155b156109c6576040516365eea35560e11b815260040160405180910390fd5b600a54600160a01b900460ff1615156001146109f557604051633871a85960e21b815260040160405180910390fd5b600a546001600160a01b031633148015610a185750600a54600160a81b900460ff165b15610a365760405163f7e8ac6f60e01b815260040160405180910390fd5b6040516370a0823160e01b81523060048201526001600160a01b038216907f6e5fc1cbd1629d9837bd657d23cf585bbc4e9127184972606cc4c0dd406f757290339083906370a0823190602401602060405180830381865afa158015610aa0573d6000803e3d6000fd5b505050506040513d601f19601f82011682018060405250810190610ac49190611ae9565b604080516001600160a01b03909316835260208301919091520160405180910390a26040516370a0823160e01b8152306004820152610b5b90829033906001600160a01b038316906370a0823190602401602060405180830381865afa158015610b32573d6000803e3d6000fd5b505050506040513d601f19601f82011682018060405250810190610b569190611ae9565b61173a565b50565b600954604051630b8e20fb60e31b815260048101839052600091829182916001600160a01b031690635c7107d890602401602060405180830381865afa158015610bac573d6000803e3d6000fd5b505050506040513d601f19601f82011682018060405250810190610bd09190611ae9565b60095460405163245d1de360e21b8152600481018390529192506001600160a01b031690639174778c90602401602060405180830381865afa158015610c1a573d6000803e3d6000fd5b505050506040513d601f19601f82011682018060405250810190610c3e9190611b3b565b15610c4c5760009150610d28565b60095460405163325cc6d960e01b8152600481018390526000916001600160a01b03169063325cc6d990602401602060405180830381865afa158015610c96573d6000803e3d6000fd5b505050506040513d601f19601f82011682018060405250810190610cba9190611ae9565b60095460405163d576b81d60e01b8152600481018390529192506001600160a01b03169063d576b81d90602401602060405180830381865afa158015610d04573d6000803e3d6000fd5b505050506040513d601f19601f820116820180604052508101906109189190611ae9565b5092915050565b60088181548110610d3f57600080fd5b600091825260209091200154905081565b6001600160a01b03831660008181526004602081905260408083205490516370a0823160e01b8152309281019290925291928392916370a0823190602401602060405180830381865afa158015610dab573d6000803e3d6000fd5b505050506040513d601f19601f82011682018060405250810190610dcf9190611ae9565b610dd99190611ad6565b60008054858252600260205260408220549293509091610df99084611b02565b610e039190611b19565b6001600160a01b038088166000908152600760209081526040808320938a16835292815282822088835290522054909150610e4390869086908490611629565b9695505050505050565b610e5681610fdf565b6000610e6182610b5e565b905060008115610e7b57610e76858585610d50565b610e85565b610e8585846107e0565b905080600003610ea857604051635fe559bd60e01b815260040160405180910390fd5b6001600160a01b03851660009081526004602052604081208054839290610ed0908490611ad6565b90915550506001600160a01b038516600090815260056020908152604080832086845290915281208054830190558215610f51576001600160a01b038087166000908152600760209081526040808320938916835292815282822087835290529081208054849290610f43908490611ad6565b90915550859150610f5f9050565b50600a546001600160a01b03165b6001600160a01b038116610f86576040516346a3c2f960e01b815260040160405180910390fd5b604080516001600160a01b038381168252602082018590528816917f3be5b7a71e84ed12875d241991c70855ac5817d847039e17a9d895c1ceb0f18a910160405180910390a2610fd786828461173a565b505050505050565b600960009054906101000a90046001600160a01b03166001600160a01b031663366ecf5b6040518163ffffffff1660e01b8152600401602060405180830381865afa158015611032573d6000803e3d6000fd5b505050506040513d601f19601f820116820180604052508101906110569190611ae9565b60011461107657604051630fcdfffd60e41b815260040160405180910390fd5b6009546040805163c19d93fb60e01b815290516004926001600160a01b03169163c19d93fb918185019160209190819003860181865afa1580156110be573d6000803e3d6000fd5b505050506040513d601f19601f820116820180604052508101906110e29190611b73565b60048111156110f3576110f3611b5d565b1461111157604051639c2d4c7960e01b815260040160405180910390fd5b806000036111325760405163f9668e2960e01b815260040160405180910390fd5b600081815260026020526040812054900361116057604051632534bdfb60e11b815260040160405180910390fd5b600a54600160a01b900460ff161515600103610b5b5760405163e2f87cff60e01b815260040160405180910390fd5b600a546001600160a01b031633148015906111be57503373dc652c746a8f85e18ce632d97c6118e8a52fa73814155b156111dc576040516365eea35560e11b815260040160405180910390fd5b600a54600160a01b900460ff16151560011461120b57604051633871a85960e21b815260040160405180910390fd5b600a546001600160a01b03163314801561122e5750600a54600160a81b900460ff165b1561124c5760405163f7e8ac6f60e01b815260040160405180910390fd5b604080513381524760208201527f1d3eee4ca001cff39eec6ec7615aacf2f2bd61791273830728ba00ccbd6e1337910160405180910390a161128e33476114cc565b565b600080600154476112a19190611ad6565b90506112c1838260036000878152602001908152602001600020546115ef565b9392505050565b600a546001600160a01b031633148015906112f757503373dc652c746a8f85e18ce632d97c6118e8a52fa73814155b1561131557604051637601acaf60e11b815260040160405180910390fd5b600a54600160a01b900460ff161561134057604051638774100960e01b815260040160405180910390fd5b600a546001600160a01b0316331480156113cf5750600960009054906101000a90046001600160a01b03166001600160a01b0316637de418d56040518163ffffffff1660e01b8152600401602060405180830381865afa1580156113a8573d6000803e3d6000fd5b505050506040513d601f19601f820116820180604052508101906113cc9190611ae9565b15155b156113ed5760405163222e910560e01b815260040160405180910390fd5b73dc652c746a8f85e18ce632d97c6118e8a52fa7371933016114b7576009546040805163262e59e960e01b8152905162093a80926001600160a01b03169163262e59e99160048083019260209291908290030181865afa158015611455573d6000803e3d6000fd5b505050506040513d601f19601f820116820180604052508101906114799190611ae9565b6114839190611ad6565b4210156114a35760405163f6cb8fdf60e01b815260040160405180910390fd5b600a805460ff60a81b1916600160a81b1790555b600a805460ff60a01b1916600160a01b179055565b804710156115215760405162461bcd60e51b815260206004820152601d60248201527f416464726573733a20696e73756666696369656e742062616c616e636500000060448201526064015b60405180910390fd5b6000826001600160a01b03168260405160006040518083038185875af1925050503d806000811461156e576040519150601f19603f3d011682016040523d82523d6000602084013e611573565b606091505b50509050806115ea5760405162461bcd60e51b815260206004820152603a60248201527f416464726573733a20756e61626c6520746f2073656e642076616c75652c207260448201527f6563697069656e74206d617920686176652072657665727465640000000000006064820152608401611518565b505050565b600080548482526002602052604082205483919061160d9086611b02565b6116179190611b19565b6116219190611b94565b949350505050565b60008061163585610b5e565b600954604051631513ff2760e21b81526004810183905291925084916001600160a01b039091169063544ffc9c90602401602060405180830381865afa158015611683573d6000803e3d6000fd5b505050506040513d601f19601f820116820180604052508101906116a79190611ae9565b6009546040516306e4eb8160e41b8152600481018590526001600160a01b038a8116602483015290911690636e4eb81090604401602060405180830381865afa1580156116f8573d6000803e3d6000fd5b505050506040513d601f19601f8201168201806040525081019061171c9190611ae9565b6117269087611b02565b6117309190611b19565b610e439190611b94565b604080516001600160a01b03848116602483015260448083018590528351808403909101815260649092018352602080830180516001600160e01b031663a9059cbb60e01b17905283518085019094528084527f5361666545524332303a206c6f772d6c6576656c2063616c6c206661696c6564908401526115ea928692916000916117ca91851690849061184a565b90508051600014806117eb5750808060200190518101906117eb9190611b3b565b6115ea5760405162461bcd60e51b815260206004820152602a60248201527f5361666545524332303a204552433230206f7065726174696f6e20646964206e6044820152691bdd081cdd58d8d9595960b21b6064820152608401611518565b6060611621848460008585600080866001600160a01b031685876040516118719190611ba7565b60006040518083038185875af1925050503d80600081146118ae576040519150601f19603f3d011682016040523d82523d6000602084013e6118b3565b606091505b50915091506118c4878383876118cf565b979650505050505050565b6060831561193e578251600003611937576001600160a01b0385163b6119375760405162461bcd60e51b815260206004820152601d60248201527f416464726573733a2063616c6c20746f206e6f6e2d636f6e74726163740000006044820152606401611518565b5081611621565b61162183838151156119535781518083602001fd5b8060405162461bcd60e51b81526004016115189190611a4c565b6001600160a01b0381168114610b5b57600080fd5b6000806040838503121561199557600080fd5b82356119a08161196d565b946020939093013593505050565b6020808252825182820181905260009190848201906040850190845b818110156119e6578351835292840192918401916001016119ca565b50909695505050505050565b600060208284031215611a0457600080fd5b81356112c18161196d565b600060208284031215611a2157600080fd5b5035919050565b60005b83811015611a43578181015183820152602001611a2b565b50506000910152565b6020815260008251806020840152611a6b816040850160208701611a28565b601f01601f19169190910160400192915050565b600080600060608486031215611a9457600080fd5b8335611a9f8161196d565b92506020840135611aaf8161196d565b929592945050506040919091013590565b634e487b7160e01b600052601160045260246000fd5b808201808211156108a1576108a1611ac0565b600060208284031215611afb57600080fd5b5051919050565b80820281158282048414176108a1576108a1611ac0565b600082611b3657634e487b7160e01b600052601260045260246000fd5b500490565b600060208284031215611b4d57600080fd5b815180151581146112c157600080fd5b634e487b7160e01b600052602160045260246000fd5b600060208284031215611b8557600080fd5b8151600581106112c157600080fd5b818103818111156108a1576108a1611ac0565b60008251611bb9818460208701611a28565b919091019291505056fea264697066735822122097ddb792d57b200aadbf2a60f07fe082932c255f5ae2c23702cac223e6f1cf2f64736f6c63430008130033","linkReferences":{}},"methodIdentifiers":{"JK_LABS_ADDRESS()":"eef18e17","JK_LABS_CANCEL_DELAY()":"2df56a83","MODULE_TYPE()":"5775029f","cancel()":"ea8a1af0","canceled()":"3f9942ff","canceledByJkLabs()":"071fd35a","creator()":"02d05d3f","erc20Released(address,uint256)":"4b945338","erc20ReleasedToVoter(address,address,uint256)":"d75f69b6","erc20TotalReleased(address)":"3375bbdc","getPayees()":"27f38113","getProposalIdOfRanking(uint256)":"51f63e35","getUnderlyingContest()":"828ce44b","payees(uint256)":"63037b0c","releasable(address,uint256)":"2081d631","releasable(uint256)":"e4bf01a8","releasableToVoter(address,address,uint256)":"7ce4627e","releasableToVoter(address,uint256)":"27273847","release(address,address,uint256)":"8bfb07c9","release(address,uint256)":"0357371d","released(uint256)":"a94d373b","releasedToVoter(address,uint256)":"4df2114b","runReleaseChecks(uint256)":"c7104046","shares(uint256)":"57a858fc","totalReleased()":"e33b7de3","totalShares()":"3a98ef39","underlyingContest()":"f3f44fb7","version()":"54fd4d50","withdrawRewards()":"c7b8981c","withdrawRewards(address)":"42d86693"},"id":58}