{"abi":[{"type":"constructor","inputs":[{"name":"_constructorArgs","type":"tuple","internalType":"struct Governor.ConstructorArgs","components":[{"name":"name","type":"string","internalType":"string"},{"name":"prompt","type":"string","internalType":"string"},{"name":"intConstructorArgs","type":"tuple","internalType":"struct Governor.IntConstructorArgs","components":[{"name":"anyoneCanSubmit","type":"uint256","internalType":"uint256"},{"name":"contestStart","type":"uint256","internalType":"uint256"},{"name":"votingDelay","type":"uint256","internalType":"uint256"},{"name":"votingPeriod","type":"uint256","internalType":"uint256"},{"name":"numAllowedProposalSubmissions","type":"uint256","internalType":"uint256"},{"name":"maxProposalCount","type":"uint256","internalType":"uint256"},{"name":"rankLimit","type":"uint256","internalType":"uint256"},{"name":"percentageToRewards","type":"uint256","internalType":"uint256"},{"name":"costToVote","type":"uint256","internalType":"uint256"},{"name":"priceCurveType","type":"uint256","internalType":"uint256"},{"name":"multiple","type":"uint256","internalType":"uint256"},{"name":"creatorSplitEnabled","type":"uint256","internalType":"uint256"}]},{"name":"jkLabsSplitDestination","type":"address","internalType":"address"},{"name":"metadataFieldsSchema","type":"string","internalType":"string"}]}],"stateMutability":"nonpayable"},{"type":"function","name":"AMOUNT_FOR_SUMBITTER_PROOF","inputs":[],"outputs":[{"name":"","type":"uint256","internalType":"uint256"}],"stateMutability":"view"},{"type":"function","name":"COST_ROUNDING_VALUE","inputs":[],"outputs":[{"name":"","type":"uint256","internalType":"uint256"}],"stateMutability":"view"},{"type":"function","name":"JK_LABS_ADDRESS","inputs":[],"outputs":[{"name":"","type":"address","internalType":"address"}],"stateMutability":"view"},{"type":"function","name":"MAX_FIELDS_METADATA_LENGTH","inputs":[],"outputs":[{"name":"","type":"uint256","internalType":"uint256"}],"stateMutability":"view"},{"type":"function","name":"METADATAS_COUNT","inputs":[],"outputs":[{"name":"","type":"uint256","internalType":"uint256"}],"stateMutability":"view"},{"type":"function","name":"PRICE_CURVE_UPDATE_INTERVAL","inputs":[],"outputs":[{"name":"","type":"uint256","internalType":"uint256"}],"stateMutability":"view"},{"type":"function","name":"SECONDS_IN_DAY","inputs":[],"outputs":[{"name":"","type":"uint256","internalType":"uint256"}],"stateMutability":"view"},{"type":"function","name":"addressTotalCastVoteCount","inputs":[{"name":"","type":"address","internalType":"address"}],"outputs":[{"name":"","type":"uint256","internalType":"uint256"}],"stateMutability":"view"},{"type":"function","name":"addressesThatHaveVoted","inputs":[{"name":"","type":"uint256","internalType":"uint256"}],"outputs":[{"name":"","type":"address","internalType":"address"}],"stateMutability":"view"},{"type":"function","name":"allProposalTotalVotes","inputs":[],"outputs":[{"name":"proposalIdsReturn","type":"uint256[]","internalType":"uint256[]"},{"name":"proposalVoteCountsArrayReturn","type":"uint256[]","internalType":"uint256[]"}],"stateMutability":"view"},{"type":"function","name":"anyoneCanSubmit","inputs":[],"outputs":[{"name":"","type":"uint256","internalType":"uint256"}],"stateMutability":"view"},{"type":"function","name":"cancel","inputs":[],"outputs":[],"stateMutability":"nonpayable"},{"type":"function","name":"canceled","inputs":[],"outputs":[{"name":"","type":"bool","internalType":"bool"}],"stateMutability":"view"},{"type":"function","name":"castVote","inputs":[{"name":"proposalId","type":"uint256","internalType":"uint256"},{"name":"numVotes","type":"uint256","internalType":"uint256"}],"outputs":[{"name":"","type":"uint256","internalType":"uint256"}],"stateMutability":"payable"},{"type":"function","name":"comment","inputs":[{"name":"proposalId","type":"uint256","internalType":"uint256"},{"name":"commentContent","type":"string","internalType":"string"}],"outputs":[{"name":"","type":"uint256","internalType":"uint256"}],"stateMutability":"nonpayable"},{"type":"function","name":"commentIds","inputs":[{"name":"","type":"uint256","internalType":"uint256"}],"outputs":[{"name":"","type":"uint256","internalType":"uint256"}],"stateMutability":"view"},{"type":"function","name":"commentIsDeleted","inputs":[{"name":"","type":"uint256","internalType":"uint256"}],"outputs":[{"name":"","type":"bool","internalType":"bool"}],"stateMutability":"view"},{"type":"function","name":"comments","inputs":[{"name":"","type":"uint256","internalType":"uint256"}],"outputs":[{"name":"author","type":"address","internalType":"address"},{"name":"timestamp","type":"uint256","internalType":"uint256"},{"name":"proposalId","type":"uint256","internalType":"uint256"},{"name":"commentContent","type":"string","internalType":"string"}],"stateMutability":"view"},{"type":"function","name":"contestAddressTotalVotesCast","inputs":[{"name":"userAddress","type":"address","internalType":"address"}],"outputs":[{"name":"userTotalVotesCast","type":"uint256","internalType":"uint256"}],"stateMutability":"view"},{"type":"function","name":"contestDeadline","inputs":[],"outputs":[{"name":"","type":"uint256","internalType":"uint256"}],"stateMutability":"view"},{"type":"function","name":"contestStart","inputs":[],"outputs":[{"name":"","type":"uint256","internalType":"uint256"}],"stateMutability":"view"},{"type":"function","name":"costToVote","inputs":[],"outputs":[{"name":"","type":"uint256","internalType":"uint256"}],"stateMutability":"view"},{"type":"function","name":"creator","inputs":[],"outputs":[{"name":"","type":"address","internalType":"address"}],"stateMutability":"view"},{"type":"function","name":"creatorSplitEnabled","inputs":[],"outputs":[{"name":"","type":"uint256","internalType":"uint256"}],"stateMutability":"view"},{"type":"function","name":"currentPricePerVote","inputs":[],"outputs":[{"name":"","type":"uint256","internalType":"uint256"}],"stateMutability":"view"},{"type":"function","name":"deleteComments","inputs":[{"name":"commentIdsParam","type":"uint256[]","internalType":"uint256[]"}],"outputs":[],"stateMutability":"nonpayable"},{"type":"function","name":"deleteProposals","inputs":[{"name":"proposalIdsToDelete","type":"uint256[]","internalType":"uint256[]"}],"outputs":[],"stateMutability":"nonpayable"},{"type":"function","name":"deletedCommentIds","inputs":[{"name":"","type":"uint256","internalType":"uint256"}],"outputs":[{"name":"","type":"uint256","internalType":"uint256"}],"stateMutability":"view"},{"type":"function","name":"deletedProposalIds","inputs":[{"name":"","type":"uint256","internalType":"uint256"}],"outputs":[{"name":"","type":"uint256","internalType":"uint256"}],"stateMutability":"view"},{"type":"function","name":"getAllAddressesThatHaveVoted","inputs":[],"outputs":[{"name":"","type":"address[]","internalType":"address[]"}],"stateMutability":"view"},{"type":"function","name":"getAllAuthorsOfDeletedProposals","inputs":[],"outputs":[{"name":"","type":"address[]","internalType":"address[]"}],"stateMutability":"view"},{"type":"function","name":"getAllCommentIds","inputs":[],"outputs":[{"name":"","type":"uint256[]","internalType":"uint256[]"}],"stateMutability":"view"},{"type":"function","name":"getAllDeletedCommentIds","inputs":[],"outputs":[{"name":"","type":"uint256[]","internalType":"uint256[]"}],"stateMutability":"view"},{"type":"function","name":"getAllDeletedProposalIds","inputs":[],"outputs":[{"name":"","type":"uint256[]","internalType":"uint256[]"}],"stateMutability":"view"},{"type":"function","name":"getAllProposalAuthors","inputs":[],"outputs":[{"name":"","type":"address[]","internalType":"address[]"}],"stateMutability":"view"},{"type":"function","name":"getAllProposalIds","inputs":[],"outputs":[{"name":"","type":"uint256[]","internalType":"uint256[]"}],"stateMutability":"view"},{"type":"function","name":"getComment","inputs":[{"name":"commentId","type":"uint256","internalType":"uint256"}],"outputs":[{"name":"","type":"tuple","internalType":"struct GovernorEngagement.CommentCore","components":[{"name":"author","type":"address","internalType":"address"},{"name":"timestamp","type":"uint256","internalType":"uint256"},{"name":"proposalId","type":"uint256","internalType":"uint256"},{"name":"commentContent","type":"string","internalType":"string"}]}],"stateMutability":"view"},{"type":"function","name":"getNumProposalsWithThisManyVotes","inputs":[{"name":"votes","type":"uint256","internalType":"uint256"}],"outputs":[{"name":"count","type":"uint256","internalType":"uint256"}],"stateMutability":"view"},{"type":"function","name":"getOnlyProposalIdWithThisManyVotes","inputs":[{"name":"votes","type":"uint256","internalType":"uint256"}],"outputs":[{"name":"proposalId","type":"uint256","internalType":"uint256"}],"stateMutability":"view"},{"type":"function","name":"getProposal","inputs":[{"name":"proposalId","type":"uint256","internalType":"uint256"}],"outputs":[{"name":"","type":"tuple","internalType":"struct Governor.ProposalCore","components":[{"name":"author","type":"address","internalType":"address"},{"name":"exists","type":"bool","internalType":"bool"},{"name":"description","type":"string","internalType":"string"},{"name":"fieldsMetadata","type":"tuple","internalType":"struct Governor.FieldsMetadata","components":[{"name":"addressArray","type":"address[]","internalType":"address[]"},{"name":"stringArray","type":"string[]","internalType":"string[]"},{"name":"uintArray","type":"uint256[]","internalType":"uint256[]"}]}]}],"stateMutability":"view"},{"type":"function","name":"getProposalComments","inputs":[{"name":"proposalId","type":"uint256","internalType":"uint256"}],"outputs":[{"name":"","type":"uint256[]","internalType":"uint256[]"}],"stateMutability":"view"},{"type":"function","name":"getProposalsWithThisManyVotes","inputs":[{"name":"votes","type":"uint256","internalType":"uint256"}],"outputs":[{"name":"proposalsWithThisManyVotes","type":"uint256[]","internalType":"uint256[]"}],"stateMutability":"view"},{"type":"function","name":"getRankIndex","inputs":[{"name":"rank","type":"uint256","internalType":"uint256"}],"outputs":[{"name":"rankIndex","type":"uint256","internalType":"uint256"}],"stateMutability":"view"},{"type":"function","name":"getSortedRanks","inputs":[],"outputs":[{"name":"sortedRanksArray","type":"uint256[]","internalType":"uint256[]"}],"stateMutability":"view"},{"type":"function","name":"getTotalSpentByAddress","inputs":[{"name":"spendingAddress","type":"address","internalType":"address"}],"outputs":[{"name":"totalSpent","type":"uint256","internalType":"uint256"}],"stateMutability":"view"},{"type":"function","name":"getTotalSpentByAddressOnProposal","inputs":[{"name":"spendingAddress","type":"address","internalType":"address"},{"name":"proposalId","type":"uint256","internalType":"uint256"}],"outputs":[{"name":"totalSpent","type":"uint256","internalType":"uint256"}],"stateMutability":"view"},{"type":"function","name":"hashComment","inputs":[{"name":"commentObj","type":"tuple","internalType":"struct GovernorEngagement.CommentCore","components":[{"name":"author","type":"address","internalType":"address"},{"name":"timestamp","type":"uint256","internalType":"uint256"},{"name":"proposalId","type":"uint256","internalType":"uint256"},{"name":"commentContent","type":"string","internalType":"string"}]}],"outputs":[{"name":"","type":"uint256","internalType":"uint256"}],"stateMutability":"pure"},{"type":"function","name":"hashProposal","inputs":[{"name":"proposal","type":"tuple","internalType":"struct Governor.ProposalCore","components":[{"name":"author","type":"address","internalType":"address"},{"name":"exists","type":"bool","internalType":"bool"},{"name":"description","type":"string","internalType":"string"},{"name":"fieldsMetadata","type":"tuple","internalType":"struct Governor.FieldsMetadata","components":[{"name":"addressArray","type":"address[]","internalType":"address[]"},{"name":"stringArray","type":"string[]","internalType":"string[]"},{"name":"uintArray","type":"uint256[]","internalType":"uint256[]"}]}]}],"outputs":[{"name":"","type":"uint256","internalType":"uint256"}],"stateMutability":"pure"},{"type":"function","name":"isOrIsBelowTiedRank","inputs":[{"name":"idx","type":"uint256","internalType":"uint256"}],"outputs":[{"name":"atOrBelowTiedRank","type":"bool","internalType":"bool"}],"stateMutability":"view"},{"type":"function","name":"jkLabsSplitDestination","inputs":[],"outputs":[{"name":"","type":"address","internalType":"address"}],"stateMutability":"view"},{"type":"function","name":"maxProposalCount","inputs":[],"outputs":[{"name":"","type":"uint256","internalType":"uint256"}],"stateMutability":"view"},{"type":"function","name":"metadataFieldsSchema","inputs":[],"outputs":[{"name":"","type":"string","internalType":"string"}],"stateMutability":"view"},{"type":"function","name":"multiple","inputs":[],"outputs":[{"name":"","type":"uint256","internalType":"uint256"}],"stateMutability":"view"},{"type":"function","name":"name","inputs":[],"outputs":[{"name":"","type":"string","internalType":"string"}],"stateMutability":"view"},{"type":"function","name":"numAllowedProposalSubmissions","inputs":[],"outputs":[{"name":"","type":"uint256","internalType":"uint256"}],"stateMutability":"view"},{"type":"function","name":"numSubmissions","inputs":[{"name":"","type":"address","internalType":"address"}],"outputs":[{"name":"","type":"uint256","internalType":"uint256"}],"stateMutability":"view"},{"type":"function","name":"officialRewardsModule","inputs":[],"outputs":[{"name":"","type":"address","internalType":"address"}],"stateMutability":"view"},{"type":"function","name":"percentageToRewards","inputs":[],"outputs":[{"name":"","type":"uint256","internalType":"uint256"}],"stateMutability":"view"},{"type":"function","name":"priceCurveType","inputs":[],"outputs":[{"name":"","type":"uint256","internalType":"uint256"}],"stateMutability":"view"},{"type":"function","name":"prompt","inputs":[],"outputs":[{"name":"","type":"string","internalType":"string"}],"stateMutability":"view"},{"type":"function","name":"proposalAddressVotes","inputs":[{"name":"proposalId","type":"uint256","internalType":"uint256"},{"name":"userAddress","type":"address","internalType":"address"}],"outputs":[{"name":"voteCount","type":"uint256","internalType":"uint256"}],"stateMutability":"view"},{"type":"function","name":"proposalAddressesHaveVoted","inputs":[{"name":"proposalId","type":"uint256","internalType":"uint256"}],"outputs":[{"name":"","type":"address[]","internalType":"address[]"}],"stateMutability":"view"},{"type":"function","name":"proposalAuthors","inputs":[{"name":"","type":"uint256","internalType":"uint256"}],"outputs":[{"name":"","type":"address","internalType":"address"}],"stateMutability":"view"},{"type":"function","name":"proposalComments","inputs":[{"name":"","type":"uint256","internalType":"uint256"},{"name":"","type":"uint256","internalType":"uint256"}],"outputs":[{"name":"","type":"uint256","internalType":"uint256"}],"stateMutability":"view"},{"type":"function","name":"proposalIds","inputs":[{"name":"","type":"uint256","internalType":"uint256"}],"outputs":[{"name":"","type":"uint256","internalType":"uint256"}],"stateMutability":"view"},{"type":"function","name":"proposalIsDeleted","inputs":[{"name":"","type":"uint256","internalType":"uint256"}],"outputs":[{"name":"","type":"bool","internalType":"bool"}],"stateMutability":"view"},{"type":"function","name":"proposalVoteStructs","inputs":[{"name":"","type":"uint256","internalType":"uint256"}],"outputs":[{"name":"proposalVoteCount","type":"uint256","internalType":"uint256"}],"stateMutability":"view"},{"type":"function","name":"proposalVotes","inputs":[{"name":"proposalId","type":"uint256","internalType":"uint256"}],"outputs":[{"name":"voteCount","type":"uint256","internalType":"uint256"}],"stateMutability":"view"},{"type":"function","name":"proposals","inputs":[{"name":"","type":"uint256","internalType":"uint256"}],"outputs":[{"name":"author","type":"address","internalType":"address"},{"name":"exists","type":"bool","internalType":"bool"},{"name":"description","type":"string","internalType":"string"},{"name":"fieldsMetadata","type":"tuple","internalType":"struct Governor.FieldsMetadata","components":[{"name":"addressArray","type":"address[]","internalType":"address[]"},{"name":"stringArray","type":"string[]","internalType":"string[]"},{"name":"uintArray","type":"uint256[]","internalType":"uint256[]"}]}],"stateMutability":"view"},{"type":"function","name":"propose","inputs":[{"name":"proposal","type":"tuple","internalType":"struct Governor.ProposalCore","components":[{"name":"author","type":"address","internalType":"address"},{"name":"exists","type":"bool","internalType":"bool"},{"name":"description","type":"string","internalType":"string"},{"name":"fieldsMetadata","type":"tuple","internalType":"struct Governor.FieldsMetadata","components":[{"name":"addressArray","type":"address[]","internalType":"address[]"},{"name":"stringArray","type":"string[]","internalType":"string[]"},{"name":"uintArray","type":"uint256[]","internalType":"uint256[]"}]}]}],"outputs":[{"name":"","type":"uint256","internalType":"uint256"}],"stateMutability":"nonpayable"},{"type":"function","name":"rankLimit","inputs":[],"outputs":[{"name":"","type":"uint256","internalType":"uint256"}],"stateMutability":"view"},{"type":"function","name":"setJkLabsSplitDestination","inputs":[{"name":"newJkLabsSplitDestination","type":"address","internalType":"address"}],"outputs":[],"stateMutability":"nonpayable"},{"type":"function","name":"setName","inputs":[{"name":"newName","type":"string","internalType":"string"}],"outputs":[{"name":"","type":"string","internalType":"string"}],"stateMutability":"nonpayable"},{"type":"function","name":"setOfficialRewardsModule","inputs":[{"name":"officialRewardsModule_","type":"address","internalType":"address"}],"outputs":[],"stateMutability":"nonpayable"},{"type":"function","name":"setPrompt","inputs":[{"name":"newPrompt","type":"string","internalType":"string"}],"outputs":[{"name":"","type":"string","internalType":"string"}],"stateMutability":"nonpayable"},{"type":"function","name":"sortedRanks","inputs":[{"name":"","type":"uint256","internalType":"uint256"}],"outputs":[{"name":"","type":"uint256","internalType":"uint256"}],"stateMutability":"view"},{"type":"function","name":"state","inputs":[],"outputs":[{"name":"","type":"uint8","internalType":"enum Governor.ContestState"}],"stateMutability":"view"},{"type":"function","name":"totalSpentByAddress","inputs":[{"name":"","type":"address","internalType":"address"}],"outputs":[{"name":"","type":"uint256","internalType":"uint256"}],"stateMutability":"view"},{"type":"function","name":"totalSpentByAddressOnProposal","inputs":[{"name":"","type":"address","internalType":"address"},{"name":"","type":"uint256","internalType":"uint256"}],"outputs":[{"name":"","type":"uint256","internalType":"uint256"}],"stateMutability":"view"},{"type":"function","name":"totalVotesCast","inputs":[],"outputs":[{"name":"","type":"uint256","internalType":"uint256"}],"stateMutability":"view"},{"type":"function","name":"totalVotesCastIsZero","inputs":[],"outputs":[{"name":"totalVotesCastZero","type":"bool","internalType":"bool"}],"stateMutability":"view"},{"type":"function","name":"validateProposalData","inputs":[{"name":"proposal","type":"tuple","internalType":"struct Governor.ProposalCore","components":[{"name":"author","type":"address","internalType":"address"},{"name":"exists","type":"bool","internalType":"bool"},{"name":"description","type":"string","internalType":"string"},{"name":"fieldsMetadata","type":"tuple","internalType":"struct Governor.FieldsMetadata","components":[{"name":"addressArray","type":"address[]","internalType":"address[]"},{"name":"stringArray","type":"string[]","internalType":"string[]"},{"name":"uintArray","type":"uint256[]","internalType":"uint256[]"}]}]}],"outputs":[],"stateMutability":"view"},{"type":"function","name":"verifyProposer","inputs":[],"outputs":[],"stateMutability":"view"},{"type":"function","name":"version","inputs":[],"outputs":[{"name":"","type":"string","internalType":"string"}],"stateMutability":"pure"},{"type":"function","name":"voteStart","inputs":[],"outputs":[{"name":"","type":"uint256","internalType":"uint256"}],"stateMutability":"view"},{"type":"function","name":"votesToProposalIds","inputs":[{"name":"","type":"uint256","internalType":"uint256"},{"name":"","type":"uint256","internalType":"uint256"}],"outputs":[{"name":"","type":"uint256","internalType":"uint256"}],"stateMutability":"view"},{"type":"function","name":"votingDelay","inputs":[],"outputs":[{"name":"","type":"uint256","internalType":"uint256"}],"stateMutability":"view"},{"type":"function","name":"votingPeriod","inputs":[],"outputs":[{"name":"","type":"uint256","internalType":"uint256"}],"stateMutability":"view"},{"type":"event","name":"CommentCreated","inputs":[{"name":"commentId","type":"uint256","indexed":false,"internalType":"uint256"}],"anonymous":false},{"type":"event","name":"CommentsDeleted","inputs":[{"name":"commentIds","type":"uint256[]","indexed":false,"internalType":"uint256[]"}],"anonymous":false},{"type":"event","name":"ContestCanceled","inputs":[],"anonymous":false},{"type":"event","name":"CreatorPaymentReleased","inputs":[{"name":"to","type":"address","indexed":false,"internalType":"address"},{"name":"amount","type":"uint256","indexed":false,"internalType":"uint256"}],"anonymous":false},{"type":"event","name":"JkLabsPaymentReleased","inputs":[{"name":"to","type":"address","indexed":false,"internalType":"address"},{"name":"amount","type":"uint256","indexed":false,"internalType":"uint256"}],"anonymous":false},{"type":"event","name":"JokeraceCreated","inputs":[{"name":"version","type":"string","indexed":false,"internalType":"string"},{"name":"name","type":"string","indexed":false,"internalType":"string"},{"name":"prompt","type":"string","indexed":false,"internalType":"string"},{"name":"creator","type":"address","indexed":false,"internalType":"address"},{"name":"contestStart","type":"uint256","indexed":false,"internalType":"uint256"},{"name":"votingDelay","type":"uint256","indexed":false,"internalType":"uint256"},{"name":"votingPeriod","type":"uint256","indexed":false,"internalType":"uint256"}],"anonymous":false},{"type":"event","name":"OfficialRewardsModuleSet","inputs":[{"name":"oldOfficialRewardsModule","type":"address","indexed":false,"internalType":"address"},{"name":"newOfficialRewardsModule","type":"address","indexed":false,"internalType":"address"}],"anonymous":false},{"type":"event","name":"ProposalCreated","inputs":[{"name":"proposalId","type":"uint256","indexed":false,"internalType":"uint256"},{"name":"proposer","type":"address","indexed":false,"internalType":"address"},{"name":"proposalDescription","type":"string","indexed":false,"internalType":"string"}],"anonymous":false},{"type":"event","name":"ProposalsDeleted","inputs":[{"name":"proposalIds","type":"uint256[]","indexed":false,"internalType":"uint256[]"}],"anonymous":false},{"type":"event","name":"RewardsPaymentReleased","inputs":[{"name":"to","type":"address","indexed":false,"internalType":"address"},{"name":"amount","type":"uint256","indexed":false,"internalType":"uint256"}],"anonymous":false},{"type":"event","name":"VoteCast","inputs":[{"name":"voter","type":"address","indexed":true,"internalType":"address"},{"name":"proposalId","type":"uint256","indexed":false,"internalType":"uint256"},{"name":"numVotes","type":"uint256","indexed":false,"internalType":"uint256"}],"anonymous":false},{"type":"error","name":"AddressFieldMetadataArrayTooLong","inputs":[]},{"type":"error","name":"AuthorIsNotSender","inputs":[{"name":"author","type":"address","internalType":"address"},{"name":"sender","type":"address","internalType":"address"}]},{"type":"error","name":"CanOnlyCancelBeforeFirstVote","inputs":[]},{"type":"error","name":"CanOnlyDeleteWhenQueued","inputs":[]},{"type":"error","name":"CannotCommentWhenCompletedOrCanceled","inputs":[]},{"type":"error","name":"CannotDeleteWhenCompletedOrCanceled","inputs":[]},{"type":"error","name":"CannotSetWhenCompletedOrCanceled","inputs":[]},{"type":"error","name":"CannotUpdateWhenCompletedOrCanceled","inputs":[]},{"type":"error","name":"CannotVoteLessThanOneVoteInPayPerVote","inputs":[]},{"type":"error","name":"CannotVoteOnDeletedProposal","inputs":[]},{"type":"error","name":"ContestAlreadyCanceled","inputs":[]},{"type":"error","name":"ContestMustBeActiveToGetCurrentVotePrice","inputs":[]},{"type":"error","name":"ContestMustBeActiveToVote","inputs":[]},{"type":"error","name":"ContestMustBeQueuedToPropose","inputs":[]},{"type":"error","name":"ContestSubmissionLimitReached","inputs":[{"name":"maxProposalCount","type":"uint256","internalType":"uint256"}]},{"type":"error","name":"DuplicateSubmission","inputs":[{"name":"proposalId","type":"uint256","internalType":"uint256"}]},{"type":"error","name":"EmptyProposalDescription","inputs":[]},{"type":"error","name":"IncorrectCostSent","inputs":[{"name":"msgValue","type":"uint256","internalType":"uint256"},{"name":"costToVote","type":"uint256","internalType":"uint256"}]},{"type":"error","name":"IndexHasNotBeenPopulated","inputs":[]},{"type":"error","name":"MoreThanOneProposalWithThisManyVotes","inputs":[]},{"type":"error","name":"NeedAtLeastOneVoteToVote","inputs":[]},{"type":"error","name":"NotEnoughVotesLeft","inputs":[]},{"type":"error","name":"OfficialModuleMustBeSetToEnter","inputs":[]},{"type":"error","name":"OfficialRewardsModuleCanOnlyBeSetOnce","inputs":[]},{"type":"error","name":"OfficialRewardsModuleMustPointToThisContest","inputs":[]},{"type":"error","name":"OnlyCreatorCanAmend","inputs":[]},{"type":"error","name":"OnlyCreatorCanSetName","inputs":[]},{"type":"error","name":"OnlyCreatorCanSetPrompt","inputs":[]},{"type":"error","name":"OnlyCreatorCanSetRewardsModule","inputs":[]},{"type":"error","name":"OnlyCreatorCanSubmit","inputs":[]},{"type":"error","name":"OnlyCreatorOrAuthorCanDeleteComments","inputs":[{"name":"failedToDeleteCommentId","type":"uint256","internalType":"uint256"}]},{"type":"error","name":"OnlyCreatorOrEntrantCanDelete","inputs":[]},{"type":"error","name":"OnlyCreatorOrJkLabsCanCancel","inputs":[]},{"type":"error","name":"OnlyJkLabsCanAmend","inputs":[]},{"type":"error","name":"PRBMath_MulDiv18_Overflow","inputs":[{"name":"x","type":"uint256","internalType":"uint256"},{"name":"y","type":"uint256","internalType":"uint256"}]},{"type":"error","name":"PRBMath_MulDiv_Overflow","inputs":[{"name":"x","type":"uint256","internalType":"uint256"},{"name":"y","type":"uint256","internalType":"uint256"},{"name":"denominator","type":"uint256","internalType":"uint256"}]},{"type":"error","name":"PRBMath_UD60x18_Exp2_InputTooBig","inputs":[{"name":"x","type":"uint256","internalType":"UD60x18"}]},{"type":"error","name":"PeriodsOutsideBounds","inputs":[]},{"type":"error","name":"RankCannotBeZero","inputs":[]},{"type":"error","name":"RankIsNotInSortedRanks","inputs":[]},{"type":"error","name":"RankLimitCannotBeZero","inputs":[]},{"type":"error","name":"SenderSubmissionLimitReached","inputs":[{"name":"numAllowedProposalSubmissions","type":"uint256","internalType":"uint256"}]},{"type":"error","name":"StringFieldMetadataArrayTooLong","inputs":[]},{"type":"error","name":"UintFieldMetadataArrayTooLong","inputs":[]},{"type":"error","name":"UnexpectedMetadata","inputs":[{"name":"unexpectedMetadata","type":"uint8","internalType":"enum Governor.Metadatas"}]}],"bytecode":{"object":"0x60806040523480156200001157600080fd5b50604051620058a0380380620058a08339810160408190526200003491620003db565b604081015160c001516000558051819060049062000053908262000556565b50602081015160059062000068908262000556565b50604081810151805160075560068054336001600160a01b031991821617909155602082015160085591810151600955606080820151600a55608080830151600b5560a0830151600c5560e0830151600d55610100830151600e55610120830151600f5561014083015160105561016090920151601155830151601280549093166001600160a01b03909116179091558101516013906200010a908262000556565b50604080518082018252600480825263362e313760e01b6020830152600654600854600954600a5495517f9a9bca21e4e51607db64fbdbcd7b2284a909c6a8969821f0d161efbdcae7016096620001779695946005946001600160a01b03909116939092909190620006a7565b60405180910390a1506200019062015180601e62000735565b8160400151604001511180620001b0575062015180816040015160600151115b15620001cf576040516341b2f4db60e01b815260040160405180910390fd5b806040015160c00151600003620001f95760405163769f473560e11b815260040160405180910390fd5b5062000761565b634e487b7160e01b600052604160045260246000fd5b60405161018081016001600160401b03811182821017156200023c576200023c62000200565b60405290565b60405160a081016001600160401b03811182821017156200023c576200023c62000200565b60005b83811015620002845781810151838201526020016200026a565b50506000910152565b600082601f8301126200029f57600080fd5b81516001600160401b0380821115620002bc57620002bc62000200565b604051601f8301601f19908116603f01168101908282118183101715620002e757620002e762000200565b816040528381528660208588010111156200030157600080fd5b6200031484602083016020890162000267565b9695505050505050565b600061018082840312156200033257600080fd5b6200033c62000216565b9050815181526020820151602082015260408201516040820152606082015160608201526080820151608082015260a082015160a082015260c082015160c082015260e082015160e082015261010080830151818301525061012080830151818301525061014080830151818301525061016080830151818301525092915050565b80516001600160a01b0381168114620003d657600080fd5b919050565b600060208284031215620003ee57600080fd5b81516001600160401b03808211156200040657600080fd5b9083019061020082860312156200041c57600080fd5b6200042662000242565b8251828111156200043657600080fd5b62000444878286016200028d565b8252506020830151828111156200045a57600080fd5b62000468878286016200028d565b6020830152506200047d86604085016200031e565b6040820152620004916101c08401620003be565b60608201526101e083015182811115620004aa57600080fd5b620004b8878286016200028d565b60808301525095945050505050565b600181811c90821680620004dc57607f821691505b602082108103620004fd57634e487b7160e01b600052602260045260246000fd5b50919050565b601f8211156200055157600081815260208120601f850160051c810160208610156200052c5750805b601f850160051c820191505b818110156200054d5782815560010162000538565b5050505b505050565b81516001600160401b0381111562000572576200057262000200565b6200058a81620005838454620004c7565b8462000503565b602080601f831160018114620005c25760008415620005a95750858301515b600019600386901b1c1916600185901b1785556200054d565b600085815260208120601f198616915b82811015620005f357888601518255948401946001909101908401620005d2565b5085821015620006125787850151600019600388901b60f8161c191681555b5050505050600190811b01905550565b600081546200063181620004c7565b8085526020600183811680156200065157600181146200066c576200069c565b60ff1985168884015283151560051b8801830195506200069c565b866000528260002060005b85811015620006945781548a820186015290830190840162000677565b890184019650505b505050505092915050565b60e08152600088518060e0840152610100620006ca8282860160208e0162000267565b601f19601f8301168401915080848303016020850152620006ee8183018b62000622565b915050828103604084015262000705818962000622565b6001600160a01b039790971660608401525050608081019390935260a083019190915260c0909101529392505050565b80820281158282048414176200075b57634e487b7160e01b600052601160045260246000fd5b92915050565b61512f80620007716000396000f3fe6080604052600436106104ca5760003560e01c80637d74292511610276578063c7f252d71161014f578063ea8a1af0116100c1578063f5c3641111610085578063f5c3641114610f44578063f61736f414610f64578063f79c017214610f84578063f82e54c014610fb4578063fb9bf8d414610fd4578063fd7971c914610fea57600080fd5b8063ea8a1af014610eb2578063eef18e1714610ec7578063efa90d3614610eef578063f0a7db0a14610f04578063f4f3d7ec14610f2457600080fd5b8063d576b81d11610113578063d576b81d14610dea578063dda54fcf14610e0a578063e031535b14610e37578063e11db9d814610e4c578063e269cefe14610e61578063e41b1f1014610e7a57600080fd5b8063c7f252d714610d30578063c7f758a814610d50578063ca09a4c414610d7d578063cbdc27cb14610d92578063cddb985714610da757600080fd5b8063a119278b116101e8578063b382543f116101ac578063b382543f14610c6c578063b4ac024f14610c81578063bc022c9814610ca1578063c05f410414610cce578063c19d93fb14610cee578063c47f002714610d1057600080fd5b8063a119278b14610ba6578063ac67f80114610bc6578063ae66b8ad14610be6578063aec116b614610c16578063b323580d14610c4c57600080fd5b80638ebb4c151161023a5780638ebb4c1514610aeb5780639174778c14610b1b578063946369b514610b3b5780639b338aa014610b505780639b644a2314610b705780639decae3114610b9057600080fd5b80637d74292514610a535780637de418d514610a6957806380cc8f4314610a7f5780638225c11d14610ab5578063832009af14610ad557600080fd5b80633fb57c92116103a857806354fd4d501161031a5780636d030621116102de5780636d030621146109755780636e4eb810146109955780636fd3636b146109dc57806375e509c5146109f1578063785ddfe514610a1e5780637c65d71114610a3e57600080fd5b806354fd4d50146108e75780635c7107d8146109145780635cb718a11461093457806360ed97a91461094957806361a52a361461095e57600080fd5b80634d24a67f1161036c5780634d24a67f1461083657806350a5e5241461084b57806350c4b6161461086e57806351a41dec1461088e5780635358b80e146108a4578063544ffc9c146108ba57600080fd5b80633fb57c92146107b3578063409fd030146107d3578063437a8ae6146107f3578063476106c8146108095780634a2c96ec1461082057600080fd5b8063102613d8116104415780632c0a3f89116104055780632c0a3f89146107025780632c39805f14610715578063325cc6d914610737578063347cf665146107575780633932abb1146107735780633f9942ff1461078957600080fd5b8063102613d81461065e5780631242b7371461067e57806315dee7cd146106a05780631805c523146106cd578063262e59e9146106ed57600080fd5b806304a1aeae1161049357806304a1aeae1461058c57806305846cae146105b957806306b2193f146105d957806306fdde03146105ef5780630800e300146106115780630aa25e441461063e57600080fd5b80624114a8146104cf578063013cf08b146104f857806302a251a31461052857806302d05d3f1461053e5780630414126a14610576575b600080fd5b3480156104db57600080fd5b506104e560085481565b6040519081526020015b60405180910390f35b34801561050457600080fd5b506105186105133660046144b0565b610fff565b6040516104ef949392919061460b565b34801561053457600080fd5b506104e5600a5481565b34801561054a57600080fd5b5060065461055e906001600160a01b031681565b6040516001600160a01b0390911681526020016104ef565b34801561058257600080fd5b506104e560005481565b34801561059857600080fd5b506104e56105a7366004614669565b60026020526000908152604090205481565b3480156105c557600080fd5b506104e56105d43660046144b0565b61125d565b3480156105e557600080fd5b506104e5600d5481565b3480156105fb57600080fd5b5061060461127e565b6040516104ef9190614686565b34801561061d57600080fd5b5061063161062c3660046144b0565b61130c565b6040516104ef9190614699565b34801561064a57600080fd5b5061055e6106593660046144b0565b611420565b34801561066a57600080fd5b5060125461055e906001600160a01b031681565b34801561068a57600080fd5b5061069361144a565b6040516104ef91906146da565b3480156106ac57600080fd5b506104e56106bb3660046144b0565b601e6020526000908152604090205481565b3480156106d957600080fd5b506104e56106e83660046147ec565b6114a2565b3480156106f957600080fd5b506104e561161f565b6104e5610710366004614832565b61163b565b34801561072157600080fd5b5061072a6116ec565b6040516104ef9190614854565b34801561074357600080fd5b506104e56107523660046144b0565b61174d565b34801561076357600080fd5b506104e5678ac7230489e8000081565b34801561077f57600080fd5b506104e560095481565b34801561079557600080fd5b506017546107a39060ff1681565b60405190151581526020016104ef565b3480156107bf57600080fd5b506104e56107ce3660046144b0565b61175d565b3480156107df57600080fd5b506104e56107ee3660046148a1565b61176d565b3480156107ff57600080fd5b506104e560105481565b34801561081557600080fd5b5061081e61179e565b005b34801561082c57600080fd5b506104e5600f5481565b34801561084257600080fd5b506104e56117dc565b34801561085757600080fd5b506108606117eb565b6040516104ef929190614936565b34801561087a57600080fd5b5061055e6108893660046144b0565b6118b6565b34801561089a57600080fd5b506104e5600e5481565b3480156108b057600080fd5b506104e560075481565b3480156108c657600080fd5b506104e56108d53660046144b0565b6000908152601e602052604090205490565b3480156108f357600080fd5b50604080518082019091526004815263362e313760e01b6020820152610604565b34801561092057600080fd5b506104e561092f3660046144b0565b6118c6565b34801561094057600080fd5b506106936119cd565b34801561095557600080fd5b50610604611a23565b34801561096a57600080fd5b506104e56201518081565b34801561098157600080fd5b506104e5610990366004614832565b611a30565b3480156109a157600080fd5b506104e56109b0366004614964565b6000828152601e602090815260408083206001600160a01b038516845260020190915290205492915050565b3480156109e857600080fd5b50610693611a61565b3480156109fd57600080fd5b506104e5610a0c366004614669565b60196020526000908152604090205481565b348015610a2a57600080fd5b5060205461055e906001600160a01b031681565b348015610a4a57600080fd5b50610604611ab7565b348015610a5f57600080fd5b50601c54156107a3565b348015610a7557600080fd5b506104e5601c5481565b348015610a8b57600080fd5b506104e5610a9a366004614669565b6001600160a01b031660009081526002602052604090205490565b348015610ac157600080fd5b506104e5610ad0366004614994565b611ac4565b348015610ae157600080fd5b506104e5600b5481565b348015610af757600080fd5b50610b0b610b063660046144b0565b611b2e565b6040516104ef94939291906149ce565b348015610b2757600080fd5b506107a3610b363660046144b0565b611beb565b348015610b4757600080fd5b5061072a611c8f565b348015610b5c57600080fd5b5061081e610b6b366004614669565b611cef565b348015610b7c57600080fd5b506104e5610b8b3660046144b0565b611da2565b348015610b9c57600080fd5b506104e560115481565b348015610bb257600080fd5b506104e5610bc1366004614c7d565b611db2565b348015610bd257600080fd5b5061081e610be1366004614cb1565b611dc5565b348015610bf257600080fd5b506107a3610c013660046144b0565b60256020526000908152604090205460ff1681565b348015610c2257600080fd5b506104e5610c31366004614669565b6001600160a01b03166000908152601d602052604090205490565b348015610c5857600080fd5b5061072a610c673660046144b0565b611f5c565b348015610c7857600080fd5b506104e5600a81565b348015610c8d57600080fd5b50610604610c9c366004614ce5565b611fce565b348015610cad57600080fd5b506104e5610cbc3660046144b0565b6000908152601f602052604090205490565b348015610cda57600080fd5b50610693610ce93660046144b0565b61206c565b348015610cfa57600080fd5b50610d036120ce565b6040516104ef9190614d2f565b348015610d1c57600080fd5b50610604610d2b366004614ce5565b61211f565b348015610d3c57600080fd5b5061081e610d4b366004614c7d565b6121b6565b348015610d5c57600080fd5b50610d70610d6b3660046144b0565b61230e565b6040516104ef9190614d49565b348015610d8957600080fd5b506104e5612597565b348015610d9e57600080fd5b5061072a612708565b348015610db357600080fd5b506104e5610dc2366004614da0565b6001600160a01b03919091166000908152600360209081526040808320938352929052205490565b348015610df657600080fd5b506104e5610e053660046144b0565b612838565b348015610e1657600080fd5b506104e5610e25366004614669565b601d6020526000908152604090205481565b348015610e4357600080fd5b506104e5612898565b348015610e5857600080fd5b506106936128aa565b348015610e6d57600080fd5b506104e564e8d4a5100081565b348015610e8657600080fd5b506104e5610e95366004614da0565b600360209081526000928352604080842090915290825290205481565b348015610ebe57600080fd5b5061081e612900565b348015610ed357600080fd5b5061055e73dc652c746a8f85e18ce632d97c6118e8a52fa73881565b348015610efb57600080fd5b506106936129cd565b348015610f1057600080fd5b5061081e610f1f366004614dcc565b612a23565b348015610f3057600080fd5b5061081e610f3f366004614669565b612b81565b348015610f5057600080fd5b506104e5610f5f3660046144b0565b612cbe565b348015610f7057600080fd5b506104e5610f7f366004614832565b612cce565b348015610f9057600080fd5b506107a3610f9f3660046144b0565b60166020526000908152604090205460ff1681565b348015610fc057600080fd5b50610693610fcf3660046144b0565b612cea565b348015610fe057600080fd5b506104e5600c5481565b348015610ff657600080fd5b506104e5603c81565b601860205260009081526040902080546001820180546001600160a01b03831693600160a01b90930460ff1692919061103790614e40565b80601f016020809104026020016040519081016040528092919081815260200182805461106390614e40565b80156110b05780601f10611085576101008083540402835291602001916110b0565b820191906000526020600020905b81548152906001019060200180831161109357829003601f168201915b505050505090806002016040518060600160405290816000820180548060200260200160405190810160405280929190818152602001828054801561111e57602002820191906000526020600020905b81546001600160a01b03168152600190910190602001808311611100575b5050505050815260200160018201805480602002602001604051908101604052809291908181526020016000905b828210156111f857838290600052602060002001805461116b90614e40565b80601f016020809104026020016040519081016040528092919081815260200182805461119790614e40565b80156111e45780601f106111b9576101008083540402835291602001916111e4565b820191906000526020600020905b8154815290600101906020018083116111c757829003601f168201915b50505050508152602001906001019061114c565b5050505081526020016002820180548060200260200160405190810160405280929190818152602001828054801561124f57602002820191906000526020600020905b81548152602001906001019080831161123b575b505050505081525050905084565b6015818154811061126d57600080fd5b600091825260209091200154905081565b6004805461128b90614e40565b80601f01602080910402602001604051908101604052809291908181526020018280546112b790614e40565b80156113045780601f106112d957610100808354040283529160200191611304565b820191906000526020600020905b8154815290600101906020018083116112e757829003601f168201915b505050505081565b611340604051806080016040528060006001600160a01b031681526020016000815260200160008152602001606081525090565b600082815260236020908152604091829020825160808101845281546001600160a01b0316815260018201549281019290925260028101549282019290925260038201805491929160608401919061139790614e40565b80601f01602080910402602001604051908101604052809291908181526020018280546113c390614e40565b80156114105780601f106113e557610100808354040283529160200191611410565b820191906000526020600020905b8154815290600101906020018083116113f357829003601f168201915b5050505050815250509050919050565b601a818154811061143057600080fd5b6000918252602090912001546001600160a01b0316905081565b6060601580548060200260200160405190810160405280929190818152602001828054801561149857602002820191906000526020600020905b815481526020019060010190808311611484575b5050505050905090565b600060046114ae6120ce565b60048111156114bf576114bf614d19565b14806114e3575060026114d06120ce565b60048111156114e1576114e1614d19565b145b156115005760405162f3e73d60e81b815260040160405180910390fd5b6040805160808101825233815242602082015290810184905260608101839052600061152b8261176d565b6021805460018082019092557f3a6357012c1a3ae0a17d304c9920310382d968ebcc4b1771f41c6b304205b57001829055600082815260236020908152604091829020865181546001600160a01b0319166001600160a01b03909116178155908601519281019290925584015160028201556060840151919250839160038201906115b69082614ec8565b505050600085815260246020908152604080832080546001810182559084529190922001829055517f5a1a930fed43f34b3a07db782ebcac28a661c273e662bb98458cfba5a8ccd2209061160d9083815260200190565b60405180910390a19150505b92915050565b6000600a5461162c612898565b6116369190614f9d565b905090565b600080611649600184612d4a565b60008581526016602052604090205490915060ff161561167c576040516358f1119560e01b815260040160405180910390fd5b61168581612de7565b33600090815260026020526040812080548392906116a4908490614f9d565b9091555050336000908152600360209081526040808320878452909152812080548392906116d3908490614f9d565b909155506116e49050843385612fa3565b949350505050565b6060601b80548060200260200160405190810160405280929190818152602001828054801561149857602002820191906000526020600020905b81546001600160a01b03168152600190910190602001808311611726575050505050905090565b6001818154811061126d57600080fd5b6022818154811061126d57600080fd5b6000816040516020016117809190614699565b60408051601f19818403018152919052805160209091012092915050565b6007546001141580156117bc57506006546001600160a01b03163314155b156117da57604051639a4a529360e01b815260040160405180910390fd5b565b6117e860006001614f9d565b81565b60608060006117f86129cd565b9050600081516001600160401b03811115611815576118156146ed565b60405190808252806020026020018201604052801561183e578160200160208202803683370190505b50905060005b82518110156118ac57601e600084838151811061186357611863614fb0565b602002602001015181526020019081526020016000206000015482828151811061188f5761188f614fb0565b6020908102919091010152806118a481614fc6565b915050611844565b5090939092509050565b601b818154811061143057600080fd5b6000816000036118e957604051630ec90a1760e31b815260040160405180910390fd5b6001805460408051602080840282018101909252828152919260009291849083018282801561193757602002820191906000526020600020905b815481526020019060010190808311611923575b5050505050905060006001905060005b838110156119b35761197e83828151811061196457611964614fb0565b60200260200101516000908152601f602052604090205490565b156119a1578582036119935795945050505050565b8161199d81614fc6565b9250505b806119ab81614fc6565b915050611947565b50604051632cc2ab7360e11b815260040160405180910390fd5b606060228054806020026020016040519081016040528092919081815260200182805480156114985760200282019190600052602060002090815481526020019060010190808311611484575050505050905090565b6013805461128b90614e40565b601f6020528160005260406000208181548110611a4c57600080fd5b90600052602060002001600091509150505481565b606060018054806020026020016040519081016040528092919081815260200182805480156114985760200282019190600052602060002090815481526020019060010190808311611484575050505050905090565b6005805461128b90614e40565b600080611ad96020546001600160a01b031690565b6001600160a01b031603611b005760405163fa4f07a360e01b815260040160405180910390fd5b611b0861179e565b611b14610d4b83614fdf565b6000611b27611b2284614fdf565b613097565b9392505050565b60236020526000908152604090208054600182015460028301546003840180546001600160a01b03909416949293919291611b6890614e40565b80601f0160208091040260200160405190810160405280929190818152602001828054611b9490614e40565b8015611be15780601f10611bb657610100808354040283529160200191611be1565b820191906000526020600020905b815481529060010190602001808311611bc457829003601f168201915b5050505050905084565b60018054600091611bfb91614feb565b821115611c1b576040516365d6f35160e11b815260040160405180910390fd5b60005b611c29836001614f9d565b811015611c86576001611c6560018381548110611c4857611c48614fb0565b90600052602060002001546000908152601f602052604090205490565b1115611c745750600192915050565b80611c7e81614fc6565b915050611c1e565b50600092915050565b6060601a805480602002602001604051908101604052809291908181526020018280548015611498576020028201919060005260206000209081546001600160a01b03168152600190910190602001808311611726575050505050905090565b3373dc652c746a8f85e18ce632d97c6118e8a52fa73814611d235760405163de07280160e01b815260040160405180910390fd5b6004611d2d6120ce565b6004811115611d3e57611d3e614d19565b1480611d6257506002611d4f6120ce565b6004811115611d6057611d60614d19565b145b15611d80576040516398fe99a560e01b815260040160405180910390fd5b601280546001600160a01b0319166001600160a01b0392909216919091179055565b6014818154811061126d57600080fd5b6000816040516020016117809190614d49565b6004611dcf6120ce565b6004811115611de057611de0614d19565b1480611e0457506002611df16120ce565b6004811115611e0257611e02614d19565b145b15611e2257604051631e71d28360e21b815260040160405180910390fd5b805160005b81811015611f20576000838281518110611e4357611e43614fb0565b60209081029190910101516006549091506001600160a01b03163314801590611e8357506000818152602360205260409020546001600160a01b03163314155b15611ea957604051635450763d60e11b8152600481018290526024015b60405180910390fd5b60008181526025602052604090205460ff16611f0d576000818152602560205260408120805460ff191660019081179091556022805491820181559091527f61035b26e3e9eee00e0d72fd1ee8ddca6894550dca6916ea2ac6baa90d11e510018190555b5080611f1881614fc6565b915050611e27565b507f788a4349d25bc08585923ae212bce8bb346a623bce753eeecb85fd9ce58dcb4b82604051611f5091906146da565b60405180910390a15050565b6000818152601e60209081526040918290206001810180548451818502810185019095528085526060949293830182828015611fc157602002820191906000526020600020905b81546001600160a01b03168152600190910190602001808311611fa3575b5050505050915050919050565b6006546060906001600160a01b03163314611ffc57604051630aca3d7160e11b815260040160405180910390fd5b60046120066120ce565b600481111561201757612017614d19565b148061203b575060026120286120ce565b600481111561203957612039614d19565b145b1561205957604051635b0747e760e01b815260040160405180910390fd5b60056120658382614ec8565b5090919050565b6000818152602460209081526040918290208054835181840281018401909452808452606093928301828280156120c257602002820191906000526020600020905b8154815260200190600101908083116120ae575b50505050509050919050565b60175460009060ff16156120e25750600290565b42600854106120f15750600090565b426120fa612898565b106121055750600390565b4261210e61161f565b106121195750600190565b50600490565b6006546060906001600160a01b0316331461214d57604051637d1cb2b160e01b815260040160405180910390fd5b60046121576120ce565b600481111561216857612168614d19565b148061218c575060026121796120ce565b600481111561218a5761218a614d19565b145b156121aa57604051635b0747e760e01b815260040160405180910390fd5b60046120658382614ec8565b80516001600160a01b031633146121f457805160405163fbbf4d7f60e01b81526001600160a01b039091166004820152336024820152604401611ea0565b60005b61220360006001614f9d565b8110156122e457600081801561221b5761221b614d19565b9050600081801561222e5761222e614d19565b036122b65760608301515151600a101561225b57604051631e38b1b160e11b815260040160405180910390fd5b600a8360600151602001515111156122865760405163a3b7dd7760e01b815260040160405180910390fd5b600a8360600151604001515111156122b15760405163f696406560e01b815260040160405180910390fd5b6122d1565b8060405163d2277d4960e01b8152600401611ea09190614ffe565b50806122dc81614fc6565b9150506121f7565b5080604001515160000361230b5760405163e182473360e01b815260040160405180910390fd5b50565b6123166142fe565b600082815260186020908152604091829020825160808101845281546001600160a01b0381168252600160a01b900460ff16151592810192909252600181018054929391929184019161236890614e40565b80601f016020809104026020016040519081016040528092919081815260200182805461239490614e40565b80156123e15780601f106123b6576101008083540402835291602001916123e1565b820191906000526020600020905b8154815290600101906020018083116123c457829003601f168201915b50505050508152602001600282016040518060600160405290816000820180548060200260200160405190810160405280929190818152602001828054801561245357602002820191906000526020600020905b81546001600160a01b03168152600190910190602001808311612435575b5050505050815260200160018201805480602002602001604051908101604052809291908181526020016000905b8282101561252d5783829060005260206000200180546124a090614e40565b80601f01602080910402602001604051908101604052809291908181526020018280546124cc90614e40565b80156125195780601f106124ee57610100808354040283529160200191612519565b820191906000526020600020905b8154815290600101906020018083116124fc57829003601f168201915b505050505081526020019060010190612481565b5050505081526020016002820180548060200260200160405190810160405280929190818152602001828054801561258457602002820191906000526020600020905b815481526020019060010190808311612570575b5050509190925250505090525092915050565b600060016125a36120ce565b60048111156125b4576125b4614d19565b146125d25760405163a6f7b85360e01b815260040160405180910390fd5b6000600f5480156125e5576125e5614d19565b80156125f3576125f3614d19565b03612701576000603c612604612898565b61260f906001614f9d565b6126199042614feb565b6126239190615028565b9050600061269061267c61264561264285670de0b6b3a764000061504a565b90565b612677612661600a54670de0b6b3a7640000612642919061504a565b612677612642603c670de0b6b3a764000061504a565b613314565b68056bc75e2d6310000061332c565b61332c565b905060006126b28261268b6126a460105490565b670de0b6b3a7640000613314565b905060006126bf8261333b565b905060006126db6126426126d56126a4600e5490565b8461332c565b905064e8d4a510006126ed8183615028565b6126f7919061504a565b9550505050505090565b50600e5490565b60606000601580548060200260200160405190810160405280929190818152602001828054801561275857602002820191906000526020600020905b815481526020019060010190808311612744575b50505050509050600081516001600160401b0381111561277a5761277a6146ed565b6040519080825280602002602001820160405280156127a3578160200160208202803683370190505b50905060005b825181101561283157601860008483815181106127c8576127c8614fb0565b6020026020010151815260200190815260200160002060000160009054906101000a90046001600160a01b031682828151811061280757612807614fb0565b6001600160a01b03909216602092830291909101909101528061282981614fc6565b9150506127a9565b5092915050565b6000818152601f602052604081205460011461286757604051633832a15560e21b815260040160405180910390fd5b6000828152601f60205260408120805490919061288657612886614fb0565b90600052602060002001549050919050565b60006009546008546116369190614f9d565b606060218054806020026020016040519081016040528092919081815260200182805480156114985760200282019190600052602060002090815481526020019060010190808311611484575050505050905090565b6006546001600160a01b0316331480159061292f57503373dc652c746a8f85e18ce632d97c6118e8a52fa73814155b1561294d57604051637601acaf60e11b815260040160405180910390fd5b60175460ff161561297157604051636f79584d60e01b815260040160405180910390fd5b601c54156001146129955760405163043d8d1b60e21b815260040160405180910390fd5b6017805460ff191660011790556040517f4cd963a081760a54f571abc0f1db4dde31b4a07d8d6da3e844b8c6f47eeaaa4290600090a1565b606060148054806020026020016040519081016040528092919081815260200182805480156114985760200282019190600052602060002090815481526020019060010190808311611484575050505050905090565b6003612a2d6120ce565b6004811115612a3e57612a3e614d19565b14612a5c5760405163554806bb60e11b815260040160405180910390fd5b60005b81811015612b50576000838383818110612a7b57612a7b614fb0565b60065460209190910292909201359250506001600160a01b03163314801590612abb57506000818152601860205260409020546001600160a01b03163314155b15612ad95760405163018db70560e11b815260040160405180910390fd5b60008181526016602052604090205460ff16612b3d576000818152601660205260408120805460ff191660019081179091556015805491820181559091527f55f448fdea98c4d29eb340757ef0a66cd03dbb9538908a6a81d96026b71ec475018190555b5080612b4881614fc6565b915050612a5f565b507f75a75cf5c561892f4cc5b26c1b8e933849b42238c96dd073d080d1ae96c514166014604051611f509190615061565b6006546001600160a01b03163314612bac57604051630f4cb1bd60e11b815260040160405180910390fd5b6020546001600160a01b031615612bd657604051630ff4b80b60e01b815260040160405180910390fd5b306001600160a01b0316816001600160a01b031663f3f44fb76040518163ffffffff1660e01b8152600401602060405180830381865afa158015612c1e573d6000803e3d6000fd5b505050506040513d601f19601f82011682018060405250810190612c42919061509c565b6001600160a01b031614612c6957604051635b310aaf60e01b815260040160405180910390fd5b602080546001600160a01b038381166001600160a01b03198316811784556040805192909316808352938201527f753a2cf8d360cff631674504210913e48247f8e56b3e6d2006c2103d4095999f9101611f50565b6021818154811061126d57600080fd5b60246020528160005260406000208181548110611a4c57600080fd5b6000818152601f60209081526040918290208054835181840281018401909452808452606093928301828280156120c257602002820191906000526020600020908154815260200190600101908083116120ae5750505050509050919050565b6000806001846001811115612d6157612d61614d19565b03612dba57670de0b6b3a7640000831015612d8f576040516346ddb8d160e01b815260040160405180910390fd5b612da1670de0b6b3a764000084615028565b612da9612597565b612db3919061504a565b9050612dbe565b5060005b803414611b27576040516372c3eaa760e01b815234600482015260248101829052604401611ea0565b801561230b5760006064600d546064612e009190614feb565b612e0a903461504a565b612e149190615028565b90508015612f1a576000601154600114612e2f576000612e3a565b612e3a600283615028565b90508015612e9f57600654612e58906001600160a01b031682613391565b600654604080516001600160a01b039092168252602082018390527f6dff55337c8458ae8c536a63869a48bc33541733422a796390c131d91f4238ed910160405180910390a15b601254612ebe906001600160a01b0316612eb98385614feb565b613391565b6012547f9df63d1c00d2e332f573be591c0579caafb256b2c5a17abcc8ad471cccda1b81906001600160a01b0316612ef68385614feb565b604080516001600160a01b03909316835260208301919091520160405180910390a1505b6000612f268234614feb565b90508015612f9e57612f49612f436020546001600160a01b031690565b82613391565b7f2c7d70ceb5af79cc37f1832a7908bad1815c2d634ae0f5480dac8eaecddc2e67612f7c6020546001600160a01b031690565b604080516001600160a01b039092168252602082018490520160405180910390a15b505050565b60006001612faf6120ce565b6004811115612fc057612fc0614d19565b14612fde5760405163f569a2b960e01b815260040160405180910390fd5b81600003612fff5760405163502e1c2960e01b815260040160405180910390fd5b61300a8484846134aa565b601b80546001810182556000919091527f3ad8aa4f87544323a9d1e5dd902f40c356527a7955687113db5f9a85ad579dc10180546001600160a01b0319163317905560408051858152602081018490526001600160a01b038516917fb4cfecf70861b7b150d8337780d34fb4cbc2114b5fb1fe51a5c5fca1849f7274910160405180910390a25092915050565b600060036130a36120ce565b60048111156130b4576130b4614d19565b146130d25760405163152839c360e31b815260040160405180910390fd5b600b54336000908152601960205260409020540361310957600b54604051632bd6d93960e21b8152600401611ea091815260200190565b600c5460155460145461311c9190614feb565b0361314057600c546040516302217f5360e51b8152600401611ea091815260200190565b600061314b83611db2565b600081815260186020526040902054909150600160a01b900460ff16156131885760405163baffc42360e01b815260048101829052602401611ea0565b6014805460018181019092557fce6d7b5282bd9a3661ae061feed1dbda4e52ab073b1f9285be6e155d9c38d4ec0182905560008281526018602090815260409182902086518154928801511515600160a01b026001600160a81b03199093166001600160a01b039091161791909117815590850151859282019061320c9082614ec8565b50606082015180518051600284019161322a91839160200190614352565b50602082810151805161324392600185019201906143b7565b506040820151805161325f916002840191602090910190614409565b5050336000908152601960205260408120805460019550909350909150613287908490614f9d565b9091555050601a80546001810182556000919091527f057c384a7d1c54f3a1b2e5e67b2617b8224fdfd1ea7234eea573a6ff665ff63e0180546001600160a01b0319163390811790915560408085015190517f7585f467599d0f008985f231af99293be388626ac16ca59505c2f8f88969cd63926133069285926150b9565b60405180910390a192915050565b6000611b2761264284670de0b6b3a7640000856135eb565b6000611b2761264284846136bf565b600081680a688906bd8affffff81111561336b5760405163b3b6ba1f60e01b815260048101849052602401611ea0565b6000613383670de0b6b3a7640000604084901b615028565b90506116e461264282613775565b804710156133e15760405162461bcd60e51b815260206004820152601d60248201527f416464726573733a20696e73756666696369656e742062616c616e63650000006044820152606401611ea0565b6000826001600160a01b03168260405160006040518083038185875af1925050503d806000811461342e576040519150601f19603f3d011682016040523d82523d6000602084013e613433565b606091505b5050905080612f9e5760405162461bcd60e51b815260206004820152603a60248201527f416464726573733a20756e61626c6520746f2073656e642076616c75652c207260448201527f6563697069656e74206d617920686176652072657665727465640000000000006064820152608401611ea0565b6000838152601e602090815260408083206001600160a01b03861684526002810190925282205481549192901591849184916134e7908490614f9d565b90915550506001600160a01b038416600090815260028301602052604081208054859290613516908490614f9d565b90915550508015613551576001828101805491820181556000908152602090200180546001600160a01b0319166001600160a01b0386161790555b6001600160a01b0384166000908152601d602052604081208054859290613579908490614f9d565b9250508190555082601c60008282546135929190614f9d565b9091555050815460006135a58583614feb565b905080156135b7576135b78782613ed5565b6000828152601f60209081526040822080546001810182559083529120018790556135e2818361400c565b50505050505050565b60008080600019858709858702925082811083820303915050806000036136255783828161361b5761361b615012565b0492505050611b27565b83811061365657604051630c740aef60e31b8152600481018790526024810186905260448101859052606401611ea0565b60008486880960026001871981018816978890046003810283188082028403028082028403028082028403028082028403028082028403029081029092039091026000889003889004909101858311909403939093029303949094049190911702949350505050565b60008080600019848609848602925082811083820303915050806000036136f35750670de0b6b3a764000090049050611619565b670de0b6b3a7640000811061372557604051635173648d60e01b81526004810186905260248101859052604401611ea0565b6000670de0b6b3a764000085870962040000818503049310909103600160ee1b02919091177faccb18165bd6fe31ae1cf318dc5b51eee0e1ba569b88cd74c1773b91fac106690291505092915050565b600160bf1b67ff00000000000000821615613882576780000000000000008216156137a95768016a09e667f3bcc9090260401c5b6740000000000000008216156137c8576801306fe0a31b7152df0260401c5b6720000000000000008216156137e7576801172b83c7d517adce0260401c5b6710000000000000008216156138065768010b5586cf9890f62a0260401c5b670800000000000000821615613825576801059b0d31585743ae0260401c5b67040000000000000082161561384457680102c9a3e778060ee70260401c5b6702000000000000008216156138635768010163da9fb33356d80260401c5b67010000000000000082161561388257680100b1afa5abcbed610260401c5b66ff0000000000008216156139815766800000000000008216156138af5768010058c86da1c09ea20260401c5b66400000000000008216156138cd576801002c605e2e8cec500260401c5b66200000000000008216156138eb57680100162f3904051fa10260401c5b6610000000000000821615613909576801000b175effdc76ba0260401c5b660800000000000082161561392757680100058ba01fb9f96d0260401c5b66040000000000008216156139455768010002c5cc37da94920260401c5b6602000000000000821615613963576801000162e525ee05470260401c5b66010000000000008216156139815768010000b17255775c040260401c5b65ff0000000000821615613a7757658000000000008216156139ac576801000058b91b5bc9ae0260401c5b654000000000008216156139c957680100002c5c89d5ec6d0260401c5b652000000000008216156139e65768010000162e43f4f8310260401c5b65100000000000821615613a0357680100000b1721bcfc9a0260401c5b65080000000000821615613a205768010000058b90cf1e6e0260401c5b65040000000000821615613a3d576801000002c5c863b73f0260401c5b65020000000000821615613a5a57680100000162e430e5a20260401c5b65010000000000821615613a77576801000000b1721835510260401c5b64ff00000000821615613b6457648000000000821615613aa057680100000058b90c0b490260401c5b644000000000821615613abc5768010000002c5c8601cc0260401c5b642000000000821615613ad8576801000000162e42fff00260401c5b641000000000821615613af45768010000000b17217fbb0260401c5b640800000000821615613b10576801000000058b90bfce0260401c5b640400000000821615613b2c57680100000002c5c85fe30260401c5b640200000000821615613b485768010000000162e42ff10260401c5b640100000000821615613b6457680100000000b17217f80260401c5b63ff000000821615613c48576380000000821615613b8b5768010000000058b90bfc0260401c5b6340000000821615613ba6576801000000002c5c85fe0260401c5b6320000000821615613bc157680100000000162e42ff0260401c5b6310000000821615613bdc576801000000000b17217f0260401c5b6308000000821615613bf757680100000000058b90c00260401c5b6304000000821615613c125768010000000002c5c8600260401c5b6302000000821615613c2d576801000000000162e4300260401c5b6301000000821615613c485768010000000000b172180260401c5b62ff0000821615613d235762800000821615613c6d576801000000000058b90c0260401c5b62400000821615613c8757680100000000002c5c860260401c5b62200000821615613ca15768010000000000162e430260401c5b62100000821615613cbb57680100000000000b17210260401c5b62080000821615613cd55768010000000000058b910260401c5b62040000821615613cef576801000000000002c5c80260401c5b62020000821615613d0957680100000000000162e40260401c5b62010000821615613d23576801000000000000b1720260401c5b61ff00821615613df557618000821615613d4657680100000000000058b90260401c5b614000821615613d5f5768010000000000002c5d0260401c5b612000821615613d78576801000000000000162e0260401c5b611000821615613d915768010000000000000b170260401c5b610800821615613daa576801000000000000058c0260401c5b610400821615613dc357680100000000000002c60260401c5b610200821615613ddc57680100000000000001630260401c5b610100821615613df557680100000000000000b10260401c5b60ff821615613ebe576080821615613e1657680100000000000000590260401c5b6040821615613e2e576801000000000000002c0260401c5b6020821615613e4657680100000000000000160260401c5b6010821615613e5e576801000000000000000b0260401c5b6008821615613e7657680100000000000000060260401c5b6004821615613e8e57680100000000000000030260401c5b6002821615613ea657680100000000000000010260401c5b6001821615613ebe57680100000000000000010260401c5b670de0b6b3a76400000260409190911c60bf031c90565b6000818152601f6020908152604080832080548251818502810185019093528083529192909190830182828015613f2b57602002820191906000526020600020905b815481526020019060010190808311613f17575b5050505050905060005b81518110156140065783828281518110613f5157613f51614fb0565b602002602001015103613ff4578160018351613f6d9190614feb565b81518110613f7d57613f7d614fb0565b6020026020010151601f60008581526020019081526020016000208281548110613fa957613fa9614fb0565b9060005260206000200181905550601f6000848152602001908152602001600020805480613fd957613fd96150e3565b60019003818190600052602060002001600090559055614006565b80613ffe81614fc6565b915050613f35565b50505050565b6001805460408051602080840282018101909252828152919260009291849083018282801561405a57602002820191906000526020600020905b815481526020019060010190808311614046575b50505050509050816000036140a05750506001805480820182556000919091527fb10e2d527612073b26eecdfd717e6a320cf44b4afac2b0732d9fcbe2b7fa0cf6015550565b806140ac600184614feb565b815181106140bc576140bc614fb0565b60200260200101518310156141115760005482036140da5750505050565b50506001805480820182556000919091527fb10e2d527612073b26eecdfd717e6a320cf44b4afac2b0732d9fcbe2b7fa0cf6015550565b614006848484846000805b838110156141865782818151811061413657614136614fb0565b6020026020010151850361414b575050614006565b82818151811061415d5761415d614fb0565b602002602001015185111561417457809150614186565b8061417e81614fc6565b91505061411c565b50600080861180156141a457506000868152601f6020526040902054155b905060008180156141cd5750868484815181106141c3576141c3614fb0565b6020026020010151145b6142d5576141dc600186614feb565b83146142845760006141ef846001614f9d565b90505b858110156142825784614206600183614feb565b8151811061421657614216614fb0565b60200260200101516001828154811061423157614231614fb0565b60009182526020909120015582801561426257508785828151811061425857614258614fb0565b6020026020010151145b156142705760019150614282565b8061427a81614fc6565b9150506141f2565b505b80158015614293575060005485105b156142d5576001846142a58288614feb565b815181106142b5576142b5614fb0565b602090810291909101810151825460018101845560009384529190922001555b85600184815481106142e9576142e9614fb0565b60009182526020909120015550505050505050565b604051806080016040528060006001600160a01b031681526020016000151581526020016060815260200161434d60405180606001604052806060815260200160608152602001606081525090565b905290565b8280548282559060005260206000209081019282156143a7579160200282015b828111156143a757825182546001600160a01b0319166001600160a01b03909116178255602090920191600190910190614372565b506143b3929150614444565b5090565b8280548282559060005260206000209081019282156143fd579160200282015b828111156143fd57825182906143ed9082614ec8565b50916020019190600101906143d7565b506143b3929150614459565b8280548282559060005260206000209081019282156143a7579160200282015b828111156143a7578251825591602001919060010190614429565b5b808211156143b35760008155600101614445565b808211156143b357600061446d8282614476565b50600101614459565b50805461448290614e40565b6000825580601f10614492575050565b601f01602090049060005260206000209081019061230b9190614444565b6000602082840312156144c257600080fd5b5035919050565b6000815180845260005b818110156144ef576020818501810151868301820152016144d3565b506000602082860101526020601f19601f83011685010191505092915050565b600081518084526020808501945080840160005b8381101561453f57815187529582019590820190600101614523565b509495945050505050565b805160608084528151908401819052600091602091908201906080860190845b8181101561458f5783516001600160a01b03168352928401929184019160010161456a565b505084830151868203878501528051808352908401925081840190600581901b8301850160005b828110156145e457601f198583030184526145d28287516144c9565b958701959387019391506001016145b6565b506040880151955088810360408a01526145fe818761450f565b9998505050505050505050565b6001600160a01b03851681528315156020820152608060408201819052600090614637908301856144c9565b8281036060840152614649818561454a565b979650505050505050565b6001600160a01b038116811461230b57600080fd5b60006020828403121561467b57600080fd5b8135611b2781614654565b602081526000611b2760208301846144c9565b6020815260018060a01b0382511660208201526020820151604082015260408201516060820152600060608301516080808401526116e460a08401826144c9565b602081526000611b27602083018461450f565b634e487b7160e01b600052604160045260246000fd5b604051608081016001600160401b0381118282101715614725576147256146ed565b60405290565b604051606081016001600160401b0381118282101715614725576147256146ed565b604051601f8201601f191681016001600160401b0381118282101715614775576147756146ed565b604052919050565b600082601f83011261478e57600080fd5b81356001600160401b038111156147a7576147a76146ed565b6147ba601f8201601f191660200161474d565b8181528460208386010111156147cf57600080fd5b816020850160208301376000918101602001919091529392505050565b600080604083850312156147ff57600080fd5b8235915060208301356001600160401b0381111561481c57600080fd5b6148288582860161477d565b9150509250929050565b6000806040838503121561484557600080fd5b50508035926020909101359150565b6020808252825182820181905260009190848201906040850190845b818110156148955783516001600160a01b031683529284019291840191600101614870565b50909695505050505050565b6000602082840312156148b357600080fd5b81356001600160401b03808211156148ca57600080fd5b90830190608082860312156148de57600080fd5b6148e6614703565b82356148f181614654565b80825250602083013560208201526040830135604082015260608301358281111561491b57600080fd5b6149278782860161477d565b60608301525095945050505050565b604081526000614949604083018561450f565b828103602084015261495b818561450f565b95945050505050565b6000806040838503121561497757600080fd5b82359150602083013561498981614654565b809150509250929050565b6000602082840312156149a657600080fd5b81356001600160401b038111156149bc57600080fd5b820160808185031215611b2757600080fd5b60018060a01b03851681528360208201528260408201526080606082015260006149fb60808301846144c9565b9695505050505050565b60006001600160401b03821115614a1e57614a1e6146ed565b5060051b60200190565b600082601f830112614a3957600080fd5b81356020614a4e614a4983614a05565b61474d565b82815260059290921b84018101918181019086841115614a6d57600080fd5b8286015b84811015614aac5780356001600160401b03811115614a905760008081fd5b614a9e8986838b010161477d565b845250918301918301614a71565b509695505050505050565b600082601f830112614ac857600080fd5b81356020614ad8614a4983614a05565b82815260059290921b84018101918181019086841115614af757600080fd5b8286015b84811015614aac5780358352918301918301614afb565b600060808284031215614b2457600080fd5b614b2c614703565b90508135614b3981614654565b81526020828101358015158114614b4f57600080fd5b8282015260408301356001600160401b0380821115614b6d57600080fd5b614b798683870161477d565b60408501526060850135915080821115614b9257600080fd5b9084019060608287031215614ba657600080fd5b614bae61472b565b823582811115614bbd57600080fd5b8301601f81018813614bce57600080fd5b8035614bdc614a4982614a05565b81815260059190911b8201860190868101908a831115614bfb57600080fd5b928701925b82841015614c22578335614c1381614654565b82529287019290870190614c00565b84525050508284013582811115614c3857600080fd5b614c4488828601614a28565b85830152506040830135935081841115614c5d57600080fd5b614c6987858501614ab7565b604082015260608501525091949350505050565b600060208284031215614c8f57600080fd5b81356001600160401b03811115614ca557600080fd5b6116e484828501614b12565b600060208284031215614cc357600080fd5b81356001600160401b03811115614cd957600080fd5b6116e484828501614ab7565b600060208284031215614cf757600080fd5b81356001600160401b03811115614d0d57600080fd5b6116e48482850161477d565b634e487b7160e01b600052602160045260246000fd5b6020810160058310614d4357614d43614d19565b91905290565b6020815260018060a01b0382511660208201526020820151151560408201526000604083015160806060840152614d8360a08401826144c9565b90506060840151601f1984830301608085015261495b828261454a565b60008060408385031215614db357600080fd5b8235614dbe81614654565b946020939093013593505050565b60008060208385031215614ddf57600080fd5b82356001600160401b0380821115614df657600080fd5b818501915085601f830112614e0a57600080fd5b813581811115614e1957600080fd5b8660208260051b8501011115614e2e57600080fd5b60209290920196919550909350505050565b600181811c90821680614e5457607f821691505b602082108103614e7457634e487b7160e01b600052602260045260246000fd5b50919050565b601f821115612f9e57600081815260208120601f850160051c81016020861015614ea15750805b601f850160051c820191505b81811015614ec057828155600101614ead565b505050505050565b81516001600160401b03811115614ee157614ee16146ed565b614ef581614eef8454614e40565b84614e7a565b602080601f831160018114614f2a5760008415614f125750858301515b600019600386901b1c1916600185901b178555614ec0565b600085815260208120601f198616915b82811015614f5957888601518255948401946001909101908401614f3a565b5085821015614f775787850151600019600388901b60f8161c191681555b5050505050600190811b01905550565b634e487b7160e01b600052601160045260246000fd5b8082018082111561161957611619614f87565b634e487b7160e01b600052603260045260246000fd5b600060018201614fd857614fd8614f87565b5060010190565b60006116193683614b12565b8181038181111561161957611619614f87565b6020810160018310614d4357614d43614d19565b634e487b7160e01b600052601260045260246000fd5b60008261504557634e487b7160e01b600052601260045260246000fd5b500490565b808202811582820484141761161957611619614f87565b6020808252825482820181905260008481528281209092916040850190845b8181101561489557835483526001938401939285019201615080565b6000602082840312156150ae57600080fd5b8151611b2781614654565b8381526001600160a01b038316602082015260606040820181905260009061495b908301846144c9565b634e487b7160e01b600052603160045260246000fdfea26469706673582212207ece69b6cdfe9bed3e21a036dc0fcb975e033081a3db2d8ea01e0fe2db64a99564736f6c63430008130033","linkReferences":{}},"methodIdentifiers":{"AMOUNT_FOR_SUMBITTER_PROOF()":"347cf665","COST_ROUNDING_VALUE()":"e269cefe","JK_LABS_ADDRESS()":"eef18e17","MAX_FIELDS_METADATA_LENGTH()":"b382543f","METADATAS_COUNT()":"4d24a67f","PRICE_CURVE_UPDATE_INTERVAL()":"fd7971c9","SECONDS_IN_DAY()":"61a52a36","addressTotalCastVoteCount(address)":"dda54fcf","addressesThatHaveVoted(uint256)":"50c4b616","allProposalTotalVotes()":"50a5e524","anyoneCanSubmit()":"5358b80e","cancel()":"ea8a1af0","canceled()":"3f9942ff","castVote(uint256,uint256)":"2c0a3f89","comment(uint256,string)":"1805c523","commentIds(uint256)":"f5c36411","commentIsDeleted(uint256)":"ae66b8ad","comments(uint256)":"8ebb4c15","contestAddressTotalVotesCast(address)":"aec116b6","contestDeadline()":"262e59e9","contestStart()":"004114a8","costToVote()":"51a41dec","creator()":"02d05d3f","creatorSplitEnabled()":"9decae31","currentPricePerVote()":"ca09a4c4","deleteComments(uint256[])":"ac67f801","deleteProposals(uint256[])":"f0a7db0a","deletedCommentIds(uint256)":"3fb57c92","deletedProposalIds(uint256)":"05846cae","getAllAddressesThatHaveVoted()":"2c39805f","getAllAuthorsOfDeletedProposals()":"cbdc27cb","getAllCommentIds()":"e11db9d8","getAllDeletedCommentIds()":"5cb718a1","getAllDeletedProposalIds()":"1242b737","getAllProposalAuthors()":"946369b5","getAllProposalIds()":"efa90d36","getComment(uint256)":"0800e300","getNumProposalsWithThisManyVotes(uint256)":"bc022c98","getOnlyProposalIdWithThisManyVotes(uint256)":"d576b81d","getProposal(uint256)":"c7f758a8","getProposalComments(uint256)":"c05f4104","getProposalsWithThisManyVotes(uint256)":"f82e54c0","getRankIndex(uint256)":"5c7107d8","getSortedRanks()":"6fd3636b","getTotalSpentByAddress(address)":"80cc8f43","getTotalSpentByAddressOnProposal(address,uint256)":"cddb9857","hashComment((address,uint256,uint256,string))":"409fd030","hashProposal((address,bool,string,(address[],string[],uint256[])))":"a119278b","isOrIsBelowTiedRank(uint256)":"9174778c","jkLabsSplitDestination()":"102613d8","maxProposalCount()":"fb9bf8d4","metadataFieldsSchema()":"60ed97a9","multiple()":"437a8ae6","name()":"06fdde03","numAllowedProposalSubmissions()":"832009af","numSubmissions(address)":"75e509c5","officialRewardsModule()":"785ddfe5","percentageToRewards()":"06b2193f","priceCurveType()":"4a2c96ec","prompt()":"7c65d711","proposalAddressVotes(uint256,address)":"6e4eb810","proposalAddressesHaveVoted(uint256)":"b323580d","proposalAuthors(uint256)":"0aa25e44","proposalComments(uint256,uint256)":"f61736f4","proposalIds(uint256)":"9b644a23","proposalIsDeleted(uint256)":"f79c0172","proposalVoteStructs(uint256)":"15dee7cd","proposalVotes(uint256)":"544ffc9c","proposals(uint256)":"013cf08b","propose((address,bool,string,(address[],string[],uint256[])))":"8225c11d","rankLimit()":"0414126a","setJkLabsSplitDestination(address)":"9b338aa0","setName(string)":"c47f0027","setOfficialRewardsModule(address)":"f4f3d7ec","setPrompt(string)":"b4ac024f","sortedRanks(uint256)":"325cc6d9","state()":"c19d93fb","totalSpentByAddress(address)":"04a1aeae","totalSpentByAddressOnProposal(address,uint256)":"e41b1f10","totalVotesCast()":"7de418d5","totalVotesCastIsZero()":"7d742925","validateProposalData((address,bool,string,(address[],string[],uint256[])))":"c7f252d7","verifyProposer()":"476106c8","version()":"54fd4d50","voteStart()":"e031535b","votesToProposalIds(uint256,uint256)":"6d030621","votingDelay()":"3932abb1","votingPeriod()":"02a251a3"},"id":52}