{"abi":[{"type":"constructor","inputs":[{"name":"_constructorArgs","type":"tuple","internalType":"struct Governor.ConstructorArgs","components":[{"name":"name","type":"string","internalType":"string"},{"name":"prompt","type":"string","internalType":"string"},{"name":"intConstructorArgs","type":"tuple","internalType":"struct Governor.IntConstructorArgs","components":[{"name":"anyoneCanSubmit","type":"uint256","internalType":"uint256"},{"name":"contestStart","type":"uint256","internalType":"uint256"},{"name":"votingDelay","type":"uint256","internalType":"uint256"},{"name":"votingPeriod","type":"uint256","internalType":"uint256"},{"name":"numAllowedProposalSubmissions","type":"uint256","internalType":"uint256"},{"name":"maxProposalCount","type":"uint256","internalType":"uint256"},{"name":"rankLimit","type":"uint256","internalType":"uint256"},{"name":"percentageToRewards","type":"uint256","internalType":"uint256"},{"name":"costToVote","type":"uint256","internalType":"uint256"},{"name":"priceCurveType","type":"uint256","internalType":"uint256"},{"name":"multiple","type":"uint256","internalType":"uint256"},{"name":"creatorSplitEnabled","type":"uint256","internalType":"uint256"}]},{"name":"jkLabsSplitDestination","type":"address","internalType":"address"},{"name":"metadataFieldsSchema","type":"string","internalType":"string"}]}],"stateMutability":"nonpayable"},{"type":"function","name":"AMOUNT_FOR_SUMBITTER_PROOF","inputs":[],"outputs":[{"name":"","type":"uint256","internalType":"uint256"}],"stateMutability":"view"},{"type":"function","name":"COST_ROUNDING_VALUE","inputs":[],"outputs":[{"name":"","type":"uint256","internalType":"uint256"}],"stateMutability":"view"},{"type":"function","name":"JK_LABS_ADDRESS","inputs":[],"outputs":[{"name":"","type":"address","internalType":"address"}],"stateMutability":"view"},{"type":"function","name":"MAX_FIELDS_METADATA_LENGTH","inputs":[],"outputs":[{"name":"","type":"uint256","internalType":"uint256"}],"stateMutability":"view"},{"type":"function","name":"METADATAS_COUNT","inputs":[],"outputs":[{"name":"","type":"uint256","internalType":"uint256"}],"stateMutability":"view"},{"type":"function","name":"PRICE_CURVE_UPDATE_INTERVAL","inputs":[],"outputs":[{"name":"","type":"uint256","internalType":"uint256"}],"stateMutability":"view"},{"type":"function","name":"SECONDS_IN_DAY","inputs":[],"outputs":[{"name":"","type":"uint256","internalType":"uint256"}],"stateMutability":"view"},{"type":"function","name":"addressTotalCastVoteCount","inputs":[{"name":"","type":"address","internalType":"address"}],"outputs":[{"name":"","type":"uint256","internalType":"uint256"}],"stateMutability":"view"},{"type":"function","name":"addressesThatHaveVoted","inputs":[{"name":"","type":"uint256","internalType":"uint256"}],"outputs":[{"name":"","type":"address","internalType":"address"}],"stateMutability":"view"},{"type":"function","name":"allProposalTotalVotes","inputs":[],"outputs":[{"name":"proposalIdsReturn","type":"uint256[]","internalType":"uint256[]"},{"name":"proposalVoteCountsArrayReturn","type":"uint256[]","internalType":"uint256[]"}],"stateMutability":"view"},{"type":"function","name":"anyoneCanSubmit","inputs":[],"outputs":[{"name":"","type":"uint256","internalType":"uint256"}],"stateMutability":"view"},{"type":"function","name":"cancel","inputs":[],"outputs":[],"stateMutability":"nonpayable"},{"type":"function","name":"canceled","inputs":[],"outputs":[{"name":"","type":"bool","internalType":"bool"}],"stateMutability":"view"},{"type":"function","name":"castVote","inputs":[{"name":"proposalId","type":"uint256","internalType":"uint256"},{"name":"numVotes","type":"uint256","internalType":"uint256"}],"outputs":[{"name":"","type":"uint256","internalType":"uint256"}],"stateMutability":"payable"},{"type":"function","name":"comment","inputs":[{"name":"proposalId","type":"uint256","internalType":"uint256"},{"name":"commentContent","type":"string","internalType":"string"}],"outputs":[{"name":"","type":"uint256","internalType":"uint256"}],"stateMutability":"nonpayable"},{"type":"function","name":"commentIds","inputs":[{"name":"","type":"uint256","internalType":"uint256"}],"outputs":[{"name":"","type":"uint256","internalType":"uint256"}],"stateMutability":"view"},{"type":"function","name":"commentIsDeleted","inputs":[{"name":"","type":"uint256","internalType":"uint256"}],"outputs":[{"name":"","type":"bool","internalType":"bool"}],"stateMutability":"view"},{"type":"function","name":"comments","inputs":[{"name":"","type":"uint256","internalType":"uint256"}],"outputs":[{"name":"author","type":"address","internalType":"address"},{"name":"timestamp","type":"uint256","internalType":"uint256"},{"name":"proposalId","type":"uint256","internalType":"uint256"},{"name":"commentContent","type":"string","internalType":"string"}],"stateMutability":"view"},{"type":"function","name":"contestAddressTotalVotesCast","inputs":[{"name":"userAddress","type":"address","internalType":"address"}],"outputs":[{"name":"userTotalVotesCast","type":"uint256","internalType":"uint256"}],"stateMutability":"view"},{"type":"function","name":"contestDeadline","inputs":[],"outputs":[{"name":"","type":"uint256","internalType":"uint256"}],"stateMutability":"view"},{"type":"function","name":"contestStart","inputs":[],"outputs":[{"name":"","type":"uint256","internalType":"uint256"}],"stateMutability":"view"},{"type":"function","name":"costToVote","inputs":[],"outputs":[{"name":"","type":"uint256","internalType":"uint256"}],"stateMutability":"view"},{"type":"function","name":"creator","inputs":[],"outputs":[{"name":"","type":"address","internalType":"address"}],"stateMutability":"view"},{"type":"function","name":"creatorSplitEnabled","inputs":[],"outputs":[{"name":"","type":"uint256","internalType":"uint256"}],"stateMutability":"view"},{"type":"function","name":"currentPricePerVote","inputs":[],"outputs":[{"name":"","type":"uint256","internalType":"uint256"}],"stateMutability":"view"},{"type":"function","name":"deleteComments","inputs":[{"name":"commentIdsParam","type":"uint256[]","internalType":"uint256[]"}],"outputs":[],"stateMutability":"nonpayable"},{"type":"function","name":"deleteProposals","inputs":[{"name":"proposalIdsToDelete","type":"uint256[]","internalType":"uint256[]"}],"outputs":[],"stateMutability":"nonpayable"},{"type":"function","name":"deletedCommentIds","inputs":[{"name":"","type":"uint256","internalType":"uint256"}],"outputs":[{"name":"","type":"uint256","internalType":"uint256"}],"stateMutability":"view"},{"type":"function","name":"deletedProposalIds","inputs":[{"name":"","type":"uint256","internalType":"uint256"}],"outputs":[{"name":"","type":"uint256","internalType":"uint256"}],"stateMutability":"view"},{"type":"function","name":"getAllAddressesThatHaveVoted","inputs":[],"outputs":[{"name":"","type":"address[]","internalType":"address[]"}],"stateMutability":"view"},{"type":"function","name":"getAllAuthorsOfDeletedProposals","inputs":[],"outputs":[{"name":"","type":"address[]","internalType":"address[]"}],"stateMutability":"view"},{"type":"function","name":"getAllCommentIds","inputs":[],"outputs":[{"name":"","type":"uint256[]","internalType":"uint256[]"}],"stateMutability":"view"},{"type":"function","name":"getAllDeletedCommentIds","inputs":[],"outputs":[{"name":"","type":"uint256[]","internalType":"uint256[]"}],"stateMutability":"view"},{"type":"function","name":"getAllDeletedProposalIds","inputs":[],"outputs":[{"name":"","type":"uint256[]","internalType":"uint256[]"}],"stateMutability":"view"},{"type":"function","name":"getAllProposalAuthors","inputs":[],"outputs":[{"name":"","type":"address[]","internalType":"address[]"}],"stateMutability":"view"},{"type":"function","name":"getAllProposalIds","inputs":[],"outputs":[{"name":"","type":"uint256[]","internalType":"uint256[]"}],"stateMutability":"view"},{"type":"function","name":"getComment","inputs":[{"name":"commentId","type":"uint256","internalType":"uint256"}],"outputs":[{"name":"","type":"tuple","internalType":"struct GovernorEngagement.CommentCore","components":[{"name":"author","type":"address","internalType":"address"},{"name":"timestamp","type":"uint256","internalType":"uint256"},{"name":"proposalId","type":"uint256","internalType":"uint256"},{"name":"commentContent","type":"string","internalType":"string"}]}],"stateMutability":"view"},{"type":"function","name":"getNumProposalsWithThisManyVotes","inputs":[{"name":"votes","type":"uint256","internalType":"uint256"}],"outputs":[{"name":"count","type":"uint256","internalType":"uint256"}],"stateMutability":"view"},{"type":"function","name":"getOnlyProposalIdWithThisManyVotes","inputs":[{"name":"votes","type":"uint256","internalType":"uint256"}],"outputs":[{"name":"proposalId","type":"uint256","internalType":"uint256"}],"stateMutability":"view"},{"type":"function","name":"getProposal","inputs":[{"name":"proposalId","type":"uint256","internalType":"uint256"}],"outputs":[{"name":"","type":"tuple","internalType":"struct Governor.ProposalCore","components":[{"name":"author","type":"address","internalType":"address"},{"name":"exists","type":"bool","internalType":"bool"},{"name":"description","type":"string","internalType":"string"},{"name":"fieldsMetadata","type":"tuple","internalType":"struct Governor.FieldsMetadata","components":[{"name":"addressArray","type":"address[]","internalType":"address[]"},{"name":"stringArray","type":"string[]","internalType":"string[]"},{"name":"uintArray","type":"uint256[]","internalType":"uint256[]"}]}]}],"stateMutability":"view"},{"type":"function","name":"getProposalComments","inputs":[{"name":"proposalId","type":"uint256","internalType":"uint256"}],"outputs":[{"name":"","type":"uint256[]","internalType":"uint256[]"}],"stateMutability":"view"},{"type":"function","name":"getProposalsWithThisManyVotes","inputs":[{"name":"votes","type":"uint256","internalType":"uint256"}],"outputs":[{"name":"proposalsWithThisManyVotes","type":"uint256[]","internalType":"uint256[]"}],"stateMutability":"view"},{"type":"function","name":"getRankIndex","inputs":[{"name":"rank","type":"uint256","internalType":"uint256"}],"outputs":[{"name":"rankIndex","type":"uint256","internalType":"uint256"}],"stateMutability":"view"},{"type":"function","name":"getSortedRanks","inputs":[],"outputs":[{"name":"sortedRanksArray","type":"uint256[]","internalType":"uint256[]"}],"stateMutability":"view"},{"type":"function","name":"hashComment","inputs":[{"name":"commentObj","type":"tuple","internalType":"struct GovernorEngagement.CommentCore","components":[{"name":"author","type":"address","internalType":"address"},{"name":"timestamp","type":"uint256","internalType":"uint256"},{"name":"proposalId","type":"uint256","internalType":"uint256"},{"name":"commentContent","type":"string","internalType":"string"}]}],"outputs":[{"name":"","type":"uint256","internalType":"uint256"}],"stateMutability":"pure"},{"type":"function","name":"hashProposal","inputs":[{"name":"proposal","type":"tuple","internalType":"struct Governor.ProposalCore","components":[{"name":"author","type":"address","internalType":"address"},{"name":"exists","type":"bool","internalType":"bool"},{"name":"description","type":"string","internalType":"string"},{"name":"fieldsMetadata","type":"tuple","internalType":"struct Governor.FieldsMetadata","components":[{"name":"addressArray","type":"address[]","internalType":"address[]"},{"name":"stringArray","type":"string[]","internalType":"string[]"},{"name":"uintArray","type":"uint256[]","internalType":"uint256[]"}]}]}],"outputs":[{"name":"","type":"uint256","internalType":"uint256"}],"stateMutability":"pure"},{"type":"function","name":"isOrIsBelowTiedRank","inputs":[{"name":"idx","type":"uint256","internalType":"uint256"}],"outputs":[{"name":"atOrBelowTiedRank","type":"bool","internalType":"bool"}],"stateMutability":"view"},{"type":"function","name":"jkLabsSplitDestination","inputs":[],"outputs":[{"name":"","type":"address","internalType":"address"}],"stateMutability":"view"},{"type":"function","name":"maxProposalCount","inputs":[],"outputs":[{"name":"","type":"uint256","internalType":"uint256"}],"stateMutability":"view"},{"type":"function","name":"metadataFieldsSchema","inputs":[],"outputs":[{"name":"","type":"string","internalType":"string"}],"stateMutability":"view"},{"type":"function","name":"multiple","inputs":[],"outputs":[{"name":"","type":"uint256","internalType":"uint256"}],"stateMutability":"view"},{"type":"function","name":"name","inputs":[],"outputs":[{"name":"","type":"string","internalType":"string"}],"stateMutability":"view"},{"type":"function","name":"numAllowedProposalSubmissions","inputs":[],"outputs":[{"name":"","type":"uint256","internalType":"uint256"}],"stateMutability":"view"},{"type":"function","name":"numSubmissions","inputs":[{"name":"","type":"address","internalType":"address"}],"outputs":[{"name":"","type":"uint256","internalType":"uint256"}],"stateMutability":"view"},{"type":"function","name":"officialRewardsModule","inputs":[],"outputs":[{"name":"","type":"address","internalType":"address"}],"stateMutability":"view"},{"type":"function","name":"percentageToRewards","inputs":[],"outputs":[{"name":"","type":"uint256","internalType":"uint256"}],"stateMutability":"view"},{"type":"function","name":"priceCurveType","inputs":[],"outputs":[{"name":"","type":"uint256","internalType":"uint256"}],"stateMutability":"view"},{"type":"function","name":"prompt","inputs":[],"outputs":[{"name":"","type":"string","internalType":"string"}],"stateMutability":"view"},{"type":"function","name":"proposalAddressVotes","inputs":[{"name":"proposalId","type":"uint256","internalType":"uint256"},{"name":"userAddress","type":"address","internalType":"address"}],"outputs":[{"name":"voteCount","type":"uint256","internalType":"uint256"}],"stateMutability":"view"},{"type":"function","name":"proposalAddressesHaveVoted","inputs":[{"name":"proposalId","type":"uint256","internalType":"uint256"}],"outputs":[{"name":"","type":"address[]","internalType":"address[]"}],"stateMutability":"view"},{"type":"function","name":"proposalAuthors","inputs":[{"name":"","type":"uint256","internalType":"uint256"}],"outputs":[{"name":"","type":"address","internalType":"address"}],"stateMutability":"view"},{"type":"function","name":"proposalComments","inputs":[{"name":"","type":"uint256","internalType":"uint256"},{"name":"","type":"uint256","internalType":"uint256"}],"outputs":[{"name":"","type":"uint256","internalType":"uint256"}],"stateMutability":"view"},{"type":"function","name":"proposalIds","inputs":[{"name":"","type":"uint256","internalType":"uint256"}],"outputs":[{"name":"","type":"uint256","internalType":"uint256"}],"stateMutability":"view"},{"type":"function","name":"proposalIsDeleted","inputs":[{"name":"","type":"uint256","internalType":"uint256"}],"outputs":[{"name":"","type":"bool","internalType":"bool"}],"stateMutability":"view"},{"type":"function","name":"proposalVoteStructs","inputs":[{"name":"","type":"uint256","internalType":"uint256"}],"outputs":[{"name":"proposalVoteCount","type":"uint256","internalType":"uint256"}],"stateMutability":"view"},{"type":"function","name":"proposalVotes","inputs":[{"name":"proposalId","type":"uint256","internalType":"uint256"}],"outputs":[{"name":"voteCount","type":"uint256","internalType":"uint256"}],"stateMutability":"view"},{"type":"function","name":"proposals","inputs":[{"name":"","type":"uint256","internalType":"uint256"}],"outputs":[{"name":"author","type":"address","internalType":"address"},{"name":"exists","type":"bool","internalType":"bool"},{"name":"description","type":"string","internalType":"string"},{"name":"fieldsMetadata","type":"tuple","internalType":"struct Governor.FieldsMetadata","components":[{"name":"addressArray","type":"address[]","internalType":"address[]"},{"name":"stringArray","type":"string[]","internalType":"string[]"},{"name":"uintArray","type":"uint256[]","internalType":"uint256[]"}]}],"stateMutability":"view"},{"type":"function","name":"propose","inputs":[{"name":"proposal","type":"tuple","internalType":"struct Governor.ProposalCore","components":[{"name":"author","type":"address","internalType":"address"},{"name":"exists","type":"bool","internalType":"bool"},{"name":"description","type":"string","internalType":"string"},{"name":"fieldsMetadata","type":"tuple","internalType":"struct Governor.FieldsMetadata","components":[{"name":"addressArray","type":"address[]","internalType":"address[]"},{"name":"stringArray","type":"string[]","internalType":"string[]"},{"name":"uintArray","type":"uint256[]","internalType":"uint256[]"}]}]}],"outputs":[{"name":"","type":"uint256","internalType":"uint256"}],"stateMutability":"payable"},{"type":"function","name":"rankLimit","inputs":[],"outputs":[{"name":"","type":"uint256","internalType":"uint256"}],"stateMutability":"view"},{"type":"function","name":"setJkLabsSplitDestination","inputs":[{"name":"newJkLabsSplitDestination","type":"address","internalType":"address"}],"outputs":[],"stateMutability":"nonpayable"},{"type":"function","name":"setName","inputs":[{"name":"newName","type":"string","internalType":"string"}],"outputs":[{"name":"","type":"string","internalType":"string"}],"stateMutability":"nonpayable"},{"type":"function","name":"setOfficialRewardsModule","inputs":[{"name":"officialRewardsModule_","type":"address","internalType":"address"}],"outputs":[],"stateMutability":"nonpayable"},{"type":"function","name":"setPrompt","inputs":[{"name":"newPrompt","type":"string","internalType":"string"}],"outputs":[{"name":"","type":"string","internalType":"string"}],"stateMutability":"nonpayable"},{"type":"function","name":"sortedRanks","inputs":[{"name":"","type":"uint256","internalType":"uint256"}],"outputs":[{"name":"","type":"uint256","internalType":"uint256"}],"stateMutability":"view"},{"type":"function","name":"state","inputs":[],"outputs":[{"name":"","type":"uint8","internalType":"enum Governor.ContestState"}],"stateMutability":"view"},{"type":"function","name":"totalVotesCast","inputs":[],"outputs":[{"name":"","type":"uint256","internalType":"uint256"}],"stateMutability":"view"},{"type":"function","name":"totalVotesCastIsZero","inputs":[],"outputs":[{"name":"totalVotesCastZero","type":"bool","internalType":"bool"}],"stateMutability":"view"},{"type":"function","name":"validateProposalData","inputs":[{"name":"proposal","type":"tuple","internalType":"struct Governor.ProposalCore","components":[{"name":"author","type":"address","internalType":"address"},{"name":"exists","type":"bool","internalType":"bool"},{"name":"description","type":"string","internalType":"string"},{"name":"fieldsMetadata","type":"tuple","internalType":"struct Governor.FieldsMetadata","components":[{"name":"addressArray","type":"address[]","internalType":"address[]"},{"name":"stringArray","type":"string[]","internalType":"string[]"},{"name":"uintArray","type":"uint256[]","internalType":"uint256[]"}]}]}],"outputs":[],"stateMutability":"view"},{"type":"function","name":"verifyProposer","inputs":[],"outputs":[],"stateMutability":"view"},{"type":"function","name":"version","inputs":[],"outputs":[{"name":"","type":"string","internalType":"string"}],"stateMutability":"pure"},{"type":"function","name":"voteStart","inputs":[],"outputs":[{"name":"","type":"uint256","internalType":"uint256"}],"stateMutability":"view"},{"type":"function","name":"votesToProposalIds","inputs":[{"name":"","type":"uint256","internalType":"uint256"},{"name":"","type":"uint256","internalType":"uint256"}],"outputs":[{"name":"","type":"uint256","internalType":"uint256"}],"stateMutability":"view"},{"type":"function","name":"votingDelay","inputs":[],"outputs":[{"name":"","type":"uint256","internalType":"uint256"}],"stateMutability":"view"},{"type":"function","name":"votingPeriod","inputs":[],"outputs":[{"name":"","type":"uint256","internalType":"uint256"}],"stateMutability":"view"},{"type":"event","name":"CommentCreated","inputs":[{"name":"commentId","type":"uint256","indexed":false,"internalType":"uint256"}],"anonymous":false},{"type":"event","name":"CommentsDeleted","inputs":[{"name":"commentIds","type":"uint256[]","indexed":false,"internalType":"uint256[]"}],"anonymous":false},{"type":"event","name":"ContestCanceled","inputs":[],"anonymous":false},{"type":"event","name":"CreatorPaymentReleased","inputs":[{"name":"to","type":"address","indexed":false,"internalType":"address"},{"name":"amount","type":"uint256","indexed":false,"internalType":"uint256"}],"anonymous":false},{"type":"event","name":"JkLabsPaymentReleased","inputs":[{"name":"to","type":"address","indexed":false,"internalType":"address"},{"name":"amount","type":"uint256","indexed":false,"internalType":"uint256"}],"anonymous":false},{"type":"event","name":"JokeraceCreated","inputs":[{"name":"version","type":"string","indexed":false,"internalType":"string"},{"name":"name","type":"string","indexed":false,"internalType":"string"},{"name":"prompt","type":"string","indexed":false,"internalType":"string"},{"name":"creator","type":"address","indexed":false,"internalType":"address"},{"name":"contestStart","type":"uint256","indexed":false,"internalType":"uint256"},{"name":"votingDelay","type":"uint256","indexed":false,"internalType":"uint256"},{"name":"votingPeriod","type":"uint256","indexed":false,"internalType":"uint256"}],"anonymous":false},{"type":"event","name":"OfficialRewardsModuleSet","inputs":[{"name":"oldOfficialRewardsModule","type":"address","indexed":false,"internalType":"address"},{"name":"newOfficialRewardsModule","type":"address","indexed":false,"internalType":"address"}],"anonymous":false},{"type":"event","name":"ProposalCreated","inputs":[{"name":"proposalId","type":"uint256","indexed":false,"internalType":"uint256"},{"name":"proposer","type":"address","indexed":false,"internalType":"address"},{"name":"proposalDescription","type":"string","indexed":false,"internalType":"string"}],"anonymous":false},{"type":"event","name":"ProposalsDeleted","inputs":[{"name":"proposalIds","type":"uint256[]","indexed":false,"internalType":"uint256[]"}],"anonymous":false},{"type":"event","name":"RewardsPaymentReleased","inputs":[{"name":"to","type":"address","indexed":false,"internalType":"address"},{"name":"amount","type":"uint256","indexed":false,"internalType":"uint256"}],"anonymous":false},{"type":"event","name":"VoteCast","inputs":[{"name":"voter","type":"address","indexed":true,"internalType":"address"},{"name":"proposalId","type":"uint256","indexed":false,"internalType":"uint256"},{"name":"numVotes","type":"uint256","indexed":false,"internalType":"uint256"}],"anonymous":false},{"type":"error","name":"AddressFieldMetadataArrayTooLong","inputs":[]},{"type":"error","name":"AuthorIsNotSender","inputs":[{"name":"author","type":"address","internalType":"address"},{"name":"sender","type":"address","internalType":"address"}]},{"type":"error","name":"CanOnlyCancelBeforeFirstVote","inputs":[]},{"type":"error","name":"CanOnlyDeleteWhenQueued","inputs":[]},{"type":"error","name":"CannotCommentWhenCompletedOrCanceled","inputs":[]},{"type":"error","name":"CannotDeleteWhenCompletedOrCanceled","inputs":[]},{"type":"error","name":"CannotSetWhenCompletedOrCanceled","inputs":[]},{"type":"error","name":"CannotUpdateWhenCompletedOrCanceled","inputs":[]},{"type":"error","name":"CannotVoteLessThanOneVoteInPayPerVote","inputs":[]},{"type":"error","name":"CannotVoteOnDeletedProposal","inputs":[]},{"type":"error","name":"ContestAlreadyCanceled","inputs":[]},{"type":"error","name":"ContestMustBeActiveToGetCurrentVotePrice","inputs":[]},{"type":"error","name":"ContestMustBeActiveToVote","inputs":[]},{"type":"error","name":"ContestMustBeQueuedToPropose","inputs":[]},{"type":"error","name":"ContestSubmissionLimitReached","inputs":[{"name":"maxProposalCount","type":"uint256","internalType":"uint256"}]},{"type":"error","name":"DuplicateSubmission","inputs":[{"name":"proposalId","type":"uint256","internalType":"uint256"}]},{"type":"error","name":"EmptyProposalDescription","inputs":[]},{"type":"error","name":"IncorrectCostSent","inputs":[{"name":"msgValue","type":"uint256","internalType":"uint256"},{"name":"costToVote","type":"uint256","internalType":"uint256"}]},{"type":"error","name":"IndexHasNotBeenPopulated","inputs":[]},{"type":"error","name":"MoreThanOneProposalWithThisManyVotes","inputs":[]},{"type":"error","name":"NeedAtLeastOneVoteToVote","inputs":[]},{"type":"error","name":"NotEnoughVotesLeft","inputs":[]},{"type":"error","name":"OfficialModuleMustBeSetToEnter","inputs":[]},{"type":"error","name":"OfficialRewardsModuleCanOnlyBeSetOnce","inputs":[]},{"type":"error","name":"OfficialRewardsModuleMustPointToThisContest","inputs":[]},{"type":"error","name":"OnlyCreatorCanAmend","inputs":[]},{"type":"error","name":"OnlyCreatorCanSetName","inputs":[]},{"type":"error","name":"OnlyCreatorCanSetPrompt","inputs":[]},{"type":"error","name":"OnlyCreatorCanSetRewardsModule","inputs":[]},{"type":"error","name":"OnlyCreatorCanSubmit","inputs":[]},{"type":"error","name":"OnlyCreatorOrAuthorCanDeleteComments","inputs":[{"name":"failedToDeleteCommentId","type":"uint256","internalType":"uint256"}]},{"type":"error","name":"OnlyCreatorOrEntrantCanDelete","inputs":[]},{"type":"error","name":"OnlyCreatorOrJkLabsCanCancel","inputs":[]},{"type":"error","name":"OnlyJkLabsCanAmend","inputs":[]},{"type":"error","name":"PRBMath_MulDiv18_Overflow","inputs":[{"name":"x","type":"uint256","internalType":"uint256"},{"name":"y","type":"uint256","internalType":"uint256"}]},{"type":"error","name":"PRBMath_MulDiv_Overflow","inputs":[{"name":"x","type":"uint256","internalType":"uint256"},{"name":"y","type":"uint256","internalType":"uint256"},{"name":"denominator","type":"uint256","internalType":"uint256"}]},{"type":"error","name":"PRBMath_UD60x18_Exp2_InputTooBig","inputs":[{"name":"x","type":"uint256","internalType":"UD60x18"}]},{"type":"error","name":"PeriodsOutsideBounds","inputs":[]},{"type":"error","name":"RankCannotBeZero","inputs":[]},{"type":"error","name":"RankIsNotInSortedRanks","inputs":[]},{"type":"error","name":"RankLimitCannotBeZero","inputs":[]},{"type":"error","name":"SenderSubmissionLimitReached","inputs":[{"name":"numAllowedProposalSubmissions","type":"uint256","internalType":"uint256"}]},{"type":"error","name":"StringFieldMetadataArrayTooLong","inputs":[]},{"type":"error","name":"UintFieldMetadataArrayTooLong","inputs":[]},{"type":"error","name":"UnexpectedMetadata","inputs":[{"name":"unexpectedMetadata","type":"uint8","internalType":"enum Governor.Metadatas"}]}],"bytecode":{"object":"0x60806040523480156200001157600080fd5b5060405162005725380380620057258339810160408190526200003491620003d9565b604081015160c001516000558051819060029062000053908262000554565b50602081015160039062000068908262000554565b50604081810151805160055560048054336001600160a01b03199182161790915560208201516006559181015160075560608082015160085560808083015160095560a0830151600a5560e0830151600b55610100830151600c55610120830151600d55610140830151600e5561016090920151600f55830151601080549093166001600160a01b03909116179091558101516011906200010a908262000554565b50604080518082018252600480825263362e313560e01b60208301525460065460075460085494517f9a9bca21e4e51607db64fbdbcd7b2284a909c6a8969821f0d161efbdcae70160956200017595946002946003946001600160a01b0390921693909290620006a5565b60405180910390a1506200018e62015180601e62000733565b8160400151604001511180620001ae575062015180816040015160600151115b15620001cd576040516341b2f4db60e01b815260040160405180910390fd5b806040015160c00151600003620001f75760405163769f473560e11b815260040160405180910390fd5b506200075f565b634e487b7160e01b600052604160045260246000fd5b60405161018081016001600160401b03811182821017156200023a576200023a620001fe565b60405290565b60405160a081016001600160401b03811182821017156200023a576200023a620001fe565b60005b838110156200028257818101518382015260200162000268565b50506000910152565b600082601f8301126200029d57600080fd5b81516001600160401b0380821115620002ba57620002ba620001fe565b604051601f8301601f19908116603f01168101908282118183101715620002e557620002e5620001fe565b81604052838152866020858801011115620002ff57600080fd5b6200031284602083016020890162000265565b9695505050505050565b600061018082840312156200033057600080fd5b6200033a62000214565b9050815181526020820151602082015260408201516040820152606082015160608201526080820151608082015260a082015160a082015260c082015160c082015260e082015160e082015261010080830151818301525061012080830151818301525061014080830151818301525061016080830151818301525092915050565b80516001600160a01b0381168114620003d457600080fd5b919050565b600060208284031215620003ec57600080fd5b81516001600160401b03808211156200040457600080fd5b9083019061020082860312156200041a57600080fd5b6200042462000240565b8251828111156200043457600080fd5b62000442878286016200028b565b8252506020830151828111156200045857600080fd5b62000466878286016200028b565b6020830152506200047b86604085016200031c565b60408201526200048f6101c08401620003bc565b60608201526101e083015182811115620004a857600080fd5b620004b6878286016200028b565b60808301525095945050505050565b600181811c90821680620004da57607f821691505b602082108103620004fb57634e487b7160e01b600052602260045260246000fd5b50919050565b601f8211156200054f57600081815260208120601f850160051c810160208610156200052a5750805b601f850160051c820191505b818110156200054b5782815560010162000536565b5050505b505050565b81516001600160401b03811115620005705762000570620001fe565b6200058881620005818454620004c5565b8462000501565b602080601f831160018114620005c05760008415620005a75750858301515b600019600386901b1c1916600185901b1785556200054b565b600085815260208120601f198616915b82811015620005f157888601518255948401946001909101908401620005d0565b5085821015620006105787850151600019600388901b60f8161c191681555b5050505050600190811b01905550565b600081546200062f81620004c5565b8085526020600183811680156200064f57600181146200066a576200069a565b60ff1985168884015283151560051b8801830195506200069a565b866000528260002060005b85811015620006925781548a820186015290830190840162000675565b890184019650505b505050505092915050565b60e08152600088518060e0840152610100620006c88282860160208e0162000265565b601f19601f8301168401915080848303016020850152620006ec8183018b62000620565b915050828103604084015262000703818962000620565b6001600160a01b039790971660608401525050608081019390935260a083019190915260c0909101529392505050565b80820281158282048414176200075957634e487b7160e01b600052601160045260246000fd5b92915050565b614fb6806200076f6000396000f3fe60806040526004361061049e5760003560e01c80637c65d71111610260578063c47f002711610144578063ea8a1af0116100c1578063f5c3641111610085578063f5c3641114610e2d578063f61736f414610e4d578063f79c017214610e6d578063f82e54c014610e9d578063fb9bf8d414610ebd578063fd7971c914610ed357600080fd5b8063ea8a1af014610d9b578063eef18e1714610db0578063efa90d3614610dd8578063f0a7db0a14610ded578063f4f3d7ec14610e0d57600080fd5b8063d576b81d11610108578063d576b81d14610d0b578063dda54fcf14610d2b578063e031535b14610d58578063e11db9d814610d6d578063e269cefe14610d8257600080fd5b8063c47f002714610c74578063c7f252d714610c94578063c7f758a814610cb4578063ca09a4c414610ce1578063cbdc27cb14610cf657600080fd5b80639decae31116101dd578063b323580d116101a1578063b323580d14610bb0578063b382543f14610bd0578063b4ac024f14610be5578063bc022c9814610c05578063c05f410414610c32578063c19d93fb14610c5257600080fd5b80639decae3114610af4578063a119278b14610b0a578063ac67f80114610b2a578063ae66b8ad14610b4a578063aec116b614610b7a57600080fd5b80638ebb4c15116102245780638ebb4c1514610a4f5780639174778c14610a7f578063946369b514610a9f5780639b338aa014610ab45780639b644a2314610ad457600080fd5b80637c65d711146109e55780637d742925146109fa5780637de418d514610a105780638225c11d14610a26578063832009af14610a3957600080fd5b80633fb57c9211610387578063544ffc9c1161030457806361a52a36116102c857806361a52a36146109055780636d0306211461091c5780636e4eb8101461093c5780636fd3636b1461098357806375e509c514610998578063785ddfe5146109c557600080fd5b8063544ffc9c1461086157806354fd4d501461088e5780635c7107d8146108bb5780635cb718a1146108db57806360ed97a9146108f057600080fd5b80634d24a67f1161034b5780634d24a67f146107dd57806350a5e524146107f257806350c4b6161461081557806351a41dec146108355780635358b80e1461084b57600080fd5b80633fb57c921461075a578063409fd0301461077a578063437a8ae61461079a578063476106c8146107b05780634a2c96ec146107c757600080fd5b8063102613d8116104205780632c0a3f89116103e45780632c0a3f89146106a95780632c39805f146106bc578063325cc6d9146106de578063347cf665146106fe5780633932abb11461071a5780633f9942ff1461073057600080fd5b8063102613d8146106055780631242b7371461062557806315dee7cd146106475780631805c52314610674578063262e59e91461069457600080fd5b806305846cae1161046757806305846cae1461056057806306b2193f1461058057806306fdde03146105965780630800e300146105b85780630aa25e44146105e557600080fd5b80624114a8146104a3578063013cf08b146104cc57806302a251a3146104fc57806302d05d3f146105125780630414126a1461054a575b600080fd5b3480156104af57600080fd5b506104b960065481565b6040519081526020015b60405180910390f35b3480156104d857600080fd5b506104ec6104e7366004614363565b610ee8565b6040516104c394939291906144be565b34801561050857600080fd5b506104b960085481565b34801561051e57600080fd5b50600454610532906001600160a01b031681565b6040516001600160a01b0390911681526020016104c3565b34801561055657600080fd5b506104b960005481565b34801561056c57600080fd5b506104b961057b366004614363565b611146565b34801561058c57600080fd5b506104b9600b5481565b3480156105a257600080fd5b506105ab611167565b6040516104c39190614507565b3480156105c457600080fd5b506105d86105d3366004614363565b6111f5565b6040516104c3919061451a565b3480156105f157600080fd5b50610532610600366004614363565b611309565b34801561061157600080fd5b50601054610532906001600160a01b031681565b34801561063157600080fd5b5061063a611333565b6040516104c3919061455b565b34801561065357600080fd5b506104b9610662366004614363565b601c6020526000908152604090205481565b34801561068057600080fd5b506104b961068f36600461466d565b61138b565b3480156106a057600080fd5b506104b9611508565b6104b96106b73660046146b3565b611524565b3480156106c857600080fd5b506106d1611581565b6040516104c391906146d5565b3480156106ea57600080fd5b506104b96106f9366004614363565b6115e2565b34801561070a57600080fd5b506104b9678ac7230489e8000081565b34801561072657600080fd5b506104b960075481565b34801561073c57600080fd5b5060155461074a9060ff1681565b60405190151581526020016104c3565b34801561076657600080fd5b506104b9610775366004614363565b6115f2565b34801561078657600080fd5b506104b9610795366004614737565b611602565b3480156107a657600080fd5b506104b9600e5481565b3480156107bc57600080fd5b506107c5611633565b005b3480156107d357600080fd5b506104b9600d5481565b3480156107e957600080fd5b506104b9611671565b3480156107fe57600080fd5b50610807611680565b6040516104c39291906147cc565b34801561082157600080fd5b50610532610830366004614363565b61174b565b34801561084157600080fd5b506104b9600c5481565b34801561085757600080fd5b506104b960055481565b34801561086d57600080fd5b506104b961087c366004614363565b6000908152601c602052604090205490565b34801561089a57600080fd5b50604080518082019091526004815263362e313560e01b60208201526105ab565b3480156108c757600080fd5b506104b96108d6366004614363565b61175b565b3480156108e757600080fd5b5061063a611862565b3480156108fc57600080fd5b506105ab6118b8565b34801561091157600080fd5b506104b96201518081565b34801561092857600080fd5b506104b96109373660046146b3565b6118c5565b34801561094857600080fd5b506104b96109573660046147fa565b6000828152601c602090815260408083206001600160a01b038516845260020190915290205492915050565b34801561098f57600080fd5b5061063a6118f6565b3480156109a457600080fd5b506104b96109b336600461482a565b60176020526000908152604090205481565b3480156109d157600080fd5b50601e54610532906001600160a01b031681565b3480156109f157600080fd5b506105ab61194c565b348015610a0657600080fd5b50601a541561074a565b348015610a1c57600080fd5b506104b9601a5481565b6104b9610a34366004614847565b611959565b348015610a4557600080fd5b506104b960095481565b348015610a5b57600080fd5b50610a6f610a6a366004614363565b6119dd565b6040516104c39493929190614881565b348015610a8b57600080fd5b5061074a610a9a366004614363565b611a9a565b348015610aab57600080fd5b506106d1611b3e565b348015610ac057600080fd5b506107c5610acf36600461482a565b611b9e565b348015610ae057600080fd5b506104b9610aef366004614363565b611c51565b348015610b0057600080fd5b506104b9600f5481565b348015610b1657600080fd5b506104b9610b25366004614b30565b611c61565b348015610b3657600080fd5b506107c5610b45366004614b64565b611c74565b348015610b5657600080fd5b5061074a610b65366004614363565b60236020526000908152604090205460ff1681565b348015610b8657600080fd5b506104b9610b9536600461482a565b6001600160a01b03166000908152601b602052604090205490565b348015610bbc57600080fd5b506106d1610bcb366004614363565b611e0a565b348015610bdc57600080fd5b506104b9600a81565b348015610bf157600080fd5b506105ab610c00366004614b98565b611e7c565b348015610c1157600080fd5b506104b9610c20366004614363565b6000908152601d602052604090205490565b348015610c3e57600080fd5b5061063a610c4d366004614363565b611f1a565b348015610c5e57600080fd5b50610c67611f7c565b6040516104c39190614be2565b348015610c8057600080fd5b506105ab610c8f366004614b98565b611fcd565b348015610ca057600080fd5b506107c5610caf366004614b30565b612064565b348015610cc057600080fd5b50610cd4610ccf366004614363565b6121bc565b6040516104c39190614bfc565b348015610ced57600080fd5b506104b9612445565b348015610d0257600080fd5b506106d16125b6565b348015610d1757600080fd5b506104b9610d26366004614363565b6126e6565b348015610d3757600080fd5b506104b9610d4636600461482a565b601b6020526000908152604090205481565b348015610d6457600080fd5b506104b9612746565b348015610d7957600080fd5b5061063a612758565b348015610d8e57600080fd5b506104b964e8d4a5100081565b348015610da757600080fd5b506107c56127ae565b348015610dbc57600080fd5b5061053273dc652c746a8f85e18ce632d97c6118e8a52fa73881565b348015610de457600080fd5b5061063a61287b565b348015610df957600080fd5b506107c5610e08366004614c53565b6128d1565b348015610e1957600080fd5b506107c5610e2836600461482a565b612a2f565b348015610e3957600080fd5b506104b9610e48366004614363565b612b71565b348015610e5957600080fd5b506104b9610e683660046146b3565b612b81565b348015610e7957600080fd5b5061074a610e88366004614363565b60146020526000908152604090205460ff1681565b348015610ea957600080fd5b5061063a610eb8366004614363565b612b9d565b348015610ec957600080fd5b506104b9600a5481565b348015610edf57600080fd5b506104b9603c81565b601660205260009081526040902080546001820180546001600160a01b03831693600160a01b90930460ff16929190610f2090614cc7565b80601f0160208091040260200160405190810160405280929190818152602001828054610f4c90614cc7565b8015610f995780601f10610f6e57610100808354040283529160200191610f99565b820191906000526020600020905b815481529060010190602001808311610f7c57829003601f168201915b505050505090806002016040518060600160405290816000820180548060200260200160405190810160405280929190818152602001828054801561100757602002820191906000526020600020905b81546001600160a01b03168152600190910190602001808311610fe9575b5050505050815260200160018201805480602002602001604051908101604052809291908181526020016000905b828210156110e157838290600052602060002001805461105490614cc7565b80601f016020809104026020016040519081016040528092919081815260200182805461108090614cc7565b80156110cd5780601f106110a2576101008083540402835291602001916110cd565b820191906000526020600020905b8154815290600101906020018083116110b057829003601f168201915b505050505081526020019060010190611035565b5050505081526020016002820180548060200260200160405190810160405280929190818152602001828054801561113857602002820191906000526020600020905b815481526020019060010190808311611124575b505050505081525050905084565b6013818154811061115657600080fd5b600091825260209091200154905081565b6002805461117490614cc7565b80601f01602080910402602001604051908101604052809291908181526020018280546111a090614cc7565b80156111ed5780601f106111c2576101008083540402835291602001916111ed565b820191906000526020600020905b8154815290600101906020018083116111d057829003601f168201915b505050505081565b611229604051806080016040528060006001600160a01b031681526020016000815260200160008152602001606081525090565b600082815260216020908152604091829020825160808101845281546001600160a01b0316815260018201549281019290925260028101549282019290925260038201805491929160608401919061128090614cc7565b80601f01602080910402602001604051908101604052809291908181526020018280546112ac90614cc7565b80156112f95780601f106112ce576101008083540402835291602001916112f9565b820191906000526020600020905b8154815290600101906020018083116112dc57829003601f168201915b5050505050815250509050919050565b6018818154811061131957600080fd5b6000918252602090912001546001600160a01b0316905081565b6060601380548060200260200160405190810160405280929190818152602001828054801561138157602002820191906000526020600020905b81548152602001906001019080831161136d575b5050505050905090565b60006004611397611f7c565b60048111156113a8576113a8614bcc565b14806113cc575060026113b9611f7c565b60048111156113ca576113ca614bcc565b145b156113e95760405162f3e73d60e81b815260040160405180910390fd5b6040805160808101825233815242602082015290810184905260608101839052600061141482611602565b601f805460018082019092557fa03837a25210ee280c2113ff4b77ca23440b19d4866cca721c801278fd08d80701829055600082815260216020908152604091829020865181546001600160a01b0319166001600160a01b039091161781559086015192810192909255840151600282015560608401519192508391600382019061149f9082614d4f565b505050600085815260226020908152604080832080546001810182559084529190922001829055517f5a1a930fed43f34b3a07db782ebcac28a661c273e662bb98458cfba5a8ccd220906114f69083815260200190565b60405180910390a19150505b92915050565b6000600854611515612746565b61151f9190614e24565b905090565b600080611532600184612bfd565b60008581526014602052604090205490915060ff1615611565576040516358f1119560e01b815260040160405180910390fd5b61156e81612c9a565b611579843385612e56565b949350505050565b6060601980548060200260200160405190810160405280929190818152602001828054801561138157602002820191906000526020600020905b81546001600160a01b031681526001909101906020018083116115bb575050505050905090565b6001818154811061115657600080fd5b6020818154811061115657600080fd5b600081604051602001611615919061451a565b60408051601f19818403018152919052805160209091012092915050565b60055460011415801561165157506004546001600160a01b03163314155b1561166f57604051639a4a529360e01b815260040160405180910390fd5b565b61167d60006001614e24565b81565b606080600061168d61287b565b9050600081516001600160401b038111156116aa576116aa61456e565b6040519080825280602002602001820160405280156116d3578160200160208202803683370190505b50905060005b825181101561174157601c60008483815181106116f8576116f8614e37565b602002602001015181526020019081526020016000206000015482828151811061172457611724614e37565b60209081029190910101528061173981614e4d565b9150506116d9565b5090939092509050565b6019818154811061131957600080fd5b60008160000361177e57604051630ec90a1760e31b815260040160405180910390fd5b600180546040805160208084028201810190925282815291926000929184908301828280156117cc57602002820191906000526020600020905b8154815260200190600101908083116117b8575b5050505050905060006001905060005b83811015611848576118138382815181106117f9576117f9614e37565b60200260200101516000908152601d602052604090205490565b15611836578582036118285795945050505050565b8161183281614e4d565b9250505b8061184081614e4d565b9150506117dc565b50604051632cc2ab7360e11b815260040160405180910390fd5b60606020805480602002602001604051908101604052809291908181526020018280548015611381576020028201919060005260206000209081548152602001906001019080831161136d575050505050905090565b6011805461117490614cc7565b601d60205281600052604060002081815481106118e157600080fd5b90600052602060002001600091509150505481565b60606001805480602002602001604051908101604052809291908181526020018280548015611381576020028201919060005260206000209081548152602001906001019080831161136d575050505050905090565b6003805461117490614cc7565b600080611967600080612bfd565b9050600061197d601e546001600160a01b031690565b6001600160a01b0316036119a45760405163fa4f07a360e01b815260040160405180910390fd5b6119ac611633565b6119b8610caf84614e66565b60006119cb6119c685614e66565b612f4a565b90506119d682612c9a565b9392505050565b60216020526000908152604090208054600182015460028301546003840180546001600160a01b03909416949293919291611a1790614cc7565b80601f0160208091040260200160405190810160405280929190818152602001828054611a4390614cc7565b8015611a905780601f10611a6557610100808354040283529160200191611a90565b820191906000526020600020905b815481529060010190602001808311611a7357829003601f168201915b5050505050905084565b60018054600091611aaa91614e72565b821115611aca576040516365d6f35160e11b815260040160405180910390fd5b60005b611ad8836001614e24565b811015611b35576001611b1460018381548110611af757611af7614e37565b90600052602060002001546000908152601d602052604090205490565b1115611b235750600192915050565b80611b2d81614e4d565b915050611acd565b50600092915050565b60606018805480602002602001604051908101604052809291908181526020018280548015611381576020028201919060005260206000209081546001600160a01b031681526001909101906020018083116115bb575050505050905090565b3373dc652c746a8f85e18ce632d97c6118e8a52fa73814611bd25760405163de07280160e01b815260040160405180910390fd5b6004611bdc611f7c565b6004811115611bed57611bed614bcc565b1480611c1157506002611bfe611f7c565b6004811115611c0f57611c0f614bcc565b145b15611c2f576040516398fe99a560e01b815260040160405180910390fd5b601080546001600160a01b0319166001600160a01b0392909216919091179055565b6012818154811061115657600080fd5b6000816040516020016116159190614bfc565b6004611c7e611f7c565b6004811115611c8f57611c8f614bcc565b1480611cb357506002611ca0611f7c565b6004811115611cb157611cb1614bcc565b145b15611cd157604051631e71d28360e21b815260040160405180910390fd5b805160005b81811015611dce576000838281518110611cf257611cf2614e37565b60209081029190910101516004549091506001600160a01b03163314801590611d3257506000818152602160205260409020546001600160a01b03163314155b15611d5857604051635450763d60e11b8152600481018290526024015b60405180910390fd5b60008181526023602052604090205460ff16611dbb5760008181526023602090815260408220805460ff191660019081179091558154908101825591527fc97bfaf2f8ee708c303a06d134f5ecd8389ae0432af62dc132a24118292866bb018190555b5080611dc681614e4d565b915050611cd6565b507f788a4349d25bc08585923ae212bce8bb346a623bce753eeecb85fd9ce58dcb4b82604051611dfe919061455b565b60405180910390a15050565b6000818152601c60209081526040918290206001810180548451818502810185019095528085526060949293830182828015611e6f57602002820191906000526020600020905b81546001600160a01b03168152600190910190602001808311611e51575b5050505050915050919050565b6004546060906001600160a01b03163314611eaa57604051630aca3d7160e11b815260040160405180910390fd5b6004611eb4611f7c565b6004811115611ec557611ec5614bcc565b1480611ee957506002611ed6611f7c565b6004811115611ee757611ee7614bcc565b145b15611f0757604051635b0747e760e01b815260040160405180910390fd5b6003611f138382614d4f565b5090919050565b600081815260226020908152604091829020805483518184028101840190945280845260609392830182828015611f7057602002820191906000526020600020905b815481526020019060010190808311611f5c575b50505050509050919050565b60155460009060ff1615611f905750600290565b4260065410611f9f5750600090565b42611fa8612746565b10611fb35750600390565b42611fbc611508565b10611fc75750600190565b50600490565b6004546060906001600160a01b03163314611ffb57604051637d1cb2b160e01b815260040160405180910390fd5b6004612005611f7c565b600481111561201657612016614bcc565b148061203a57506002612027611f7c565b600481111561203857612038614bcc565b145b1561205857604051635b0747e760e01b815260040160405180910390fd5b6002611f138382614d4f565b80516001600160a01b031633146120a257805160405163fbbf4d7f60e01b81526001600160a01b039091166004820152336024820152604401611d4f565b60005b6120b160006001614e24565b8110156121925760008180156120c9576120c9614bcc565b905060008180156120dc576120dc614bcc565b036121645760608301515151600a101561210957604051631e38b1b160e11b815260040160405180910390fd5b600a8360600151602001515111156121345760405163a3b7dd7760e01b815260040160405180910390fd5b600a83606001516040015151111561215f5760405163f696406560e01b815260040160405180910390fd5b61217f565b8060405163d2277d4960e01b8152600401611d4f9190614e85565b508061218a81614e4d565b9150506120a5565b508060400151516000036121b95760405163e182473360e01b815260040160405180910390fd5b50565b6121c46141b1565b600082815260166020908152604091829020825160808101845281546001600160a01b0381168252600160a01b900460ff16151592810192909252600181018054929391929184019161221690614cc7565b80601f016020809104026020016040519081016040528092919081815260200182805461224290614cc7565b801561228f5780601f106122645761010080835404028352916020019161228f565b820191906000526020600020905b81548152906001019060200180831161227257829003601f168201915b50505050508152602001600282016040518060600160405290816000820180548060200260200160405190810160405280929190818152602001828054801561230157602002820191906000526020600020905b81546001600160a01b031681526001909101906020018083116122e3575b5050505050815260200160018201805480602002602001604051908101604052809291908181526020016000905b828210156123db57838290600052602060002001805461234e90614cc7565b80601f016020809104026020016040519081016040528092919081815260200182805461237a90614cc7565b80156123c75780601f1061239c576101008083540402835291602001916123c7565b820191906000526020600020905b8154815290600101906020018083116123aa57829003601f168201915b50505050508152602001906001019061232f565b5050505081526020016002820180548060200260200160405190810160405280929190818152602001828054801561243257602002820191906000526020600020905b81548152602001906001019080831161241e575b5050509190925250505090525092915050565b60006001612451611f7c565b600481111561246257612462614bcc565b146124805760405163a6f7b85360e01b815260040160405180910390fd5b6000600d54801561249357612493614bcc565b80156124a1576124a1614bcc565b036125af576000603c6124b2612746565b6124bd906001614e24565b6124c79042614e72565b6124d19190614eaf565b9050600061253e61252a6124f36124f085670de0b6b3a7640000614ed1565b90565b61252561250f600854670de0b6b3a76400006124f09190614ed1565b6125256124f0603c670de0b6b3a7640000614ed1565b6131c7565b68056bc75e2d631000006131df565b6131df565b9050600061256082612539612552600e5490565b670de0b6b3a76400006131c7565b9050600061256d826131ee565b905060006125896124f0612583612552600c5490565b846131df565b905064e8d4a5100061259b8183614eaf565b6125a59190614ed1565b9550505050505090565b50600c5490565b60606000601380548060200260200160405190810160405280929190818152602001828054801561260657602002820191906000526020600020905b8154815260200190600101908083116125f2575b50505050509050600081516001600160401b038111156126285761262861456e565b604051908082528060200260200182016040528015612651578160200160208202803683370190505b50905060005b82518110156126df576016600084838151811061267657612676614e37565b6020026020010151815260200190815260200160002060000160009054906101000a90046001600160a01b03168282815181106126b5576126b5614e37565b6001600160a01b0390921660209283029190910190910152806126d781614e4d565b915050612657565b5092915050565b6000818152601d602052604081205460011461271557604051633832a15560e21b815260040160405180910390fd5b6000828152601d60205260408120805490919061273457612734614e37565b90600052602060002001549050919050565b600060075460065461151f9190614e24565b6060601f805480602002602001604051908101604052809291908181526020018280548015611381576020028201919060005260206000209081548152602001906001019080831161136d575050505050905090565b6004546001600160a01b031633148015906127dd57503373dc652c746a8f85e18ce632d97c6118e8a52fa73814155b156127fb57604051637601acaf60e11b815260040160405180910390fd5b60155460ff161561281f57604051636f79584d60e01b815260040160405180910390fd5b601a54156001146128435760405163043d8d1b60e21b815260040160405180910390fd5b6015805460ff191660011790556040517f4cd963a081760a54f571abc0f1db4dde31b4a07d8d6da3e844b8c6f47eeaaa4290600090a1565b60606012805480602002602001604051908101604052809291908181526020018280548015611381576020028201919060005260206000209081548152602001906001019080831161136d575050505050905090565b60036128db611f7c565b60048111156128ec576128ec614bcc565b1461290a5760405163554806bb60e11b815260040160405180910390fd5b60005b818110156129fe57600083838381811061292957612929614e37565b60045460209190910292909201359250506001600160a01b0316331480159061296957506000818152601660205260409020546001600160a01b03163314155b156129875760405163018db70560e11b815260040160405180910390fd5b60008181526014602052604090205460ff166129eb576000818152601460205260408120805460ff191660019081179091556013805491820181559091527f66de8ffda797e3de9c05e8fc57b3bf0ec28a930d40b0d285d93c06501cf6a090018190555b50806129f681614e4d565b91505061290d565b507f75a75cf5c561892f4cc5b26c1b8e933849b42238c96dd073d080d1ae96c514166012604051611dfe9190614ee8565b6004546001600160a01b03163314612a5a57604051630f4cb1bd60e11b815260040160405180910390fd5b601e546001600160a01b031615612a8457604051630ff4b80b60e01b815260040160405180910390fd5b306001600160a01b0316816001600160a01b031663f3f44fb76040518163ffffffff1660e01b8152600401602060405180830381865afa158015612acc573d6000803e3d6000fd5b505050506040513d601f19601f82011682018060405250810190612af09190614f23565b6001600160a01b031614612b1757604051635b310aaf60e01b815260040160405180910390fd5b601e80546001600160a01b038381166001600160a01b031983168117909355604080519190921680825260208201939093527f753a2cf8d360cff631674504210913e48247f8e56b3e6d2006c2103d4095999f9101611dfe565b601f818154811061115657600080fd5b602260205281600052604060002081815481106118e157600080fd5b6000818152601d6020908152604091829020805483518184028101840190945280845260609392830182828015611f705760200282019190600052602060002090815481526020019060010190808311611f5c5750505050509050919050565b6000806001846001811115612c1457612c14614bcc565b03612c6d57670de0b6b3a7640000831015612c42576040516346ddb8d160e01b815260040160405180910390fd5b612c54670de0b6b3a764000084614eaf565b612c5c612445565b612c669190614ed1565b9050612c71565b5060005b8034146119d6576040516372c3eaa760e01b815234600482015260248101829052604401611d4f565b80156121b95760006064600b546064612cb39190614e72565b612cbd9034614ed1565b612cc79190614eaf565b90508015612dcd576000600f54600114612ce2576000612ced565b612ced600283614eaf565b90508015612d5257600454612d0b906001600160a01b031682613244565b600454604080516001600160a01b039092168252602082018390527f6dff55337c8458ae8c536a63869a48bc33541733422a796390c131d91f4238ed910160405180910390a15b601054612d71906001600160a01b0316612d6c8385614e72565b613244565b6010547f9df63d1c00d2e332f573be591c0579caafb256b2c5a17abcc8ad471cccda1b81906001600160a01b0316612da98385614e72565b604080516001600160a01b03909316835260208301919091520160405180910390a1505b6000612dd98234614e72565b90508015612e5157612dfc612df6601e546001600160a01b031690565b82613244565b7f2c7d70ceb5af79cc37f1832a7908bad1815c2d634ae0f5480dac8eaecddc2e67612e2f601e546001600160a01b031690565b604080516001600160a01b039092168252602082018490520160405180910390a15b505050565b60006001612e62611f7c565b6004811115612e7357612e73614bcc565b14612e915760405163f569a2b960e01b815260040160405180910390fd5b81600003612eb25760405163502e1c2960e01b815260040160405180910390fd5b612ebd84848461335d565b601980546001810182556000919091527f944998273e477b495144fb8794c914197f3ccb46be2900f4698fd0ef743c96950180546001600160a01b0319163317905560408051858152602081018490526001600160a01b038516917fb4cfecf70861b7b150d8337780d34fb4cbc2114b5fb1fe51a5c5fca1849f7274910160405180910390a25092915050565b60006003612f56611f7c565b6004811115612f6757612f67614bcc565b14612f855760405163152839c360e31b815260040160405180910390fd5b6009543360009081526017602052604090205403612fbc57600954604051632bd6d93960e21b8152600401611d4f91815260200190565b600a54601354601254612fcf9190614e72565b03612ff357600a546040516302217f5360e51b8152600401611d4f91815260200190565b6000612ffe83611c61565b600081815260166020526040902054909150600160a01b900460ff161561303b5760405163baffc42360e01b815260048101829052602401611d4f565b6012805460018181019092557fbb8a6a4669ba250d26cd7a459eca9d215f8307e33aebe50379bc5a3617ec34440182905560008281526016602090815260409182902086518154928801511515600160a01b026001600160a81b03199093166001600160a01b03909116179190911781559085015185928201906130bf9082614d4f565b5060608201518051805160028401916130dd91839160200190614205565b5060208281015180516130f6926001850192019061426a565b50604082015180516131129160028401916020909101906142bc565b505033600090815260176020526040812080546001955090935090915061313a908490614e24565b9091555050601880546001810182556000919091527fb13d2d76d1f4b7be834882e410b3e3a8afaf69f83600ae24db354391d2378d2e0180546001600160a01b0319163390811790915560408085015190517f7585f467599d0f008985f231af99293be388626ac16ca59505c2f8f88969cd63926131b9928592614f40565b60405180910390a192915050565b60006119d66124f084670de0b6b3a76400008561349e565b60006119d66124f08484613572565b600081680a688906bd8affffff81111561321e5760405163b3b6ba1f60e01b815260048101849052602401611d4f565b6000613236670de0b6b3a7640000604084901b614eaf565b90506115796124f082613628565b804710156132945760405162461bcd60e51b815260206004820152601d60248201527f416464726573733a20696e73756666696369656e742062616c616e63650000006044820152606401611d4f565b6000826001600160a01b03168260405160006040518083038185875af1925050503d80600081146132e1576040519150601f19603f3d011682016040523d82523d6000602084013e6132e6565b606091505b5050905080612e515760405162461bcd60e51b815260206004820152603a60248201527f416464726573733a20756e61626c6520746f2073656e642076616c75652c207260448201527f6563697069656e74206d617920686176652072657665727465640000000000006064820152608401611d4f565b6000838152601c602090815260408083206001600160a01b038616845260028101909252822054815491929015918491849161339a908490614e24565b90915550506001600160a01b0384166000908152600283016020526040812080548592906133c9908490614e24565b90915550508015613404576001828101805491820181556000908152602090200180546001600160a01b0319166001600160a01b0386161790555b6001600160a01b0384166000908152601b60205260408120805485929061342c908490614e24565b9250508190555082601a60008282546134459190614e24565b9091555050815460006134588583614e72565b9050801561346a5761346a8782613d88565b6000828152601d60209081526040822080546001810182559083529120018790556134958183613ebf565b50505050505050565b60008080600019858709858702925082811083820303915050806000036134d8578382816134ce576134ce614e99565b04925050506119d6565b83811061350957604051630c740aef60e31b8152600481018790526024810186905260448101859052606401611d4f565b60008486880960026001871981018816978890046003810283188082028403028082028403028082028403028082028403028082028403029081029092039091026000889003889004909101858311909403939093029303949094049190911702949350505050565b60008080600019848609848602925082811083820303915050806000036135a65750670de0b6b3a764000090049050611502565b670de0b6b3a764000081106135d857604051635173648d60e01b81526004810186905260248101859052604401611d4f565b6000670de0b6b3a764000085870962040000818503049310909103600160ee1b02919091177faccb18165bd6fe31ae1cf318dc5b51eee0e1ba569b88cd74c1773b91fac106690291505092915050565b600160bf1b67ff000000000000008216156137355767800000000000000082161561365c5768016a09e667f3bcc9090260401c5b67400000000000000082161561367b576801306fe0a31b7152df0260401c5b67200000000000000082161561369a576801172b83c7d517adce0260401c5b6710000000000000008216156136b95768010b5586cf9890f62a0260401c5b6708000000000000008216156136d8576801059b0d31585743ae0260401c5b6704000000000000008216156136f757680102c9a3e778060ee70260401c5b6702000000000000008216156137165768010163da9fb33356d80260401c5b67010000000000000082161561373557680100b1afa5abcbed610260401c5b66ff0000000000008216156138345766800000000000008216156137625768010058c86da1c09ea20260401c5b6640000000000000821615613780576801002c605e2e8cec500260401c5b662000000000000082161561379e57680100162f3904051fa10260401c5b66100000000000008216156137bc576801000b175effdc76ba0260401c5b66080000000000008216156137da57680100058ba01fb9f96d0260401c5b66040000000000008216156137f85768010002c5cc37da94920260401c5b6602000000000000821615613816576801000162e525ee05470260401c5b66010000000000008216156138345768010000b17255775c040260401c5b65ff000000000082161561392a576580000000000082161561385f576801000058b91b5bc9ae0260401c5b6540000000000082161561387c57680100002c5c89d5ec6d0260401c5b652000000000008216156138995768010000162e43f4f8310260401c5b651000000000008216156138b657680100000b1721bcfc9a0260401c5b650800000000008216156138d35768010000058b90cf1e6e0260401c5b650400000000008216156138f0576801000002c5c863b73f0260401c5b6502000000000082161561390d57680100000162e430e5a20260401c5b6501000000000082161561392a576801000000b1721835510260401c5b64ff00000000821615613a175764800000000082161561395357680100000058b90c0b490260401c5b64400000000082161561396f5768010000002c5c8601cc0260401c5b64200000000082161561398b576801000000162e42fff00260401c5b6410000000008216156139a75768010000000b17217fbb0260401c5b6408000000008216156139c3576801000000058b90bfce0260401c5b6404000000008216156139df57680100000002c5c85fe30260401c5b6402000000008216156139fb5768010000000162e42ff10260401c5b640100000000821615613a1757680100000000b17217f80260401c5b63ff000000821615613afb576380000000821615613a3e5768010000000058b90bfc0260401c5b6340000000821615613a59576801000000002c5c85fe0260401c5b6320000000821615613a7457680100000000162e42ff0260401c5b6310000000821615613a8f576801000000000b17217f0260401c5b6308000000821615613aaa57680100000000058b90c00260401c5b6304000000821615613ac55768010000000002c5c8600260401c5b6302000000821615613ae0576801000000000162e4300260401c5b6301000000821615613afb5768010000000000b172180260401c5b62ff0000821615613bd65762800000821615613b20576801000000000058b90c0260401c5b62400000821615613b3a57680100000000002c5c860260401c5b62200000821615613b545768010000000000162e430260401c5b62100000821615613b6e57680100000000000b17210260401c5b62080000821615613b885768010000000000058b910260401c5b62040000821615613ba2576801000000000002c5c80260401c5b62020000821615613bbc57680100000000000162e40260401c5b62010000821615613bd6576801000000000000b1720260401c5b61ff00821615613ca857618000821615613bf957680100000000000058b90260401c5b614000821615613c125768010000000000002c5d0260401c5b612000821615613c2b576801000000000000162e0260401c5b611000821615613c445768010000000000000b170260401c5b610800821615613c5d576801000000000000058c0260401c5b610400821615613c7657680100000000000002c60260401c5b610200821615613c8f57680100000000000001630260401c5b610100821615613ca857680100000000000000b10260401c5b60ff821615613d71576080821615613cc957680100000000000000590260401c5b6040821615613ce1576801000000000000002c0260401c5b6020821615613cf957680100000000000000160260401c5b6010821615613d11576801000000000000000b0260401c5b6008821615613d2957680100000000000000060260401c5b6004821615613d4157680100000000000000030260401c5b6002821615613d5957680100000000000000010260401c5b6001821615613d7157680100000000000000010260401c5b670de0b6b3a76400000260409190911c60bf031c90565b6000818152601d6020908152604080832080548251818502810185019093528083529192909190830182828015613dde57602002820191906000526020600020905b815481526020019060010190808311613dca575b5050505050905060005b8151811015613eb95783828281518110613e0457613e04614e37565b602002602001015103613ea7578160018351613e209190614e72565b81518110613e3057613e30614e37565b6020026020010151601d60008581526020019081526020016000208281548110613e5c57613e5c614e37565b9060005260206000200181905550601d6000848152602001908152602001600020805480613e8c57613e8c614f6a565b60019003818190600052602060002001600090559055613eb9565b80613eb181614e4d565b915050613de8565b50505050565b60018054604080516020808402820181019092528281529192600092918490830182828015613f0d57602002820191906000526020600020905b815481526020019060010190808311613ef9575b5050505050905081600003613f535750506001805480820182556000919091527fb10e2d527612073b26eecdfd717e6a320cf44b4afac2b0732d9fcbe2b7fa0cf6015550565b80613f5f600184614e72565b81518110613f6f57613f6f614e37565b6020026020010151831015613fc4576000548203613f8d5750505050565b50506001805480820182556000919091527fb10e2d527612073b26eecdfd717e6a320cf44b4afac2b0732d9fcbe2b7fa0cf6015550565b613eb9848484846000805b8381101561403957828181518110613fe957613fe9614e37565b60200260200101518503613ffe575050613eb9565b82818151811061401057614010614e37565b602002602001015185111561402757809150614039565b8061403181614e4d565b915050613fcf565b506000808611801561405757506000868152601d6020526040902054155b9050600081801561408057508684848151811061407657614076614e37565b6020026020010151145b6141885761408f600186614e72565b83146141375760006140a2846001614e24565b90505b8581101561413557846140b9600183614e72565b815181106140c9576140c9614e37565b6020026020010151600182815481106140e4576140e4614e37565b60009182526020909120015582801561411557508785828151811061410b5761410b614e37565b6020026020010151145b156141235760019150614135565b8061412d81614e4d565b9150506140a5565b505b80158015614146575060005485105b15614188576001846141588288614e72565b8151811061416857614168614e37565b602090810291909101810151825460018101845560009384529190922001555b856001848154811061419c5761419c614e37565b60009182526020909120015550505050505050565b604051806080016040528060006001600160a01b031681526020016000151581526020016060815260200161420060405180606001604052806060815260200160608152602001606081525090565b905290565b82805482825590600052602060002090810192821561425a579160200282015b8281111561425a57825182546001600160a01b0319166001600160a01b03909116178255602090920191600190910190614225565b506142669291506142f7565b5090565b8280548282559060005260206000209081019282156142b0579160200282015b828111156142b057825182906142a09082614d4f565b509160200191906001019061428a565b5061426692915061430c565b82805482825590600052602060002090810192821561425a579160200282015b8281111561425a5782518255916020019190600101906142dc565b5b8082111561426657600081556001016142f8565b808211156142665760006143208282614329565b5060010161430c565b50805461433590614cc7565b6000825580601f10614345575050565b601f0160209004906000526020600020908101906121b991906142f7565b60006020828403121561437557600080fd5b5035919050565b6000815180845260005b818110156143a257602081850181015186830182015201614386565b506000602082860101526020601f19601f83011685010191505092915050565b600081518084526020808501945080840160005b838110156143f2578151875295820195908201906001016143d6565b509495945050505050565b805160608084528151908401819052600091602091908201906080860190845b818110156144425783516001600160a01b03168352928401929184019160010161441d565b505084830151868203878501528051808352908401925081840190600581901b8301850160005b8281101561449757601f1985830301845261448582875161437c565b95870195938701939150600101614469565b506040880151955088810360408a01526144b181876143c2565b9998505050505050505050565b6001600160a01b038516815283151560208201526080604082018190526000906144ea9083018561437c565b82810360608401526144fc81856143fd565b979650505050505050565b6020815260006119d6602083018461437c565b6020815260018060a01b03825116602082015260208201516040820152604082015160608201526000606083015160808084015261157960a084018261437c565b6020815260006119d660208301846143c2565b634e487b7160e01b600052604160045260246000fd5b604051608081016001600160401b03811182821017156145a6576145a661456e565b60405290565b604051606081016001600160401b03811182821017156145a6576145a661456e565b604051601f8201601f191681016001600160401b03811182821017156145f6576145f661456e565b604052919050565b600082601f83011261460f57600080fd5b81356001600160401b038111156146285761462861456e565b61463b601f8201601f19166020016145ce565b81815284602083860101111561465057600080fd5b816020850160208301376000918101602001919091529392505050565b6000806040838503121561468057600080fd5b8235915060208301356001600160401b0381111561469d57600080fd5b6146a9858286016145fe565b9150509250929050565b600080604083850312156146c657600080fd5b50508035926020909101359150565b6020808252825182820181905260009190848201906040850190845b818110156147165783516001600160a01b0316835292840192918401916001016146f1565b50909695505050505050565b6001600160a01b03811681146121b957600080fd5b60006020828403121561474957600080fd5b81356001600160401b038082111561476057600080fd5b908301906080828603121561477457600080fd5b61477c614584565b823561478781614722565b8082525060208301356020820152604083013560408201526060830135828111156147b157600080fd5b6147bd878286016145fe565b60608301525095945050505050565b6040815260006147df60408301856143c2565b82810360208401526147f181856143c2565b95945050505050565b6000806040838503121561480d57600080fd5b82359150602083013561481f81614722565b809150509250929050565b60006020828403121561483c57600080fd5b81356119d681614722565b60006020828403121561485957600080fd5b81356001600160401b0381111561486f57600080fd5b8201608081850312156119d657600080fd5b60018060a01b03851681528360208201528260408201526080606082015260006148ae608083018461437c565b9695505050505050565b60006001600160401b038211156148d1576148d161456e565b5060051b60200190565b600082601f8301126148ec57600080fd5b813560206149016148fc836148b8565b6145ce565b82815260059290921b8401810191818101908684111561492057600080fd5b8286015b8481101561495f5780356001600160401b038111156149435760008081fd5b6149518986838b01016145fe565b845250918301918301614924565b509695505050505050565b600082601f83011261497b57600080fd5b8135602061498b6148fc836148b8565b82815260059290921b840181019181810190868411156149aa57600080fd5b8286015b8481101561495f57803583529183019183016149ae565b6000608082840312156149d757600080fd5b6149df614584565b905081356149ec81614722565b81526020828101358015158114614a0257600080fd5b8282015260408301356001600160401b0380821115614a2057600080fd5b614a2c868387016145fe565b60408501526060850135915080821115614a4557600080fd5b9084019060608287031215614a5957600080fd5b614a616145ac565b823582811115614a7057600080fd5b8301601f81018813614a8157600080fd5b8035614a8f6148fc826148b8565b81815260059190911b8201860190868101908a831115614aae57600080fd5b928701925b82841015614ad5578335614ac681614722565b82529287019290870190614ab3565b84525050508284013582811115614aeb57600080fd5b614af7888286016148db565b85830152506040830135935081841115614b1057600080fd5b614b1c8785850161496a565b604082015260608501525091949350505050565b600060208284031215614b4257600080fd5b81356001600160401b03811115614b5857600080fd5b611579848285016149c5565b600060208284031215614b7657600080fd5b81356001600160401b03811115614b8c57600080fd5b6115798482850161496a565b600060208284031215614baa57600080fd5b81356001600160401b03811115614bc057600080fd5b611579848285016145fe565b634e487b7160e01b600052602160045260246000fd5b6020810160058310614bf657614bf6614bcc565b91905290565b6020815260018060a01b0382511660208201526020820151151560408201526000604083015160806060840152614c3660a084018261437c565b90506060840151601f198483030160808501526147f182826143fd565b60008060208385031215614c6657600080fd5b82356001600160401b0380821115614c7d57600080fd5b818501915085601f830112614c9157600080fd5b813581811115614ca057600080fd5b8660208260051b8501011115614cb557600080fd5b60209290920196919550909350505050565b600181811c90821680614cdb57607f821691505b602082108103614cfb57634e487b7160e01b600052602260045260246000fd5b50919050565b601f821115612e5157600081815260208120601f850160051c81016020861015614d285750805b601f850160051c820191505b81811015614d4757828155600101614d34565b505050505050565b81516001600160401b03811115614d6857614d6861456e565b614d7c81614d768454614cc7565b84614d01565b602080601f831160018114614db15760008415614d995750858301515b600019600386901b1c1916600185901b178555614d47565b600085815260208120601f198616915b82811015614de057888601518255948401946001909101908401614dc1565b5085821015614dfe5787850151600019600388901b60f8161c191681555b5050505050600190811b01905550565b634e487b7160e01b600052601160045260246000fd5b8082018082111561150257611502614e0e565b634e487b7160e01b600052603260045260246000fd5b600060018201614e5f57614e5f614e0e565b5060010190565b600061150236836149c5565b8181038181111561150257611502614e0e565b6020810160018310614bf657614bf6614bcc565b634e487b7160e01b600052601260045260246000fd5b600082614ecc57634e487b7160e01b600052601260045260246000fd5b500490565b808202811582820484141761150257611502614e0e565b6020808252825482820181905260008481528281209092916040850190845b8181101561471657835483526001938401939285019201614f07565b600060208284031215614f3557600080fd5b81516119d681614722565b8381526001600160a01b03831660208201526060604082018190526000906147f19083018461437c565b634e487b7160e01b600052603160045260246000fdfea264697066735822122054eb885dd4b2cf8c59a0344da66a39623dc8cef5b9cf99a2ed90dfaaf502e58664736f6c63430008130033","linkReferences":{}},"methodIdentifiers":{"AMOUNT_FOR_SUMBITTER_PROOF()":"347cf665","COST_ROUNDING_VALUE()":"e269cefe","JK_LABS_ADDRESS()":"eef18e17","MAX_FIELDS_METADATA_LENGTH()":"b382543f","METADATAS_COUNT()":"4d24a67f","PRICE_CURVE_UPDATE_INTERVAL()":"fd7971c9","SECONDS_IN_DAY()":"61a52a36","addressTotalCastVoteCount(address)":"dda54fcf","addressesThatHaveVoted(uint256)":"50c4b616","allProposalTotalVotes()":"50a5e524","anyoneCanSubmit()":"5358b80e","cancel()":"ea8a1af0","canceled()":"3f9942ff","castVote(uint256,uint256)":"2c0a3f89","comment(uint256,string)":"1805c523","commentIds(uint256)":"f5c36411","commentIsDeleted(uint256)":"ae66b8ad","comments(uint256)":"8ebb4c15","contestAddressTotalVotesCast(address)":"aec116b6","contestDeadline()":"262e59e9","contestStart()":"004114a8","costToVote()":"51a41dec","creator()":"02d05d3f","creatorSplitEnabled()":"9decae31","currentPricePerVote()":"ca09a4c4","deleteComments(uint256[])":"ac67f801","deleteProposals(uint256[])":"f0a7db0a","deletedCommentIds(uint256)":"3fb57c92","deletedProposalIds(uint256)":"05846cae","getAllAddressesThatHaveVoted()":"2c39805f","getAllAuthorsOfDeletedProposals()":"cbdc27cb","getAllCommentIds()":"e11db9d8","getAllDeletedCommentIds()":"5cb718a1","getAllDeletedProposalIds()":"1242b737","getAllProposalAuthors()":"946369b5","getAllProposalIds()":"efa90d36","getComment(uint256)":"0800e300","getNumProposalsWithThisManyVotes(uint256)":"bc022c98","getOnlyProposalIdWithThisManyVotes(uint256)":"d576b81d","getProposal(uint256)":"c7f758a8","getProposalComments(uint256)":"c05f4104","getProposalsWithThisManyVotes(uint256)":"f82e54c0","getRankIndex(uint256)":"5c7107d8","getSortedRanks()":"6fd3636b","hashComment((address,uint256,uint256,string))":"409fd030","hashProposal((address,bool,string,(address[],string[],uint256[])))":"a119278b","isOrIsBelowTiedRank(uint256)":"9174778c","jkLabsSplitDestination()":"102613d8","maxProposalCount()":"fb9bf8d4","metadataFieldsSchema()":"60ed97a9","multiple()":"437a8ae6","name()":"06fdde03","numAllowedProposalSubmissions()":"832009af","numSubmissions(address)":"75e509c5","officialRewardsModule()":"785ddfe5","percentageToRewards()":"06b2193f","priceCurveType()":"4a2c96ec","prompt()":"7c65d711","proposalAddressVotes(uint256,address)":"6e4eb810","proposalAddressesHaveVoted(uint256)":"b323580d","proposalAuthors(uint256)":"0aa25e44","proposalComments(uint256,uint256)":"f61736f4","proposalIds(uint256)":"9b644a23","proposalIsDeleted(uint256)":"f79c0172","proposalVoteStructs(uint256)":"15dee7cd","proposalVotes(uint256)":"544ffc9c","proposals(uint256)":"013cf08b","propose((address,bool,string,(address[],string[],uint256[])))":"8225c11d","rankLimit()":"0414126a","setJkLabsSplitDestination(address)":"9b338aa0","setName(string)":"c47f0027","setOfficialRewardsModule(address)":"f4f3d7ec","setPrompt(string)":"b4ac024f","sortedRanks(uint256)":"325cc6d9","state()":"c19d93fb","totalVotesCast()":"7de418d5","totalVotesCastIsZero()":"7d742925","validateProposalData((address,bool,string,(address[],string[],uint256[])))":"c7f252d7","verifyProposer()":"476106c8","version()":"54fd4d50","voteStart()":"e031535b","votesToProposalIds(uint256,uint256)":"6d030621","votingDelay()":"3932abb1","votingPeriod()":"02a251a3"},"id":52}